Component: ARM Compiler 5.06 update 5 (build 528) Tool: armlink [4d35e2]

==============================================================================

Section Cross References

    startup_stm32h750xx.o(RESET) refers to startup_stm32h750xx.o(STACK) for __initial_sp
    startup_stm32h750xx.o(RESET) refers to startup_stm32h750xx.o(.text) for Reset_Handler
    startup_stm32h750xx.o(RESET) refers to stm32h7xx_it.o(i.NMI_Handler) for NMI_Handler
    startup_stm32h750xx.o(RESET) refers to stm32h7xx_it.o(i.HardFault_Handler) for HardFault_Handler
    startup_stm32h750xx.o(RESET) refers to stm32h7xx_it.o(i.MemManage_Handler) for MemManage_Handler
    startup_stm32h750xx.o(RESET) refers to stm32h7xx_it.o(i.BusFault_Handler) for BusFault_Handler
    startup_stm32h750xx.o(RESET) refers to stm32h7xx_it.o(i.UsageFault_Handler) for UsageFault_Handler
    startup_stm32h750xx.o(RESET) refers to stm32h7xx_it.o(i.SVC_Handler) for SVC_Handler
    startup_stm32h750xx.o(RESET) refers to stm32h7xx_it.o(i.DebugMon_Handler) for DebugMon_Handler
    startup_stm32h750xx.o(RESET) refers to stm32h7xx_it.o(i.PendSV_Handler) for PendSV_Handler
    startup_stm32h750xx.o(RESET) refers to stm32h7xx_it.o(i.SysTick_Handler) for SysTick_Handler
    startup_stm32h750xx.o(RESET) refers to stm32h7xx_it.o(i.SDMMC1_IRQHandler) for SDMMC1_IRQHandler
    startup_stm32h750xx.o(RESET) refers to stm32h7xx_it.o(i.DMA2_Stream7_IRQHandler) for DMA2_Stream7_IRQHandler
    startup_stm32h750xx.o(RESET) refers to stm32h7xx_it.o(i.DCMI_IRQHandler) for DCMI_IRQHandler
    startup_stm32h750xx.o(RESET) refers to stm32h7xx_it.o(i.OTG_FS_IRQHandler) for OTG_FS_IRQHandler
    startup_stm32h750xx.o(.text) refers to system_stm32h7xx.o(i.SystemInit) for SystemInit
    startup_stm32h750xx.o(.text) refers to entry.o(.ARM.Collect$$$$00000000) for __main
    main.o(i.MPU_Config) refers to stm32h7xx_hal_cortex.o(i.HAL_MPU_Disable) for HAL_MPU_Disable
==============================================================================

Removing Unused input sections from the image.

    Removing startup_stm32h750xx.o(HEAP), (512 bytes).
    Removing main.o(.rev16_text), (4 bytes).
    Removing main.o(.revsh_text), (4 bytes).
    Removing main.o(.rrx_text), (6 bytes).
    Removing gpio.o(.rev16_text), (4 bytes).
    Removing gpio.o(.revsh_text), (4 bytes).
    Removing gpio.o(.rrx_text), (6 bytes).
    Removing dcmi.o(.rev16_text), (4 bytes).
    Removing dcmi.o(.revsh_text), (4 bytes).
    Removing dcmi.o(.rrx_text), (6 bytes).
    Removing dcmi.o(i.OV2640_DCMI_Resume), (24 bytes).
    Removing dcmi.o(i.OV2640_DCMI_Stop), (12 bytes).
    Removing dcmi.o(i.OV2640_DCMI_Suspend), (12 bytes).
    Removing dcmi.o(i.OV2640_DMA_Transmit_Snapshot), (40 bytes).
    Removing dcmi.o(i.OV2640_Set_Brightness), (186 bytes).
    Removing dcmi.o(i.OV2640_Set_Contrast), (266 bytes).
    Removing dcmi.o(i.OV2640_Set_Effect), (108 bytes).
    Removing dcmi.o(i.OV2640_Set_Horizontal_Mirror), (42 bytes).
==============================================================================

Image Symbol Table

    Local Symbols

    Symbol Name                              Value     Ov Type        Size  Object(Section)

    ../Core/Src/dcmi.c                       0x00000000   Number         0  dcmi.o ABSOLUTE
    ../Core/Src/gpio.c                       0x00000000   Number         0  gpio.o ABSOLUTE
    ../Core/Src/main.c                       0x00000000   Number         0  main.o ABSOLUTE
    ../Core/Src/spi.c                        0x00000000   Number         0  spi.o ABSOLUTE
    ../Core/Src/stm32h7xx_hal_msp.c          0x00000000   Number         0  stm32h7xx_hal_msp.o ABSOLUTE
    ../Core/Src/stm32h7xx_it.c               0x00000000   Number         0  stm32h7xx_it.o ABSOLUTE
    ../Core/Src/system_stm32h7xx.c           0x00000000   Number         0  system_stm32h7xx.o ABSOLUTE
    ../Core/Src/usart.c                      0x00000000   Number         0  usart.o ABSOLUTE
    ../Drivers/STM32H7xx_HAL_Driver/Src/stm32h7xx_hal.c 0x00000000   Number         0  stm32h7xx_hal.o ABSOLUTE
    ../Drivers/STM32H7xx_HAL_Driver/Src/stm32h7xx_hal_cortex.c 0x00000000   Number         0  stm32h7xx_hal_cortex.o ABSOLUTE
    ../Drivers/STM32H7xx_HAL_Driver/Src/stm32h7xx_hal_dcmi.c 0x00000000   Number         0  stm32h7xx_hal_dcmi.o ABSOLUTE
    ../Drivers/STM32H7xx_HAL_Driver/Src/stm32h7xx_hal_dma.c 0x00000000   Number         0  stm32h7xx_hal_dma.o ABSOLUTE
    ../Drivers/STM32H7xx_HAL_Driver/Src/stm32h7xx_hal_dma_ex.c 0x00000000   Number         0  stm32h7xx_hal_dma_ex.o ABSOLUTE
    ../Drivers/STM32H7xx_HAL_Driver/Src/stm32h7xx_hal_exti.c 0x00000000   Number         0  stm32h7xx_hal_exti.o ABSOLUTE
    ../Drivers/STM32H7xx_HAL_Driver/Src/stm32h7xx_hal_flash.c 0x00000000   Number         0  stm32h7xx_hal_flash.o ABSOLUTE
    ../Drivers/STM32H7xx_HAL_Driver/Src/stm32h7xx_hal_flash_ex.c 0x00000000   Number         0  stm32h7xx_hal_flash_ex.o ABSOLUTE
    ../Drivers/STM32H7xx_HAL_Driver/Src/stm32h7xx_hal_gpio.c 0x00000000   Number         0  stm32h7xx_hal_gpio.o ABSOLUTE
    ../Drivers/STM32H7xx_HAL_Driver/Src/stm32h7xx_hal_hsem.c 0x00000000   Number         0  stm32h7xx_hal_hsem.o ABSOLUTE
    ../Drivers/STM32H7xx_HAL_Driver/Src/stm32h7xx_hal_i2c.c 0x00000000   Number         0  stm32h7xx_hal_i2c.o ABSOLUTE
    ../Drivers/STM32H7xx_HAL_Driver/Src/stm32h7xx_hal_i2c_ex.c 0x00000000   Number         0  stm32h7xx_hal_i2c_ex.o ABSOLUTE
    ../Drivers/STM32H7xx_HAL_Driver/Src/stm32h7xx_hal_mdma.c 0x00000000   Number         0  stm32h7xx_hal_mdma.o ABSOLUTE
    ../Drivers/STM32H7xx_HAL_Driver/Src/stm32h7xx_hal_pcd.c 0x00000000   Number         0  stm32h7xx_hal_pcd.o ABSOLUTE
    ../Drivers/STM32H7xx_HAL_Driver/Src/stm32h7xx_hal_pcd_ex.c 0x00000000   Number         0  stm32h7xx_hal_pcd_ex.o ABSOLUTE
    ../Drivers/STM32H7xx_HAL_Driver/Src/stm32h7xx_hal_pwr.c 0x00000000   Number         0  stm32h7xx_hal_pwr.o ABSOLUTE
    ../Drivers/STM32H7xx_HAL_Driver/Src/stm32h7xx_hal_pwr_ex.c 0x00000000   Number         0  stm32h7xx_hal_pwr_ex.o ABSOLUTE
    ../Drivers/STM32H7xx_HAL_Driver/Src/stm32h7xx_hal_qspi.c 0x00000000   Number         0  stm32h7xx_hal_qspi.o ABSOLUTE
    ../Drivers/STM32H7xx_HAL_Driver/Src/stm32h7xx_hal_rcc.c 0x00000000   Number         0  stm32h7xx_hal_rcc.o ABSOLUTE
    ../Drivers/STM32H7xx_HAL_Driver/Src/stm32h7xx_hal_rcc_ex.c 0x00000000   Number         0  stm32h7xx_hal_rcc_ex.o ABSOLUTE
    ../Drivers/STM32H7xx_HAL_Driver/Src/stm32h7xx_hal_rtc.c 0x00000000   Number         0  stm32h7xx_hal_rtc.o ABSOLUTE
    ../Drivers/STM32H7xx_HAL_Driver/Src/stm32h7xx_hal_rtc_ex.c 0x00000000   Number         0  stm32h7xx_hal_rtc_ex.o ABSOLUTE
    ../Drivers/STM32H7xx_HAL_Driver/Src/stm32h7xx_hal_sd.c 0x00000000   Number         0  stm32h7xx_hal_sd.o ABSOLUTE
    ../Drivers/STM32H7xx_HAL_Driver/Src/stm32h7xx_hal_sd_ex.c 0x00000000   Number         0  stm32h7xx_hal_sd_ex.o ABSOLUTE
    ../Drivers/STM32H7xx_HAL_Driver/Src/stm32h7xx_hal_spi.c 0x00000000   Number         0  stm32h7xx_hal_spi.o ABSOLUTE
    ../Drivers/STM32H7xx_HAL_Driver/Src/stm32h7xx_hal_spi_ex.c 0x00000000   Number         0  stm32h7xx_hal_spi_ex.o ABSOLUTE
    ../Drivers/STM32H7xx_HAL_Driver/Src/stm32h7xx_hal_tim.c 0x00000000   Number         0  stm32h7xx_hal_tim.o ABSOLUTE
    ../Drivers/STM32H7xx_HAL_Driver/Src/stm32h7xx_hal_tim_ex.c 0x00000000   Number         0  stm32h7xx_hal_tim_ex.o ABSOLUTE
    ../Drivers/STM32H7xx_HAL_Driver/Src/stm32h7xx_hal_uart.c 0x00000000   Number         0  stm32h7xx_hal_uart.o ABSOLUTE
    ../Drivers/STM32H7xx_HAL_Driver/Src/stm32h7xx_hal_uart_ex.c 0x00000000   Number         0  stm32h7xx_hal_uart_ex.o ABSOLUTE
    ../Drivers/STM32H7xx_HAL_Driver/Src/stm32h7xx_ll_delayblock.c 0x00000000   Number         0  stm32h7xx_ll_delayblock.o ABSOLUTE
    ../Drivers/STM32H7xx_HAL_Driver/Src/stm32h7xx_ll_sdmmc.c 0x00000000   Number         0  stm32h7xx_ll_sdmmc.o ABSOLUTE
    ../Drivers/STM32H7xx_HAL_Driver/Src/stm32h7xx_ll_usb.c 0x00000000   Number         0  stm32h7xx_ll_usb.o ABSOLUTE
    ../Middlewares/ST/STM32_USB_Device_Library/Class/CDC/Src/usbd_cdc.c 0x00000000   Number         0  usbd_cdc.o ABSOLUTE
    ../Middlewares/ST/STM32_USB_Device_Library/Core/Src/usbd_core.c 0x00000000   Number         0  usbd_core.o ABSOLUTE
    ../Middlewares/ST/STM32_USB_Device_Library/Core/Src/usbd_ctlreq.c 0x00000000   Number         0  usbd_ctlreq.o ABSOLUTE
    ../Middlewares/ST/STM32_USB_Device_Library/Core/Src/usbd_ioreq.c 0x00000000   Number         0  usbd_ioreq.o ABSOLUTE
    ../USB_DEVICE/App/usb_device.c           0x00000000   Number         0  usb_device.o ABSOLUTE
    ../USB_DEVICE/App/usbd_cdc_if.c          0x00000000   Number         0  usbd_cdc_if.o ABSOLUTE
    ../USB_DEVICE/App/usbd_desc.c            0x00000000   Number         0  usbd_desc.o ABSOLUTE
    ../USB_DEVICE/Target/usbd_conf.c         0x00000000   Number         0  usbd_conf.o ABSOLUTE
    ../clib/microlib/division.c              0x00000000   Number         0  uldiv.o ABSOLUTE
    ../clib/microlib/division.c              0x00000000   Number         0  uidiv.o ABSOLUTE
    ../clib/microlib/errno.c                 0x00000000   Number         0  errno.o ABSOLUTE
    ../clib/microlib/init/entry.s            0x00000000   Number         0  entry8b.o ABSOLUTE
    ../clib/microlib/init/entry.s            0x00000000   Number         0  entry7a.o ABSOLUTE
    ../clib/microlib/init/entry.s            0x00000000   Number         0  entry5.o ABSOLUTE
    ../clib/microlib/init/entry.s            0x00000000   Number         0  entry2.o ABSOLUTE
    ../clib/microlib/init/entry.s            0x00000000   Number         0  entry11b.o ABSOLUTE
    ../clib/microlib/init/entry.s            0x00000000   Number         0  entry9a.o ABSOLUTE
    ../clib/microlib/init/entry.s            0x00000000   Number         0  entry8a.o ABSOLUTE
    ../clib/microlib/init/entry.s            0x00000000   Number         0  entry7b.o ABSOLUTE
    ../clib/microlib/init/entry.s            0x00000000   Number         0  entry9b.o ABSOLUTE
    ../clib/microlib/init/entry.s            0x00000000   Number         0  entry.o ABSOLUTE
    ../clib/microlib/init/entry.s            0x00000000   Number         0  entry10a.o ABSOLUTE
    ../clib/microlib/init/entry.s            0x00000000   Number         0  entry10b.o ABSOLUTE
    ../clib/microlib/init/entry.s            0x00000000   Number         0  entry11a.o ABSOLUTE
    ../clib/microlib/longlong.c              0x00000000   Number         0  llshl.o ABSOLUTE
    ../clib/microlib/longlong.c              0x00000000   Number         0  llushr.o ABSOLUTE
    ../clib/microlib/longlong.c              0x00000000   Number         0  llsshr.o ABSOLUTE
    ../clib/microlib/printf/printf.c         0x00000000   Number         0  printf4.o ABSOLUTE
    ../clib/microlib/printf/printf.c         0x00000000   Number         0  printfa.o ABSOLUTE
    ../clib/microlib/printf/printf.c         0x00000000   Number         0  printf8.o ABSOLUTE
    ../clib/microlib/printf/printf.c         0x00000000   Number         0  printf0.o ABSOLUTE
    ../clib/microlib/printf/printf.c         0x00000000   Number         0  printfb.o ABSOLUTE
    ../clib/microlib/printf/printf.c         0x00000000   Number         0  printf1.o ABSOLUTE
    ../clib/microlib/printf/printf.c         0x00000000   Number         0  printf2.o ABSOLUTE
    ../clib/microlib/printf/printf.c         0x00000000   Number         0  printf3.o ABSOLUTE
    ../clib/microlib/printf/printf.c         0x00000000   Number         0  printf5.o ABSOLUTE
    ../clib/microlib/printf/printf.c         0x00000000   Number         0  printf6.o ABSOLUTE
    ../clib/microlib/printf/printf.c         0x00000000   Number         0  printf7.o ABSOLUTE
    ../clib/microlib/printf/stubs.s          0x00000000   Number         0  stubs.o ABSOLUTE
    ../clib/microlib/stdio/streams.c         0x00000000   Number         0  stdout.o ABSOLUTE
    ../clib/microlib/string/memcpy.c         0x00000000   Number         0  memcpyb.o ABSOLUTE
    ../clib/microlib/string/memcpy.c         0x00000000   Number         0  memcpya.o ABSOLUTE
    ../clib/microlib/string/memset.c         0x00000000   Number         0  memseta.o ABSOLUTE
    ../clib/microlib/stubs.s                 0x00000000   Number         0  iusefp.o ABSOLUTE
    ../fplib/microlib/fpadd.c                0x00000000   Number         0  dadd.o ABSOLUTE
    ../fplib/microlib/fpdiv.c                0x00000000   Number         0  ddiv.o ABSOLUTE
    ../fplib/microlib/fpepilogue.c           0x00000000   Number         0  depilogue.o ABSOLUTE
    ../fplib/microlib/fpfix.c                0x00000000   Number         0  dfixul.o ABSOLUTE
    ../fplib/microlib/fpmul.c                0x00000000   Number         0  dmul.o ABSOLUTE
    ../mathlib/atan.c                        0x00000000   Number         0  atan_x.o ABSOLUTE
    ../mathlib/atan.c                        0x00000000   Number         0  atan.o ABSOLUTE
    ../mathlib/atan2.c                       0x00000000   Number         0  atan2_x.o ABSOLUTE
    ../mathlib/atan2.c                       0x00000000   Number         0  atan2.o ABSOLUTE
    ../mathlib/cos.c                         0x00000000   Number         0  cos.o ABSOLUTE
    ../mathlib/cos.c                         0x00000000   Number         0  cos_x.o ABSOLUTE
    ../mathlib/cos_i.c                       0x00000000   Number         0  cos_i.o ABSOLUTE
    ../mathlib/dunder.c                      0x00000000   Number         0  dunder.o ABSOLUTE
    ../mathlib/fabs.c                        0x00000000   Number         0  fabs.o ABSOLUTE
    ../mathlib/fpclassify.c                  0x00000000   Number         0  fpclassify.o ABSOLUTE
    ../mathlib/poly.c                        0x00000000   Number         0  poly.o ABSOLUTE
    ../mathlib/qnan.c                        0x00000000   Number         0  qnan.o ABSOLUTE
    ../mathlib/rred.c                        0x00000000   Number         0  rred.o ABSOLUTE
    ../mathlib/sin.c                         0x00000000   Number         0  sin.o ABSOLUTE
    ../mathlib/sin.c                         0x00000000   Number         0  sin_x.o ABSOLUTE
    ../mathlib/sin_i.c                       0x00000000   Number         0  sin_i_x.o ABSOLUTE
    ../mathlib/sin_i.c                       0x00000000   Number         0  sin_i.o ABSOLUTE
    ..\Core\Src\dcmi.c                       0x00000000   Number         0  dcmi.o ABSOLUTE
    ..\Core\Src\gpio.c                       0x00000000   Number         0  gpio.o ABSOLUTE
    ..\Core\Src\main.c                       0x00000000   Number         0  main.o ABSOLUTE
    ..\Core\Src\spi.c                        0x00000000   Number         0  spi.o ABSOLUTE
    ..\Core\Src\stm32h7xx_hal_msp.c          0x00000000   Number         0  stm32h7xx_hal_msp.o ABSOLUTE
    ..\Core\Src\stm32h7xx_it.c               0x00000000   Number         0  stm32h7xx_it.o ABSOLUTE
    ..\Core\Src\system_stm32h7xx.c           0x00000000   Number         0  system_stm32h7xx.o ABSOLUTE
    ..\Core\Src\usart.c                      0x00000000   Number         0  usart.o ABSOLUTE
    ..\Drivers\Hare\Src\lcd_fonts.c          0x00000000   Number         0  lcd_fonts.o ABSOLUTE
    ..\Drivers\Hare\Src\lcd_image.c          0x00000000   Number         0  lcd_image.o ABSOLUTE
    ..\Drivers\Hare\Src\lcd_model.c          0x00000000   Number         0  lcd_model.o ABSOLUTE
    ..\Drivers\Hare\Src\sccb.c               0x00000000   Number         0  sccb.o ABSOLUTE
    ..\Drivers\STM32H7xx_HAL_Driver\Src\stm32h7xx_hal.c 0x00000000   Number         0  stm32h7xx_hal.o ABSOLUTE
    ..\Drivers\STM32H7xx_HAL_Driver\Src\stm32h7xx_hal_cortex.c 0x00000000   Number         0  stm32h7xx_hal_cortex.o ABSOLUTE
    ..\Drivers\STM32H7xx_HAL_Driver\Src\stm32h7xx_hal_dcmi.c 0x00000000   Number         0  stm32h7xx_hal_dcmi.o ABSOLUTE
    ..\Drivers\STM32H7xx_HAL_Driver\Src\stm32h7xx_hal_dma.c 0x00000000   Number         0  stm32h7xx_hal_dma.o ABSOLUTE
    ..\Drivers\STM32H7xx_HAL_Driver\Src\stm32h7xx_hal_dma_ex.c 0x00000000   Number         0  stm32h7xx_hal_dma_ex.o ABSOLUTE
    ..\Drivers\STM32H7xx_HAL_Driver\Src\stm32h7xx_hal_exti.c 0x00000000   Number         0  stm32h7xx_hal_exti.o ABSOLUTE
    ..\Drivers\STM32H7xx_HAL_Driver\Src\stm32h7xx_hal_flash.c 0x00000000   Number         0  stm32h7xx_hal_flash.o ABSOLUTE
    ..\Drivers\STM32H7xx_HAL_Driver\Src\stm32h7xx_hal_flash_ex.c 0x00000000   Number         0  stm32h7xx_hal_flash_ex.o ABSOLUTE
    ..\Drivers\STM32H7xx_HAL_Driver\Src\stm32h7xx_hal_gpio.c 0x00000000   Number         0  stm32h7xx_hal_gpio.o ABSOLUTE
    ..\Drivers\STM32H7xx_HAL_Driver\Src\stm32h7xx_hal_hsem.c 0x00000000   Number         0  stm32h7xx_hal_hsem.o ABSOLUTE
    ..\Drivers\STM32H7xx_HAL_Driver\Src\stm32h7xx_hal_i2c.c 0x00000000   Number         0  stm32h7xx_hal_i2c.o ABSOLUTE
    ..\Drivers\STM32H7xx_HAL_Driver\Src\stm32h7xx_hal_i2c_ex.c 0x00000000   Number         0  stm32h7xx_hal_i2c_ex.o ABSOLUTE
    ..\Drivers\STM32H7xx_HAL_Driver\Src\stm32h7xx_hal_mdma.c 0x00000000   Number         0  stm32h7xx_hal_mdma.o ABSOLUTE
    ..\Drivers\STM32H7xx_HAL_Driver\Src\stm32h7xx_hal_pcd.c 0x00000000   Number         0  stm32h7xx_hal_pcd.o ABSOLUTE
    ..\Drivers\STM32H7xx_HAL_Driver\Src\stm32h7xx_hal_pcd_ex.c 0x00000000   Number         0  stm32h7xx_hal_pcd_ex.o ABSOLUTE
    ..\Drivers\STM32H7xx_HAL_Driver\Src\stm32h7xx_hal_pwr.c 0x00000000   Number         0  stm32h7xx_hal_pwr.o ABSOLUTE
    ..\Drivers\STM32H7xx_HAL_Driver\Src\stm32h7xx_hal_pwr_ex.c 0x00000000   Number         0  stm32h7xx_hal_pwr_ex.o ABSOLUTE
    ..\Drivers\STM32H7xx_HAL_Driver\Src\stm32h7xx_hal_qspi.c 0x00000000   Number         0  stm32h7xx_hal_qspi.o ABSOLUTE
    ..\Drivers\STM32H7xx_HAL_Driver\Src\stm32h7xx_hal_rcc.c 0x00000000   Number         0  stm32h7xx_hal_rcc.o ABSOLUTE
    ..\Drivers\STM32H7xx_HAL_Driver\Src\stm32h7xx_hal_rcc_ex.c 0x00000000   Number         0  stm32h7xx_hal_rcc_ex.o ABSOLUTE
    ..\Drivers\STM32H7xx_HAL_Driver\Src\stm32h7xx_hal_rtc.c 0x00000000   Number         0  stm32h7xx_hal_rtc.o ABSOLUTE
    ..\Drivers\STM32H7xx_HAL_Driver\Src\stm32h7xx_hal_rtc_ex.c 0x00000000   Number         0  stm32h7xx_hal_rtc_ex.o ABSOLUTE
    ..\Drivers\STM32H7xx_HAL_Driver\Src\stm32h7xx_hal_sd.c 0x00000000   Number         0  stm32h7xx_hal_sd.o ABSOLUTE
    ..\Drivers\STM32H7xx_HAL_Driver\Src\stm32h7xx_hal_sd_ex.c 0x00000000   Number         0  stm32h7xx_hal_sd_ex.o ABSOLUTE
    ..\Drivers\STM32H7xx_HAL_Driver\Src\stm32h7xx_hal_spi.c 0x00000000   Number         0  stm32h7xx_hal_spi.o ABSOLUTE
    ..\Drivers\STM32H7xx_HAL_Driver\Src\stm32h7xx_hal_spi_ex.c 0x00000000   Number         0  stm32h7xx_hal_spi_ex.o ABSOLUTE
    ..\Drivers\STM32H7xx_HAL_Driver\Src\stm32h7xx_hal_tim.c 0x00000000   Number         0  stm32h7xx_hal_tim.o ABSOLUTE
    ..\Drivers\STM32H7xx_HAL_Driver\Src\stm32h7xx_hal_tim_ex.c 0x00000000   Number         0  stm32h7xx_hal_tim_ex.o ABSOLUTE
    ..\Drivers\STM32H7xx_HAL_Driver\Src\stm32h7xx_hal_uart.c 0x00000000   Number         0  stm32h7xx_hal_uart.o ABSOLUTE
    ..\Drivers\STM32H7xx_HAL_Driver\Src\stm32h7xx_hal_uart_ex.c 0x00000000   Number         0  stm32h7xx_hal_uart_ex.o ABSOLUTE
    ..\Drivers\STM32H7xx_HAL_Driver\Src\stm32h7xx_ll_delayblock.c 0x00000000   Number         0  stm32h7xx_ll_delayblock.o ABSOLUTE
    ..\Drivers\STM32H7xx_HAL_Driver\Src\stm32h7xx_ll_sdmmc.c 0x00000000   Number         0  stm32h7xx_ll_sdmmc.o ABSOLUTE
    ..\Drivers\STM32H7xx_HAL_Driver\Src\stm32h7xx_ll_usb.c 0x00000000   Number         0  stm32h7xx_ll_usb.o ABSOLUTE
    ..\Middlewares\ST\STM32_USB_Device_Library\Class\CDC\Src\usbd_cdc.c 0x00000000   Number         0  usbd_cdc.o ABSOLUTE
    ..\Middlewares\ST\STM32_USB_Device_Library\Core\Src\usbd_core.c 0x00000000   Number         0  usbd_core.o ABSOLUTE
    ..\Middlewares\ST\STM32_USB_Device_Library\Core\Src\usbd_ctlreq.c 0x00000000   Number         0  usbd_ctlreq.o ABSOLUTE
    ..\Middlewares\ST\STM32_USB_Device_Library\Core\Src\usbd_ioreq.c 0x00000000   Number         0  usbd_ioreq.o ABSOLUTE
    ..\USB_DEVICE\App\usb_device.c           0x00000000   Number         0  usb_device.o ABSOLUTE
    ..\USB_DEVICE\App\usbd_cdc_if.c          0x00000000   Number         0  usbd_cdc_if.o ABSOLUTE
    ..\USB_DEVICE\App\usbd_desc.c            0x00000000   Number         0  usbd_desc.o ABSOLUTE
    ..\USB_DEVICE\Target\usbd_conf.c         0x00000000   Number         0  usbd_conf.o ABSOLUTE
    ..\\Drivers\\Hare\\Src\\lcd_model.c      0x00000000   Number         0  lcd_model.o ABSOLUTE
    ..\\Drivers\\Hare\\Src\\sccb.c           0x00000000   Number         0  sccb.o ABSOLUTE
    cdrcmple.s                               0x00000000   Number         0  cdrcmple.o ABSOLUTE
    dc.s                                     0x00000000   Number         0  dc.o ABSOLUTE
    handlers.s                               0x00000000   Number         0  handlers.o ABSOLUTE
    init.s                                   0x00000000   Number         0  init.o ABSOLUTE
    startup_stm32h750xx.s                    0x00000000   Number         0  startup_stm32h750xx.o ABSOLUTE
    RESET                                    0x08000000   Section      664  startup_stm32h750xx.o(RESET)
    .ARM.Collect$$$$00000000                 0x08000298   Section        0  entry.o(.ARM.Collect$$$$00000000)
    .ARM.Collect$$$$00000001                 0x08000298   Section        4  entry2.o(.ARM.Collect$$$$00000001)
    .ARM.Collect$$$$00000004                 0x0800029c   Section        4  entry5.o(.ARM.Collect$$$$00000004)
    .ARM.Collect$$$$00000008                 0x080002a0   Section        0  entry7b.o(.ARM.Collect$$$$00000008)
    .ARM.Collect$$$$0000000A                 0x080002a0   Section        0  entry8b.o(.ARM.Collect$$$$0000000A)
    .ARM.Collect$$$$0000000B                 0x080002a0   Section        8  entry9a.o(.ARM.Collect$$$$0000000B)
    .ARM.Collect$$$$0000000D                 0x080002a8   Section        0  entry10a.o(.ARM.Collect$$$$0000000D)
    .ARM.Collect$$$$0000000F                 0x080002a8   Section        0  entry11a.o(.ARM.Collect$$$$0000000F)
    .ARM.Collect$$$$00002712                 0x080002a8   Section        4  entry2.o(.ARM.Collect$$$$00002712)
    __lit__00000000                          0x080002a8   Data           4  entry2.o(.ARM.Collect$$$$00002712)
    .text                                    0x080002ac   Section       36  startup_stm32h750xx.o(.text)
    $v0                                      0x080002ac   Number         0  startup_stm32h750xx.o(.text)
    .text                                    0x080002d0   Section        0  uldiv.o(.text)
    .text                                    0x08000332   Section        0  memseta.o(.text)
    .text                                    0x08000356   Section        0  uidiv.o(.text)
    .text                                    0x08000382   Section        0  llshl.o(.text)
    .text                                    0x080003a0   Section        0  llushr.o(.text)
    .text                                    0x080003c0   Section        0  dadd.o(.text)
    .text                                    0x080003c0   Section        0  iusefp.o(.text)
    .text                                    0x0800050e   Section        0  dmul.o(.text)
    .text                                    0x080005f2   Section        0  ddiv.o(.text)
    .text                                    0x080006d0   Section        0  dfixul.o(.text)
    .text                                    0x08000700   Section       48  cdrcmple.o(.text)
    .text                                    0x08000730   Section       36  init.o(.text)
    .text                                    0x08000754   Section        0  llsshr.o(.text)
    .text                                    0x08000778   Section        0  depilogue.o(.text)
    i.BusFault_Handler                       0x08000832   Section        0  stm32h7xx_it.o(i.BusFault_Handler)
    i.DCMI_DMAError                          0x08000834   Section        0  stm32h7xx_hal_dcmi.o(i.DCMI_DMAError)
    DCMI_DMAError                            0x08000835   Thumb Code    32  stm32h7xx_hal_dcmi.o(i.DCMI_DMAError)
    i.DCMI_DMAXferCplt                       0x08000854   Section        0  stm32h7xx_hal_dcmi.o(i.DCMI_DMAXferCplt)
    DCMI_DMAXferCplt                         0x08000855   Thumb Code   132  stm32h7xx_hal_dcmi.o(i.DCMI_DMAXferCplt)
    i.DCMI_IRQHandler                        0x080008d8   Section        0  stm32h7xx_it.o(i.DCMI_IRQHandler)
    i.DCMI_OV2640_Init                       0x080008e4   Section        0  dcmi.o(i.DCMI_OV2640_Init)
    i.DMA2_Stream7_IRQHandler                0x08000978   Section        0  stm32h7xx_it.o(i.DMA2_Stream7_IRQHandler)
    i.DMA_CalcBaseAndBitshift                0x08000984   Section        0  stm32h7xx_hal_dma.o(i.DMA_CalcBaseAndBitshift)
    DMA_CalcBaseAndBitshift                  0x08000985   Thumb Code   168  stm32h7xx_hal_dma.o(i.DMA_CalcBaseAndBitshift)
    i.DMA_CalcDMAMUXChannelBaseAndMask       0x08000a38   Section        0  stm32h7xx_hal_dma.o(i.DMA_CalcDMAMUXChannelBaseAndMask)
    DMA_CalcDMAMUXChannelBaseAndMask         0x08000a39   Thumb Code   138  stm32h7xx_hal_dma.o(i.DMA_CalcDMAMUXChannelBaseAndMask)
    i.DMA_CalcDMAMUXRequestGenBaseAndMask    0x08000ad4   Section        0  stm32h7xx_hal_dma.o(i.DMA_CalcDMAMUXRequestGenBaseAndMask)
    DMA_CalcDMAMUXRequestGenBaseAndMask      0x08000ad5   Thumb Code   104  stm32h7xx_hal_dma.o(i.DMA_CalcDMAMUXRequestGenBaseAndMask)
    i.DMA_CheckFifoParam                     0x08000b48   Section        0  stm32h7xx_hal_dma.o(i.DMA_CheckFifoParam)
    DMA_CheckFifoParam                       0x08000b49   Thumb Code    84  stm32h7xx_hal_dma.o(i.DMA_CheckFifoParam)
    i.DMA_MultiBufferSetConfig               0x08000b9c   Section        0  stm32h7xx_hal_dma_ex.o(i.DMA_MultiBufferSetConfig)
    DMA_MultiBufferSetConfig                 0x08000b9d   Thumb Code   150  stm32h7xx_hal_dma_ex.o(i.DMA_MultiBufferSetConfig)
    i.DMA_SetConfig                          0x08000c3c   Section        0  stm32h7xx_hal_dma.o(i.DMA_SetConfig)
    DMA_SetConfig                            0x08000c3d   Thumb Code   518  stm32h7xx_hal_dma.o(i.DMA_SetConfig)
    i.DebugMon_Handler                       0x08000e5c   Section        0  stm32h7xx_it.o(i.DebugMon_Handler)
    i.Error_Handler                          0x08000e5e   Section        0  main.o(i.Error_Handler)
    i.HAL_DCMI_ConfigCrop                    0x08000e62   Section        0  stm32h7xx_hal_dcmi.o(i.HAL_DCMI_ConfigCrop)
    i.HAL_DCMI_EnableCrop                    0x08000e98   Section        0  stm32h7xx_hal_dcmi.o(i.HAL_DCMI_EnableCrop)
    i.HAL_DCMI_ErrorCallback                 0x08000ec8   Section        0  dcmi.o(i.HAL_DCMI_ErrorCallback)
    i.HAL_DCMI_FrameEventCallback            0x08000ecc   Section        0  dcmi.o(i.HAL_DCMI_FrameEventCallback)
    i.HAL_DCMI_IRQHandler                    0x08000efc   Section        0  stm32h7xx_hal_dcmi.o(i.HAL_DCMI_IRQHandler)
    i.HAL_DCMI_Init                          0x08000f98   Section        0  stm32h7xx_hal_dcmi.o(i.HAL_DCMI_Init)
    i.HAL_DCMI_LineEventCallback             0x08001034   Section        0  stm32h7xx_hal_dcmi.o(i.HAL_DCMI_LineEventCallback)
    i.HAL_DCMI_MspInit                       0x08001038   Section        0  dcmi.o(i.HAL_DCMI_MspInit)
    i.HAL_DCMI_Start_DMA                     0x0800117c   Section        0  stm32h7xx_hal_dcmi.o(i.HAL_DCMI_Start_DMA)
    i.HAL_DCMI_VsyncEventCallback            0x08001268   Section        0  stm32h7xx_hal_dcmi.o(i.HAL_DCMI_VsyncEventCallback)
    i.HAL_DMAEx_ChangeMemory                 0x0800126c   Section        0  stm32h7xx_hal_dma_ex.o(i.HAL_DMAEx_ChangeMemory)
    i.HAL_DMAEx_MultiBufferStart_IT          0x080012fc   Section        0  stm32h7xx_hal_dma_ex.o(i.HAL_DMAEx_MultiBufferStart_IT)
    i.HAL_DMA_Abort_IT                       0x08001764   Section        0  stm32h7xx_hal_dma.o(i.HAL_DMA_Abort_IT)
    i.HAL_DMA_IRQHandler                     0x080019e8   Section        0  stm32h7xx_hal_dma.o(i.HAL_DMA_IRQHandler)
    i.HAL_DMA_Init                           0x080020d0   Section        0  stm32h7xx_hal_dma.o(i.HAL_DMA_Init)
    i.HAL_DMA_Start_IT                       0x08002494   Section        0  stm32h7xx_hal_dma.o(i.HAL_DMA_Start_IT)
    i.HAL_Delay                              0x08002730   Section        0  stm32h7xx_hal.o(i.HAL_Delay)
    i.HAL_GPIO_Init                          0x08002754   Section        0  stm32h7xx_hal_gpio.o(i.HAL_GPIO_Init)
    i.HAL_GPIO_ReadPin                       0x08002980   Section        0  stm32h7xx_hal_gpio.o(i.HAL_GPIO_ReadPin)
    i.HAL_GPIO_WritePin                      0x0800298a   Section        0  stm32h7xx_hal_gpio.o(i.HAL_GPIO_WritePin)
    i.HAL_GetREVID                           0x08002994   Section        0  stm32h7xx_hal.o(i.HAL_GetREVID)
    i.HAL_GetTick                            0x080029a0   Section        0  stm32h7xx_hal.o(i.HAL_GetTick)
    i.HAL_IncTick                            0x080029ac   Section        0  stm32h7xx_hal.o(i.HAL_IncTick)
    i.HAL_Init                               0x080029bc   Section        0  stm32h7xx_hal.o(i.HAL_Init)
    i.HAL_InitTick                           0x08002a18   Section        0  stm32h7xx_hal.o(i.HAL_InitTick)
    i.HAL_MPU_ConfigRegion                   0x08002a58   Section        0  stm32h7xx_hal_cortex.o(i.HAL_MPU_ConfigRegion)
    i.HAL_MPU_Disable                        0x08002ab4   Section        0  stm32h7xx_hal_cortex.o(i.HAL_MPU_Disable)
    i.HAL_MPU_Enable                         0x08002ad0   Section        0  stm32h7xx_hal_cortex.o(i.HAL_MPU_Enable)
    i.HAL_MspInit                            0x08002af4   Section        0  stm32h7xx_hal_msp.o(i.HAL_MspInit)
    i.HAL_NVIC_EnableIRQ                     0x08002b10   Section        0  stm32h7xx_hal_cortex.o(i.HAL_NVIC_EnableIRQ)
    i.HAL_NVIC_SetPriority                   0x08002b2c   Section        0  stm32h7xx_hal_cortex.o(i.HAL_NVIC_SetPriority)
    i.HAL_NVIC_SetPriorityGrouping           0x08002b6c   Section        0  stm32h7xx_hal_cortex.o(i.HAL_NVIC_SetPriorityGrouping)
    i.HAL_PCDEx_LPM_Callback                 0x08002b90   Section        0  stm32h7xx_hal_pcd_ex.o(i.HAL_PCDEx_LPM_Callback)
    i.HAL_PCD_ConnectCallback                0x08002b92   Section        0  usbd_conf.o(i.HAL_PCD_ConnectCallback)
    i.HAL_PCD_DataInStageCallback            0x08002b9a   Section        0  usbd_conf.o(i.HAL_PCD_DataInStageCallback)
    i.HAL_PCD_DataOutStageCallback           0x08002bac   Section        0  usbd_conf.o(i.HAL_PCD_DataOutStageCallback)
    i.HAL_PCD_DisconnectCallback             0x08002bc0   Section        0  usbd_conf.o(i.HAL_PCD_DisconnectCallback)
    i.HAL_PCD_EP_Abort                       0x08002bc8   Section        0  stm32h7xx_hal_pcd.o(i.HAL_PCD_EP_Abort)
    i.HAL_PCD_EP_ClrStall                    0x08002be6   Section        0  stm32h7xx_hal_pcd.o(i.HAL_PCD_EP_ClrStall)
    i.HAL_PCD_EP_Open                        0x08002c42   Section        0  stm32h7xx_hal_pcd.o(i.HAL_PCD_EP_Open)
    i.HAL_PCD_EP_Receive                     0x08002ca2   Section        0  stm32h7xx_hal_pcd.o(i.HAL_PCD_EP_Receive)
    i.HAL_PCD_EP_SetStall                    0x08002cd6   Section        0  stm32h7xx_hal_pcd.o(i.HAL_PCD_EP_SetStall)
    i.HAL_PCD_EP_Transmit                    0x08002d4a   Section        0  stm32h7xx_hal_pcd.o(i.HAL_PCD_EP_Transmit)
    i.HAL_PCD_IRQHandler                     0x08002d80   Section        0  stm32h7xx_hal_pcd.o(i.HAL_PCD_IRQHandler)
    i.HAL_PCD_ISOINIncompleteCallback        0x0800331c   Section        0  usbd_conf.o(i.HAL_PCD_ISOINIncompleteCallback)
    i.HAL_PCD_ISOOUTIncompleteCallback       0x08003324   Section        0  usbd_conf.o(i.HAL_PCD_ISOOUTIncompleteCallback)
    i.HAL_PCD_ResetCallback                  0x0800332c   Section        0  usbd_conf.o(i.HAL_PCD_ResetCallback)
    i.HAL_PCD_ResumeCallback                 0x08003358   Section        0  usbd_conf.o(i.HAL_PCD_ResumeCallback)
    i.HAL_PCD_SOFCallback                    0x08003360   Section        0  usbd_conf.o(i.HAL_PCD_SOFCallback)
    i.HAL_PCD_SetAddress                     0x08003368   Section        0  stm32h7xx_hal_pcd.o(i.HAL_PCD_SetAddress)
    i.HAL_PCD_SetupStageCallback             0x08003390   Section        0  usbd_conf.o(i.HAL_PCD_SetupStageCallback)
    i.HAL_PCD_SuspendCallback                0x080033a0   Section        0  usbd_conf.o(i.HAL_PCD_SuspendCallback)
    i.HAL_PWREx_ConfigSupply                 0x080033d0   Section        0  stm32h7xx_hal_pwr_ex.o(i.HAL_PWREx_ConfigSupply)
    i.HAL_PWR_EnableBkUpAccess               0x08003424   Section        0  stm32h7xx_hal_pwr.o(i.HAL_PWR_EnableBkUpAccess)
    i.HAL_RCCEx_GetD3PCLK1Freq               0x08003434   Section        0  stm32h7xx_hal_rcc_ex.o(i.HAL_RCCEx_GetD3PCLK1Freq)
    i.HAL_RCCEx_GetPLL2ClockFreq             0x08003458   Section        0  stm32h7xx_hal_rcc_ex.o(i.HAL_RCCEx_GetPLL2ClockFreq)
    i.HAL_RCCEx_GetPLL3ClockFreq             0x0800359c   Section        0  stm32h7xx_hal_rcc_ex.o(i.HAL_RCCEx_GetPLL3ClockFreq)
    i.HAL_RCCEx_PeriphCLKConfig              0x080036e0   Section        0  stm32h7xx_hal_rcc_ex.o(i.HAL_RCCEx_PeriphCLKConfig)
    i.HAL_RCC_ClockConfig                    0x0800408c   Section        0  stm32h7xx_hal_rcc.o(i.HAL_RCC_ClockConfig)
    i.HAL_RCC_GetHCLKFreq                    0x080042e8   Section        0  stm32h7xx_hal_rcc.o(i.HAL_RCC_GetHCLKFreq)
    i.HAL_RCC_GetPCLK1Freq                   0x0800432c   Section        0  stm32h7xx_hal_rcc.o(i.HAL_RCC_GetPCLK1Freq)
    i.HAL_RCC_GetPCLK2Freq                   0x08004350   Section        0  stm32h7xx_hal_rcc.o(i.HAL_RCC_GetPCLK2Freq)
    i.HAL_RCC_GetSysClockFreq                0x08004374   Section        0  stm32h7xx_hal_rcc.o(i.HAL_RCC_GetSysClockFreq)
    i.HAL_RCC_OscConfig                      0x080044ac   Section        0  stm32h7xx_hal_rcc.o(i.HAL_RCC_OscConfig)
    i.HAL_SDEx_Read_DMADoubleBuf0CpltCallback 0x08004a2e   Section        0  stm32h7xx_hal_sd.o(i.HAL_SDEx_Read_DMADoubleBuf0CpltCallback)
    i.HAL_SDEx_Read_DMADoubleBuf1CpltCallback 0x08004a30   Section        0  stm32h7xx_hal_sd.o(i.HAL_SDEx_Read_DMADoubleBuf1CpltCallback)
    i.HAL_SDEx_Write_DMADoubleBuf0CpltCallback 0x08004a32   Section        0  stm32h7xx_hal_sd.o(i.HAL_SDEx_Write_DMADoubleBuf0CpltCallback)
    i.HAL_SDEx_Write_DMADoubleBuf1CpltCallback 0x08004a34   Section        0  stm32h7xx_hal_sd.o(i.HAL_SDEx_Write_DMADoubleBuf1CpltCallback)
    i.HAL_SD_ErrorCallback                   0x08004a36   Section        0  stm32h7xx_hal_sd.o(i.HAL_SD_ErrorCallback)
    i.HAL_SD_IRQHandler                      0x08004a38   Section        0  stm32h7xx_hal_sd.o(i.HAL_SD_IRQHandler)
    i.HAL_SD_RxCpltCallback                  0x08004c78   Section        0  stm32h7xx_hal_sd.o(i.HAL_SD_RxCpltCallback)
    i.HAL_SD_TxCpltCallback                  0x08004c7a   Section        0  stm32h7xx_hal_sd.o(i.HAL_SD_TxCpltCallback)
    i.HAL_SPI_Init                           0x08004c7c   Section        0  stm32h7xx_hal_spi.o(i.HAL_SPI_Init)
    i.HAL_SPI_MspInit                        0x08004df8   Section        0  spi.o(i.HAL_SPI_MspInit)
    i.HAL_SPI_Transmit                       0x08004eac   Section        0  stm32h7xx_hal_spi.o(i.HAL_SPI_Transmit)
    i.HAL_SYSTICK_Config                     0x0800510c   Section        0  stm32h7xx_hal_cortex.o(i.HAL_SYSTICK_Config)
    i.HAL_UARTEx_DisableFifoMode             0x08005132   Section        0  stm32h7xx_hal_uart_ex.o(i.HAL_UARTEx_DisableFifoMode)
    i.HAL_UARTEx_SetRxFifoThreshold          0x08005172   Section        0  stm32h7xx_hal_uart_ex.o(i.HAL_UARTEx_SetRxFifoThreshold)
    i.HAL_UARTEx_SetTxFifoThreshold          0x080051be   Section        0  stm32h7xx_hal_uart_ex.o(i.HAL_UARTEx_SetTxFifoThreshold)
    i.HAL_UART_Init                          0x0800520a   Section        0  stm32h7xx_hal_uart.o(i.HAL_UART_Init)
    i.HAL_UART_MspInit                       0x08005274   Section        0  usart.o(i.HAL_UART_MspInit)
    i.HAL_UART_Transmit                      0x08005300   Section        0  stm32h7xx_hal_uart.o(i.HAL_UART_Transmit)
    i.HardFault_Handler                      0x080053b0   Section        0  stm32h7xx_it.o(i.HardFault_Handler)
    i.LCD_Clear                              0x080053b4   Section        0  spi.o(i.LCD_Clear)
    i.LCD_CopyBuffer                         0x0800540c   Section        0  spi.o(i.LCD_CopyBuffer)
    i.LCD_DisplayChar                        0x08005460   Section        0  spi.o(i.LCD_DisplayChar)
    i.LCD_DisplayNumber                      0x08005514   Section        0  spi.o(i.LCD_DisplayNumber)
    i.LCD_DisplayString                      0x08005550   Section        0  spi.o(i.LCD_DisplayString)
    i.LCD_SPI_CloseTransfer                  0x0800558c   Section        0  spi.o(i.LCD_SPI_CloseTransfer)
    i.LCD_SPI_Transmit                       0x08005648   Section        0  spi.o(i.LCD_SPI_Transmit)
    i.LCD_SPI_TransmitBuffer                 0x080057a0   Section        0  spi.o(i.LCD_SPI_TransmitBuffer)
    i.LCD_SPI_WaitOnFlagUntilTimeout         0x080058f6   Section        0  spi.o(i.LCD_SPI_WaitOnFlagUntilTimeout)
    i.LCD_SetAddress                         0x08005938   Section        0  spi.o(i.LCD_SetAddress)
    i.LCD_SetBackColor                       0x0800598c   Section        0  spi.o(i.LCD_SetBackColor)
    i.LCD_SetColor                           0x080059b0   Section        0  spi.o(i.LCD_SetColor)
    i.LCD_SetDirection                       0x080059d4   Section        0  spi.o(i.LCD_SetDirection)
    i.LCD_WriteBuff                          0x08005a44   Section        0  spi.o(i.LCD_WriteBuff)
    i.LCD_WriteCommand                       0x08005a84   Section        0  spi.o(i.LCD_WriteCommand)
    i.LCD_WriteData_16bit                    0x08005aac   Section        0  spi.o(i.LCD_WriteData_16bit)
    i.LCD_WriteData_8bit                     0x08005adc   Section        0  spi.o(i.LCD_WriteData_8bit)
    i.MPU_Config                             0x08005b00   Section        0  main.o(i.MPU_Config)
    i.MX_DCMI_Init                           0x08005b4c   Section        0  dcmi.o(i.MX_DCMI_Init)
    i.MX_GPIO_Init                           0x08005b9c   Section        0  gpio.o(i.MX_GPIO_Init)
    i.MX_SPI4_Init                           0x08005c3c   Section        0  spi.o(i.MX_SPI4_Init)
    i.MX_USART1_UART_Init                    0x08005c98   Section        0  usart.o(i.MX_USART1_UART_Init)
    i.MemManage_Handler                      0x08005d00   Section        0  stm32h7xx_it.o(i.MemManage_Handler)
    i.NMI_Handler                            0x08005d02   Section        0  stm32h7xx_it.o(i.NMI_Handler)
    i.OTG_FS_IRQHandler                      0x08005d04   Section        0  stm32h7xx_it.o(i.OTG_FS_IRQHandler)
    i.OV2640_Config                          0x08005d10   Section        0  dcmi.o(i.OV2640_Config)
    i.OV2640_DCMI_Crop                       0x08005d30   Section        0  dcmi.o(i.OV2640_DCMI_Crop)
    i.OV2640_DMA_Init                        0x08005d74   Section        0  dcmi.o(i.OV2640_DMA_Init)
    i.OV2640_DMA_Transmit_Continuous         0x08005de0   Section        0  dcmi.o(i.OV2640_DMA_Transmit_Continuous)
    i.OV2640_Delay                           0x08005e0c   Section        0  dcmi.o(i.OV2640_Delay)
    i.OV2640_ReadID                          0x08005e3c   Section        0  dcmi.o(i.OV2640_ReadID)
    i.OV2640_Reset                           0x08005e5c   Section        0  dcmi.o(i.OV2640_Reset)
    i.OV2640_Set_Framesize                   0x08005e94   Section        0  dcmi.o(i.OV2640_Set_Framesize)
    i.PCD_EP_OutXfrComplete_int              0x08005ee0   Section        0  stm32h7xx_hal_pcd.o(i.PCD_EP_OutXfrComplete_int)
    PCD_EP_OutXfrComplete_int                0x08005ee1   Thumb Code   194  stm32h7xx_hal_pcd.o(i.PCD_EP_OutXfrComplete_int)
    i.PCD_WriteEmptyTxFifo                   0x08005fac   Section        0  stm32h7xx_hal_pcd.o(i.PCD_WriteEmptyTxFifo)
    PCD_WriteEmptyTxFifo                     0x08005fad   Thumb Code   162  stm32h7xx_hal_pcd.o(i.PCD_WriteEmptyTxFifo)
    i.PendSV_Handler                         0x0800604e   Section        0  stm32h7xx_it.o(i.PendSV_Handler)
    i.RCCEx_PLL2_Config                      0x08006050   Section        0  stm32h7xx_hal_rcc_ex.o(i.RCCEx_PLL2_Config)
    RCCEx_PLL2_Config                        0x08006051   Thumb Code   284  stm32h7xx_hal_rcc_ex.o(i.RCCEx_PLL2_Config)
    i.RCCEx_PLL3_Config                      0x08006170   Section        0  stm32h7xx_hal_rcc_ex.o(i.RCCEx_PLL3_Config)
    RCCEx_PLL3_Config                        0x08006171   Thumb Code   284  stm32h7xx_hal_rcc_ex.o(i.RCCEx_PLL3_Config)
    i.SCCB_ACK                               0x08006290   Section        0  sccb.o(i.SCCB_ACK)
    i.SCCB_Delay                             0x080062ec   Section        0  sccb.o(i.SCCB_Delay)
    i.SCCB_GPIO_Config                       0x08006314   Section        0  sccb.o(i.SCCB_GPIO_Config)
    i.SCCB_NoACK                             0x08006390   Section        0  sccb.o(i.SCCB_NoACK)
    i.SCCB_ReadByte                          0x080063e0   Section        0  sccb.o(i.SCCB_ReadByte)
    i.SCCB_ReadReg                           0x0800644c   Section        0  sccb.o(i.SCCB_ReadReg)
    i.SCCB_Start                             0x08006480   Section        0  sccb.o(i.SCCB_Start)
    i.SCCB_Stop                              0x080064cc   Section        0  sccb.o(i.SCCB_Stop)
    i.SCCB_WaitACK                           0x08006520   Section        0  sccb.o(i.SCCB_WaitACK)
    i.SCCB_WriteByte                         0x0800657c   Section        0  sccb.o(i.SCCB_WriteByte)
    i.SCCB_WriteHandle                       0x080065e8   Section        0  sccb.o(i.SCCB_WriteHandle)
    i.SCCB_WriteReg                          0x08006604   Section        0  sccb.o(i.SCCB_WriteReg)
    i.SDMMC1_IRQHandler                      0x08006624   Section        0  stm32h7xx_it.o(i.SDMMC1_IRQHandler)
    i.SDMMC_CmdStopTransfer                  0x0800662c   Section        0  stm32h7xx_ll_sdmmc.o(i.SDMMC_CmdStopTransfer)
    i.SDMMC_GetCmdResp1                      0x08006680   Section        0  stm32h7xx_ll_sdmmc.o(i.SDMMC_GetCmdResp1)
    i.SDMMC_GetResponse                      0x080067a4   Section        0  stm32h7xx_ll_sdmmc.o(i.SDMMC_GetResponse)
    i.SDMMC_ReadFIFO                         0x080067aa   Section        0  stm32h7xx_ll_sdmmc.o(i.SDMMC_ReadFIFO)
    i.SDMMC_SendCommand                      0x080067b0   Section        0  stm32h7xx_ll_sdmmc.o(i.SDMMC_SendCommand)
    i.SDMMC_WriteFIFO                        0x080067d8   Section        0  stm32h7xx_ll_sdmmc.o(i.SDMMC_WriteFIFO)
    i.SPI_CloseTransfer                      0x080067e2   Section        0  stm32h7xx_hal_spi.o(i.SPI_CloseTransfer)
    SPI_CloseTransfer                        0x080067e3   Thumb Code   188  stm32h7xx_hal_spi.o(i.SPI_CloseTransfer)
    i.SPI_LCD_Init                           0x080068a0   Section        0  spi.o(i.SPI_LCD_Init)
    i.SPI_WaitOnFlagUntilTimeout             0x08006a5c   Section        0  stm32h7xx_hal_spi.o(i.SPI_WaitOnFlagUntilTimeout)
    SPI_WaitOnFlagUntilTimeout               0x08006a5d   Thumb Code    70  stm32h7xx_hal_spi.o(i.SPI_WaitOnFlagUntilTimeout)
    i.SVC_Handler                            0x08006aa2   Section        0  stm32h7xx_it.o(i.SVC_Handler)
    i.SWAPBYTE                               0x08006aa4   Section        0  usbd_ctlreq.o(i.SWAPBYTE)
    SWAPBYTE                                 0x08006aa5   Thumb Code    10  usbd_ctlreq.o(i.SWAPBYTE)
    i.SysTick_Handler                        0x08006aae   Section        0  stm32h7xx_it.o(i.SysTick_Handler)
    i.SystemClock_Config                     0x08006ab4   Section        0  main.o(i.SystemClock_Config)
    i.SystemInit                             0x08006bd0   Section        0  system_stm32h7xx.o(i.SystemInit)
    i.UARTEx_SetNbDataToProcess              0x08006cac   Section        0  stm32h7xx_hal_uart_ex.o(i.UARTEx_SetNbDataToProcess)
    UARTEx_SetNbDataToProcess                0x08006cad   Thumb Code    62  stm32h7xx_hal_uart_ex.o(i.UARTEx_SetNbDataToProcess)
    i.UART_AdvFeatureConfig                  0x08006cf0   Section        0  stm32h7xx_hal_uart.o(i.UART_AdvFeatureConfig)
    i.UART_CheckIdleState                    0x08006db8   Section        0  stm32h7xx_hal_uart.o(i.UART_CheckIdleState)
    i.UART_EndRxTransfer                     0x08006e64   Section        0  stm32h7xx_hal_uart.o(i.UART_EndRxTransfer)
    UART_EndRxTransfer                       0x08006e65   Thumb Code    78  stm32h7xx_hal_uart.o(i.UART_EndRxTransfer)
    i.UART_SetConfig                         0x08006eb8   Section        0  stm32h7xx_hal_uart.o(i.UART_SetConfig)
    i.UART_WaitOnFlagUntilTimeout            0x08007264   Section        0  stm32h7xx_hal_uart.o(i.UART_WaitOnFlagUntilTimeout)
    i.USBD_ClrClassConfig                    0x080072f0   Section        0  usbd_core.o(i.USBD_ClrClassConfig)
    i.USBD_CoreFindEP                        0x08007304   Section        0  usbd_core.o(i.USBD_CoreFindEP)
    i.USBD_CoreFindIF                        0x08007308   Section        0  usbd_core.o(i.USBD_CoreFindIF)
    i.USBD_CtlContinueRx                     0x0800730c   Section        0  usbd_ioreq.o(i.USBD_CtlContinueRx)
    i.USBD_CtlContinueSendData               0x0800731c   Section        0  usbd_ioreq.o(i.USBD_CtlContinueSendData)
    i.USBD_CtlError                          0x0800732c   Section        0  usbd_ctlreq.o(i.USBD_CtlError)
    i.USBD_CtlReceiveStatus                  0x08007342   Section        0  usbd_ioreq.o(i.USBD_CtlReceiveStatus)
    i.USBD_CtlSendData                       0x08007358   Section        0  usbd_ioreq.o(i.USBD_CtlSendData)
    i.USBD_CtlSendStatus                     0x08007372   Section        0  usbd_ioreq.o(i.USBD_CtlSendStatus)
    i.USBD_GetDescriptor                     0x08007388   Section        0  usbd_ctlreq.o(i.USBD_GetDescriptor)
    USBD_GetDescriptor                       0x08007389   Thumb Code   250  usbd_ctlreq.o(i.USBD_GetDescriptor)
    i.USBD_Get_USB_Status                    0x08007482   Section        0  usbd_conf.o(i.USBD_Get_USB_Status)
    i.USBD_LL_ClearStallEP                   0x0800749a   Section        0  usbd_conf.o(i.USBD_LL_ClearStallEP)
    i.USBD_LL_DataInStage                    0x080074ac   Section        0  usbd_core.o(i.USBD_LL_DataInStage)
    i.USBD_LL_DataOutStage                   0x08007564   Section        0  usbd_core.o(i.USBD_LL_DataOutStage)
    i.USBD_LL_DevConnected                   0x080075f4   Section        0  usbd_core.o(i.USBD_LL_DevConnected)
    i.USBD_LL_DevDisconnected                0x080075f8   Section        0  usbd_core.o(i.USBD_LL_DevDisconnected)
    i.USBD_LL_IsStallEP                      0x08007618   Section        0  usbd_conf.o(i.USBD_LL_IsStallEP)
    i.USBD_LL_IsoINIncomplete                0x08007638   Section        0  usbd_core.o(i.USBD_LL_IsoINIncomplete)
    i.USBD_LL_IsoOUTIncomplete               0x08007660   Section        0  usbd_core.o(i.USBD_LL_IsoOUTIncomplete)
    i.USBD_LL_OpenEP                         0x08007688   Section        0  usbd_conf.o(i.USBD_LL_OpenEP)
    i.USBD_LL_PrepareReceive                 0x080076a0   Section        0  usbd_conf.o(i.USBD_LL_PrepareReceive)
    i.USBD_LL_Reset                          0x080076b2   Section        0  usbd_core.o(i.USBD_LL_Reset)
    i.USBD_LL_Resume                         0x08007710   Section        0  usbd_core.o(i.USBD_LL_Resume)
    i.USBD_LL_SOF                            0x08007724   Section        0  usbd_core.o(i.USBD_LL_SOF)
    i.USBD_LL_SetSpeed                       0x0800773e   Section        0  usbd_core.o(i.USBD_LL_SetSpeed)
    i.USBD_LL_SetUSBAddress                  0x08007744   Section        0  usbd_conf.o(i.USBD_LL_SetUSBAddress)
    i.USBD_LL_SetupStage                     0x08007756   Section        0  usbd_core.o(i.USBD_LL_SetupStage)
    i.USBD_LL_StallEP                        0x080077b6   Section        0  usbd_conf.o(i.USBD_LL_StallEP)
    i.USBD_LL_Suspend                        0x080077c8   Section        0  usbd_core.o(i.USBD_LL_Suspend)
    i.USBD_LL_Transmit                       0x080077e2   Section        0  usbd_conf.o(i.USBD_LL_Transmit)
    i.USBD_ParseSetupRequest                 0x080077f4   Section        0  usbd_ctlreq.o(i.USBD_ParseSetupRequest)
    i.USBD_SetClassConfig                    0x0800781e   Section        0  usbd_core.o(i.USBD_SetClassConfig)
    i.USBD_SetConfig                         0x08007834   Section        0  usbd_ctlreq.o(i.USBD_SetConfig)
    USBD_SetConfig                           0x08007835   Thumb Code   182  usbd_ctlreq.o(i.USBD_SetConfig)
    i.USBD_StdDevReq                         0x080078f0   Section        0  usbd_ctlreq.o(i.USBD_StdDevReq)
    i.USBD_StdEPReq                          0x08007a1e   Section        0  usbd_ctlreq.o(i.USBD_StdEPReq)
    i.USBD_StdItfReq                         0x08007b82   Section        0  usbd_ctlreq.o(i.USBD_StdItfReq)
    i.USB_ActivateEndpoint                   0x08007bf8   Section        0  stm32h7xx_ll_usb.o(i.USB_ActivateEndpoint)
    i.USB_ActivateSetup                      0x08007c78   Section        0  stm32h7xx_ll_usb.o(i.USB_ActivateSetup)
    i.USB_EP0_OutStart                       0x08007c94   Section        0  stm32h7xx_ll_usb.o(i.USB_EP0_OutStart)
    i.USB_EPClearStall                       0x08007cec   Section        0  stm32h7xx_ll_usb.o(i.USB_EPClearStall)
    i.USB_EPSetStall                         0x08007d44   Section        0  stm32h7xx_ll_usb.o(i.USB_EPSetStall)
    i.USB_EPStartXfer                        0x08007d9c   Section        0  stm32h7xx_ll_usb.o(i.USB_EPStartXfer)
    i.USB_EPStopXfer                         0x08007fd4   Section        0  stm32h7xx_ll_usb.o(i.USB_EPStopXfer)
    i.USB_FlushTxFifo                        0x08008074   Section        0  stm32h7xx_ll_usb.o(i.USB_FlushTxFifo)
    i.USB_GetDevSpeed                        0x080080b4   Section        0  stm32h7xx_ll_usb.o(i.USB_GetDevSpeed)
    i.USB_GetMode                            0x080080ce   Section        0  stm32h7xx_ll_usb.o(i.USB_GetMode)
    i.USB_ReadDevAllInEpInterrupt            0x080080d6   Section        0  stm32h7xx_ll_usb.o(i.USB_ReadDevAllInEpInterrupt)
    i.USB_ReadDevAllOutEpInterrupt           0x080080e4   Section        0  stm32h7xx_ll_usb.o(i.USB_ReadDevAllOutEpInterrupt)
    i.USB_ReadDevInEPInterrupt               0x080080f2   Section        0  stm32h7xx_ll_usb.o(i.USB_ReadDevInEPInterrupt)
    i.USB_ReadDevOutEPInterrupt              0x08008116   Section        0  stm32h7xx_ll_usb.o(i.USB_ReadDevOutEPInterrupt)
    i.USB_ReadInterrupts                     0x08008126   Section        0  stm32h7xx_ll_usb.o(i.USB_ReadInterrupts)
    i.USB_ReadPacket                         0x0800812e   Section        0  stm32h7xx_ll_usb.o(i.USB_ReadPacket)
    i.USB_SetDevAddress                      0x0800816e   Section        0  stm32h7xx_ll_usb.o(i.USB_SetDevAddress)
    i.USB_SetTurnaroundTime                  0x08008190   Section        0  stm32h7xx_ll_usb.o(i.USB_SetTurnaroundTime)
    i.USB_WritePacket                        0x08008278   Section        0  stm32h7xx_ll_usb.o(i.USB_WritePacket)
    i.UsageFault_Handler                     0x080082a0   Section        0  stm32h7xx_it.o(i.UsageFault_Handler)
    i.__0printf                              0x080082a4   Section        0  printfa.o(i.__0printf)
    i.__0sprintf                             0x080082c4   Section        0  printfa.o(i.__0sprintf)
    i.__NVIC_SetPriority                     0x080082ec   Section        0  stm32h7xx_hal_cortex.o(i.__NVIC_SetPriority)
    __NVIC_SetPriority                       0x080082ed   Thumb Code    34  stm32h7xx_hal_cortex.o(i.__NVIC_SetPriority)
    i.__scatterload_copy                     0x0800830e   Section       14  handlers.o(i.__scatterload_copy)
    i.__scatterload_null                     0x0800831c   Section        2  handlers.o(i.__scatterload_null)
    i.__scatterload_zeroinit                 0x0800831e   Section       14  handlers.o(i.__scatterload_zeroinit)
    i._fp_digits                             0x0800832c   Section        0  printfa.o(i._fp_digits)
    _fp_digits                               0x0800832d   Thumb Code   366  printfa.o(i._fp_digits)
    i._printf_core                           0x080084b0   Section        0  printfa.o(i._printf_core)
    _printf_core                             0x080084b1   Thumb Code  1744  printfa.o(i._printf_core)
    i._printf_post_padding                   0x08008b8c   Section        0  printfa.o(i._printf_post_padding)
    _printf_post_padding                     0x08008b8d   Thumb Code    36  printfa.o(i._printf_post_padding)
    i._printf_pre_padding                    0x08008bb0   Section        0  printfa.o(i._printf_pre_padding)
    _printf_pre_padding                      0x08008bb1   Thumb Code    46  printfa.o(i._printf_pre_padding)
    i._sputc                                 0x08008bde   Section        0  printfa.o(i._sputc)
    _sputc                                   0x08008bdf   Thumb Code    10  printfa.o(i._sputc)
    i.fputc                                  0x08008be8   Section        0  usart.o(i.fputc)
    i.main                                   0x08008c00   Section        0  main.o(i.main)
    .constdata                               0x08008cf8   Section      378  dcmi.o(.constdata)
    .constdata                               0x08008e72   Section     4560  lcd_fonts.o(.constdata)
    .constdata                               0x0800a042   Section        8  stm32h7xx_hal_dma.o(.constdata)
    flagBitshiftOffset                       0x0800a042   Data           8  stm32h7xx_hal_dma.o(.constdata)
    .constdata                               0x0800a04a   Section       24  stm32h7xx_hal_uart.o(.constdata)
    .constdata                               0x0800a062   Section       16  stm32h7xx_hal_uart_ex.o(.constdata)
    numerator                                0x0800a062   Data           8  stm32h7xx_hal_uart_ex.o(.constdata)
    denominator                              0x0800a06a   Data           8  stm32h7xx_hal_uart_ex.o(.constdata)
    .constdata                               0x0800a072   Section       16  system_stm32h7xx.o(.constdata)
    .data                                    0x20000000   Section        8  dcmi.o(.data)
    DCMI_Frame_Count                         0x20000001   Data           1  dcmi.o(.data)
    DCMI_Tick                                0x20000004   Data           4  dcmi.o(.data)
    .data                                    0x20000008   Section       32  spi.o(.data)
    _pointx                                  0x20000008   Data           4  spi.o(.data)
    _pointy                                  0x2000000c   Data           4  spi.o(.data)
    LCD_AsciiFonts                           0x20000010   Data           4  spi.o(.data)
    LCD_CHFonts                              0x20000014   Data           4  spi.o(.data)
    .data                                    0x20000028   Section       12  lcd_fonts.o(.data)
    .data                                    0x20000034   Section       12  stm32h7xx_hal.o(.data)
    .data                                    0x20000040   Section        8  system_stm32h7xx.o(.data)
    .data                                    0x20000048   Section        1  usbd_ctlreq.o(.data)
    cfgidx                                   0x20000048   Data           1  usbd_ctlreq.o(.data)
    .data                                    0x2000004c   Section        4  stdout.o(.data)
    .bss                                     0x20000050   Section      200  dcmi.o(.bss)
    .bss                                     0x20000118   Section     2200  spi.o(.bss)
    .bss                                     0x200009b0   Section      148  usart.o(.bss)
    .bss                                     0x20000a44   Section     1836  usbd_conf.o(.bss)
    mem                                      0x20000a44   Data         544  usbd_conf.o(.bss)
    STACK                                    0x20001170   Section     1024  startup_stm32h750xx.o(STACK)

    Global Symbols

    Symbol Name                              Value     Ov Type        Size  Object(Section)

    BuildAttributes$$THM_ISAv4$E$P$D$K$B$S$7EM$VFPv5_D16$PE$PLD8$A:L22UL41UL21$X:L11$S22US41US21$IEEE1$IW$USESV6$~STKCKD$USESV7$~SHL$OTIME$ROPI$IEEEX$EBA8$MICROLIB$REQ8$PRES8$EABIv2 0x00000000   Number         0  anon$$obj.o ABSOLUTE
    __ARM_use_no_argv                        0x00000000   Number         0  main.o ABSOLUTE
    _printf_a                                0x00000000   Number         0  stubs.o ABSOLUTE
    _printf_c                                0x00000000   Number         0  stubs.o ABSOLUTE
    _printf_charcount                        0x00000000   Number         0  stubs.o ABSOLUTE
    _printf_d                                0x00000000   Number         0  stubs.o ABSOLUTE
    _printf_e                                0x00000000   Number         0  stubs.o ABSOLUTE
    _printf_f                                0x00000000   Number         0  stubs.o ABSOLUTE
    _printf_flags                            0x00000000   Number         0  stubs.o ABSOLUTE
    _printf_fp_dec                           0x00000000   Number         0  stubs.o ABSOLUTE
    _printf_fp_hex                           0x00000000   Number         0  stubs.o ABSOLUTE
    _printf_g                                0x00000000   Number         0  stubs.o ABSOLUTE
    _printf_i                                0x00000000   Number         0  stubs.o ABSOLUTE
    _printf_int_dec                          0x00000000   Number         0  stubs.o ABSOLUTE
    _printf_l                                0x00000000   Number         0  stubs.o ABSOLUTE
    _printf_lc                               0x00000000   Number         0  stubs.o ABSOLUTE
    _printf_ll                               0x00000000   Number         0  stubs.o ABSOLUTE
    _printf_lld                              0x00000000   Number         0  stubs.o ABSOLUTE
    _printf_lli                              0x00000000   Number         0  stubs.o ABSOLUTE
    _printf_llo                              0x00000000   Number         0  stubs.o ABSOLUTE
    _printf_llu                              0x00000000   Number         0  stubs.o ABSOLUTE
    _printf_llx                              0x00000000   Number         0  stubs.o ABSOLUTE
    _printf_longlong_dec                     0x00000000   Number         0  stubs.o ABSOLUTE
    _printf_longlong_hex                     0x00000000   Number         0  stubs.o ABSOLUTE
    _printf_longlong_oct                     0x00000000   Number         0  stubs.o ABSOLUTE
    _printf_ls                               0x00000000   Number         0  stubs.o ABSOLUTE
    _printf_mbtowc                           0x00000000   Number         0  stubs.o ABSOLUTE
    _printf_n                                0x00000000   Number         0  stubs.o ABSOLUTE
    _printf_o                                0x00000000   Number         0  stubs.o ABSOLUTE
    _printf_p                                0x00000000   Number         0  stubs.o ABSOLUTE
    _printf_percent                          0x00000000   Number         0  stubs.o ABSOLUTE
    _printf_pre_padding                      0x00000000   Number         0  stubs.o ABSOLUTE
    _printf_return_value                     0x00000000   Number         0  stubs.o ABSOLUTE
    _printf_s                                0x00000000   Number         0  stubs.o ABSOLUTE
    _printf_sizespec                         0x00000000   Number         0  stubs.o ABSOLUTE
    _printf_str                              0x00000000   Number         0  stubs.o ABSOLUTE
    _printf_truncate_signed                  0x00000000   Number         0  stubs.o ABSOLUTE
    _printf_truncate_unsigned                0x00000000   Number         0  stubs.o ABSOLUTE
    _printf_u                                0x00000000   Number         0  stubs.o ABSOLUTE
    _printf_wc                               0x00000000   Number         0  stubs.o ABSOLUTE
    _printf_wctomb                           0x00000000   Number         0  stubs.o ABSOLUTE
    _printf_widthprec                        0x00000000   Number         0  stubs.o ABSOLUTE
    _printf_x                                0x00000000   Number         0  stubs.o ABSOLUTE
    __cpp_initialize__aeabi_                  - Undefined Weak Reference
    __cxa_finalize                            - Undefined Weak Reference
    __decompress                              - Undefined Weak Reference
    _clock_init                               - Undefined Weak Reference
    _microlib_exit                            - Undefined Weak Reference
    __Vectors_Size                           0x00000298   Number         0  startup_stm32h750xx.o ABSOLUTE
    __Vectors                                0x08000000   Data           4  startup_stm32h750xx.o(RESET)
    __Vectors_End                            0x08000298   Data           0  startup_stm32h750xx.o(RESET)
    __main                                   0x08000299   Thumb Code     0  entry.o(.ARM.Collect$$$$00000000)
    _main_stk                                0x08000299   Thumb Code     0  entry2.o(.ARM.Collect$$$$00000001)
    _main_scatterload                        0x0800029d   Thumb Code     0  entry5.o(.ARM.Collect$$$$00000004)
    __main_after_scatterload                 0x080002a1   Thumb Code     0  entry5.o(.ARM.Collect$$$$00000004)
    _main_clock                              0x080002a1   Thumb Code     0  entry7b.o(.ARM.Collect$$$$00000008)
    _main_cpp_init                           0x080002a1   Thumb Code     0  entry8b.o(.ARM.Collect$$$$0000000A)
    _main_init                               0x080002a1   Thumb Code     0  entry9a.o(.ARM.Collect$$$$0000000B)
    __rt_final_cpp                           0x080002a9   Thumb Code     0  entry10a.o(.ARM.Collect$$$$0000000D)
    __rt_final_exit                          0x080002a9   Thumb Code     0  entry11a.o(.ARM.Collect$$$$0000000F)
    Reset_Handler                            0x080002ad   Thumb Code     8  startup_stm32h750xx.o(.text)
    ADC3_IRQHandler                          0x080002c7   Thumb Code     0  startup_stm32h750xx.o(.text)
    ADC_IRQHandler                           0x080002c7   Thumb Code     0  startup_stm32h750xx.o(.text)
    BDMA_Channel0_IRQHandler                 0x080002c7   Thumb Code     0  startup_stm32h750xx.o(.text)
    BDMA_Channel1_IRQHandler                 0x080002c7   Thumb Code     0  startup_stm32h750xx.o(.text)
    BDMA_Channel2_IRQHandler                 0x080002c7   Thumb Code     0  startup_stm32h750xx.o(.text)
    BDMA_Channel3_IRQHandler                 0x080002c7   Thumb Code     0  startup_stm32h750xx.o(.text)
    BDMA_Channel4_IRQHandler                 0x080002c7   Thumb Code     0  startup_stm32h750xx.o(.text)
    BDMA_Channel5_IRQHandler                 0x080002c7   Thumb Code     0  startup_stm32h750xx.o(.text)
    BDMA_Channel6_IRQHandler                 0x080002c7   Thumb Code     0  startup_stm32h750xx.o(.text)
    BDMA_Channel7_IRQHandler                 0x080002c7   Thumb Code     0  startup_stm32h750xx.o(.text)
    CEC_IRQHandler                           0x080002c7   Thumb Code     0  startup_stm32h750xx.o(.text)
    COMP1_IRQHandler                         0x080002c7   Thumb Code     0  startup_stm32h750xx.o(.text)
    CRS_IRQHandler                           0x080002c7   Thumb Code     0  startup_stm32h750xx.o(.text)
    CRYP_IRQHandler                          0x080002c7   Thumb Code     0  startup_stm32h750xx.o(.text)
    DFSDM1_FLT0_IRQHandler                   0x080002c7   Thumb Code     0  startup_stm32h750xx.o(.text)
    DFSDM1_FLT1_IRQHandler                   0x080002c7   Thumb Code     0  startup_stm32h750xx.o(.text)
    DFSDM1_FLT2_IRQHandler                   0x080002c7   Thumb Code     0  startup_stm32h750xx.o(.text)
    DFSDM1_FLT3_IRQHandler                   0x080002c7   Thumb Code     0  startup_stm32h750xx.o(.text)
    DMA1_Stream0_IRQHandler                  0x080002c7   Thumb Code     0  startup_stm32h750xx.o(.text)
    DMA1_Stream1_IRQHandler                  0x080002c7   Thumb Code     0  startup_stm32h750xx.o(.text)
    DMA1_Stream2_IRQHandler                  0x080002c7   Thumb Code     0  startup_stm32h750xx.o(.text)
    DMA1_Stream3_IRQHandler                  0x080002c7   Thumb Code     0  startup_stm32h750xx.o(.text)
    DMA1_Stream4_IRQHandler                  0x080002c7   Thumb Code     0  startup_stm32h750xx.o(.text)
    DMA1_Stream5_IRQHandler                  0x080002c7   Thumb Code     0  startup_stm32h750xx.o(.text)
    DMA1_Stream6_IRQHandler                  0x080002c7   Thumb Code     0  startup_stm32h750xx.o(.text)
    DMA1_Stream7_IRQHandler                  0x080002c7   Thumb Code     0  startup_stm32h750xx.o(.text)
    DMA2D_IRQHandler                         0x080002c7   Thumb Code     0  startup_stm32h750xx.o(.text)
    DMA2_Stream0_IRQHandler                  0x080002c7   Thumb Code     0  startup_stm32h750xx.o(.text)
    DMA2_Stream1_IRQHandler                  0x080002c7   Thumb Code     0  startup_stm32h750xx.o(.text)
    DMA2_Stream2_IRQHandler                  0x080002c7   Thumb Code     0  startup_stm32h750xx.o(.text)
    DMA2_Stream3_IRQHandler                  0x080002c7   Thumb Code     0  startup_stm32h750xx.o(.text)
    DMA2_Stream4_IRQHandler                  0x080002c7   Thumb Code     0  startup_stm32h750xx.o(.text)
    DMA2_Stream5_IRQHandler                  0x080002c7   Thumb Code     0  startup_stm32h750xx.o(.text)
    DMA2_Stream6_IRQHandler                  0x080002c7   Thumb Code     0  startup_stm32h750xx.o(.text)
    DMAMUX1_OVR_IRQHandler                   0x080002c7   Thumb Code     0  startup_stm32h750xx.o(.text)
    DMAMUX2_OVR_IRQHandler                   0x080002c7   Thumb Code     0  startup_stm32h750xx.o(.text)
    ECC_IRQHandler                           0x080002c7   Thumb Code     0  startup_stm32h750xx.o(.text)
    ETH_IRQHandler                           0x080002c7   Thumb Code     0  startup_stm32h750xx.o(.text)
    ETH_WKUP_IRQHandler                      0x080002c7   Thumb Code     0  startup_stm32h750xx.o(.text)
    EXTI0_IRQHandler                         0x080002c7   Thumb Code     0  startup_stm32h750xx.o(.text)
    EXTI15_10_IRQHandler                     0x080002c7   Thumb Code     0  startup_stm32h750xx.o(.text)
    EXTI1_IRQHandler                         0x080002c7   Thumb Code     0  startup_stm32h750xx.o(.text)
    EXTI2_IRQHandler                         0x080002c7   Thumb Code     0  startup_stm32h750xx.o(.text)
    EXTI3_IRQHandler                         0x080002c7   Thumb Code     0  startup_stm32h750xx.o(.text)
    EXTI4_IRQHandler                         0x080002c7   Thumb Code     0  startup_stm32h750xx.o(.text)
    EXTI9_5_IRQHandler                       0x080002c7   Thumb Code     0  startup_stm32h750xx.o(.text)
    FDCAN1_IT0_IRQHandler                    0x080002c7   Thumb Code     0  startup_stm32h750xx.o(.text)
    FDCAN1_IT1_IRQHandler                    0x080002c7   Thumb Code     0  startup_stm32h750xx.o(.text)
    FDCAN2_IT0_IRQHandler                    0x080002c7   Thumb Code     0  startup_stm32h750xx.o(.text)
    FDCAN2_IT1_IRQHandler                    0x080002c7   Thumb Code     0  startup_stm32h750xx.o(.text)
    FDCAN_CAL_IRQHandler                     0x080002c7   Thumb Code     0  startup_stm32h750xx.o(.text)
    FLASH_IRQHandler                         0x080002c7   Thumb Code     0  startup_stm32h750xx.o(.text)
    FMC_IRQHandler                           0x080002c7   Thumb Code     0  startup_stm32h750xx.o(.text)
    FPU_IRQHandler                           0x080002c7   Thumb Code     0  startup_stm32h750xx.o(.text)
    HASH_RNG_IRQHandler                      0x080002c7   Thumb Code     0  startup_stm32h750xx.o(.text)
    HRTIM1_FLT_IRQHandler                    0x080002c7   Thumb Code     0  startup_stm32h750xx.o(.text)
    HRTIM1_Master_IRQHandler                 0x080002c7   Thumb Code     0  startup_stm32h750xx.o(.text)
    HRTIM1_TIMA_IRQHandler                   0x080002c7   Thumb Code     0  startup_stm32h750xx.o(.text)
    HRTIM1_TIMB_IRQHandler                   0x080002c7   Thumb Code     0  startup_stm32h750xx.o(.text)
    HRTIM1_TIMC_IRQHandler                   0x080002c7   Thumb Code     0  startup_stm32h750xx.o(.text)
    HRTIM1_TIMD_IRQHandler                   0x080002c7   Thumb Code     0  startup_stm32h750xx.o(.text)
    HRTIM1_TIME_IRQHandler                   0x080002c7   Thumb Code     0  startup_stm32h750xx.o(.text)
    HSEM1_IRQHandler                         0x080002c7   Thumb Code     0  startup_stm32h750xx.o(.text)
    I2C1_ER_IRQHandler                       0x080002c7   Thumb Code     0  startup_stm32h750xx.o(.text)
    I2C1_EV_IRQHandler                       0x080002c7   Thumb Code     0  startup_stm32h750xx.o(.text)
    I2C2_ER_IRQHandler                       0x080002c7   Thumb Code     0  startup_stm32h750xx.o(.text)
    I2C2_EV_IRQHandler                       0x080002c7   Thumb Code     0  startup_stm32h750xx.o(.text)
    I2C3_ER_IRQHandler                       0x080002c7   Thumb Code     0  startup_stm32h750xx.o(.text)
    I2C3_EV_IRQHandler                       0x080002c7   Thumb Code     0  startup_stm32h750xx.o(.text)
    I2C4_ER_IRQHandler                       0x080002c7   Thumb Code     0  startup_stm32h750xx.o(.text)
    I2C4_EV_IRQHandler                       0x080002c7   Thumb Code     0  startup_stm32h750xx.o(.text)
    JPEG_IRQHandler                          0x080002c7   Thumb Code     0  startup_stm32h750xx.o(.text)
    LPTIM1_IRQHandler                        0x080002c7   Thumb Code     0  startup_stm32h750xx.o(.text)
    LPTIM2_IRQHandler                        0x080002c7   Thumb Code     0  startup_stm32h750xx.o(.text)
    LPTIM3_IRQHandler                        0x080002c7   Thumb Code     0  startup_stm32h750xx.o(.text)
    LPTIM4_IRQHandler                        0x080002c7   Thumb Code     0  startup_stm32h750xx.o(.text)
    LPTIM5_IRQHandler                        0x080002c7   Thumb Code     0  startup_stm32h750xx.o(.text)
    LPUART1_IRQHandler                       0x080002c7   Thumb Code     0  startup_stm32h750xx.o(.text)
    LTDC_ER_IRQHandler                       0x080002c7   Thumb Code     0  startup_stm32h750xx.o(.text)
    LTDC_IRQHandler                          0x080002c7   Thumb Code     0  startup_stm32h750xx.o(.text)
    MDIOS_IRQHandler                         0x080002c7   Thumb Code     0  startup_stm32h750xx.o(.text)
    MDIOS_WKUP_IRQHandler                    0x080002c7   Thumb Code     0  startup_stm32h750xx.o(.text)
    MDMA_IRQHandler                          0x080002c7   Thumb Code     0  startup_stm32h750xx.o(.text)
    OTG_FS_EP1_IN_IRQHandler                 0x080002c7   Thumb Code     0  startup_stm32h750xx.o(.text)
    OTG_FS_EP1_OUT_IRQHandler                0x080002c7   Thumb Code     0  startup_stm32h750xx.o(.text)
    OTG_FS_WKUP_IRQHandler                   0x080002c7   Thumb Code     0  startup_stm32h750xx.o(.text)
    OTG_HS_EP1_IN_IRQHandler                 0x080002c7   Thumb Code     0  startup_stm32h750xx.o(.text)
    OTG_HS_EP1_OUT_IRQHandler                0x080002c7   Thumb Code     0  startup_stm32h750xx.o(.text)
    OTG_HS_IRQHandler                        0x080002c7   Thumb Code     0  startup_stm32h750xx.o(.text)
    OTG_HS_WKUP_IRQHandler                   0x080002c7   Thumb Code     0  startup_stm32h750xx.o(.text)
    PVD_AVD_IRQHandler                       0x080002c7   Thumb Code     0  startup_stm32h750xx.o(.text)
    QUADSPI_IRQHandler                       0x080002c7   Thumb Code     0  startup_stm32h750xx.o(.text)
    RCC_IRQHandler                           0x080002c7   Thumb Code     0  startup_stm32h750xx.o(.text)
    RTC_Alarm_IRQHandler                     0x080002c7   Thumb Code     0  startup_stm32h750xx.o(.text)
    RTC_WKUP_IRQHandler                      0x080002c7   Thumb Code     0  startup_stm32h750xx.o(.text)
    SAI1_IRQHandler                          0x080002c7   Thumb Code     0  startup_stm32h750xx.o(.text)
    SAI2_IRQHandler                          0x080002c7   Thumb Code     0  startup_stm32h750xx.o(.text)
    SAI3_IRQHandler                          0x080002c7   Thumb Code     0  startup_stm32h750xx.o(.text)
    SAI4_IRQHandler                          0x080002c7   Thumb Code     0  startup_stm32h750xx.o(.text)
    SDMMC2_IRQHandler                        0x080002c7   Thumb Code     0  startup_stm32h750xx.o(.text)
    SPDIF_RX_IRQHandler                      0x080002c7   Thumb Code     0  startup_stm32h750xx.o(.text)
    SPI1_IRQHandler                          0x080002c7   Thumb Code     0  startup_stm32h750xx.o(.text)
    SPI2_IRQHandler                          0x080002c7   Thumb Code     0  startup_stm32h750xx.o(.text)
    SPI3_IRQHandler                          0x080002c7   Thumb Code     0  startup_stm32h750xx.o(.text)
    SPI4_IRQHandler                          0x080002c7   Thumb Code     0  startup_stm32h750xx.o(.text)
    SPI5_IRQHandler                          0x080002c7   Thumb Code     0  startup_stm32h750xx.o(.text)
    SPI6_IRQHandler                          0x080002c7   Thumb Code     0  startup_stm32h750xx.o(.text)
    SWPMI1_IRQHandler                        0x080002c7   Thumb Code     0  startup_stm32h750xx.o(.text)
    TAMP_STAMP_IRQHandler                    0x080002c7   Thumb Code     0  startup_stm32h750xx.o(.text)
    TIM15_IRQHandler                         0x080002c7   Thumb Code     0  startup_stm32h750xx.o(.text)
    TIM16_IRQHandler                         0x080002c7   Thumb Code     0  startup_stm32h750xx.o(.text)
    TIM17_IRQHandler                         0x080002c7   Thumb Code     0  startup_stm32h750xx.o(.text)
    TIM1_BRK_IRQHandler                      0x080002c7   Thumb Code     0  startup_stm32h750xx.o(.text)
    TIM1_CC_IRQHandler                       0x080002c7   Thumb Code     0  startup_stm32h750xx.o(.text)
    TIM1_TRG_COM_IRQHandler                  0x080002c7   Thumb Code     0  startup_stm32h750xx.o(.text)
    TIM1_UP_IRQHandler                       0x080002c7   Thumb Code     0  startup_stm32h750xx.o(.text)
    TIM2_IRQHandler                          0x080002c7   Thumb Code     0  startup_stm32h750xx.o(.text)
    TIM3_IRQHandler                          0x080002c7   Thumb Code     0  startup_stm32h750xx.o(.text)
    TIM4_IRQHandler                          0x080002c7   Thumb Code     0  startup_stm32h750xx.o(.text)
    TIM5_IRQHandler                          0x080002c7   Thumb Code     0  startup_stm32h750xx.o(.text)
    TIM6_DAC_IRQHandler                      0x080002c7   Thumb Code     0  startup_stm32h750xx.o(.text)
    TIM7_IRQHandler                          0x080002c7   Thumb Code     0  startup_stm32h750xx.o(.text)
    TIM8_BRK_TIM12_IRQHandler                0x080002c7   Thumb Code     0  startup_stm32h750xx.o(.text)
    TIM8_CC_IRQHandler                       0x080002c7   Thumb Code     0  startup_stm32h750xx.o(.text)
    TIM8_TRG_COM_TIM14_IRQHandler            0x080002c7   Thumb Code     0  startup_stm32h750xx.o(.text)
    TIM8_UP_TIM13_IRQHandler                 0x080002c7   Thumb Code     0  startup_stm32h750xx.o(.text)
    UART4_IRQHandler                         0x080002c7   Thumb Code     0  startup_stm32h750xx.o(.text)
    UART5_IRQHandler                         0x080002c7   Thumb Code     0  startup_stm32h750xx.o(.text)
    UART7_IRQHandler                         0x080002c7   Thumb Code     0  startup_stm32h750xx.o(.text)
    UART8_IRQHandler                         0x080002c7   Thumb Code     0  startup_stm32h750xx.o(.text)
    USART1_IRQHandler                        0x080002c7   Thumb Code     0  startup_stm32h750xx.o(.text)
    USART2_IRQHandler                        0x080002c7   Thumb Code     0  startup_stm32h750xx.o(.text)
    USART3_IRQHandler                        0x080002c7   Thumb Code     0  startup_stm32h750xx.o(.text)
    USART6_IRQHandler                        0x080002c7   Thumb Code     0  startup_stm32h750xx.o(.text)
    WAKEUP_PIN_IRQHandler                    0x080002c7   Thumb Code     0  startup_stm32h750xx.o(.text)
    WWDG_IRQHandler                          0x080002c7   Thumb Code     0  startup_stm32h750xx.o(.text)
    __aeabi_uldivmod                         0x080002d1   Thumb Code    98  uldiv.o(.text)
    __aeabi_memset                           0x08000333   Thumb Code    14  memseta.o(.text)
    __aeabi_memset4                          0x08000333   Thumb Code     0  memseta.o(.text)
    __aeabi_memset8                          0x08000333   Thumb Code     0  memseta.o(.text)
    __aeabi_memclr                           0x08000341   Thumb Code     4  memseta.o(.text)
    __aeabi_memclr4                          0x08000341   Thumb Code     0  memseta.o(.text)
    __aeabi_memclr8                          0x08000341   Thumb Code     0  memseta.o(.text)
    _memset$wrapper                          0x08000345   Thumb Code    18  memseta.o(.text)
    __aeabi_uidiv                            0x08000357   Thumb Code     0  uidiv.o(.text)
    __aeabi_uidivmod                         0x08000357   Thumb Code    44  uidiv.o(.text)
    __aeabi_llsl                             0x08000383   Thumb Code    30  llshl.o(.text)
    _ll_shift_l                              0x08000383   Thumb Code     0  llshl.o(.text)
    __aeabi_llsr                             0x080003a1   Thumb Code    32  llushr.o(.text)
    _ll_ushift_r                             0x080003a1   Thumb Code     0  llushr.o(.text)
    __I$use$fp                               0x080003c1   Thumb Code     0  iusefp.o(.text)
    __aeabi_dadd                             0x080003c1   Thumb Code   322  dadd.o(.text)
    __aeabi_dsub                             0x08000503   Thumb Code     6  dadd.o(.text)
    __aeabi_drsub                            0x08000509   Thumb Code     6  dadd.o(.text)
    __aeabi_dmul                             0x0800050f   Thumb Code   228  dmul.o(.text)
    __aeabi_ddiv                             0x080005f3   Thumb Code   222  ddiv.o(.text)
    __aeabi_d2ulz                            0x080006d1   Thumb Code    48  dfixul.o(.text)
    __aeabi_cdrcmple                         0x08000701   Thumb Code    48  cdrcmple.o(.text)
    __scatterload                            0x08000731   Thumb Code    28  init.o(.text)
    __scatterload_rt2                        0x08000731   Thumb Code     0  init.o(.text)
    __aeabi_lasr                             0x08000755   Thumb Code    36  llsshr.o(.text)
    _ll_sshift_r                             0x08000755   Thumb Code     0  llsshr.o(.text)
    _double_round                            0x08000779   Thumb Code    30  depilogue.o(.text)
    _double_epilogue                         0x08000797   Thumb Code   156  depilogue.o(.text)
    BusFault_Handler                         0x08000833   Thumb Code     2  stm32h7xx_it.o(i.BusFault_Handler)
    DCMI_IRQHandler                          0x080008d9   Thumb Code     6  stm32h7xx_it.o(i.DCMI_IRQHandler)
    DCMI_OV2640_Init                         0x080008e5   Thumb Code    96  dcmi.o(i.DCMI_OV2640_Init)
    DMA2_Stream7_IRQHandler                  0x08000979   Thumb Code     6  stm32h7xx_it.o(i.DMA2_Stream7_IRQHandler)
    DebugMon_Handler                         0x08000e5d   Thumb Code     2  stm32h7xx_it.o(i.DebugMon_Handler)
    Error_Handler                            0x08000e5f   Thumb Code     4  main.o(i.Error_Handler)
    HAL_DCMI_ConfigCrop                      0x08000e63   Thumb Code    54  stm32h7xx_hal_dcmi.o(i.HAL_DCMI_ConfigCrop)
    HAL_DCMI_EnableCrop                      0x08000e99   Thumb Code    48  stm32h7xx_hal_dcmi.o(i.HAL_DCMI_EnableCrop)
    HAL_DCMI_ErrorCallback                   0x08000ec9   Thumb Code     2  dcmi.o(i.HAL_DCMI_ErrorCallback)
    HAL_DCMI_FrameEventCallback              0x08000ecd   Thumb Code    44  dcmi.o(i.HAL_DCMI_FrameEventCallback)
    HAL_DCMI_IRQHandler                      0x08000efd   Thumb Code   152  stm32h7xx_hal_dcmi.o(i.HAL_DCMI_IRQHandler)
    HAL_DCMI_Init                            0x08000f99   Thumb Code   152  stm32h7xx_hal_dcmi.o(i.HAL_DCMI_Init)
    HAL_DCMI_LineEventCallback               0x08001035   Thumb Code     2  stm32h7xx_hal_dcmi.o(i.HAL_DCMI_LineEventCallback)
    HAL_DCMI_MspInit                         0x08001039   Thumb Code   294  dcmi.o(i.HAL_DCMI_MspInit)
    HAL_DCMI_Start_DMA                       0x0800117d   Thumb Code   226  stm32h7xx_hal_dcmi.o(i.HAL_DCMI_Start_DMA)
    HAL_DCMI_VsyncEventCallback              0x08001269   Thumb Code     2  stm32h7xx_hal_dcmi.o(i.HAL_DCMI_VsyncEventCallback)
    HAL_DMAEx_ChangeMemory                   0x0800126d   Thumb Code   134  stm32h7xx_hal_dma_ex.o(i.HAL_DMAEx_ChangeMemory)
    HAL_DMAEx_MultiBufferStart_IT            0x080012fd   Thumb Code  1128  stm32h7xx_hal_dma_ex.o(i.HAL_DMAEx_MultiBufferStart_IT)
    HAL_DMA_Abort_IT                         0x08001765   Thumb Code   602  stm32h7xx_hal_dma.o(i.HAL_DMA_Abort_IT)
    HAL_DMA_IRQHandler                       0x080019e9   Thumb Code  1756  stm32h7xx_hal_dma.o(i.HAL_DMA_IRQHandler)
    HAL_DMA_Init                             0x080020d1   Thumb Code   926  stm32h7xx_hal_dma.o(i.HAL_DMA_Init)
    HAL_DMA_Start_IT                         0x08002495   Thumb Code   628  stm32h7xx_hal_dma.o(i.HAL_DMA_Start_IT)
    HAL_Delay                                0x08002731   Thumb Code    32  stm32h7xx_hal.o(i.HAL_Delay)
    HAL_GPIO_Init                            0x08002755   Thumb Code   506  stm32h7xx_hal_gpio.o(i.HAL_GPIO_Init)
    HAL_GPIO_ReadPin                         0x08002981   Thumb Code    10  stm32h7xx_hal_gpio.o(i.HAL_GPIO_ReadPin)
    HAL_GPIO_WritePin                        0x0800298b   Thumb Code    10  stm32h7xx_hal_gpio.o(i.HAL_GPIO_WritePin)
    HAL_GetREVID                             0x08002995   Thumb Code     8  stm32h7xx_hal.o(i.HAL_GetREVID)
    HAL_GetTick                              0x080029a1   Thumb Code     6  stm32h7xx_hal.o(i.HAL_GetTick)
    HAL_IncTick                              0x080029ad   Thumb Code    12  stm32h7xx_hal.o(i.HAL_IncTick)
    HAL_Init                                 0x080029bd   Thumb Code    74  stm32h7xx_hal.o(i.HAL_Init)
    HAL_InitTick                             0x08002a19   Thumb Code    56  stm32h7xx_hal.o(i.HAL_InitTick)
    HAL_MPU_ConfigRegion                     0x08002a59   Thumb Code    86  stm32h7xx_hal_cortex.o(i.HAL_MPU_ConfigRegion)
    HAL_MPU_Disable                          0x08002ab5   Thumb Code    24  stm32h7xx_hal_cortex.o(i.HAL_MPU_Disable)
    HAL_MPU_Enable                           0x08002ad1   Thumb Code    30  stm32h7xx_hal_cortex.o(i.HAL_MPU_Enable)
    HAL_MspInit                              0x08002af5   Thumb Code    22  stm32h7xx_hal_msp.o(i.HAL_MspInit)
    HAL_NVIC_EnableIRQ                       0x08002b11   Thumb Code    26  stm32h7xx_hal_cortex.o(i.HAL_NVIC_EnableIRQ)
    HAL_NVIC_SetPriority                     0x08002b2d   Thumb Code    60  stm32h7xx_hal_cortex.o(i.HAL_NVIC_SetPriority)
    HAL_NVIC_SetPriorityGrouping             0x08002b6d   Thumb Code    28  stm32h7xx_hal_cortex.o(i.HAL_NVIC_SetPriorityGrouping)
    HAL_PCDEx_LPM_Callback                   0x08002b91   Thumb Code     2  stm32h7xx_hal_pcd_ex.o(i.HAL_PCDEx_LPM_Callback)
    HAL_PCD_ConnectCallback                  0x08002b93   Thumb Code     8  usbd_conf.o(i.HAL_PCD_ConnectCallback)
    HAL_PCD_DataInStageCallback              0x08002b9b   Thumb Code    18  usbd_conf.o(i.HAL_PCD_DataInStageCallback)
    HAL_PCD_DataOutStageCallback             0x08002bad   Thumb Code    20  usbd_conf.o(i.HAL_PCD_DataOutStageCallback)
    HAL_PCD_DisconnectCallback               0x08002bc1   Thumb Code     8  usbd_conf.o(i.HAL_PCD_DisconnectCallback)
    HAL_PCD_EP_Abort                         0x08002bc9   Thumb Code    30  stm32h7xx_hal_pcd.o(i.HAL_PCD_EP_Abort)
    HAL_PCD_EP_ClrStall                      0x08002be7   Thumb Code    92  stm32h7xx_hal_pcd.o(i.HAL_PCD_EP_ClrStall)
    HAL_PCD_EP_Open                          0x08002c43   Thumb Code    96  stm32h7xx_hal_pcd.o(i.HAL_PCD_EP_Open)
    HAL_PCD_EP_Receive                       0x08002ca3   Thumb Code    52  stm32h7xx_hal_pcd.o(i.HAL_PCD_EP_Receive)
    HAL_PCD_EP_SetStall                      0x08002cd7   Thumb Code   116  stm32h7xx_hal_pcd.o(i.HAL_PCD_EP_SetStall)
    HAL_PCD_EP_Transmit                      0x08002d4b   Thumb Code    52  stm32h7xx_hal_pcd.o(i.HAL_PCD_EP_Transmit)
    HAL_PCD_IRQHandler                       0x08002d81   Thumb Code  1436  stm32h7xx_hal_pcd.o(i.HAL_PCD_IRQHandler)
    HAL_PCD_ISOINIncompleteCallback          0x0800331d   Thumb Code     8  usbd_conf.o(i.HAL_PCD_ISOINIncompleteCallback)
    HAL_PCD_ISOOUTIncompleteCallback         0x08003325   Thumb Code     8  usbd_conf.o(i.HAL_PCD_ISOOUTIncompleteCallback)
    HAL_PCD_ResetCallback                    0x0800332d   Thumb Code    44  usbd_conf.o(i.HAL_PCD_ResetCallback)
    HAL_PCD_ResumeCallback                   0x08003359   Thumb Code     8  usbd_conf.o(i.HAL_PCD_ResumeCallback)
    HAL_PCD_SOFCallback                      0x08003361   Thumb Code     8  usbd_conf.o(i.HAL_PCD_SOFCallback)
    HAL_PCD_SetAddress                       0x08003369   Thumb Code    40  stm32h7xx_hal_pcd.o(i.HAL_PCD_SetAddress)
    HAL_PCD_SetupStageCallback               0x08003391   Thumb Code    14  usbd_conf.o(i.HAL_PCD_SetupStageCallback)
    HAL_PCD_SuspendCallback                  0x080033a1   Thumb Code    44  usbd_conf.o(i.HAL_PCD_SuspendCallback)
    HAL_PWREx_ConfigSupply                   0x080033d1   Thumb Code    78  stm32h7xx_hal_pwr_ex.o(i.HAL_PWREx_ConfigSupply)
    HAL_PWR_EnableBkUpAccess                 0x08003425   Thumb Code    12  stm32h7xx_hal_pwr.o(i.HAL_PWR_EnableBkUpAccess)
    HAL_RCCEx_GetD3PCLK1Freq                 0x08003435   Thumb Code    26  stm32h7xx_hal_rcc_ex.o(i.HAL_RCCEx_GetD3PCLK1Freq)
    HAL_RCCEx_GetPLL2ClockFreq               0x08003459   Thumb Code   296  stm32h7xx_hal_rcc_ex.o(i.HAL_RCCEx_GetPLL2ClockFreq)
    HAL_RCCEx_GetPLL3ClockFreq               0x0800359d   Thumb Code   296  stm32h7xx_hal_rcc_ex.o(i.HAL_RCCEx_GetPLL3ClockFreq)
    HAL_RCCEx_PeriphCLKConfig                0x080036e1   Thumb Code  2472  stm32h7xx_hal_rcc_ex.o(i.HAL_RCCEx_PeriphCLKConfig)
    HAL_RCC_ClockConfig                      0x0800408d   Thumb Code   580  stm32h7xx_hal_rcc.o(i.HAL_RCC_ClockConfig)
    HAL_RCC_GetHCLKFreq                      0x080042e9   Thumb Code    52  stm32h7xx_hal_rcc.o(i.HAL_RCC_GetHCLKFreq)
    HAL_RCC_GetPCLK1Freq                     0x0800432d   Thumb Code    26  stm32h7xx_hal_rcc.o(i.HAL_RCC_GetPCLK1Freq)
    HAL_RCC_GetPCLK2Freq                     0x08004351   Thumb Code    26  stm32h7xx_hal_rcc.o(i.HAL_RCC_GetPCLK2Freq)
    HAL_RCC_GetSysClockFreq                  0x08004375   Thumb Code   278  stm32h7xx_hal_rcc.o(i.HAL_RCC_GetSysClockFreq)
    HAL_RCC_OscConfig                        0x080044ad   Thumb Code  1410  stm32h7xx_hal_rcc.o(i.HAL_RCC_OscConfig)
    HAL_SDEx_Read_DMADoubleBuf0CpltCallback  0x08004a2f   Thumb Code     2  stm32h7xx_hal_sd.o(i.HAL_SDEx_Read_DMADoubleBuf0CpltCallback)
    HAL_SDEx_Read_DMADoubleBuf1CpltCallback  0x08004a31   Thumb Code     2  stm32h7xx_hal_sd.o(i.HAL_SDEx_Read_DMADoubleBuf1CpltCallback)
    HAL_SDEx_Write_DMADoubleBuf0CpltCallback 0x08004a33   Thumb Code     2  stm32h7xx_hal_sd.o(i.HAL_SDEx_Write_DMADoubleBuf0CpltCallback)
    HAL_SDEx_Write_DMADoubleBuf1CpltCallback 0x08004a35   Thumb Code     2  stm32h7xx_hal_sd.o(i.HAL_SDEx_Write_DMADoubleBuf1CpltCallback)
    HAL_SD_ErrorCallback                     0x08004a37   Thumb Code     2  stm32h7xx_hal_sd.o(i.HAL_SD_ErrorCallback)
    HAL_SD_IRQHandler                        0x08004a39   Thumb Code   570  stm32h7xx_hal_sd.o(i.HAL_SD_IRQHandler)
    HAL_SD_RxCpltCallback                    0x08004c79   Thumb Code     2  stm32h7xx_hal_sd.o(i.HAL_SD_RxCpltCallback)
    HAL_SD_TxCpltCallback                    0x08004c7b   Thumb Code     2  stm32h7xx_hal_sd.o(i.HAL_SD_TxCpltCallback)
    HAL_SPI_Init                             0x08004c7d   Thumb Code   366  stm32h7xx_hal_spi.o(i.HAL_SPI_Init)
    HAL_SPI_MspInit                          0x08004df9   Thumb Code   164  spi.o(i.HAL_SPI_MspInit)
    HAL_SPI_Transmit                         0x08004ead   Thumb Code   608  stm32h7xx_hal_spi.o(i.HAL_SPI_Transmit)
    HAL_SYSTICK_Config                       0x0800510d   Thumb Code    38  stm32h7xx_hal_cortex.o(i.HAL_SYSTICK_Config)
    HAL_UARTEx_DisableFifoMode               0x08005133   Thumb Code    64  stm32h7xx_hal_uart_ex.o(i.HAL_UARTEx_DisableFifoMode)
    HAL_UARTEx_SetRxFifoThreshold            0x08005173   Thumb Code    76  stm32h7xx_hal_uart_ex.o(i.HAL_UARTEx_SetRxFifoThreshold)
    HAL_UARTEx_SetTxFifoThreshold            0x080051bf   Thumb Code    76  stm32h7xx_hal_uart_ex.o(i.HAL_UARTEx_SetTxFifoThreshold)
    HAL_UART_Init                            0x0800520b   Thumb Code   106  stm32h7xx_hal_uart.o(i.HAL_UART_Init)
    HAL_UART_MspInit                         0x08005275   Thumb Code   126  usart.o(i.HAL_UART_MspInit)
    HAL_UART_Transmit                        0x08005301   Thumb Code   176  stm32h7xx_hal_uart.o(i.HAL_UART_Transmit)
    HardFault_Handler                        0x080053b1   Thumb Code     2  stm32h7xx_it.o(i.HardFault_Handler)
    LCD_Clear                                0x080053b5   Thumb Code    78  spi.o(i.LCD_Clear)
    LCD_CopyBuffer                           0x0800540d   Thumb Code    74  spi.o(i.LCD_CopyBuffer)
    LCD_DisplayChar                          0x08005461   Thumb Code   166  spi.o(i.LCD_DisplayChar)
    LCD_DisplayNumber                        0x08005515   Thumb Code    42  spi.o(i.LCD_DisplayNumber)
    LCD_DisplayString                        0x08005551   Thumb Code    50  spi.o(i.LCD_DisplayString)
    LCD_SPI_CloseTransfer                    0x0800558d   Thumb Code   188  spi.o(i.LCD_SPI_CloseTransfer)
    LCD_SPI_Transmit                         0x08005649   Thumb Code   344  spi.o(i.LCD_SPI_Transmit)
    LCD_SPI_TransmitBuffer                   0x080057a1   Thumb Code   342  spi.o(i.LCD_SPI_TransmitBuffer)
    LCD_SPI_WaitOnFlagUntilTimeout           0x080058f7   Thumb Code    66  spi.o(i.LCD_SPI_WaitOnFlagUntilTimeout)
    LCD_SetAddress                           0x08005939   Thumb Code    78  spi.o(i.LCD_SetAddress)
    LCD_SetBackColor                         0x0800598d   Thumb Code    30  spi.o(i.LCD_SetBackColor)
    LCD_SetColor                             0x080059b1   Thumb Code    30  spi.o(i.LCD_SetColor)
    LCD_SetDirection                         0x080059d5   Thumb Code   106  spi.o(i.LCD_SetDirection)
    LCD_WriteBuff                            0x08005a45   Thumb Code    56  spi.o(i.LCD_WriteBuff)
    LCD_WriteCommand                         0x08005a85   Thumb Code    30  spi.o(i.LCD_WriteCommand)
    LCD_WriteData_16bit                      0x08005aad   Thumb Code    40  spi.o(i.LCD_WriteData_16bit)
    LCD_WriteData_8bit                       0x08005add   Thumb Code    28  spi.o(i.LCD_WriteData_8bit)
    MPU_Config                               0x08005b01   Thumb Code    74  main.o(i.MPU_Config)
    MX_DCMI_Init                             0x08005b4d   Thumb Code    72  dcmi.o(i.MX_DCMI_Init)
    MX_GPIO_Init                             0x08005b9d   Thumb Code   150  gpio.o(i.MX_GPIO_Init)
    MX_SPI4_Init                             0x08005c3d   Thumb Code    82  spi.o(i.MX_SPI4_Init)
    MX_USART1_UART_Init                      0x08005c99   Thumb Code    94  usart.o(i.MX_USART1_UART_Init)
    MemManage_Handler                        0x08005d01   Thumb Code     2  stm32h7xx_it.o(i.MemManage_Handler)
    NMI_Handler                              0x08005d03   Thumb Code     2  stm32h7xx_it.o(i.NMI_Handler)
    OTG_FS_IRQHandler                        0x08005d05   Thumb Code     6  stm32h7xx_it.o(i.OTG_FS_IRQHandler)
    OV2640_Config                            0x08005d11   Thumb Code    30  dcmi.o(i.OV2640_Config)
    OV2640_DCMI_Crop                         0x08005d31   Thumb Code    64  dcmi.o(i.OV2640_DCMI_Crop)
    OV2640_DMA_Init                          0x08005d75   Thumb Code    94  dcmi.o(i.OV2640_DMA_Init)
    OV2640_DMA_Transmit_Continuous           0x08005de1   Thumb Code    38  dcmi.o(i.OV2640_DMA_Transmit_Continuous)
    OV2640_Delay                             0x08005e0d   Thumb Code    48  dcmi.o(i.OV2640_Delay)
    OV2640_ReadID                            0x08005e3d   Thumb Code    30  dcmi.o(i.OV2640_ReadID)
    OV2640_Reset                             0x08005e5d   Thumb Code    52  dcmi.o(i.OV2640_Reset)
    OV2640_Set_Framesize                     0x08005e95   Thumb Code    76  dcmi.o(i.OV2640_Set_Framesize)
    PendSV_Handler                           0x0800604f   Thumb Code     2  stm32h7xx_it.o(i.PendSV_Handler)
    SCCB_ACK                                 0x08006291   Thumb Code    88  sccb.o(i.SCCB_ACK)
    SCCB_Delay                               0x080062ed   Thumb Code    40  sccb.o(i.SCCB_Delay)
    SCCB_GPIO_Config                         0x08006315   Thumb Code   114  sccb.o(i.SCCB_GPIO_Config)
    SCCB_NoACK                               0x08006391   Thumb Code    76  sccb.o(i.SCCB_NoACK)
    SCCB_ReadByte                            0x080063e1   Thumb Code   104  sccb.o(i.SCCB_ReadByte)
    SCCB_ReadReg                             0x0800644d   Thumb Code    52  sccb.o(i.SCCB_ReadReg)
    SCCB_Start                               0x08006481   Thumb Code    70  sccb.o(i.SCCB_Start)
    SCCB_Stop                                0x080064cd   Thumb Code    78  sccb.o(i.SCCB_Stop)
    SCCB_WaitACK                             0x08006521   Thumb Code    88  sccb.o(i.SCCB_WaitACK)
    SCCB_WriteByte                           0x0800657d   Thumb Code   102  sccb.o(i.SCCB_WriteByte)
    SCCB_WriteHandle                         0x080065e9   Thumb Code    28  sccb.o(i.SCCB_WriteHandle)
    SCCB_WriteReg                            0x08006605   Thumb Code    32  sccb.o(i.SCCB_WriteReg)
    SDMMC1_IRQHandler                        0x08006625   Thumb Code     6  stm32h7xx_it.o(i.SDMMC1_IRQHandler)
    SDMMC_CmdStopTransfer                    0x0800662d   Thumb Code    78  stm32h7xx_ll_sdmmc.o(i.SDMMC_CmdStopTransfer)
    SDMMC_GetCmdResp1                        0x08006681   Thumb Code   280  stm32h7xx_ll_sdmmc.o(i.SDMMC_GetCmdResp1)
    SDMMC_GetResponse                        0x080067a5   Thumb Code     6  stm32h7xx_ll_sdmmc.o(i.SDMMC_GetResponse)
    SDMMC_ReadFIFO                           0x080067ab   Thumb Code     6  stm32h7xx_ll_sdmmc.o(i.SDMMC_ReadFIFO)
    SDMMC_SendCommand                        0x080067b1   Thumb Code    34  stm32h7xx_ll_sdmmc.o(i.SDMMC_SendCommand)
    SDMMC_WriteFIFO                          0x080067d9   Thumb Code    10  stm32h7xx_ll_sdmmc.o(i.SDMMC_WriteFIFO)
    SPI_LCD_Init                             0x080068a1   Thumb Code   428  spi.o(i.SPI_LCD_Init)
    SVC_Handler                              0x08006aa3   Thumb Code     2  stm32h7xx_it.o(i.SVC_Handler)
    SysTick_Handler                          0x08006aaf   Thumb Code     4  stm32h7xx_it.o(i.SysTick_Handler)
    SystemClock_Config                       0x08006ab5   Thumb Code   266  main.o(i.SystemClock_Config)
    SystemInit                               0x08006bd1   Thumb Code   180  system_stm32h7xx.o(i.SystemInit)
    UART_AdvFeatureConfig                    0x08006cf1   Thumb Code   200  stm32h7xx_hal_uart.o(i.UART_AdvFeatureConfig)
    UART_CheckIdleState                      0x08006db9   Thumb Code   170  stm32h7xx_hal_uart.o(i.UART_CheckIdleState)
    UART_SetConfig                           0x08006eb9   Thumb Code   876  stm32h7xx_hal_uart.o(i.UART_SetConfig)
    UART_WaitOnFlagUntilTimeout              0x08007265   Thumb Code   140  stm32h7xx_hal_uart.o(i.UART_WaitOnFlagUntilTimeout)
    USBD_ClrClassConfig                      0x080072f1   Thumb Code    20  usbd_core.o(i.USBD_ClrClassConfig)
    USBD_CoreFindEP                          0x08007305   Thumb Code     4  usbd_core.o(i.USBD_CoreFindEP)
    USBD_CoreFindIF                          0x08007309   Thumb Code     4  usbd_core.o(i.USBD_CoreFindIF)
    USBD_CtlContinueRx                       0x0800730d   Thumb Code    16  usbd_ioreq.o(i.USBD_CtlContinueRx)
    USBD_CtlContinueSendData                 0x0800731d   Thumb Code    16  usbd_ioreq.o(i.USBD_CtlContinueSendData)
    USBD_CtlError                            0x0800732d   Thumb Code    22  usbd_ctlreq.o(i.USBD_CtlError)
    USBD_CtlReceiveStatus                    0x08007343   Thumb Code    22  usbd_ioreq.o(i.USBD_CtlReceiveStatus)
    USBD_CtlSendData                         0x08007359   Thumb Code    26  usbd_ioreq.o(i.USBD_CtlSendData)
    USBD_CtlSendStatus                       0x08007373   Thumb Code    22  usbd_ioreq.o(i.USBD_CtlSendStatus)
    USBD_Get_USB_Status                      0x08007483   Thumb Code    24  usbd_conf.o(i.USBD_Get_USB_Status)
    USBD_LL_ClearStallEP                     0x0800749b   Thumb Code    18  usbd_conf.o(i.USBD_LL_ClearStallEP)
    USBD_LL_DataInStage                      0x080074ad   Thumb Code   184  usbd_core.o(i.USBD_LL_DataInStage)
    USBD_LL_DataOutStage                     0x08007565   Thumb Code   144  usbd_core.o(i.USBD_LL_DataOutStage)
    USBD_LL_DevConnected                     0x080075f5   Thumb Code     4  usbd_core.o(i.USBD_LL_DevConnected)
    USBD_LL_DevDisconnected                  0x080075f9   Thumb Code    32  usbd_core.o(i.USBD_LL_DevDisconnected)
    USBD_LL_IsStallEP                        0x08007619   Thumb Code    32  usbd_conf.o(i.USBD_LL_IsStallEP)
    USBD_LL_IsoINIncomplete                  0x08007639   Thumb Code    40  usbd_core.o(i.USBD_LL_IsoINIncomplete)
    USBD_LL_IsoOUTIncomplete                 0x08007661   Thumb Code    40  usbd_core.o(i.USBD_LL_IsoOUTIncomplete)
    USBD_LL_OpenEP                           0x08007689   Thumb Code    24  usbd_conf.o(i.USBD_LL_OpenEP)
    USBD_LL_PrepareReceive                   0x080076a1   Thumb Code    18  usbd_conf.o(i.USBD_LL_PrepareReceive)
    USBD_LL_Reset                            0x080076b3   Thumb Code    94  usbd_core.o(i.USBD_LL_Reset)
    USBD_LL_Resume                           0x08007711   Thumb Code    20  usbd_core.o(i.USBD_LL_Resume)
    USBD_LL_SOF                              0x08007725   Thumb Code    26  usbd_core.o(i.USBD_LL_SOF)
    USBD_LL_SetSpeed                         0x0800773f   Thumb Code     6  usbd_core.o(i.USBD_LL_SetSpeed)
    USBD_LL_SetUSBAddress                    0x08007745   Thumb Code    18  usbd_conf.o(i.USBD_LL_SetUSBAddress)
    USBD_LL_SetupStage                       0x08007757   Thumb Code    96  usbd_core.o(i.USBD_LL_SetupStage)
    USBD_LL_StallEP                          0x080077b7   Thumb Code    18  usbd_conf.o(i.USBD_LL_StallEP)
    USBD_LL_Suspend                          0x080077c9   Thumb Code    26  usbd_core.o(i.USBD_LL_Suspend)
    USBD_LL_Transmit                         0x080077e3   Thumb Code    18  usbd_conf.o(i.USBD_LL_Transmit)
    USBD_ParseSetupRequest                   0x080077f5   Thumb Code    42  usbd_ctlreq.o(i.USBD_ParseSetupRequest)
    USBD_SetClassConfig                      0x0800781f   Thumb Code    20  usbd_core.o(i.USBD_SetClassConfig)
    USBD_StdDevReq                           0x080078f1   Thumb Code   302  usbd_ctlreq.o(i.USBD_StdDevReq)
    USBD_StdEPReq                            0x08007a1f   Thumb Code   356  usbd_ctlreq.o(i.USBD_StdEPReq)
    USBD_StdItfReq                           0x08007b83   Thumb Code   116  usbd_ctlreq.o(i.USBD_StdItfReq)
    USB_ActivateEndpoint                     0x08007bf9   Thumb Code   124  stm32h7xx_ll_usb.o(i.USB_ActivateEndpoint)
    USB_ActivateSetup                        0x08007c79   Thumb Code    28  stm32h7xx_ll_usb.o(i.USB_ActivateSetup)
    USB_EP0_OutStart                         0x08007c95   Thumb Code    84  stm32h7xx_ll_usb.o(i.USB_EP0_OutStart)
    USB_EPClearStall                         0x08007ced   Thumb Code    88  stm32h7xx_ll_usb.o(i.USB_EPClearStall)
    USB_EPSetStall                           0x08007d45   Thumb Code    88  stm32h7xx_ll_usb.o(i.USB_EPSetStall)
    USB_EPStartXfer                          0x08007d9d   Thumb Code   562  stm32h7xx_ll_usb.o(i.USB_EPStartXfer)
    USB_EPStopXfer                           0x08007fd5   Thumb Code   158  stm32h7xx_ll_usb.o(i.USB_EPStopXfer)
    USB_FlushTxFifo                          0x08008075   Thumb Code    58  stm32h7xx_ll_usb.o(i.USB_FlushTxFifo)
    USB_GetDevSpeed                          0x080080b5   Thumb Code    26  stm32h7xx_ll_usb.o(i.USB_GetDevSpeed)
    USB_GetMode                              0x080080cf   Thumb Code     8  stm32h7xx_ll_usb.o(i.USB_GetMode)
    USB_ReadDevAllInEpInterrupt              0x080080d7   Thumb Code    14  stm32h7xx_ll_usb.o(i.USB_ReadDevAllInEpInterrupt)
    USB_ReadDevAllOutEpInterrupt             0x080080e5   Thumb Code    14  stm32h7xx_ll_usb.o(i.USB_ReadDevAllOutEpInterrupt)
    USB_ReadDevInEPInterrupt                 0x080080f3   Thumb Code    36  stm32h7xx_ll_usb.o(i.USB_ReadDevInEPInterrupt)
    USB_ReadDevOutEPInterrupt                0x08008117   Thumb Code    16  stm32h7xx_ll_usb.o(i.USB_ReadDevOutEPInterrupt)
    USB_ReadInterrupts                       0x08008127   Thumb Code     8  stm32h7xx_ll_usb.o(i.USB_ReadInterrupts)
    USB_ReadPacket                           0x0800812f   Thumb Code    64  stm32h7xx_ll_usb.o(i.USB_ReadPacket)
    USB_SetDevAddress                        0x0800816f   Thumb Code    34  stm32h7xx_ll_usb.o(i.USB_SetDevAddress)
    USB_SetTurnaroundTime                    0x08008191   Thumb Code   158  stm32h7xx_ll_usb.o(i.USB_SetTurnaroundTime)
    USB_WritePacket                          0x08008279   Thumb Code    40  stm32h7xx_ll_usb.o(i.USB_WritePacket)
    UsageFault_Handler                       0x080082a1   Thumb Code     2  stm32h7xx_it.o(i.UsageFault_Handler)
    __0printf                                0x080082a5   Thumb Code    22  printfa.o(i.__0printf)
    __1printf                                0x080082a5   Thumb Code     0  printfa.o(i.__0printf)
    __2printf                                0x080082a5   Thumb Code     0  printfa.o(i.__0printf)
    __c89printf                              0x080082a5   Thumb Code     0  printfa.o(i.__0printf)
    printf                                   0x080082a5   Thumb Code     0  printfa.o(i.__0printf)
    __0sprintf                               0x080082c5   Thumb Code    34  printfa.o(i.__0sprintf)
    __1sprintf                               0x080082c5   Thumb Code     0  printfa.o(i.__0sprintf)
    __2sprintf                               0x080082c5   Thumb Code     0  printfa.o(i.__0sprintf)
    __c89sprintf                             0x080082c5   Thumb Code     0  printfa.o(i.__0sprintf)
    sprintf                                  0x080082c5   Thumb Code     0  printfa.o(i.__0sprintf)
    __scatterload_copy                       0x0800830f   Thumb Code    14  handlers.o(i.__scatterload_copy)
    __scatterload_null                       0x0800831d   Thumb Code     2  handlers.o(i.__scatterload_null)
    __scatterload_zeroinit                   0x0800831f   Thumb Code    14  handlers.o(i.__scatterload_zeroinit)
    fputc                                    0x08008be9   Thumb Code    18  usart.o(i.fputc)
    main                                     0x08008c01   Thumb Code   222  main.o(i.main)
    OV2640_RGB565_Config                     0x08008cf8   Data          12  dcmi.o(.constdata)
    OV2640_JPEG_Config                       0x08008d04   Data          14  dcmi.o(.constdata)
    OV2640_SVGA_Config                       0x08008d12   Data         352  dcmi.o(.constdata)
    ASCII_2412_Table                         0x08008e72   Data        4560  lcd_fonts.o(.constdata)
    UARTPrescTable                           0x0800a04a   Data          24  stm32h7xx_hal_uart.o(.constdata)
    D1CorePrescTable                         0x0800a072   Data          16  system_stm32h7xx.o(.constdata)
    Region$$Table$$Base                      0x0800a084   Number         0  anon$$obj.o(Region$$Table)
    Region$$Table$$Limit                     0x0800a0a4   Number         0  anon$$obj.o(Region$$Table)
    DCMI_FrameState                          0x20000000   Data           1  dcmi.o(.data)
    OV2640_FPS                               0x20000002   Data           1  dcmi.o(.data)
    _RoateValue                              0x20000018   Data          16  spi.o(.data)
    ASCII_Font24                             0x20000028   Data          12  lcd_fonts.o(.data)
    uwTickFreq                               0x20000034   Data           1  stm32h7xx_hal.o(.data)
    uwTickPrio                               0x20000038   Data           4  stm32h7xx_hal.o(.data)
    uwTick                                   0x2000003c   Data           4  stm32h7xx_hal.o(.data)
    SystemCoreClock                          0x20000040   Data           4  system_stm32h7xx.o(.data)
    SystemD2Clock                            0x20000044   Data           4  system_stm32h7xx.o(.data)
    __stdout                                 0x2000004c   Data           4  stdout.o(.data)
    hdcmi                                    0x20000050   Data          80  dcmi.o(.bss)
    DMA_Handle_dcmi                          0x200000a0   Data         120  dcmi.o(.bss)
    hspi4                                    0x20000118   Data         136  spi.o(.bss)
    LCD_Buff                                 0x200001a0   Data        2048  spi.o(.bss)
    LCD                                      0x200009a0   Data          16  spi.o(.bss)
    huart1                                   0x200009b0   Data         148  usart.o(.bss)
    hpcd_USB_OTG_FS                          0x20000c64   Data        1292  usbd_conf.o(.bss)
    __initial_sp                             0x20001570   Data           0  startup_stm32h750xx.o(STACK)



==============================================================================

Memory Map of the image

  Image Entry point : 0x08000299

  Load Region LR_IROM1 (Base: 0x08000000, Size: 0x0000a0f4, Max: 0x00020000, ABSOLUTE)

    Execution Region ER_IROM1 (Exec base: 0x08000000, Load base: 0x08000000, Size: 0x0000a0a4, Max: 0x00020000, ABSOLUTE)

    Exec Addr    Load Addr    Size         Type   Attr      Idx    E Section Name        Object

    0x08000000   0x08000000   0x00000298   Data   RO            3    RESET               startup_stm32h750xx.o
    0x08000298   0x08000298   0x00000000   Code   RO         7580  * .ARM.Collect$$$$00000000  mc_w.l(entry.o)
    0x08000298   0x08000298   0x00000004   Code   RO         7901    .ARM.Collect$$$$00000001  mc_w.l(entry2.o)
    0x0800029c   0x0800029c   0x00000004   Code   RO         7904    .ARM.Collect$$$$00000004  mc_w.l(entry5.o)
    0x080002a0   0x080002a0   0x00000000   Code   RO         7906    .ARM.Collect$$$$00000008  mc_w.l(entry7b.o)
    0x080002a0   0x080002a0   0x00000000   Code   RO         7908    .ARM.Collect$$$$0000000A  mc_w.l(entry8b.o)
    0x080002a0   0x080002a0   0x00000008   Code   RO         7909    .ARM.Collect$$$$0000000B  mc_w.l(entry9a.o)
    0x080002a8   0x080002a8   0x00000000   Code   RO         7911    .ARM.Collect$$$$0000000D  mc_w.l(entry10a.o)
    0x080002a8   0x080002a8   0x00000000   Code   RO         7913    .ARM.Collect$$$$0000000F  mc_w.l(entry11a.o)
    0x080002a8   0x080002a8   0x00000004   Code   RO         7902    .ARM.Collect$$$$00002712  mc_w.l(entry2.o)
    0x080002ac   0x080002ac   0x00000024   Code   RO            4    .text               startup_stm32h750xx.o
    0x080002d0   0x080002d0   0x00000062   Code   RO         7583    .text               mc_w.l(uldiv.o)
    0x08000332   0x08000332   0x00000024   Code   RO         7587    .text               mc_w.l(memseta.o)
    0x08000356   0x08000356   0x0000002c   Code   RO         7916    .text               mc_w.l(uidiv.o)
    0x08000382   0x08000382   0x0000001e   Code   RO         7918    .text               mc_w.l(llshl.o)
    0x080003a0   0x080003a0   0x00000020   Code   RO         7920    .text               mc_w.l(llushr.o)
    0x080003c0   0x080003c0   0x00000000   Code   RO         7929    .text               mc_w.l(iusefp.o)
    0x080003c0   0x080003c0   0x0000014e   Code   RO         7930    .text               mf_w.l(dadd.o)
    0x0800050e   0x0800050e   0x000000e4   Code   RO         7932    .text               mf_w.l(dmul.o)
    0x080005f2   0x080005f2   0x000000de   Code   RO         7934    .text               mf_w.l(ddiv.o)
    0x080006d0   0x080006d0   0x00000030   Code   RO         7936    .text               mf_w.l(dfixul.o)
    0x08000700   0x08000700   0x00000030   Code   RO         7938    .text               mf_w.l(cdrcmple.o)
    0x08000730   0x08000730   0x00000024   Code   RO         7944    .text               mc_w.l(init.o)
    0x08000754   0x08000754   0x00000024   Code   RO         7946    .text               mc_w.l(llsshr.o)
    0x08000778   0x08000778   0x000000ba   Code   RO         7948    .text               mf_w.l(depilogue.o)
    0x08000832   0x08000832   0x00000002   Code   RO         1052    i.BusFault_Handler  stm32h7xx_it.o
    0x08000834   0x08000834   0x00000020   Code   RO         4828    i.DCMI_DMAError     stm32h7xx_hal_dcmi.o
    0x08000854   0x08000854   0x00000084   Code   RO         4829    i.DCMI_DMAXferCplt  stm32h7xx_hal_dcmi.o
    0x080008d8   0x080008d8   0x0000000c   Code   RO         1053    i.DCMI_IRQHandler   stm32h7xx_it.o
    0x080008e4   0x080008e4   0x00000094   Code   RO          330    i.DCMI_OV2640_Init  dcmi.o
    0x08000978   0x08000978   0x0000000c   Code   RO         1054    i.DMA2_Stream7_IRQHandler  stm32h7xx_it.o
    0x08000984   0x08000984   0x000000b4   Code   RO         3070    i.DMA_CalcBaseAndBitshift  stm32h7xx_hal_dma.o
    0x08000a38   0x08000a38   0x0000009c   Code   RO         3071    i.DMA_CalcDMAMUXChannelBaseAndMask  stm32h7xx_hal_dma.o
    0x08000ad4   0x08000ad4   0x00000074   Code   RO         3072    i.DMA_CalcDMAMUXRequestGenBaseAndMask  stm32h7xx_hal_dma.o
    0x08000b48   0x08000b48   0x00000054   Code   RO         3073    i.DMA_CheckFifoParam  stm32h7xx_hal_dma.o
    0x08000b9c   0x08000b9c   0x000000a0   Code   RO         3186    i.DMA_MultiBufferSetConfig  stm32h7xx_hal_dma_ex.o
    0x08000c3c   0x08000c3c   0x00000220   Code   RO         3074    i.DMA_SetConfig     stm32h7xx_hal_dma.o
    0x08000e5c   0x08000e5c   0x00000002   Code   RO         1055    i.DebugMon_Handler  stm32h7xx_it.o
    0x08000e5e   0x08000e5e   0x00000004   Code   RO           13    i.Error_Handler     main.o
    0x08000e62   0x08000e62   0x00000036   Code   RO         4830    i.HAL_DCMI_ConfigCrop  stm32h7xx_hal_dcmi.o
    0x08000e98   0x08000e98   0x00000030   Code   RO         4834    i.HAL_DCMI_EnableCrop  stm32h7xx_hal_dcmi.o
    0x08000ec8   0x08000ec8   0x00000002   Code   RO          331    i.HAL_DCMI_ErrorCallback  dcmi.o
    0x08000eca   0x08000eca   0x00000002   PAD
    0x08000ecc   0x08000ecc   0x00000030   Code   RO          332    i.HAL_DCMI_FrameEventCallback  dcmi.o
    0x08000efc   0x08000efc   0x0000009c   Code   RO         4839    i.HAL_DCMI_IRQHandler  stm32h7xx_hal_dcmi.o
    0x08000f98   0x08000f98   0x0000009c   Code   RO         4840    i.HAL_DCMI_Init     stm32h7xx_hal_dcmi.o
    0x08001034   0x08001034   0x00000002   Code   RO         4841    i.HAL_DCMI_LineEventCallback  stm32h7xx_hal_dcmi.o
    0x08001036   0x08001036   0x00000002   PAD
    0x08001038   0x08001038   0x00000144   Code   RO          333    i.HAL_DCMI_MspInit  dcmi.o
    0x0800117c   0x0800117c   0x000000ec   Code   RO         4845    i.HAL_DCMI_Start_DMA  stm32h7xx_hal_dcmi.o
    0x08001268   0x08001268   0x00000002   Code   RO         4848    i.HAL_DCMI_VsyncEventCallback  stm32h7xx_hal_dcmi.o
    0x0800126a   0x0800126a   0x00000002   PAD
    0x0800126c   0x0800126c   0x00000090   Code   RO         3187    i.HAL_DMAEx_ChangeMemory  stm32h7xx_hal_dma_ex.o
    0x080012fc   0x080012fc   0x00000468   Code   RO         3194    i.HAL_DMAEx_MultiBufferStart_IT  stm32h7xx_hal_dma_ex.o
    0x08001764   0x08001764   0x00000284   Code   RO         3076    i.HAL_DMA_Abort_IT  stm32h7xx_hal_dma.o
    0x080019e8   0x080019e8   0x000006e8   Code   RO         3080    i.HAL_DMA_IRQHandler  stm32h7xx_hal_dma.o
    0x080020d0   0x080020d0   0x000003c4   Code   RO         3081    i.HAL_DMA_Init      stm32h7xx_hal_dma.o
    0x08002494   0x08002494   0x0000029c   Code   RO         3085    i.HAL_DMA_Start_IT  stm32h7xx_hal_dma.o
    0x08002730   0x08002730   0x00000024   Code   RO         3925    i.HAL_Delay         stm32h7xx_hal.o
    0x08002754   0x08002754   0x0000022c   Code   RO         2923    i.HAL_GPIO_Init     stm32h7xx_hal_gpio.o
    0x08002980   0x08002980   0x0000000a   Code   RO         2925    i.HAL_GPIO_ReadPin  stm32h7xx_hal_gpio.o
    0x0800298a   0x0800298a   0x0000000a   Code   RO         2927    i.HAL_GPIO_WritePin  stm32h7xx_hal_gpio.o
    0x08002994   0x08002994   0x0000000c   Code   RO         3936    i.HAL_GetREVID      stm32h7xx_hal.o
    0x080029a0   0x080029a0   0x0000000c   Code   RO         3937    i.HAL_GetTick       stm32h7xx_hal.o
    0x080029ac   0x080029ac   0x00000010   Code   RO         3943    i.HAL_IncTick       stm32h7xx_hal.o
    0x080029bc   0x080029bc   0x0000005c   Code   RO         3944    i.HAL_Init          stm32h7xx_hal.o
    0x08002a18   0x08002a18   0x00000040   Code   RO         3945    i.HAL_InitTick      stm32h7xx_hal.o
    0x08002a58   0x08002a58   0x0000005c   Code   RO         3778    i.HAL_MPU_ConfigRegion  stm32h7xx_hal_cortex.o
    0x08002ab4   0x08002ab4   0x0000001c   Code   RO         3779    i.HAL_MPU_Disable   stm32h7xx_hal_cortex.o
    0x08002ad0   0x08002ad0   0x00000024   Code   RO         3780    i.HAL_MPU_Enable    stm32h7xx_hal_cortex.o
    0x08002af4   0x08002af4   0x0000001c   Code   RO         1152    i.HAL_MspInit       stm32h7xx_hal_msp.o
    0x08002b10   0x08002b10   0x0000001a   Code   RO         3783    i.HAL_NVIC_EnableIRQ  stm32h7xx_hal_cortex.o
    0x08002b2a   0x08002b2a   0x00000002   PAD
    0x08002b2c   0x08002b2c   0x00000040   Code   RO         3789    i.HAL_NVIC_SetPriority  stm32h7xx_hal_cortex.o
    0x08002b6c   0x08002b6c   0x00000024   Code   RO         3790    i.HAL_NVIC_SetPriorityGrouping  stm32h7xx_hal_cortex.o
    0x08002b90   0x08002b90   0x00000002   Code   RO         2079    i.HAL_PCDEx_LPM_Callback  stm32h7xx_hal_pcd_ex.o
    0x08002b92   0x08002b92   0x00000008   Code   RO         1634    i.HAL_PCD_ConnectCallback  usbd_conf.o
    0x08002b9a   0x08002b9a   0x00000012   Code   RO         1635    i.HAL_PCD_DataInStageCallback  usbd_conf.o
    0x08002bac   0x08002bac   0x00000014   Code   RO         1636    i.HAL_PCD_DataOutStageCallback  usbd_conf.o
    0x08002bc0   0x08002bc0   0x00000008   Code   RO         1637    i.HAL_PCD_DisconnectCallback  usbd_conf.o
    0x08002bc8   0x08002bc8   0x0000001e   Code   RO         1850    i.HAL_PCD_EP_Abort  stm32h7xx_hal_pcd.o
    0x08002be6   0x08002be6   0x0000005c   Code   RO         1852    i.HAL_PCD_EP_ClrStall  stm32h7xx_hal_pcd.o
    0x08002c42   0x08002c42   0x00000060   Code   RO         1855    i.HAL_PCD_EP_Open   stm32h7xx_hal_pcd.o
    0x08002ca2   0x08002ca2   0x00000034   Code   RO         1856    i.HAL_PCD_EP_Receive  stm32h7xx_hal_pcd.o
    0x08002cd6   0x08002cd6   0x00000074   Code   RO         1857    i.HAL_PCD_EP_SetStall  stm32h7xx_hal_pcd.o
    0x08002d4a   0x08002d4a   0x00000034   Code   RO         1858    i.HAL_PCD_EP_Transmit  stm32h7xx_hal_pcd.o
    0x08002d7e   0x08002d7e   0x00000002   PAD
    0x08002d80   0x08002d80   0x0000059c   Code   RO         1860    i.HAL_PCD_IRQHandler  stm32h7xx_hal_pcd.o
    0x0800331c   0x0800331c   0x00000008   Code   RO         1638    i.HAL_PCD_ISOINIncompleteCallback  usbd_conf.o
    0x08003324   0x08003324   0x00000008   Code   RO         1639    i.HAL_PCD_ISOOUTIncompleteCallback  usbd_conf.o
    0x0800332c   0x0800332c   0x0000002c   Code   RO         1642    i.HAL_PCD_ResetCallback  usbd_conf.o
    0x08003358   0x08003358   0x00000008   Code   RO         1643    i.HAL_PCD_ResumeCallback  usbd_conf.o
    0x08003360   0x08003360   0x00000008   Code   RO         1644    i.HAL_PCD_SOFCallback  usbd_conf.o
    0x08003368   0x08003368   0x00000028   Code   RO         1869    i.HAL_PCD_SetAddress  stm32h7xx_hal_pcd.o
    0x08003390   0x08003390   0x0000000e   Code   RO         1645    i.HAL_PCD_SetupStageCallback  usbd_conf.o
    0x0800339e   0x0800339e   0x00000002   PAD
    0x080033a0   0x080033a0   0x00000030   Code   RO         1646    i.HAL_PCD_SuspendCallback  usbd_conf.o
    0x080033d0   0x080033d0   0x00000054   Code   RO         3524    i.HAL_PWREx_ConfigSupply  stm32h7xx_hal_pwr_ex.o
    0x08003424   0x08003424   0x00000010   Code   RO         3406    i.HAL_PWR_EnableBkUpAccess  stm32h7xx_hal_pwr.o
    0x08003434   0x08003434   0x00000024   Code   RO         2566    i.HAL_RCCEx_GetD3PCLK1Freq  stm32h7xx_hal_rcc_ex.o
    0x08003458   0x08003458   0x00000144   Code   RO         2568    i.HAL_RCCEx_GetPLL2ClockFreq  stm32h7xx_hal_rcc_ex.o
    0x0800359c   0x0800359c   0x00000144   Code   RO         2569    i.HAL_RCCEx_GetPLL3ClockFreq  stm32h7xx_hal_rcc_ex.o
    0x080036e0   0x080036e0   0x000009ac   Code   RO         2575    i.HAL_RCCEx_PeriphCLKConfig  stm32h7xx_hal_rcc_ex.o
    0x0800408c   0x0800408c   0x0000025c   Code   RO         2451    i.HAL_RCC_ClockConfig  stm32h7xx_hal_rcc.o
    0x080042e8   0x080042e8   0x00000044   Code   RO         2456    i.HAL_RCC_GetHCLKFreq  stm32h7xx_hal_rcc.o
    0x0800432c   0x0800432c   0x00000024   Code   RO         2458    i.HAL_RCC_GetPCLK1Freq  stm32h7xx_hal_rcc.o
    0x08004350   0x08004350   0x00000024   Code   RO         2459    i.HAL_RCC_GetPCLK2Freq  stm32h7xx_hal_rcc.o
    0x08004374   0x08004374   0x00000138   Code   RO         2460    i.HAL_RCC_GetSysClockFreq  stm32h7xx_hal_rcc.o
    0x080044ac   0x080044ac   0x00000582   Code   RO         2463    i.HAL_RCC_OscConfig  stm32h7xx_hal_rcc.o
    0x08004a2e   0x08004a2e   0x00000002   Code   RO         5932    i.HAL_SDEx_Read_DMADoubleBuf0CpltCallback  stm32h7xx_hal_sd.o
    0x08004a30   0x08004a30   0x00000002   Code   RO         5933    i.HAL_SDEx_Read_DMADoubleBuf1CpltCallback  stm32h7xx_hal_sd.o
    0x08004a32   0x08004a32   0x00000002   Code   RO         5934    i.HAL_SDEx_Write_DMADoubleBuf0CpltCallback  stm32h7xx_hal_sd.o
    0x08004a34   0x08004a34   0x00000002   Code   RO         5935    i.HAL_SDEx_Write_DMADoubleBuf1CpltCallback  stm32h7xx_hal_sd.o
    0x08004a36   0x08004a36   0x00000002   Code   RO         5943    i.HAL_SD_ErrorCallback  stm32h7xx_hal_sd.o
    0x08004a38   0x08004a38   0x00000240   Code   RO         5951    i.HAL_SD_IRQHandler  stm32h7xx_hal_sd.o
    0x08004c78   0x08004c78   0x00000002   Code   RO         5959    i.HAL_SD_RxCpltCallback  stm32h7xx_hal_sd.o
    0x08004c7a   0x08004c7a   0x00000002   Code   RO         5960    i.HAL_SD_TxCpltCallback  stm32h7xx_hal_sd.o
    0x08004c7c   0x08004c7c   0x0000017c   Code   RO         6220    i.HAL_SPI_Init      stm32h7xx_hal_spi.o
    0x08004df8   0x08004df8   0x000000b4   Code   RO          517    i.HAL_SPI_MspInit   spi.o
    0x08004eac   0x08004eac   0x00000260   Code   RO         6229    i.HAL_SPI_Transmit  stm32h7xx_hal_spi.o
    0x0800510c   0x0800510c   0x00000026   Code   RO         3794    i.HAL_SYSTICK_Config  stm32h7xx_hal_cortex.o
    0x08005132   0x08005132   0x00000040   Code   RO         6994    i.HAL_UARTEx_DisableFifoMode  stm32h7xx_hal_uart_ex.o
    0x08005172   0x08005172   0x0000004c   Code   RO         7003    i.HAL_UARTEx_SetRxFifoThreshold  stm32h7xx_hal_uart_ex.o
    0x080051be   0x080051be   0x0000004c   Code   RO         7004    i.HAL_UARTEx_SetTxFifoThreshold  stm32h7xx_hal_uart_ex.o
    0x0800520a   0x0800520a   0x0000006a   Code   RO         6603    i.HAL_UART_Init     stm32h7xx_hal_uart.o
    0x08005274   0x08005274   0x0000008c   Code   RO         1005    i.HAL_UART_MspInit  usart.o
    0x08005300   0x08005300   0x000000b0   Code   RO         6612    i.HAL_UART_Transmit  stm32h7xx_hal_uart.o
    0x080053b0   0x080053b0   0x00000002   Code   RO         1056    i.HardFault_Handler  stm32h7xx_it.o
    0x080053b2   0x080053b2   0x00000002   PAD
    0x080053b4   0x080053b4   0x00000058   Code   RO          518    i.LCD_Clear         spi.o
    0x0800540c   0x0800540c   0x00000054   Code   RO          520    i.LCD_CopyBuffer    spi.o
    0x08005460   0x08005460   0x000000b4   Code   RO          521    i.LCD_DisplayChar   spi.o
    0x08005514   0x08005514   0x0000003c   Code   RO          524    i.LCD_DisplayNumber  spi.o
    0x08005550   0x08005550   0x0000003c   Code   RO          525    i.LCD_DisplayString  spi.o
    0x0800558c   0x0800558c   0x000000bc   Code   RO          537    i.LCD_SPI_CloseTransfer  spi.o
    0x08005648   0x08005648   0x00000158   Code   RO          538    i.LCD_SPI_Transmit  spi.o
    0x080057a0   0x080057a0   0x00000156   Code   RO          539    i.LCD_SPI_TransmitBuffer  spi.o
    0x080058f6   0x080058f6   0x00000042   Code   RO          540    i.LCD_SPI_WaitOnFlagUntilTimeout  spi.o
    0x08005938   0x08005938   0x00000054   Code   RO          541    i.LCD_SetAddress    spi.o
    0x0800598c   0x0800598c   0x00000024   Code   RO          543    i.LCD_SetBackColor  spi.o
    0x080059b0   0x080059b0   0x00000024   Code   RO          544    i.LCD_SetColor      spi.o
    0x080059d4   0x080059d4   0x00000070   Code   RO          545    i.LCD_SetDirection  spi.o
    0x08005a44   0x08005a44   0x00000040   Code   RO          548    i.LCD_WriteBuff     spi.o
    0x08005a84   0x08005a84   0x00000028   Code   RO          549    i.LCD_WriteCommand  spi.o
    0x08005aac   0x08005aac   0x00000030   Code   RO          550    i.LCD_WriteData_16bit  spi.o
    0x08005adc   0x08005adc   0x00000024   Code   RO          551    i.LCD_WriteData_8bit  spi.o
    0x08005b00   0x08005b00   0x0000004a   Code   RO           14    i.MPU_Config        main.o
    0x08005b4a   0x08005b4a   0x00000002   PAD
    0x08005b4c   0x08005b4c   0x00000050   Code   RO          334    i.MX_DCMI_Init      dcmi.o
    0x08005b9c   0x08005b9c   0x000000a0   Code   RO          302    i.MX_GPIO_Init      gpio.o
    0x08005c3c   0x08005c3c   0x0000005c   Code   RO          553    i.MX_SPI4_Init      spi.o
    0x08005c98   0x08005c98   0x00000068   Code   RO         1006    i.MX_USART1_UART_Init  usart.o
    0x08005d00   0x08005d00   0x00000002   Code   RO         1057    i.MemManage_Handler  stm32h7xx_it.o
    0x08005d02   0x08005d02   0x00000002   Code   RO         1058    i.NMI_Handler       stm32h7xx_it.o
    0x08005d04   0x08005d04   0x0000000c   Code   RO         1059    i.OTG_FS_IRQHandler  stm32h7xx_it.o
    0x08005d10   0x08005d10   0x0000001e   Code   RO          335    i.OV2640_Config     dcmi.o
    0x08005d2e   0x08005d2e   0x00000002   PAD
    0x08005d30   0x08005d30   0x00000044   Code   RO          336    i.OV2640_DCMI_Crop  dcmi.o
    0x08005d74   0x08005d74   0x0000006c   Code   RO          340    i.OV2640_DMA_Init   dcmi.o
    0x08005de0   0x08005de0   0x0000002c   Code   RO          341    i.OV2640_DMA_Transmit_Continuous  dcmi.o
    0x08005e0c   0x08005e0c   0x00000030   Code   RO          343    i.OV2640_Delay      dcmi.o
    0x08005e3c   0x08005e3c   0x0000001e   Code   RO          344    i.OV2640_ReadID     dcmi.o
    0x08005e5a   0x08005e5a   0x00000002   PAD
    0x08005e5c   0x08005e5c   0x00000038   Code   RO          345    i.OV2640_Reset      dcmi.o
    0x08005e94   0x08005e94   0x0000004c   Code   RO          349    i.OV2640_Set_Framesize  dcmi.o
    0x08005ee0   0x08005ee0   0x000000cc   Code   RO         1875    i.PCD_EP_OutXfrComplete_int  stm32h7xx_hal_pcd.o
    0x08005fac   0x08005fac   0x000000a2   Code   RO         1876    i.PCD_WriteEmptyTxFifo  stm32h7xx_hal_pcd.o
    0x0800604e   0x0800604e   0x00000002   Code   RO         1060    i.PendSV_Handler    stm32h7xx_it.o
    0x08006050   0x08006050   0x00000120   Code   RO         2578    i.RCCEx_PLL2_Config  stm32h7xx_hal_rcc_ex.o
    0x08006170   0x08006170   0x00000120   Code   RO         2579    i.RCCEx_PLL3_Config  stm32h7xx_hal_rcc_ex.o
    0x08006290   0x08006290   0x0000005c   Code   RO         1323    i.SCCB_ACK          sccb.o
    0x080062ec   0x080062ec   0x00000028   Code   RO         1324    i.SCCB_Delay        sccb.o
    0x08006314   0x08006314   0x0000007c   Code   RO         1325    i.SCCB_GPIO_Config  sccb.o
    0x08006390   0x08006390   0x00000050   Code   RO         1326    i.SCCB_NoACK        sccb.o
    0x080063e0   0x080063e0   0x0000006c   Code   RO         1327    i.SCCB_ReadByte     sccb.o
    0x0800644c   0x0800644c   0x00000034   Code   RO         1328    i.SCCB_ReadReg      sccb.o
    0x08006480   0x08006480   0x0000004c   Code   RO         1330    i.SCCB_Start        sccb.o
    0x080064cc   0x080064cc   0x00000054   Code   RO         1331    i.SCCB_Stop         sccb.o
    0x08006520   0x08006520   0x0000005c   Code   RO         1332    i.SCCB_WaitACK      sccb.o
    0x0800657c   0x0800657c   0x0000006c   Code   RO         1334    i.SCCB_WriteByte    sccb.o
    0x080065e8   0x080065e8   0x0000001c   Code   RO         1335    i.SCCB_WriteHandle  sccb.o
    0x08006604   0x08006604   0x00000020   Code   RO         1337    i.SCCB_WriteReg     sccb.o
    0x08006624   0x08006624   0x00000006   Code   RO         1061    i.SDMMC1_IRQHandler  stm32h7xx_it.o
    0x0800662a   0x0800662a   0x00000002   PAD
    0x0800662c   0x0800662c   0x00000054   Code   RO         5616    i.SDMMC_CmdStopTransfer  stm32h7xx_ll_sdmmc.o
    0x08006680   0x08006680   0x00000124   Code   RO         5622    i.SDMMC_GetCmdResp1  stm32h7xx_ll_sdmmc.o
    0x080067a4   0x080067a4   0x00000006   Code   RO         5631    i.SDMMC_GetResponse  stm32h7xx_ll_sdmmc.o
    0x080067aa   0x080067aa   0x00000006   Code   RO         5636    i.SDMMC_ReadFIFO    stm32h7xx_ll_sdmmc.o
    0x080067b0   0x080067b0   0x00000028   Code   RO         5637    i.SDMMC_SendCommand  stm32h7xx_ll_sdmmc.o
    0x080067d8   0x080067d8   0x0000000a   Code   RO         5639    i.SDMMC_WriteFIFO   stm32h7xx_ll_sdmmc.o
    0x080067e2   0x080067e2   0x000000bc   Code   RO         6240    i.SPI_CloseTransfer  stm32h7xx_hal_spi.o
    0x0800689e   0x0800689e   0x00000002   PAD
    0x080068a0   0x080068a0   0x000001bc   Code   RO          556    i.SPI_LCD_Init      spi.o
    0x08006a5c   0x08006a5c   0x00000046   Code   RO         6257    i.SPI_WaitOnFlagUntilTimeout  stm32h7xx_hal_spi.o
    0x08006aa2   0x08006aa2   0x00000002   Code   RO         1062    i.SVC_Handler       stm32h7xx_it.o
    0x08006aa4   0x08006aa4   0x0000000a   Code   RO         7308    i.SWAPBYTE          usbd_ctlreq.o
    0x08006aae   0x08006aae   0x00000004   Code   RO         1063    i.SysTick_Handler   stm32h7xx_it.o
    0x08006ab2   0x08006ab2   0x00000002   PAD
    0x08006ab4   0x08006ab4   0x0000011c   Code   RO           15    i.SystemClock_Config  main.o
    0x08006bd0   0x08006bd0   0x000000dc   Code   RO         7113    i.SystemInit        system_stm32h7xx.o
    0x08006cac   0x08006cac   0x00000044   Code   RO         7008    i.UARTEx_SetNbDataToProcess  stm32h7xx_hal_uart_ex.o
    0x08006cf0   0x08006cf0   0x000000c8   Code   RO         6617    i.UART_AdvFeatureConfig  stm32h7xx_hal_uart.o
    0x08006db8   0x08006db8   0x000000aa   Code   RO         6618    i.UART_CheckIdleState  stm32h7xx_hal_uart.o
    0x08006e62   0x08006e62   0x00000002   PAD
    0x08006e64   0x08006e64   0x00000054   Code   RO         6629    i.UART_EndRxTransfer  stm32h7xx_hal_uart.o
    0x08006eb8   0x08006eb8   0x000003ac   Code   RO         6635    i.UART_SetConfig    stm32h7xx_hal_uart.o
    0x08007264   0x08007264   0x0000008c   Code   RO         6642    i.UART_WaitOnFlagUntilTimeout  stm32h7xx_hal_uart.o
    0x080072f0   0x080072f0   0x00000014   Code   RO         7149    i.USBD_ClrClassConfig  usbd_core.o
    0x08007304   0x08007304   0x00000004   Code   RO         7150    i.USBD_CoreFindEP   usbd_core.o
    0x08007308   0x08007308   0x00000004   Code   RO         7151    i.USBD_CoreFindIF   usbd_core.o
    0x0800730c   0x0800730c   0x00000010   Code   RO         7381    i.USBD_CtlContinueRx  usbd_ioreq.o
    0x0800731c   0x0800731c   0x00000010   Code   RO         7382    i.USBD_CtlContinueSendData  usbd_ioreq.o
    0x0800732c   0x0800732c   0x00000016   Code   RO         7309    i.USBD_CtlError     usbd_ctlreq.o
    0x08007342   0x08007342   0x00000016   Code   RO         7384    i.USBD_CtlReceiveStatus  usbd_ioreq.o
    0x08007358   0x08007358   0x0000001a   Code   RO         7385    i.USBD_CtlSendData  usbd_ioreq.o
    0x08007372   0x08007372   0x00000016   Code   RO         7386    i.USBD_CtlSendStatus  usbd_ioreq.o
    0x08007388   0x08007388   0x000000fa   Code   RO         7310    i.USBD_GetDescriptor  usbd_ctlreq.o
    0x08007482   0x08007482   0x00000018   Code   RO         1647    i.USBD_Get_USB_Status  usbd_conf.o
    0x0800749a   0x0800749a   0x00000012   Code   RO         1648    i.USBD_LL_ClearStallEP  usbd_conf.o
    0x080074ac   0x080074ac   0x000000b8   Code   RO         7156    i.USBD_LL_DataInStage  usbd_core.o
    0x08007564   0x08007564   0x00000090   Code   RO         7157    i.USBD_LL_DataOutStage  usbd_core.o
    0x080075f4   0x080075f4   0x00000004   Code   RO         7158    i.USBD_LL_DevConnected  usbd_core.o
    0x080075f8   0x080075f8   0x00000020   Code   RO         7159    i.USBD_LL_DevDisconnected  usbd_core.o
    0x08007618   0x08007618   0x00000020   Code   RO         1655    i.USBD_LL_IsStallEP  usbd_conf.o
    0x08007638   0x08007638   0x00000028   Code   RO         7160    i.USBD_LL_IsoINIncomplete  usbd_core.o
    0x08007660   0x08007660   0x00000028   Code   RO         7161    i.USBD_LL_IsoOUTIncomplete  usbd_core.o
    0x08007688   0x08007688   0x00000018   Code   RO         1656    i.USBD_LL_OpenEP    usbd_conf.o
    0x080076a0   0x080076a0   0x00000012   Code   RO         1657    i.USBD_LL_PrepareReceive  usbd_conf.o
    0x080076b2   0x080076b2   0x0000005e   Code   RO         7162    i.USBD_LL_Reset     usbd_core.o
    0x08007710   0x08007710   0x00000014   Code   RO         7163    i.USBD_LL_Resume    usbd_core.o
    0x08007724   0x08007724   0x0000001a   Code   RO         7164    i.USBD_LL_SOF       usbd_core.o
    0x0800773e   0x0800773e   0x00000006   Code   RO         7165    i.USBD_LL_SetSpeed  usbd_core.o
    0x08007744   0x08007744   0x00000012   Code   RO         1658    i.USBD_LL_SetUSBAddress  usbd_conf.o
    0x08007756   0x08007756   0x00000060   Code   RO         7166    i.USBD_LL_SetupStage  usbd_core.o
    0x080077b6   0x080077b6   0x00000012   Code   RO         1659    i.USBD_LL_StallEP   usbd_conf.o
    0x080077c8   0x080077c8   0x0000001a   Code   RO         7167    i.USBD_LL_Suspend   usbd_core.o
    0x080077e2   0x080077e2   0x00000012   Code   RO         1662    i.USBD_LL_Transmit  usbd_conf.o
    0x080077f4   0x080077f4   0x0000002a   Code   RO         7312    i.USBD_ParseSetupRequest  usbd_ctlreq.o
    0x0800781e   0x0800781e   0x00000014   Code   RO         7170    i.USBD_SetClassConfig  usbd_core.o
    0x08007832   0x08007832   0x00000002   PAD
    0x08007834   0x08007834   0x000000bc   Code   RO         7313    i.USBD_SetConfig    usbd_ctlreq.o
    0x080078f0   0x080078f0   0x0000012e   Code   RO         7314    i.USBD_StdDevReq    usbd_ctlreq.o
    0x08007a1e   0x08007a1e   0x00000164   Code   RO         7315    i.USBD_StdEPReq     usbd_ctlreq.o
    0x08007b82   0x08007b82   0x00000074   Code   RO         7316    i.USBD_StdItfReq    usbd_ctlreq.o
    0x08007bf6   0x08007bf6   0x00000002   PAD
    0x08007bf8   0x08007bf8   0x00000080   Code   RO         2146    i.USB_ActivateEndpoint  stm32h7xx_ll_usb.o
    0x08007c78   0x08007c78   0x0000001c   Code   RO         2148    i.USB_ActivateSetup  stm32h7xx_ll_usb.o
    0x08007c94   0x08007c94   0x00000058   Code   RO         2161    i.USB_EP0_OutStart  stm32h7xx_ll_usb.o
    0x08007cec   0x08007cec   0x00000058   Code   RO         2162    i.USB_EPClearStall  stm32h7xx_ll_usb.o
    0x08007d44   0x08007d44   0x00000058   Code   RO         2163    i.USB_EPSetStall    stm32h7xx_ll_usb.o
    0x08007d9c   0x08007d9c   0x00000238   Code   RO         2164    i.USB_EPStartXfer   stm32h7xx_ll_usb.o
    0x08007fd4   0x08007fd4   0x0000009e   Code   RO         2165    i.USB_EPStopXfer    stm32h7xx_ll_usb.o
    0x08008072   0x08008072   0x00000002   PAD
    0x08008074   0x08008074   0x00000040   Code   RO         2168    i.USB_FlushTxFifo   stm32h7xx_ll_usb.o
    0x080080b4   0x080080b4   0x0000001a   Code   RO         2170    i.USB_GetDevSpeed   stm32h7xx_ll_usb.o
    0x080080ce   0x080080ce   0x00000008   Code   RO         2172    i.USB_GetMode       stm32h7xx_ll_usb.o
    0x080080d6   0x080080d6   0x0000000e   Code   RO         2180    i.USB_ReadDevAllInEpInterrupt  stm32h7xx_ll_usb.o
    0x080080e4   0x080080e4   0x0000000e   Code   RO         2181    i.USB_ReadDevAllOutEpInterrupt  stm32h7xx_ll_usb.o
    0x080080f2   0x080080f2   0x00000024   Code   RO         2182    i.USB_ReadDevInEPInterrupt  stm32h7xx_ll_usb.o
    0x08008116   0x08008116   0x00000010   Code   RO         2183    i.USB_ReadDevOutEPInterrupt  stm32h7xx_ll_usb.o
    0x08008126   0x08008126   0x00000008   Code   RO         2184    i.USB_ReadInterrupts  stm32h7xx_ll_usb.o
    0x0800812e   0x0800812e   0x00000040   Code   RO         2185    i.USB_ReadPacket    stm32h7xx_ll_usb.o
    0x0800816e   0x0800816e   0x00000022   Code   RO         2188    i.USB_SetDevAddress  stm32h7xx_ll_usb.o
    0x08008190   0x08008190   0x000000e8   Code   RO         2190    i.USB_SetTurnaroundTime  stm32h7xx_ll_usb.o
    0x08008278   0x08008278   0x00000028   Code   RO         2193    i.USB_WritePacket   stm32h7xx_ll_usb.o
    0x080082a0   0x080082a0   0x00000002   Code   RO         1064    i.UsageFault_Handler  stm32h7xx_it.o
    0x080082a2   0x080082a2   0x00000002   PAD
    0x080082a4   0x080082a4   0x00000020   Code   RO         7824    i.__0printf         mc_w.l(printfa.o)
    0x080082c4   0x080082c4   0x00000028   Code   RO         7826    i.__0sprintf        mc_w.l(printfa.o)
    0x080082ec   0x080082ec   0x00000022   Code   RO         3796    i.__NVIC_SetPriority  stm32h7xx_hal_cortex.o
    0x0800830e   0x0800830e   0x0000000e   Code   RO         7952    i.__scatterload_copy  mc_w.l(handlers.o)
    0x0800831c   0x0800831c   0x00000002   Code   RO         7953    i.__scatterload_null  mc_w.l(handlers.o)
    0x0800831e   0x0800831e   0x0000000e   Code   RO         7954    i.__scatterload_zeroinit  mc_w.l(handlers.o)
    0x0800832c   0x0800832c   0x00000184   Code   RO         7831    i._fp_digits        mc_w.l(printfa.o)
    0x080084b0   0x080084b0   0x000006dc   Code   RO         7832    i._printf_core      mc_w.l(printfa.o)
    0x08008b8c   0x08008b8c   0x00000024   Code   RO         7833    i._printf_post_padding  mc_w.l(printfa.o)
    0x08008bb0   0x08008bb0   0x0000002e   Code   RO         7834    i._printf_pre_padding  mc_w.l(printfa.o)
    0x08008bde   0x08008bde   0x0000000a   Code   RO         7836    i._sputc            mc_w.l(printfa.o)
    0x08008be8   0x08008be8   0x00000018   Code   RO         1007    i.fputc             usart.o
    0x08008c00   0x08008c00   0x000000f8   Code   RO           16    i.main              main.o
    0x08008cf8   0x08008cf8   0x0000017a   Data   RO          355    .constdata          dcmi.o
    0x08008e72   0x08008e72   0x000011d0   Data   RO         1179    .constdata          lcd_fonts.o
    0x0800a042   0x0800a042   0x00000008   Data   RO         3087    .constdata          stm32h7xx_hal_dma.o
    0x0800a04a   0x0800a04a   0x00000018   Data   RO         6643    .constdata          stm32h7xx_hal_uart.o
    0x0800a062   0x0800a062   0x00000010   Data   RO         7009    .constdata          stm32h7xx_hal_uart_ex.o
    0x0800a072   0x0800a072   0x00000010   Data   RO         7114    .constdata          system_stm32h7xx.o
    0x0800a082   0x0800a082   0x00000002   PAD
    0x0800a084   0x0800a084   0x00000020   Data   RO         7950    Region$$Table       anon$$obj.o


    Execution Region RW_IRAM1 (Exec base: 0x20000000, Load base: 0x0800a0a4, Size: 0x00001570, Max: 0x00020000, ABSOLUTE)

    Exec Addr    Load Addr    Size         Type   Attr      Idx    E Section Name        Object

    0x20000000   0x0800a0a4   0x00000008   Data   RW          357    .data               dcmi.o
    0x20000008   0x0800a0ac   0x00000020   Data   RW          564    .data               spi.o
    0x20000028   0x0800a0cc   0x0000000c   Data   RW         1189    .data               lcd_fonts.o
    0x20000034   0x0800a0d8   0x0000000c   Data   RW         3966    .data               stm32h7xx_hal.o
    0x20000040   0x0800a0e4   0x00000008   Data   RW         7115    .data               system_stm32h7xx.o
    0x20000048   0x0800a0ec   0x00000001   Data   RW         7317    .data               usbd_ctlreq.o
    0x20000049   0x0800a0ed   0x00000003   PAD
    0x2000004c   0x0800a0f0   0x00000004   Data   RW         7915    .data               mc_w.l(stdout.o)
    0x20000050        -       0x000000c8   Zero   RW          354    .bss                dcmi.o
    0x20000118        -       0x00000898   Zero   RW          563    .bss                spi.o
    0x200009b0        -       0x00000094   Zero   RW         1008    .bss                usart.o
    0x20000a44        -       0x0000072c   Zero   RW         1665    .bss                usbd_conf.o
    0x20001170        -       0x00000400   Zero   RW            1    STACK               startup_stm32h750xx.o


==============================================================================

Image component sizes


      Code (inc. data)   RO Data    RW Data    ZI Data      Debug   Object Name

      1062        122        378          8        200      10960   dcmi.o
       160         10          0          0          0       1023   gpio.o
         0          0       4560         12          0       1943   lcd_fonts.o
       610         44          0          0          0    1346704   main.o
       916         44          0          0          0       7685   sccb.o
      2584        162          0         32       2200    1116416   spi.o
        36          8        664          0       1024        840   startup_stm32h750xx.o
       232         44          0         12          0      23400   stm32h7xx_hal.o
       354         28          0          0          0      41865   stm32h7xx_hal_cortex.o
       818         18          0          0          0       7150   stm32h7xx_hal_dcmi.o
      5124        218          8          0          0      10786   stm32h7xx_hal_dma.o
      1432         56          0          0          0       3365   stm32h7xx_hal_dma_ex.o
       576         50          0          0          0       2887   stm32h7xx_hal_gpio.o
        28          6          0          0          0        830   stm32h7xx_hal_msp.o
      2280         16          0          0          0      10642   stm32h7xx_hal_pcd.o
         2          0          0          0          0       1079   stm32h7xx_hal_pcd_ex.o
        16          4          0          0          0        555   stm32h7xx_hal_pwr.o
        84          6          0          0          0        797   stm32h7xx_hal_pwr_ex.o
      2466        102          0          0          0       7116   stm32h7xx_hal_rcc.o
      3736        118          0          0          0       7829   stm32h7xx_hal_rcc_ex.o
       590          6          0          0          0       6649   stm32h7xx_hal_sd.o
      1246         14          0          0          0       4806   stm32h7xx_hal_spi.o
      1816        112         24          0          0      26874   stm32h7xx_hal_uart.o
       284          6         16          0          0       3737   stm32h7xx_hal_uart_ex.o
        62         18          0          0          0       6166   stm32h7xx_it.o
       438         24          0          0          0       5566   stm32h7xx_ll_sdmmc.o
      1702         94          0          0          0      15838   stm32h7xx_ll_usb.o
       220         40         16          8          0       1398   system_stm32h7xx.o
       268         30          0          0        148       2382   usart.o
         0          0          0          0          0       5844   usb_device.o
       362          4          0          0       1836      13202   usbd_conf.o
       760          0          0          0          0      12136   usbd_core.o
      1286         22          0          1          0      14139   usbd_ctlreq.o
       102          0          0          0          0       3884   usbd_ioreq.o

    ----------------------------------------------------------------------
     31688       1426       5700         76       5408    2726493   Object Totals
         0          0         32          0          0          0   (incl. Generated)
        36          0          2          3          0          0   (incl. Padding)

    ----------------------------------------------------------------------

      Code (inc. data)   RO Data    RW Data    ZI Data      Debug   Library Member Name

         0          0          0          0          0          0   entry.o
         0          0          0          0          0          0   entry10a.o
         0          0          0          0          0          0   entry11a.o
         8          4          0          0          0          0   entry2.o
         4          0          0          0          0          0   entry5.o
         0          0          0          0          0          0   entry7b.o
         0          0          0          0          0          0   entry8b.o
         8          4          0          0          0          0   entry9a.o
        30          0          0          0          0          0   handlers.o
        36          8          0          0          0         68   init.o
         0          0          0          0          0          0   iusefp.o
        30          0          0          0          0         68   llshl.o
        36          0          0          0          0         68   llsshr.o
        32          0          0          0          0         68   llushr.o
        36          0          0          0          0        108   memseta.o
      2308         96          0          0          0        604   printfa.o
         0          0          0          4          0          0   stdout.o
        44          0          0          0          0         80   uidiv.o
        98          0          0          0          0         92   uldiv.o
        48          0          0          0          0         68   cdrcmple.o
       334          0          0          0          0        148   dadd.o
       222          0          0          0          0        100   ddiv.o
       186          0          0          0          0        176   depilogue.o
        48          0          0          0          0         68   dfixul.o
       228          0          0          0          0         96   dmul.o

    ----------------------------------------------------------------------
      3736        112          0          4          0       1812   Library Totals
         0          0          0          0          0          0   (incl. Padding)

    ----------------------------------------------------------------------

      Code (inc. data)   RO Data    RW Data    ZI Data      Debug   Library Name

      2670        112          0          4          0       1156   mc_w.l
      1066          0          0          0          0        656   mf_w.l

    ----------------------------------------------------------------------
      3736        112          0          4          0       1812   Library Totals

    ----------------------------------------------------------------------

==============================================================================


      Code (inc. data)   RO Data    RW Data    ZI Data      Debug   

     35424       1538       5700         80       5408    2705873   Grand Totals
     35424       1538       5700         80       5408    2705873   ELF Image Totals
     35424       1538       5700         80          0          0   ROM Totals

==============================================================================

    Total RO  Size (Code + RO Data)                41124 (  40.16kB)
    Total RW  Size (RW Data + ZI Data)              5488 (   5.36kB)
    Total ROM Size (Code + RO Data + RW Data)      41204 (  40.24kB)

==============================================================================

