:020000040800F2
:10000000682D0024B102000873350008633400082D
:1000100071350008B1080008B15D0008000000005B
:10002000000000000000000000000000E13C0008AB
:10003000FD08000800000000EF360008ED3C000855
:10004000CB020008CB020008CB020008CB0200085C
:10005000CB020008CB020008CB020008CB0200084C
:10006000CB020008CB020008CB020008CB0200083C
:10007000CB020008CB020008CB020008CB0200082C
:10008000CB020008CB020008CB020008CB0200081C
:10009000CB020008CB020008CB020008CB0200080C
:1000A000CB020008CB020008CB020008CB020008FC
:1000B000CB020008CB020008CB020008CB020008EC
:1000C000CB020008CB020008CB020008CB020008DC
:1000D000CB020008CB020008CB020008CB020008CC
:1000E000CB020008CB02000800000000CB02000891
:1000F000CB020008CB020008CB020008CB020008AC
:10010000CB020008CB020008CB020008CB0200089B
:10011000CB020008CB020008CB020008CB0200088B
:10012000CB020008CB020008CB020008CB0200087B
:10013000CB020008CB020008CB020008CB0200086B
:1001400000000000000000000000000000000000AF
:10015000CB020008CB020008CB020008CB0200084B
:10016000CB020008CB020008CB020008CB0200083B
:10017000CB020008CB020008CB020008CB0200082B
:10018000CB020008CB020008CB020008CB0200081B
:10019000CB020008CB020008CB020008CB0200080B
:1001A000CB020008CB020008CB020008CB020008FB
:1001B000CB020008CB020008CB020008CB020008EB
:1001C000CB020008CB020008CB020008CB020008DB
:1001D000CB02000875350008CB020008CB020008EE
:1001E000CB020008CB020008CB020008CB020008BB
:1001F000CB020008CB020008CB020008CB020008AB
:10020000CB020008CB020008CB020008CB0200089A
:10021000CB020008CB020008CB020008CB0200088A
:10022000CB020008CB020008CB020008000000004F
:10023000CB020008CB02000800000000CB0200083F
:10024000CB020008CB020008CB020008CB0200085A
:10025000CB020008CB020008CB020008CB0200084A
:10026000CB020008CB020008CB020008CB0200083A
:10027000CB020008CB020008CB02000800000000FF
:10028000CB020008CB020008CB02000800000000EF
:1002900000000000CB020008DFF810D000F05CFA8C
:1002A00000480047B9660008AFF30080682D0024BD
:1002B0000648804706480047FEE7FEE7FEE7FEE700
:1002C000FEE7FEE7FEE7FEE7FEE7FEE75D3E00082D
:1002D000990200082DE9F05F0546002092469B46F2
:1002E00088460646814640241BE02846414647464C
:1002F000224600F069F853465A46C01A914110D37D
:1003000011461846224600F050F82D1A67EB0108F6
:100310004F4622460120002100F047F817EB000964
:100320004E41201EA4F10104DFDC484631462A4636
:100330004346BDE8F09F40EA01039B0703D009E074
:1003400008C9121F08C0042AFAD203E011F8013BC1
:1003500000F8013B521EF9D27047D2B201E000F81A
:10036000012B491EFBD270470022F6E710B5134659
:100370000A4604461946FFF7F0FF204610BD30B587
:100380000B46014600202022012409E021FA02F553
:100390009D4205D303FA02F5491B04FA02F52844ED
:1003A000151EA2F10102F1DC30BD202A04DB203A47
:1003B00000FA02F1002070479140C2F1200320FAB8
:1003C00003F3194390407047202A04DB203A21FAB6
:1003D00002F00021704721FA02F3D040C2F120025E
:1003E00091400843194670472DE9FE4F804681EA47
:1003F0000300C00F0C46009021F0004123F000459F
:10040000B8EB0200A94105D24046214690461C4661
:100410000B46024623F00040104347D0270DC7F398
:100420000A00C3F30A510290401A019040286BDA87
:10043000C3F3130040F4801B0098924620B10023C0
:10044000D2EB030A63EB0B0B01985946C0F1400253
:100450005046FFF7AAFF06460D4650465946019AF8
:1004600000F08CF910EB08006141002487EA11527A
:1004700084EAE7731A4340D0009A62B3019A012AD2
:100480004FEA075215DC001B61EB02014FF00042FE
:1004900002EA0752CDE90042001C41F580113246C4
:1004A0002B4600F08CF903B0BDE8F08F40462146A2
:1004B000F9E7001B61EB0201001C41F580130018F5
:1004C0005B412018A2F5001747EB030140EAD57005
:1004D000B6196D4111E06D084FEA360645EAC07560
:1004E0004FEA0752001B61EB0201001C41F580112D
:1004F00049084FEA30000019514132462B4603B0FB
:10050000BDE8F04F00F04CB90098012240000023F4
:10051000D0EB020263EBE073009821464FEAE074EF
:10052000B8EB000061EB0401E9E783F000435BE70F
:1005300081F0004158E72DE9FE4F81EA030404F001
:10054000004421F0004100944FF0000B23F00043E1
:1005500050EA01045ED052EA03045BD0C3F30A54AC
:10056000C1F30A552C44A4F2F3340194A0FB0254C5
:10057000C1F3130141F48011C3F3130343F4801357
:1005800001FB024400FB034E840A970A44EA8154AB
:1005900047EA8357A4FB076802958D0A05FB078588
:1005A0004FEA932C04FB0C542705029D4FEA065892
:1005B00047EA1637B5EB08056EEB070C870E920E6F
:1005C00047EA811742EA8312A7FB0201B6EB0B014F
:1005D00064EB00042B0D43EA0C335E1844EB1C5013
:1005E000DA465146E7FB0201C5F313044FEA0B3329
:1005F00043EA14534FEA0432019C43EA0603A4F190
:100600000C040294009CCDE900B400F0D8F803B0CB
:10061000BDE8F08F00200146F9E72DE9F04D81EAB1
:10062000030404F0004B21F0004514464FF0000A8B
:1006300023F0004150EA050220D054EA01021DD007
:10064000C5F30A570246C5F31303C1F31300C1F300
:100650000A5640F4801543F48013A7EB0608101BDC
:10066000D64608F2FD3873EB050002D308F1010805
:1006700001E092185B41B8F1000F03DA0020014657
:10068000BDE8F08D00204FF48011064684460EE050
:10069000171B73EB050705D3121B63EB050306431A
:1006A0004CEA010C49084FEA300092185B4150EACD
:1006B0000107EDD152EA030012D082EA040083EA76
:1006C0000501084305D0101BAB4106D201220023CF
:1006D00006E000224FF0004302E06FF001025310E9
:1006E0001AEB06004CEB085110EB0A0041EB0B0132
:1006F000BDE8F04D00F054B8C1F30A52C1F3130144
:1007000040F2FF3341F480119A4202DA00200146A0
:10071000704740F233439A42A2F2334202DC524223
:10072000FFF752BEFFF741BE30B5041E71F1000461
:1007300004DB4FF00044404264EB0101141E73F1EE
:10074000000405DB1C464FF00043524263EB0403F8
:10075000994208BF904230BD064C074D06E0E06864
:1007600040F0010394E8070098471034AC42F6D3F8
:10077000FFF796FD7868000898680008202A06DBD5
:10078000CB17203A41FA02F043EAE07306E041FA5F
:1007900002F3D040C2F1200291400843194670474D
:1007A00010B5141E73F1000408DA401C41F1000179
:1007B00092185B411A4301D120F0010010BD2DE9D0
:1007C000F04D92469B4611B1B1FA81F202E0B0FAC7
:1007D00080F220329046FFF7E8FD04460F4640EADB
:1007E0000A0041EA0B0153465A46084313D011460A
:1007F00053EA010019D0C8F140025046FFF7E4FD6A
:1008000005460E46504659464246FFF7CEFD084380
:1008100005D0012004E020463946BDE8F08D0020D7
:10082000054346EAE0762C4337430A986305E40A19
:10083000A0EB08000022FD0A44EA47540A3002D522
:1008400000200146E9E7010510196941DDE9084585
:1008500000196941BDE8F04DA2E770B58C1810F899
:10086000015B15F0070301D110F8013B2A1106D1F5
:1008700010F8012B03E010F8016B01F8016B5B1E0F
:10088000F9D12B0705D40023521E0DD401F8013BEA
:10089000FAE710F8013BCB1A921C03E013F8015B56
:1008A00001F8015B521EF9D5A142D8D3002070BDDA
:1008B000FEE7002070470020704700000549002235
:1008C000054810B503F04FFF0449034803F042FF09
:1008D000002010BD400F00247002002440070024B7
:1008E0000146044810B503F035FF024803F017FF36
:1008F000002010BD7002002400207047704772B6BF
:10090000FEE7000070B5044600F0F2F90546601CF1
:1009100002D004480078044400F0EAF9401BA042E9
:10092000FAD370BD680000240248016841F001015B
:1009300001607047200400582DE9F04F4F4D002210
:100940004FF0010A4FF00F0B92E000BF0AFA02F9D4
:1009500019EA01037ED022F0030606F1B04694079F
:10096000D6F808C4270FDFF818810BFA07FE4045B8
:100970000EEA0C0402D14FF0000C40E0DFF804C195
:10098000604502D14FF0010C39E0DFF8FCC0604552
:1009900002D14FF0020C32E0DFF8F0C0604502D126
:1009A0004FF0030C2BE0DFF8E8C0604502D14FF0B8
:1009B000040C24E0DFF8DCC0604502D14FF0050CE8
:1009C0001DE0DFF8D4C0604502D14FF0060C16E000
:1009D000DFF8C8C0604502D14FF0070C0FE0DFF828
:1009E000C0C0604502D14FF0080C08E0DFF8B4C089
:1009F000604502D14FF0090C01E04FF00A0C0CFAEF
:100A000007FCA44513D12C689C432C606F684FF001
:100A1000B0449F436F6027689F43276067689F4388
:100A20006760D6F8084424EA0E04C6F8084407684C
:100A30000323D4084FEA42084FEA427C03FA08F342
:100A40004FEADC6C1F4307600BFA0CF600EB8404E2
:100A5000276A00E00BE0B7432762C4689C43C46088
:100A6000446824EA0904446084689C438460521CFE
:100A700031FA02F37FF46AAFBDE8F08F80000058CE
:100A8000000002580004025800080258000C0258E6
:100A9000001002580014025800180258001C025896
:100AA00000200258002402582DE9FC4F01257E4CFD
:100AB00000234FF0030A4FF0B04E4FF00F0BEBE066
:100AC00005FA03F637403A0077D04F68012F05D07A
:100AD000022F03D0112F01D0122F1AD187684FEAAD
:100AE0004308D1F80CC00AFA08F927EA09070CFAFA
:100AF00008FC4CEA070CC0F808C0476891F804C02D
:100B0000B743CCF3001C0CFA03FC4CEA070CC0F80A
:100B100004C0C6684FEA430CD1F80880E1460AFADF
:100B20000CF7BE43019708FA09F848EA0608C0F82E
:100B30000C804E68022E01D0122E12D1DE084FEA30
:100B4000437C00EB860600960F69366A4FEADC6C40
:100B50000BFA0CF807FA0CF726EA08063743009E52
:100B600037620E790768DDF804C006F0030606FA5E
:100B700009F627EA0C073E4306604E68F6001CD5CE
:100B80004A4E376847F00207376036689F0706F01D
:100B90000206009623F0030606F1B046B1463F0F69
:100BA000D6F80864DFF808810BFA07FC404526EA0E
:100BB0000C0603D14FF0000C41E06CE0DFF8F4C00C
:100BC000604502D14FF0010C39E0DFF8ECC0604520
:100BD00002D14FF0020C32E0DFF8E0C0604502D1F4
:100BE0004FF0030C2BE0DFF8D8C0604502D14FF086
:100BF000040C24E0DFF8CCC0604502D14FF0050CB6
:100C00001DE0DFF8C4C0604502D14FF0060C16E0CD
:100C1000DFF8B8C0604502D14FF0070C0FE0DFF8F5
:100C2000B0C0604502D14FF0080C08E0DFF8A4C066
:100C3000604502D14FF0090C01E04FF00A0C0CFAAC
:100C400007FC4CEA060CC9F808C426684F6826EA77
:100C50000206FF0300D51643266066684F6826EA41
:100C60000206BF0300D516436660D1F804C076467D
:100C7000DEF800705FEACC2C27EA020700D51743A4
:100C80003760D1F804C077685FEA8C2C27EA020746
:100C900000D5174377605B1C0A681746DA407FF47B
:100CA0000FAFBDE8FC8F000080000058F4440258EC
:100CB000000002580004025800080258000C0258B4
:100CC000001002580014025800180258001C025864
:100CD00000200258002402580AB1816170470904BB
:100CE000FBE7000001480068000C70470010005C42
:100CF000014880687047000068000024024881684D
:100D0000027811448160704768000024032010B508
:100D100000F096F801F030FF0F4A1049146813688C
:100D2000C4F3032203F00F038A5CC95C02F01F02C4
:100D300001F01F01D0400A4A20FA01F1116009496F
:100D400008600F2000F010F808B1012010BD00F07D
:100D50002BF8002010BD00001844025868680008F5
:100D6000780000247400002470B50D4D04462878E6
:100D7000A0B14FF47A71B1FBF0F00A490968B1FBF8
:100D8000F0F002F019FA48B9102C07D200222146DF
:100D9000501E00F035F800206C6070BD012070BD61
:100DA0006800002474000024054808B5016841F07B
:100DB00002010160006800F00200009008BD000020
:100DC000F444025800280DDB410900F01F0289009D
:100DD000012001F1E0219040C1F88001BFF34F8F65
:100DE000BFF36F8F7047002809DB410900F01F0235
:100DF0008900012001F1E0219040C1F80001704715
:100E00000E4BF0B41B680D46C3F30223C3F1070673
:100E1000042E00D90426191D072901D2002300E061
:100E2000DB1E012404FA06F19C40491E2940641E81
:100E3000994014402143F0BC04F0CCBF0CED00E01D
:100E4000064900F0070210B54FF6FF040868044B8E
:100E5000204040EA02201843086010BD0CED00E07D
:100E60000000FA0501680123C0F8FC33002280F875
:100E7000F4238869044A40F000608861486D10439B
:100E800048650020704700000300001070470068AC
:100E9000416200207047F0B503685D6A39B19F6A0E
:100EA0004C1E00204FF4827605EB17450BE045EA17
:100EB0000240986210E0471C06EB800053F800C027
:100EC000F8B205EB1C45A042F5D34FF4807000EB5F
:100ED000810045EA02421A500020F0BDD0F8040417
:100EE00003F0F0BEC1EBC10200EB8202D0F80404B3
:100EF000926C03F054BEC1EBC10200EB8202D0F849
:100F00000404D2F8082203F09EBE10B5040006D0F7
:100F1000032084F8BD03206804F014FF08B1012009
:100F200010BD204600F0D0FB002084F8BD0310BDAA
:100F3000D0F8040403F0C8BE01F00F020B0670B530
:100F4000C2EBC20104464FF001004FF0000504EB74
:100F5000810103D581F83D003C3103E081F8FD516A
:100F600001F5FE710A7094F8BC23012A08D084F8B8
:100F7000BC03206804F07AFA002084F8BC5370BDEA
:100F8000022070BD70B54268044601F00F00904227
:100F900001D9012070BD01F00F024FF000050B06D2
:100FA000C2EBC2014FF0010204EB810103D581F8CD
:100FB0003D203C3103E081F8FD5101F5FE718D705B
:100FC000087094F8BC03012808D084F8BC2320687A
:100FD00004F04AFC002084F8BC5370BD022070BDB0
:100FE00001F00F01C1EBC10100EB8100D0F8140248
:100FF00070472DE9F04101F00F0604460D064FF051
:101000000100C6EBC6014FF0000504EB810103D5DA
:1010100081F83D003C3103E081F8FD5101F5FE719E
:101020004F788A60CB700E7007B1CE80022B00D152
:101030000D7194F8BC23012A09D084F8BC03206800
:1010400004F066F9284684F8BC53BDE8F08102201C
:10105000FBE770B501F00F050C460026C5EBC50196
:1010600000EB8101C1F80822C1E9843681F8FD61F5
:1010700081F8FC5101F5FE710369012B00D10A6171
:101080002207027C006803D004F046FC002070BDFB
:1010900004F030FBFAE770B50D464168044605F0F0
:1010A0000F00884201D9012070BD29064FF00006CB
:1010B0004FF0010207D5C0EBC00104EB810181F8BC
:1010C0003D203C3107E0C5EBC50104EB810181F80F
:1010D000FD6101F5FE718A70087094F8BC03012867
:1010E00007D084F8BC23206804F0EAFB280702D06C
:1010F00007E0022070BD217C04F57172206804F0C5
:1011000087FB002084F8BC6370BD2DE9F04101F03D
:101110000F050C460026C5EBC501012700EB810138
:101120008A64C1E9143681F83D7001F83C5F0369B7
:10113000012B00D10A612207027C006804D004F070
:10114000EBFB0020BDE8F08104F0D4FAF9E70000E1
:101150002DE9FC5F05680446284604F006FD0028DA
:101160007ED1206804F02DFD002879D0206804F09D
:1011700028FD800704D52068416901F00201416122
:10118000206804F01EFDC10604F57170009034D58E
:101190002068816921F0100181612F6A07F00F0139
:1011A000C7F34340C1EBC101022804EB810606F5F9
:1011B000FE7602D0062811D01AE047F6F0700742FA
:1011C00016D0C7F30A12F1681746284604F0FDFC52
:1011D000F168B0693944F160384408E000990822A8
:1011E000284604F0F2FCB069C7F30A110844B06164
:1011F0002068816941F010018161206804F0E1FC00
:1012000000034FF001094FF0080B5BD52068002662
:1012100004F0B6FCDFF8A8A3074651E0F8074DD06C
:101220002068F1B204F0C5FC8046C00707D005EB8A
:101230004611C1F8089B3146204602F0A1F95FEA49
:10124000087022D505EB4611C1F808BB2068016C77
:1012500000EB461001915145D0F8081B07D900E07A
:10126000ABE1090403D54FF40041C0F8081B204648
:1012700000F0C6FA0198504507D92069012804D129
:1012800020680121009A04F0C3FA5FEAC86004D51F
:1012900005EB46111020C1F8080B5FEA886004D501
:1012A00005EB46102021C0F8081B5FEA884005D5F1
:1012B00005EB46114FF40050C1F8080B7F08761C6F
:1012C000002FABD1206804F07CFC40034FF0000AF3
:1012D0005CD5206804F04DFC0026074654E0F80772
:1012E00050D02068F1B204F052FC8046C00723D0F1
:1012F000D5F8342806F00F0C05EB461309FA0CF06C
:101300008243C5F83428C3F80899206901280FD111
:10131000C6EBC60004EB8000D0E9111211448164D1
:1013200036B9206D20B920680121009A04F070FAC6
:101330002046F1B2FFF7D6FD5FEA087003D505EB52
:101340004611C1F808B95FEAC86004D505EB46113B
:101350001020C1F808095FEA486004D505EB461182
:101360004020C1F808095FEA887004D505EB4611F2
:101370000220C1F808095FEA086003D5314620461B
:1013800002F064F97F08761C002FA8D1206804F0D1
:1013900018FC002811DAD5F8040820F00100C5F87F
:1013A000040894F8F403012839D0204600F00CFA20
:1013B0002068416901F000414161206804F001FCAE
:1013C00000050BD5D5F80808C00702D0204600F06C
:1013D00065FA2068416901F400614161206804F008
:1013E000F0FB00010AD52068416901F0006141610C
:1013F00094F8F403D0B1204600F050FA206804F0CD
:10140000E0FBC00476D5D5F8040820F00100C5F84B
:1014100004082068102104F089FB002135E0002138
:10142000204684F8F4A3FFF731FDC1E784F8F49374
:101430002068406D0121C0F38300C4F8F803204602
:10144000FFF724FDDAE700BF05EB41104FF67F32CE
:10145000C0F80829D0F8003923F40013C0F8003987
:10146000D0F8003943F00063C0F80039C0F8082B09
:10147000D0F8002B22F40012C0F8002BD0F8002B7B
:1014800042F00062C0F8002B491C60688842DBD83B
:10149000D5F81C0840F00110C5F81C08206B60B19D
:1014A000D5F8840840F00B00C5F88408D5F8440846
:1014B00040F00B00C5F844080CE0D5F8140842F2DF
:1014C0002B010843C5F81408D5F8100840F00B00AC
:1014D000C5F81008D5F8000820F4FE60C5F800082B
:1014E000217C2068009A04F093F92068416901F496
:1014F00080514161206804F064FB800417D52068A6
:1015000003F046FF206804F023FBE06001F0EEFAF0
:101510000146207B2368C2B2184604F09FFB204698
:1015200000F03CF92068416901F4005141612068F4
:1015300004F047FB000707D5204600F049F9206872
:10154000416901F008014161206804F03AFBC002E2
:1015500008D50021204600F035F82068416901F4E3
:1015600080114161206804F02CFB800208D5002125
:10157000204600F02BF82068416901F40011416118
:10158000206804F01EFB400007D52046FFF7A6FCAC
:101590002068416901F080414161206804F011FB3D
:1015A00040070AD520684568680702D52046FFF73E
:1015B000BFFC2168486828434860BDE8FC9F0000E4
:1015C0000A30544FD0F8040403F0D2BBD0F804041E
:1015D00003F0DEBB2DE9F04104008AB005D094F899
:1015E000BD030025266820B108E001200AB0BDE84F
:1015F000F081204684F8BC5300F082F8032084F880
:10160000BD03F06BC00500D42561206804F06CF8C0
:1016100004F11001684628228846FEF78CFE94E803
:101620000F0003F0C3FE0227D8BB2068002104F09E
:10163000ECFA0020012610E0C0EBC001421C04EBD4
:10164000810181F83D6081F83F504D648D640D65E6
:1016500081F83C00A1F84200D0B261688142EBD829
:10166000002011E0C0EBC001421C04EB810181F8B5
:10167000FD5181F8FF51C1F80452C1F80852C1F878
:10168000105281F8FC01D0B261688142EAD8282268
:1016900041466846FEF74FFE94E80F0003F068FFEE
:1016A00010B184F8BD73A0E7606A84F8385084F8FC
:1016B000BD63012802D12046FFF7D4FB206803F068
:1016C00049FF002092E7000010B5006809498842F0
:1016D0000ED10948016821F00061016007484FF40C
:1016E000C051FFF729F9BDE810406520FFF76ABB3C
:1016F00010BD000000000840D84402580000025805
:1017000010B5B6B0044614212FA8FEF72DFEBC215B
:101710006846FEF729FE1E492068884236D14FF4FC
:10172000802000904FF440116846219100F046FC63
:1017300008B1FFF7E4F800F0C9F81648016841F075
:101740000101016000680A23022200F001003490C8
:101750000020CDE932034FF4C0512F91CDE9302064
:101760000D482FA9FFF7A0F90A480838016841F091
:101770000061016000680022114600F000603490B2
:101780006520FFF73DFB6520FFF72DFB36B010BD50
:1017900000000840E04402580000025870B50446BA
:1017A000C068012570B1022801D0FFF7A8F8D4F86D
:1017B0000404294603F058FBD4F80404BDE8704043
:1017C00003F00BBB0025F2E7D0F8040403F032BBB2
:1017D000D0F8040403F038BB10B5044690F8BC03FD
:1017E00001280BD0012084F8381084F8BC0320684D
:1017F00004F022FA002084F8BC0310BD022010BDC2
:10180000D0F8042400F57171104603F039BB10B50F
:1018100090F8BC1304460068012906D0A26A012191
:1018200084F8BC13012A02D008E0022010BDA1698F
:10183000012903D0816B41F480318163206804F079
:101840005FF9206803F078FE002084F8BC0310BD27
:1018500070B590F8BC1304460068012905460FD006
:10186000012184F8BC1303F03FFF206803F072FEEF
:101870002068102104F05AF9A06A012802D008E07B
:10188000022070BDA069012803D0A86B20F480302D
:10189000A863002084F8BC0370BD000010B50446A6
:1018A000D0F8040403F037FB2068D0F8001E41F0A4
:1018B0000101C0F8001E206A002804D00248016817
:1018C00041F00601016010BD10ED00E00248016822
:1018D00041F08071016070470C4802582DE9F84FC3
:1018E0001E4615468A460446FFF702FA814694F8DA
:1018F000400001280ED001274FF0000884F8407006
:1019000094F84100012807D05FF0020084F840807D
:10191000BDE8F88F0220FBE74221C4F8448084F838
:101920004110002220214B462046009602F094F8F8
:101930000028EBD1216828688862216868684862BD
:101940002168A868C86220682969026822F44002F8
:1019500042F4800211430160E9684FF000622046C2
:10196000CAF82810514601F0C3FE01224B46082157
:101970002046009602F070F80028C7D1226808219E
:10198000D16084F84170C1E72DE9F84F17468B46C6
:101990000446FFF7ADF9824694F8400001280ED0C6
:1019A00001264FF0000884F8406094F841000128B7
:1019B00007D0022584F840802846BDE8F88F022031
:1019C000FBE74FF00209C4F8448084F841900022FC
:1019D000202153462046009702F03EF80500E9D149
:1019E00000225946204601F083FEDBF8240058B956
:1019F0000122534602212046009702F02DF80500EF
:101A0000D8D12168C1F80C9084F84160D2E7000079
:101A1000F8B50446FFF76CF905461CB194F841008F
:101A200010B107E00120F8BD204600F08DF841F22A
:101A30008830A06420686FF0FF02A168036802EBA1
:101A4000012223F4706111430160A06C0022202167
:101A50002B460090204601F0FFFF0028E3D12268CA
:101A6000D4E907352679E168176845EA0665DFF8A5
:101A700044C01943104B29430025012607EA0C07EF
:101A8000394311602268D4E90517B4F810C0D2F8C0
:101A900004E039430EEA030E4EEA0C431943516049
:101AA00021680A6842F001020A60656484F84160B6
:101AB000F8BD00002FFFFF00FEF8E0FF2DE9F8431E
:101AC000164688460446FFF713F9034694F840008B
:101AD00001280ED0012084F84000002794F841002E
:101AE000012808D05FF0020584F840702846BDE860
:101AF000F8830220FBE7A06C8221676484F8411020
:101B0000002220210090204601F0A6FF0500EBD125
:101B100020687268016821F0080111430160706853
:101B200008280AD122681021306810632068C1603B
:101B30002068016841F4801101604FF04062414625
:101B4000204601F0D5FDCFE770B586B004461421DC
:101B50006846FEF709FC3949206888426CD138484C
:101B6000016841F480410160006800F48040059004
:101B700033480C30016841F002010160016801F056
:101B800002010591016841F002010160016801F064
:101B900002010591016841F008010160016801F04E
:101BA00008010591016841F008010160016801F038
:101BB00008010591016841F010010160016801F020
:101BC00010010591016841F008010160006801AB56
:101BD00004251C4E00F00800059009240095022001
:101BE0000021032283E8170069463046FEF75CFFB8
:101BF000402000900A21304604916946FEF754FFC8
:101C0000114E68026946049400903046FEF74CFF7E
:101C1000A8026946049400903046FEF745FF0B4841
:101C2000694600950494FEF73FFFE8026946049474
:101C300000903046FEF738FF06B070BD00500052ED
:101C4000D444025800040258000C025800100258F4
:101C50002DE9F84F15460E460446FFF749F882462F
:101C60002068816994F8403000F12009012B0DD0E3
:101C700001274FF0000884F8407094F84120012AB1
:101C800006D0022084F84080BDE8F88F0220FBE7F0
:101C9000C4F84480A6B3222284F841200269521C71
:101CA000A2630269521C62632663426922F04062A9
:101CB00042F080624261206881610EE00621204688
:101CC00001F0CAFEC8B999F80000216B0870206BBA
:101CD000401C2063A06B401EA063A06B53464FF0D6
:101CE000010200950028E9D14FF00201204601F0E1
:101CF000B3FE10B922680221D16084F84170C1E7B7
:101D0000FFE7616C012041F008016164BAE700005F
:101D100010B500F0EBFE05490968054AC1F3021150
:101D2000515C01F01F01C84010BD00002044025862
:101D300068680008494930B5484C0B1D0A681434DE
:101D400009681D68246802F00303C5F30012C1F39B
:101D50000531C4F3CC04002914FB02F200EE102A72
:101D6000F8EE400A75D03F4A9FED3D1AB7EE000AE3
:101D70006BB1DFED3D1A012B01D0022B64D002EED6
:101D8000101A1168F8EE422A81EEA22A21E0334CA3
:101D9000283C23689B0612D5344B246801EE901A28
:101DA0001168C4F3C104F8EE612AE34001EE903AF1
:101DB000C1F30801F8EE611A81EEA22A0BE001EEF0
:101DC000901ADFED2B2A00BFF8EE611A116882EE3F
:101DD000A12AC1F3080101EE901A1168F8EE611A08
:101DE00040EE811A71EE800A62EE200AC1F34621AC
:101DF00001EE101AB8EE411A31EE001AC0EE811A47
:101E0000BCEEE11A80ED001A1168C1F3064101EE43
:101E1000101AB8EE411A31EE001AC0EE811ABCEE6B
:101E2000E11A80ED011A1168C1F3066101EE101A82
:101E3000B8EE411A31EE000A80EE801ABCEEC10AFB
:101E400080ED020A30BD04E001EE901ADFED092AB0
:101E5000BAE70021016041608160F3E7284402583D
:101E600000000039384402580024744A0090D0031E
:101E70000024744C20BCBE4B494930B5484C0B1D66
:101E80000A681C3409681D68246802F00303C5F35E
:101E90000022C1F30551C4F3CC04002914FB02F263
:101EA00000EE102AF8EE400A75D03F4A9FED3D1A29
:101EB000B7EE000A6BB1DFED3D1A012B01D0022B0A
:101EC00064D002EE101A1168F8EE422A81EEA22ABE
:101ED00021E0334C283C23689B0612D5344B246800
:101EE00001EE901A1168C4F3C104F8EE612AE340D0
:101EF00001EE903AC1F30801F8EE611A81EEA22AD0
:101F00000BE001EE901ADFED2B2A00BFF8EE611A0C
:101F1000116882EEA12AC1F3080101EE901A11683E
:101F2000F8EE611A40EE811A71EE800A62EE200A24
:101F3000C1F3462101EE101AB8EE411A31EE001A33
:101F4000C0EE811ABCEEE11A80ED001A1168C1F3EF
:101F5000064101EE101AB8EE411A31EE001AC0EE39
:101F6000811ABCEEE11A80ED011A1168C1F3066115
:101F700001EE101AB8EE411A31EE000A80EE801A16
:101F8000BCEEC10A80ED020A30BD04E001EE901AF9
:101F9000DFED092ABAE70021016041608160F3E7C3
:101FA0002844025800000039404402580024744A72
:101FB0000090D0030024744C20BCBE4B2DE9FC5F84
:101FC000044650F8241B002500902E460801FE4FC1
:101FD000DFF8F8831DD5606E50B1B0F5801F0CD0CE
:101FE000B0F5001F0ED0B0F5401F1DD001250FE049
:101FF000386840F40030386016E00221201D01F0FE
:102000004FFD03E00098022101F0DAFD05000BD03E
:102010002E462088C00523D5606D05281ED2DFE836
:1020200000F00C11161B1B00626ED8F8001021F492
:1020300040111143C8F80010EBE7386840F4003055
:10204000386009E00021201D01F02AFD03E000981E
:10205000002101F0B5FD05466DB100E001252E46D9
:102060002088800528D5A06D80281ED00CDC90B17A
:1020700040280ED114E0626DD8F8001021F007015D
:102080001143C8F80010EBE7C02813D0B0F5807FEB
:1020900010D001250FE0386840F40030386009E0C6
:1020A0000021201D01F0FCFC03E00098002101F05C
:1020B00087FD054695B12E462088DFF81093400530
:1020C00009F108092CD5D4F8A400B0F5800F20D070
:1020D0000DDCA0B1B0F5001F0FD115E0A26DD8F84E
:1020E000001021F4E0711143C8F80010E4E7B0F5E6
:1020F000C00F13D0B0F5000F10D001250FE03868E5
:1021000040F40030386009E00021201D01F0C8FCD7
:1021100003E00098002101F053FD054675B12E46FD
:10212000208800052DD5D4F8A800B0F1007F21D07B
:102130000EDCA8B1B0F1807F10D116E0D4F8A42055
:10214000D9F8001021F460011143C9F80010E7E745
:10215000B0F1407F13D0B0F1806F10D001250FE0B7
:10216000386840F40030386009E00021201D01F09B
:1021700097FC03E00098002101F022FD05466DB1B7
:102180002E46206880011FD5A06CD8B110280FD032
:10219000202812D0302815D0012514E0D4F8A8202A
:1021A000D9F8001021F0E0611143C9F80010E8E708
:1021B000386840F40030386004E00221201D01F04E
:1021C0006FFC05466DB12E462088C0042BD5E06D0E
:1021D000B0F5005F20D00DDCA0B1B0F5805F0FD16D
:1021E00015E07A48A26C001F016821F0300111430C
:1021F0000160E9E7B0F5405F13D0B0F5804F10D033
:1022000001250FE0386840F40030386009E0002113
:10221000201D01F045FC03E00098002101F0D0FCF6
:10222000054685B12E462088800429D5206EB0F55C
:10223000403F23D010DC08B3B0F5803F14D0B0F598
:10224000003F0FD115E0E26DD8F8001021F4E04115
:102250001143C8F80010E6E7B0F5802F0ED0B0F5B6
:10226000A02F0BD001250AE00121201D01F018FC50
:1022700003E00098012101F0A3FC05468DB12E4634
:10228000208840042AD5D4F8AC00B0F1405F23D0B8
:1022900010DC08B3B0F1805F14D0B0F1005F0FD153
:1022A00015E0226ED8F8001021F4E0211143C8F89F
:1022B0000010E5E7B0F1804F0ED0B0F1A04F0BD089
:1022C00001250AE00121201D01F0EAFB03E000984E
:1022D000012101F075FC05466DB12E4620880004F1
:1022E0001FD5E06ED8B1B0F1805F0ED0B0F1005FC5
:1022F00010D0012514E0D4F8AC20D9F8001021F05A
:10230000E0411143C9F80010E8E7386840F40030B4
:10231000386004E00121201D01F0C2FB05466DB1CB
:102320002E462068C0011ED5606CD0B101280ED0A9
:10233000022811D0032814D0012513E0E26ED8F84A
:10234000001021F040511143C8F80010E9E7386847
:1023500040F40030386004E00221201D01F0A0FBB1
:10236000054685B12E462068DFF85CB04002ABF12F
:102370001C0B57D51648016841F480710160FEF7C7
:10238000B7FC82460EE01148626C001F016821F024
:10239000030111430160E6E7FEF7AAFCA0EB0A0087
:1023A00064283DD80A480068C005F5D57DBBDFF834
:1023B0001CA0B4F8B0200AF1200ADAF8001002F4E8
:1023C000407001F4407105E02C440258504402581A
:1023D00000480258814211D0DAF80010DAF80020E3
:1023E00021F4407142F48032CAF80020DAF800206B
:1023F00022F48032CAF80020CAF80010D4F8B000E5
:10240000B0F5807F21D1FEF773FC019019E008E060
:10241000FEF76EFC0199411A41F28830814210D9D1
:1024200003252E462078DFF844A4C0073DD0A06FD6
:10243000182838D026DC80B3082829D0102825D1C8
:102440002CE0DAF800008007E2D5D4F8B010C1F330
:102450000120032858460DD0016821F47C51016009
:10246000B4F8B020DAF80010C2F30B021143CAF836
:102470000010D7E7FE4A036802EA111223F47C51E8
:102480001143ECE720280ED028280CD001250BE0C2
:102490000121201D01F004FB04E004E0009801216B
:1024A00001F08EFB05465DB12E46207880071ED5D3
:1024B000606F062819D2DFE800F0160C1116161608
:1024C000A26FDAF8001021F038011143CAF80010A9
:1024D000EBE70121201D01F0E3FA03E00098012160
:1024E00001F06EFB054675B100E001252E4620780F
:1024F00040071FD5D4F89000062819D2DFE800F075
:10250000160C11161616626FDAF8001021F007018A
:102510001143CAF80010EAE70121201D01F0C0FABA
:1025200003E00098012101F04BFB05469DB100E05E
:1025300001252E46207880062BD5D4F88C00B0F1EA
:10254000405F24D011DC10B3B0F1805F15D0B0F142
:10255000005F10D116E0D4F89020D9F8001021F0D7
:1025600007011143C9F80010E4E7B0F1804F0ED025
:10257000B0F1A04F0BD001250AE00021201D01F091
:102580008FFA03E00098022101F01AFB05468DB195
:102590002E46207840062BD5D4F89800B0F5406F31
:1025A00024D011DC10B3B0F5806F15D0B0F5006FFA
:1025B00010D116E0D4F88C20DAF8001021F0E041B8
:1025C0001143CAF80010E4E7B0F5805F0ED0B0F513
:1025D000A05F0BD001250AE00021201D01F060FA68
:1025E00003E00098022101F0EBFA05468DB12E467A
:1025F000207800062BD5D4F89C00B0F5C04F24D02D
:1026000011DC10B3B0F5005F15D0B0F5804F10D1DC
:1026100016E0D4F89820D9F8001021F4E0511143C5
:10262000C9F80010E4E7B0F5004F0ED0B0F5204F28
:102630000BD001250AE00021201D01F031FA03E052
:102640000098022101F0BCFA05464DB12E462078D3
:1026500000071ED5D4F88000B0F5805F0AD00FE0E7
:10266000D4F89C20D9F8001021F460411143C9F836
:102670000010ECE70098022101F0A2FA00B1012657
:10268000D4F88020DAF8001021F440511143CAF840
:1026900000102078C00613D5D4F89400B0F5807FE0
:1026A00005D10098022101F08BFA00B10126D4F87F
:1026B0009420D9F8001021F440711143C9F800109A
:1026C0002068000316D5D4F8A00038B1B0F5803FDB
:1026D00009D0B0F5003F0BD001250AE00021201DF4
:1026E00001F0DEF903E00098022101F069FA0546E5
:1026F00085B12E462068400322D5D4F88400B0F579
:10270000801F11D0B0F5001F13D0B0F5401F15D0B9
:10271000012514E0D4F8A020D9F8001021F44031AC
:102720001143C9F80010E5E7386840F4003038601C
:1027300004E00098012101F043FA054655B12E4608
:102740002068C0031CD5E06C70B1B0F5803F10D09C
:10275000012514E0D4F88420DAF8001021F44011A7
:102760001143CAF80010EBE7386840F400303860D5
:1027700004E00221201D01F093F90546CDB12E465B
:102780002068800005D50098022101F019FA00B1F7
:102790000126206880031BD5E06FB8B1B0F5807FBB
:1027A00010D0B0F5007F11D0B0F5407F0ED00125DC
:1027B0000DE02E48E26C0838016821F480311143A5
:1027C0000160DDE7386840F400303860F5B32E462C
:1027D0002068C00207D5226FD8F8001021F0004110
:1027E0001143C8F800102068C00008D5D4F8B42000
:1027F000DBF8001021F480411143CBF80010206871
:10280000800207D5A26ED8F8001021F08071114324
:10281000C8F80010206840000CD5DBF8001021F447
:102820000041CBF80010DBF80010D4F8B8201143B9
:10283000CBF800102068002807DA0C48226D083811
:10284000016821F040511143016000E014E020686C
:10285000000208D5D4F88820DAF8001021F44001ED
:102860001143CAF8001086B1012003E05444025815
:10287000CFFFFF00BDE8FC9FE26FDAF8001021F403
:1028800040711143CAF80010A2E70020EDE70000F4
:102890002DE9F05F04000F467ED0DFF83882D8F8CB
:1028A000000000F00F00B8420CD2D8F8001021F060
:1028B0000F013943C8F80010D8F8000000F00F00ED
:1028C000B84269D12078844D40070AD5206929682B
:1028D00001F07001884204D9296821F07001014398
:1028E000296020787C4E361D00070AD56069316862
:1028F00001F07001884204D9316821F07001014370
:1029000031602078C0060AD5A069316801F4E06121
:10291000884204D9316821F4E061014331602078B4
:10292000DFF8B4B180060BF1080B0CD5E16958460D
:10293000DBF8002002F07002914204D9026822F014
:1029400070020A430260207880070AD5E06829688F
:1029500001F00F01884204D9296821F00F010143D9
:1029600029602078C0073ED05B49A26828681839E2
:1029700020F47060104328606068022818D0032893
:1029800019D00968012819D0490700294ADADFF867
:1029900048A1AAF1080A00E044E0DAF8002022F099
:1029A00007020243CAF80020FEF7A2F9814612E0AE
:1029B00009688903E9E709688901E6E7C905E4E7E9
:1029C000FEF796F9A0EB090141F28830814202D965
:1029D0000320BDE8F09F6168DAF8000000F03800DD
:1029E000B0EBC10FECD1207880070AD5E0682968E8
:1029F00001F00F01884204D2296821F00F01014340
:102A00002960D8F80010404601F00F01B9420BD9F7
:102A1000016821F00F0139430160006800F00F00E8
:102A2000B84201D00120D4E7207840070AD52069B8
:102A3000296801F07001884204D2296821F07001F0
:102A400001432960207800070AD56069316801F0E8
:102A50007001884204D2316821F070010143316075
:102A60002078C0060AD5A069316801F4E061884287
:102A700004D2316821F4E06101433160207880069E
:102A80000CD5E1695846DBF8002002F07002914253
:102A900004D2026822F070020A43026000F06CF86F
:102AA0000E492A682B68C2F3032203F00F038A5CE5
:102AB000C95C02F01F0201F01F01D040084A20FA51
:102AC00001F111600749086007480068BDE8F05F40
:102AD000FEF74AB9002000521844025868680008FE
:102AE00078000024740000246C00002430B500F04D
:102AF00043F80B4A0B490C4B15681468C5F30322C5
:102B000004F00F048A5C095D02F01F0201F01F014E
:102B1000D040064A20FA01F119601060084630BD25
:102B200018440258686800087800002474000024E3
:102B300000B5FFF7DBFF05490968054AC1F302113B
:102B4000515C01F01F01C84000BD00001C44025848
:102B50006868000800B5FFF7C9FF05490968054A1C
:102B6000C1F30221515C01F01F01C84000BD00000B
:102B70001C44025868680008454970B54548096812
:102B8000434B103B11F0380208D00111082A03D042
:102B9000102A0BD0182A0BD0084670BD1968890678
:102BA000FBD51968C1F3C101C84070BD3A4870BD7A
:102BB0003749374D18310C1D24350A6809682668D5
:102BC0002D6802F0030406F00102C1F30511C5F3FC
:102BD000CC0515FB02F200EE102AB8EE400AE9B36C
:102BE0002F4ADFED2E0AB7EE001A6CB1DFED2D1A79
:102BF000012C01D0022C43D002EE101A1068F8EE1E
:102C0000422A81EEA22A1EE01C68A40611D51B6888
:102C100001EE901A1168C3F3C103F8EE612AD8409F
:102C200001EE900AC1F30800F8EE611A81EEA22AC3
:102C30000BE001EE901ADFED1C2A00BFF8EE611ADE
:102C4000106882EEA12AC0F3080001EE900AF8EEA7
:102C5000611A40EE201A31EE810A00E015E022EE02
:102C6000000A1068C0F34620401C00EE900AF8EEFF
:102C7000600A80EE201ABCEEC10A10EE100A70BD88
:102C800001EE901ADFED092AD8E7002070BD0000A0
:102C9000104402580090D00340787D0100000039B4
:102CA000304402580024744A0024744C20BCBE4BAB
:102CB0002DE9F05F04007CD0FF4F2078FE4D1837DF
:102CC000DFF8F493103DC00748D0D9F80000396808
:102CD00000F03800102815D0182803D101F00300A7
:102CE00002280FD06068B0F5803F12D010B1B0F567
:102CF000A02F18D0286820F480302860286820F49D
:102D0000802009E02868800328D560680028D2D098
:102D100024E0286840F480302860606888B1FDF7BE
:102D2000E7FF064609E0286840F480202860F0E7C5
:102D3000FDF7DEFF801B64287ED828688003F7D566
:102D40000CE0FDF7D5FF064605E000BFFDF7D0FF1C
:102D5000801B6428F0D828688003F7D4207841F2DB
:102D60000308D54E0C3E800753D5D9F800003968CA
:102D700010F038000ED0182801D188070AD0E0687A
:102D8000A8B3296821F0190101432960FDF7B0FFBC
:102D900082461BE02868400702D5E06800288AD0F8
:102DA000FDF7A0FF40451BD82069402812D03168AC
:102DB00000E0CCE021F47C3141EA0030306028E0D2
:102DC000FDF796FFA0EB0A000228B5D82868400757
:102DD000F6D5E5E7306820F47C3040F40030EDE7CC
:102DE000207C316821F0FE4141EA0060E6E7FFE720
:102DF000286820F001002860FDF77AFF824605E090
:102E0000FDF776FFA0EB0A00022895D82868400756
:102E1000F6D42078C0065FD5D9F80000DFF898B264
:102E2000396800F03800ABF1040B082812D01828DC
:102E300005D101F0030000E0EAE001280AD0E069D2
:102E40000028286838D040F080002860FDF750FF47
:102E5000824623E02868C00523D5E069802876D122
:102E60001FE0206A202821D0316821F0F84141EA92
:102E70008060306030E000BF94F82010DBF8002064
:102E800022F07C5242EA0161CBF8001024E000BF3E
:102E9000FDF72EFFA0EB0A00022896D82868C0058F
:102EA000F6D5FDF71FFF4045E6D8DAE7306820F099
:102EB000F84040F08040DCE720F080002860FDF71B
:102EC00017FF064605E000BFFDF712FF801B022832
:102ED0009BD82868C005F7D42078000729D5764804
:102EE0006169643000298046016811D041F0010118
:102EF0000160FDF7FDFE064605E000BFFDF7F8FEA8
:102F0000801B0228C9D8D8F800008007F6D510E049
:102F100021F001010160FDF7EBFE064605E000BF70
:102F2000FDF7E6FE801B022872D8D8F80000800763
:102F3000F6D42078800623D5A0690028286810D010
:102F400040F480502860FDF7D3FE064605E02CE1F2
:102F5000FDF7CEFE801B02285AD828688004F7D5DA
:102F60000EE020F480502860FDF7C2FE064604E023
:102F7000FDF7BEFE801B02284AD828688004F7D4DB
:102F8000207840074FD5DFF83481D8F8001041F49D
:102F90008071C8F80010FDF7ABFE064605E000BFE3
:102FA000FDF7A6FE801B642832D8D8F80000C005C3
:102FB000F6D5414EA068603601280AD008B1052830
:102FC00013D0306820F001003060306820F0040039
:102FD00002E0306840F001003060A06841F2883AB9
:102FE00090B1FDF785FE80460AE0306840F00400AD
:102FF0003060EEE7FDF77CFEA0EB0801514507D8F5
:1030000030688007F6D50EE0FDF772FE804607E0D7
:1030100084E000BFFDF76CFEA0EB080151457DD8B0
:1030200030688007F6D4606AF0B3DFF88C80D9F896
:10303000001008F12008C1F3C20103296FD0022853
:10304000286820F08070286003D0FDF751FE044608
:1030500080E0FDF74DFE064605E000BFFDF748FEA7
:10306000801B022873D828688001F7D4E26A40F2F6
:10307000F331386854F8283F884340EA0210184377
:103080003860217B4FF4FE0C22894FF0FE47208AE6
:103090004902267D521E401EA1F5007189B20CEA3C
:1030A0000040C2F3080200E081E01143761E0143B4
:1030B000014807EA066203E010440258004802583B
:1030C0001C3011433B4AC8F80010016821F001018F
:1030D000016011684FF6F876236AB14341EAC301F3
:1030E00011600168A26921F00C01114301600168BF
:1030F000E26921F0020111430160016841F480316D
:103100000160016841F400310160016841F48021EF
:103110000160016841F00101016001E017E01DE07C
:10312000286840F080702860FDF7E2FD044604E066
:10313000FDF7DEFD001B022809D828688001F7D5BD
:1031400035E000BFFDF7D4FD001B022802D90320A3
:10315000BDE8F09F28688001F4D428E03968012890
:10316000D8F8000021D0A26A01F0030393421CD1D9
:10317000E26AC1F305118A4217D1216BC0F308023C
:10318000491E8A4211D1616BC0F34622491E914209
:103190000BD1A16BC0F30642491E914205D1E16BF0
:1031A000C0F30660491E814201D00120D0E7002013
:1031B000CEE7000034440258401EB0F1807F10B5C5
:1031C00001D3012010BD4FF0E02460610F21601792
:1031D00002F000FE0020A0610721216110BD30B582
:1031E00090F88010012918D0012280F88020242135
:1031F000C0F884100022202450F8641B0B680D686E
:1032000023F0005325F001050D60026050F8641CA6
:103210000B6004620277104630BD022030BD70B5ED
:10322000044690F8800001281DD0012284F88020F7
:103230002420C4F8840020680568026822F0010296
:1032400002602068826822F060620A438260204641
:1032500000F076FE2268202100201560C4F884105A
:1032600084F8800070BD022070BD70B5044690F8EF
:10327000800001281DD0012284F880202420C4F879
:10328000840020680568026822F00102026020685C
:10329000826822F060420A438260204600F050FEBD
:1032A0002268202100201560C4F8841084F8800072
:1032B00070BD022070BD10B5040003D0D4F88400A6
:1032C00010B107E0012010BD002084F880002046E6
:1032D00000F026F82420C4F884002068016821F05A
:1032E00001010160204600F0E1FE0128EBD0A06A58
:1032F00010B1204600F046FE2068416821F490415C
:1033000041602068816821F02A018160206801689D
:1033100041F0010101602046BDE8104000F096BE7A
:1033200010B586B0044614216846FDF71DF81A4909
:10333000206888422ED11948016841F010010160CF
:10334000006800F01000059014481038016841F042
:1033500001010160016801F001010591016841F07E
:103360000101016000680221012200F001000590C6
:10337000032307244FF400708DE81F00084C6946B2
:103380002046FDF791FB4FF480606946009020468F
:10339000FDF78AFB06B010BD00100140F044025852
:1033A000000002582DE9F8430446D0F884001F4677
:1033B00016460D46202852D1DDB1D6B194F88000D2
:1033C00001284CD0012084F8800021224FF0000811
:1033D000C4F88C80C4F884201834FDF789FC814639
:1033E00054F8100CA687E687183CB0F5805F03D030
:1033F00004E00120BDE8F883206920B12E460025B5
:1034000084F8808010E00026FAE78021204601F051
:1034100023F8B8B9C6B116F8010B21688862B4F870
:103420005600401EA4F85600B4F856004B464FF024
:10343000000200970028E8D14FF04001204601F03B
:103440000BF838B10320D5E735F8020B2168C0F33B
:103450000800E3E72020C4F884000020CAE7022027
:10346000C8E7FEE7F0B500230A251C4630263727BB
:1034700011E000BFB5EB107F02D906EB107C01E034
:1034800007EB107C01F813C001EB430C00015B1C3F
:103490008CF80140DBB29342ECD3F0BD30B587B07D
:1034A00014216846FCF760FF0E48016841F00401F2
:1034B000016000684FF400540B4D002200F004003E
:1034C000214605902846FDF707FC002100940120C5
:1034D000CDE90101284603916946FDF7E5FA07B0F9
:1034E00030BD0000E0440258000802580A4801229A
:1034F000F0B4084E2023102440C01625002180E897
:103500003C00C0E904128161C161001FF0BCFEF7FC
:103510007FBA00000050005224020024104900220B
:10352000104810B501F016FB08B1FDF7E8F90E4997
:103530000C4801F017FD08B1FDF7E1F90B49094806
:1035400001F001F908B1FDF7DAF9064801F084FD50
:1035500008B1FDF7D4F9BDE81040024801F0C3B945
:1035600004000024700200245801002454000024A8
:10357000FEE7FEE70148FDF7EBBD000060190024FF
:103580002DE9F041044600690D46202723680128F3
:103590004FF4004604F5717203EB4511D3F840C0B7
:1035A000D1F8080B09D0DFF89CE0F4453AD10204C9
:1035B00033D500BFC1F8086B40E0234B5FEA007EC3
:1035C00004D59C453AD90004F4D437E05FEA806E14
:1035D00002D5C1F8087B31E010F0280F2ED19C45B0
:1035E00001D90004E6D4D1F8103BC5EBC50004EBCB
:1035F0008000C3F31203D0F80412A1EB0303C0F858
:103600001432D0F808321944C0F8081295B9D4F829
:10361000100278B9206801210AE080060AD5C1F8B5
:10362000087B07E035B9D4F8100218B90021184614
:1036300002F0EEF82046E9B2FDF75DFC0020BDE89F
:10364000F08100000A31544F0A30544F2DE9F84FF1
:103650000E4605688146C1EBC60100EB8104D4E942
:1036600014203C34904202D90120BDE8F88FA168B3
:10367000101A814200D20846C01C05EB4618870884
:103680001BE000BFA268A0EB010A524500D292469F
:1036900099F810100AF1030000911FFA8AF3E1680B
:1036A00087082846F2B202F06FFBE16801EB0A00DE
:1036B000E060A16901EB0A00A061D8F8180980B2A6
:1036C000B84205D3D4E90501814201D20028D9D1FD
:1036D000D4E90501884208D8D5F83418012006F04D
:1036E0000F0290408143C5F834180020BDE77047B1
:1036F0002DE9F0434B6A4FF040652BB1AA4203D04D
:1037000004688B6A5B1E23618B69002B68D00C6A8E
:10371000B4B303688C68DC61CC69FCB1D1E90B38C7
:10372000D1F824C04E6B8F8A43EA080346EA0C06A0
:1037300033430E6A43EA8743D1E9037C43EA0C032F
:1037400033438E693B430F682343046833433B4351
:1037500065E0006849688161BDE8F083D1E90B3616
:103760004F6A4C6B8D8A33433C430E6923430C6A8A
:1037700043EA85438D693343096823432B4362E061
:10378000FFE7CC69B4F1000918D0D1E90B484F6AC2
:103790004E6BB1F814C044EA08043E430F6834434A
:1037A000CE6844EA8C44344344EA09041C43036869
:1037B0003C431443AA425C61CBD1CDE7D1E90B462F
:1037C0004F6A4D6BB1F814C034433D4300682C433D
:1037D000096844EA8C441C430C4314434461BBE72E
:1037E0000B6AABB303688C68DC61CC69E4B1D1E9E6
:1037F0000B38D1F824C04E6B8F8A43EA080346EA9F
:103800000C0633430E6A43EA8743D1E9037C43EA5B
:103810000C0333438E693B43234304683343134310
:10382000AA42636195D197E7D1E90B364F6A4C6B99
:103830008D8A33433C430E6923430C6A43EA854334
:1038400089693343234300680B431343436183E790
:10385000FFE7CC6984B1D1E90B384F6A4E6BB1F800
:1038600014C043EA08033E433343CE6843EA8C4323
:10387000334323430468D2E74C6A002C9DD0D1E93E
:103880000B368F8A4D6B0168334325432B4343EA44
:103890008740104348615FE730B595B000200121B3
:1038A00010240C900B020D9305230E900A06109223
:1038B0008D050190CDE906530F9001AA129041F2B7
:1038C000883313901490CDE90410CDE90214054813
:1038D00007A9FEF703F8002801D06FF0020015B029
:1038E00030BD00002402002410B5FFF7FFFD00F0FA
:1038F00081F800F051F801460648814204D106A043
:1039000002F058FA002010BD09A002F053FA4FF05F
:10391000FF3010BD1740EF00573235513634204F7D
:103920004B2C666C6173682049443A25580D0A0097
:10393000573235513634204552524F5221212121E0
:1039400021202049443A25580D0A000030B591B095
:1039500000204FF480744FF44061099465010B908E
:10396000EB2406958A030F90062308930C9210907F
:10397000CDE902040E900A91019000F03BF8054851
:1039800001AA03A9FEF79AF8002801D06FF00500FC
:1039900011B030BD2402002410B590B04FF48073F4
:1039A00000205C01069319040394032208909F23CE
:1039B0000C90009341F288340B900D900790059085
:1039C000CDE909120A4822466946FDF7DDFF08489D
:1039D0000EA92246FEF73CF99DF838209DF83900E3
:1039E0009DF83A1010B0120442EA0020084310BDBE
:1039F0002402002470B58EB041F2883400204FF4C8
:103A0000807166220890CDE90610009222460B9044
:103A100069460C900D90099005900E48FDF7B4FF93
:103A20004FF0FF3560B9FFF737FF6FF0020670B94E
:103A300099200090074822466946FDF7A5FF10B17E
:103A400028460EB070BDFFF727FF0028F9D030469A
:103A5000F7E70000240200242DE9F04198461646BD
:103A60000F460446069D08E0681C06D0FDF740F9A5
:103A7000A0EB0800A8420AD84DB120688068384001
:103A800000D00120B042EFD10020BDE8F081042039
:103A900084F84100606C40F0010060640120F4E7AC
:103AA0002DE9F047454D044689464FF0000A286845
:103AB000C04380070AD0414E283E306820F0806025
:103AC0003060FDF715F90746B04608E00120BDE873
:103AD000F08700BFFDF70CF9C01B022867D8D8F8A3
:103AE00000000001F6D4206829684FF4FE0721F495
:103AF0007C313E0241EA00302860207AA389B4F884
:103B000004C040022D4D2D495B1E227CACF1010CFE
:103B10001035091DA0F5007080B2521ECCF3080CC0
:103B200007EA034340EA0C00184306EA0262104326
:103B300028600868626920F0C000104308600A68C5
:103B4000A06922F0200202430A60281D0A6822F0C0
:103B500010020A6002684FF6F873E4699A4342EA79
:103B6000C40202600868B9F1000F40F010020A6058
:103B700011D00868B9F1010F11D040F400100860AD
:103B8000D8F80000444640F08060C8F80000FDF717
:103B9000AFF805460DE0086840F40020EFE740F478
:103BA0008010ECE7FDF7A4F8401B022801D90320A0
:103BB0008DE720680001F5D5504688E72844025873
:103BC0002DE9F047454D044689464FF0000A286824
:103BD000C04380070AD0414E283E306820F0805014
:103BE0003060FDF785F80746B04608E00120BDE8E3
:103BF000F08700BFFDF77CF8C01B022867D8D8F813
:103C000000008000F6D4208829684FF4FE0721F0D8
:103C10007C713E0241EA00502860207AA389B4F802
:103C200004C040022D4D2D495B1E227CACF1010CDD
:103C30001835091DA0F5007080B2521ECCF3080C97
:103C400007EA034340EA0C00184306EA0262104305
:103C500028600868626920F44060104308600A68C0
:103C6000A06922F4007202430A60281D0A6822F447
:103C700080720A6002684FF6F873E4699A4342EA78
:103C8000C40202600868B9F1000F40F480720A6053
:103C900011D00868B9F1010F11D040F080700860B0
:103CA000D8F80000444640F08050C8F80000FDF706
:103CB0001FF805460DE0086840F48000EFE740F487
:103CC0000000ECE7FDF714F8401B022801D903209F
:103CD0008DE720688000F5D5504688E728440258D3
:103CE00070470178407841EA00207047FDF706B838
:103CF000F0B5CBB04C212FA8FCF736FB202142A811
:103D0000FCF732FBBC216846FCF72EFB50480168EB
:103D100021F0040101604E484E490C300024026835
:103D200042F44042026002680A6842F001020A60FE
:103D3000096801F001014A9101688904FCD5052751
:103D40000225389501203590C022CDE93957060467
:103D50000C20CDE93B25CDE93F04212141941423DA
:103D6000CDE92F16CDE93D352FA8FEF7A1FF08B10B
:103D700072B6FEE7A020019780210495CDE90205E7
:103D8000A42205950B010D95CDE90614CDE90A2570
:103D9000CDE90847CDE90E34009998102C9041F4F4
:103DA00080010C9541F40030109440F480201F9461
:103DB00040F08070219440F40020139440F480304F
:103DC000014658041B9041F4004141F0007040F05E
:103DD0000100CDE9115401461E949800179041F45A
:103DE0008051209441F00800189640F4806040F41F
:103DF00000500090CDE928646846FEF7DFF84020C7
:103E000008250101CDE945503F22CDE94701499000
:103E100042A88446032304218CE81C00FEF738FDE9
:103E200008B172B6FEE70C48016841F080010160FC
:103E30000948F430016841F002010160006800F0B7
:103E400002004A90FCF770FDFDF740FD4BB0F0BD5D
:103E50000C4802582C040058004402582E48F0B573
:103E60002E4A016841F470010160106800F00F00F3
:103E7000072804D2106820F00F00C01D10602849E8
:103E80000020274C10340B68264D43F001030B60D3
:103E900020600B682B400B60136803F00F03072BA7
:103EA00004D9136823F00F03DB1D13601C4C1E4A5A
:103EB00018341E4B261D371D2060194C1C4D28340C
:103EC0003060261D3860371D23603B1D35601C1D8A
:103ED0003A60251D2E1D1860331D22602860326057
:103EE00018600A680E4B134C22F4802260330A607B
:103EF000186020686FF30F00B0F1005F03D20E4925
:103F00000120C1F8080143F2D2000C49024B4A03D8
:103F1000803B08601A60F0BD88ED00E00020005290
:103F2000004402587FEDF6EA80020101000202021D
:103F30000000FF010010005C0080005100400052B2
:103F400030B5416EB9B101680D4B03F108048A68C0
:103F50008968C2F34262490F5D5C615C2D01B5FB6B
:103F6000F1F1A0F86A10995CA25C0901B1FBF2F1D1
:103F7000A0F8681030BD0121A0F86A10F8E7000031
:103F80005868000890F82810C90706D00168C36A6D
:103F90004A6822F400321A434A6090F828108907D0
:103FA00006D50168036B4A6822F480321A434A60DE
:103FB00090F82810490706D50168436B4A6822F437
:103FC00080221A434A6090F82810090706D5016834
:103FD000836B4A6822F400421A434A6090F8281022
:103FE000C90606D50168C36B8A6822F480521A4359
:103FF0008A6090F82810890606D50168036C8A68E3
:1040000022F400521A438A6090F82810490611D50C
:104010000168436C4A6822F480121A434A60416C7A
:10402000B1F5801F06D10168836C4A6822F4C00292
:104030001A434A6090F82810090606D50168C26C38
:10404000486820F40020104348607047F8B5002607
:104050000446C0F88C60FCF74BFE054620686FF004
:104060007E470068000708D500222B464FF4001158
:104070002046009700F0F0F960B92068006840071A
:104080000AD500222B464FF480012046009700F00D
:10409000E3F908B10320F8BD2020C4F88400C4F877
:1040A0008800E666002084F88060F8BD2DE9F043C2
:1040B00004468068D84E87B0D84B2168D4E90427DD
:1040C000D4F81CC010430A68002547EA0C0738439F
:1040D000324002430A602068E268416821F440519E
:1040E000114341602268A1699A4201D0206A0143CC
:1040F0009668DFF82CC3CB4FCB4806EA0C060E437C
:1041000096602168666ACA6A22F00F023243CA6268
:104110002268BA420ED1006800F03800182873D027
:1041200047DCB8B3082879D010286FD178E0282868
:104130007ED17BE0BD498A4209D1006800F00700CA
:10414000062875D2DFE800F0546A6C6E7072B849C8
:104150008A4209D1006800F00700062868D2DFE82B
:1041600000F0475D5F616365B2498A4209D100682A
:1041700000F0070006285BD2DFE800F03A50525406
:104180005658AD498A420BD1006800F00700062856
:104190004ED200E010E0DFE800F02B4143454749F4
:1041A000A6498A420AD1006800F03800182839D0A0
:1041B000B7DD2028BBD13CE001203AE0A0498A428B
:1041C00009D1006800F00700062831D2DFE800F0CE
:1041D0001026282A2C2E9B498A420BD1006800F019
:1041E0000700062824D2DFE800F003191B1D1F2159
:1041F00000201EE09A421BD18B48001D006800F091
:104200000700062814D202E00CE007E010E0DFE827
:1042100000F0030507090B0D02200AE0042008E066
:10422000082006E0102004E0202002E0402000E00A
:1042300080208549DFF814829A42854A4FF4004372
:104240004FEA21174FF000064DD110281AD006DC96
:10425000022809D004280BD008287CD10DE02028A2
:104260003DD0402877D13CE0FDF752FD014610E0FB
:104270006846FDF75FFD01990BE003A8FDF7FCFD23
:10428000049906E01068800604D51068C0F3C100E8
:10429000C140B9B3606A676838F8102007EB47037C
:1042A000B1FBF2F0834256D8B0EB073F53D800235E
:1042B00008461946FCF70EF802467808130E12025B
:1042C00043EA012110183A4671410023FCF702F835
:1042D000604AA0F5407191423DD821684CE03946D2
:1042E000D8E71946D6E7D4F81CC04FF6EF799C45BD
:1042F00052D108281AD006DC60B101280DD004285C
:1043000029D10EE039E0102815D0202840D04028CF
:104310007CD13FE0FEF70CFC01E0FEF71BFC014600
:1043200010E06846FDF706FD01990BE003A8FDF7D4
:10433000A3FD049906E01068800604D51068C0F358
:10434000C100C140C9B1636A606838F81330B1FB7D
:10435000F3F1490000E059E001EB5001B1FBF0F04E
:1043600080B2A0F11001494550D84FF6F073216892
:10437000C0F3420218401043C8600120A4F86A004C
:10438000A4F8680028462667666707B0BDE8F08392
:104390003946D8E71946D6E7082819D005DC58B1C0
:1043A00001280CD0042831D10DE0102815D0202888
:1043B0002ED040282AD12DE0FEF7BAFB01E0FEF70F
:1043C000C9FB014610E06846FDF7B4FC01990BE01B
:1043D00003A8FDF751FD049906E01068800605D595
:1043E0001068C0F3C100C1400029C6D0636A60688C
:1043F00038F81330B1FBF3F101EB5001B1FBF0F0F1
:1044000080B2A0F1100149457FF667AF0125B4E7FE
:104410003946EBE71946E9E7F369FFCF000C00588E
:10442000FFF4FF11001001405444025800440040C2
:1044300000480040004C0040005000400014014083
:1044400000780040007C00400090D00340680008E5
:1044500000440258FFFC0F002DE9F0479A4617462A
:104460000E460446089D4FF000094FF0200839E041
:10447000681C37D0FCF73CFCA0EB0A00A84222D80D
:104480000DB32068016849072CD5C069C0430005F9
:1044900028D423684FF40061196221680B6823F463
:1044A000D0730B6021688B6823F001038B60C4F824
:1044B0008480C4F88880C4F88C8000BF032084F80E
:1044C0008090BDE8F08721680B6823F4D0730B60FF
:1044D00021688B6823F001038B60C4F88480C4F8E2
:1044E0008880EBE72068C06936EA000004D000202D
:1044F000B842BDD00020E4E70120F9E711480021CF
:1045000010B50F4C0C224FF4E1330460C0E90131C7
:10451000C160C0E904128161C161016241628162CE
:10452000FEF7C9FE07480021FEF79FFE054800215F
:10453000FEF775FEBDE810400248FEF750BE0000D1
:1045400000100140940100242DE9F041D0F8C4226C
:104550000C46D0F8BC12F9B104EB8403002600EB42
:104560008305AB694BB1C4EBC40702EB8702526C05
:10457000B3FBF2F702FB173282B1C1F81462D0F834
:10458000C00203692BB1D1F8080201F5047122467B
:1045900098470020BDE8F0810320FBE70023214677
:1045A0001A46AE6100F0C0FCF3E770B5D0F8BC422B
:1045B00005466CB100F095FBC4F80C0204F50371DC
:1045C000D5F8C002C268D4F804029047002070BD3C
:1045D000032070BD70B58121044600F0D7FA002594
:1045E00020460121258700F0D1FA82212046A4F837
:1045F000785100F0CBFAD4F8BC02A4F84C50A4F8DF
:104600004E5048B1D4F8C00204F52F74406880477A
:10461000206800F078FE2560002070BD10B5D0F84D
:10462000BC4284B1D0F8C01259B194F80002FF28FE
:1046300007D08B68214694F801229847FF2084F820
:104640000002002010BD032010BD00000A210180DF
:1046500000487047800000244321018000487047D3
:10466000D000002443210180004870478C000024C2
:104670004321018000487047140100242DE9F047D0
:1046800004464FF4077000F03FFE05004FF00007AE
:1046900035D0207C01264FF400794FF01008C4F883
:1046A000BC5280B3402320460222812100F080FBCF
:1046B0004023268702222046012100F079FBA4F83E
:1046C00078610823032220468221A4F84E8000F05E
:1046D0006FFBA4F84C60D4F8C00200688047C5F8AE
:1046E0001472C5F81872207CD5F80422A8B14023B2
:1046F0002046012100F068FB0020BDE8F087022081
:10470000C4F8BC72F9E7FFE702224B46812120463C
:1047100000F04EFB4B462687CCE74B46E8E710B54A
:10472000D0F8BC1251B1027C002AD1F8042207D083
:104730004023012100F048FB002010BD032010BDE4
:104740004FF40073F5E719B1C0F8C01200207047AC
:1047500003207047D0F8BC0218B1C0F80412002042
:10476000704703207047D0F8BC0228B1C0F810226F
:10477000C0F8081200207047032070472DE9FC4163
:1047800006460C4600200546D6F8BC728DF800009F
:10479000ADF8040037B1207810F0600129D020294D
:1047A00045D102E00320BDE8FC81E288CAB10006E1
:1047B0000BD5D6F8C0023946836860789847E288FE
:1047C000072A00D90722394629E06078394687F858
:1047D0000002A07987F801023046E28800F051F823
:1047E0002AE0D6F8C0020022214683686078984704
:1047F00022E0607830B101281ED00A2809D00B28A9
:1048000015D110E096F89C02032810D1022201A9CC
:1048100005E096F89C02032809D10122694630463A
:1048200000F049F808E096F89C02032804D02146DD
:10483000304600F01BF803252846B4E710B5D0F841
:10484000B8220AB152689047002010BD13460A46AC
:10485000002110B500F0B8FA002010BD13460A463A
:10486000002110B500F060FB002010BD10B58021C4
:10487000044600F035FB2046BDE81040002100F062
:104880002FBB10B5C0F858210323C0F89432C0F8EC
:104890005C2113460A46002100F096FA002010BD64
:1048A00010B50521C0F8941200231A46194600F0ED
:1048B0008BFA002010BD10B582610223C0F894323B
:1048C000C26113460A46002100F02EFB002010BDF5
:1048D00010B50421C0F8941200231A46194600F0BE
:1048E00023FB002010BD70B5044600F00BFBD4F88C
:1048F000B8020121002584F89C1238B14268204694
:1049000021799047C4F8B852C4F8C0522046C4F880
:10491000B452C4F8CC52BDE8704000F0CAB90000EF
:1049200004A00A46024910B500F0E3F8004810BDA3
:104930004005002443444320436F6E6669670000CE
:1049400012200880004870472400002404A00A4672
:10495000024910B500F0CDF8004810BD4005002414
:1049600043444320496E74657266616365000000CC
:1049700004200880004870472000002404A00A4654
:10498000024910B500F0B5F8004810BD40050024FC
:1049900053544D6963726F656C656374726F6E69B1
:1049A0006373000004A00A46024910B500F0A1F8A4
:1049B000004810BD4005002453544D333220566941
:1049C000727475616C20436F6D506F7274000000DB
:1049D00010B51A2008800B480A490830021F0968E0
:1049E00000681468081809D007490822FEF73AFD44
:1049F0000549042220461031FEF734FD0248801E8E
:104A000010BD000000E8F11F3A000024F8B504468C
:104A10000D460020ADF800004888010A08295FD241
:104A2000DFE801F05E0409175E5E3C45D4F8B4127D
:104A3000207C0A6819E0207C02260028D4F8B802FD
:104A400005D0C16A684688470146467039E0816AE8
:104A5000F8E7C0B2062843D2DFE800F0030A1014DA
:104A6000181CD4F8B402426805E0694690471CE07F
:104A7000D4F8B402826892B3207CF6E7D4F8B4028A
:104A8000C268F8E7D4F8B4020269F4E7D4F8B402D3
:104A90004269F0E7D4F8B4028269ECE7207CF0B90F
:104AA000D4F8B802416B68468847014609E0207C8B
:104AB000A8B9D4F8B802016B6846884701460720B8
:104AC0004870EA888AB1BDF8000040B1824200D93E
:104AD00002462046ADF80020FFF7EDFEF8BDFFE7E7
:104AE00029462046FFF7C2FEF8E72046FFF7F0FE12
:104AF000F4E770B500284FF000051ED004462E469E
:104B000002E0761C641CF6B22378002BF9D1022453
:104B100004EB4604148012786B1C03264A550024CB
:104B2000AA1CCE5406E0551C8B54EAB2531C401C00
:104B30008C54DAB20378002BF5D170BD01004FF030
:104B4000000004D0012901D0022901D003207047C0
:104B50000120704778B10023C0F8B832C0F8C032E5
:104B6000C0F8CC3209B1C0F8B4120121027080F84B
:104B70009C1200F0BBB80320704710B5D0F8C402F7
:104B8000FCF700FABDE81040FFF7D8BF10B5D0F829
:104B9000C402FCF7D1F9BDE81040FFF7CFBF70B5F4
:104BA0001646044621B194F89C02032841D048E0FF
:104BB000D4F89412002504F11400022932D1D0E96E
:104BC0000232934206D99A1A314682602046FFF794
:104BD00045FE0FE09A4214D14068904211D3D4F8B8
:104BE000981288420DD2002220461146FFF736FE69
:104BF000C4F8985200231A461946204600F0E4F8FB
:104C000010E094F89C02032805D1D4F8B802C168DA
:104C100009B1204688478021204600F061F92046EE
:104C2000FFF73EFE94F8A00201280AD184F8A052B2
:104C300007E0D4F8B80242691AB12046904700282C
:104C400000D1002070BD10B51346044621B194F880
:104C50009C02032823D02AE0D4F8941204F5AA7009
:104C6000032924D1D0E9021291420AD98A1A82601A
:104C7000C068824200D3024619462046FFF7E6FD8F
:104C800015E094F89C02032805D1D4F8B802016914
:104C900009B1204688472046FFF71AFE07E0D4F8FE
:104CA000B80282691AB120469047002800D100203E
:104CB00010BD10B5D0F8C402FCF727F9BDE81040CC
:104CC000FFF73CBF0020704710B5D0F8B8120122A2
:104CD00080F89C2219B103794A68D9B29047002024
:104CE00010BDD0F8C402FCF77BB9000070B50178A4
:104CF00039BB154900220223144C0925C1F80404CC
:104D0000C0F8C4120846C1E90332C1E906320A629A
:104D10004A628A62CA620A63C1E90045FCF75AFC2A
:104D200008B1FBF7ECFD08488021FCF7B0F8064815
:104D300040220021FCF7AFF8034880220121FCF754
:104D4000AAF8002070BD000060190024000008408F
:104D5000D0F8C42201F07F000B06C0EBC00002EBCC
:104D6000800002D590F83E00704790F8FE01704731
:104D700010B5D0F8B82222B190F89C32032B02D0A3
:104D800004E0032010BD126A02B19047002010BD5C
:104D900010B5D0F8B82222B190F89C32032B02D083
:104DA00004E0032010BD526A02B19047002010BDFC
:104DB00010B51C46D0F8C40213462246FCF719F978
:104DC000BDE81040FFF7BABE10B5D0F8C402FCF73A
:104DD00040F9BDE81040FFF7B1BE70B504460125AB
:104DE0000020D4F8B81284F89C52C4F89402606091
:104DF000C4F8A402E1B1D4F8BC0220B14A6812B1EF
:104E00000021204690470022204640231146FFF70C
:104E1000CFFF4026A4F8645100223346802120466B
:104E2000C4F86061FFF7C4FFA5840020266270BD4E
:104E3000032070BD90F89C12042903D190F89D12B4
:104E400080F89C120020704710B5D0F8B81221B13C
:104E500090F89C22032A02D004E0032010BDC96907
:104E600001B18847002010BD01740020704710B5C3
:104E7000D0F8C402FCF7B0FCBDE81040FFF75EBEFE
:104E800070B5044600F2AA20054600F056F894F8E2
:104E9000AA020123B4F8B01210F01F02C4F8943231
:104EA000C4F898120AD0012A0ED0022A12D000F0BB
:104EB00080012046BDE8704000F012B82946204627
:104EC000BDE8704000F0CAB829462046BDE87040F1
:104ED00000F0EFB929462046BDE8704000F049B91E
:104EE00010B5D0F8C402FCF7D6F8BDE81040FFF7C3
:104EF00025BE10B5D0F8C402FCF789FCBDE810400F
:104F0000FFF71CBE10B5D0F8C402FCF7A1FCBDE849
:104F10001040FFF713BE90F89C22042180F89D22D8
:104F200080F89C120020704710B5D0F8C402FCF73E
:104F3000ECF8BDE81040FFF701BE70B505460878F3
:104F40008C1C2870487868702046FEF7CAFEA41CA6
:104F500068802046FEF7C5FEA880A01CFEF7C1FEB3
:104F6000E88070BD38B504460020ADF8000049B1B6
:104F7000C4F8B812C96A19B168468847C4F8CC02A7
:104F8000002038BD032038BDD0F8B83202460320D7
:104F9000002B02D01B681046184770472DE9F041DE
:104FA0002C4E0446887800250F46C1B20129317085
:104FB00006D939462046FFF759FC0320BDE8F081A9
:104FC00094F89C0202280CD003281DD039462046B4
:104FD000FFF74CFC31782046FFF730FC03252846CC
:104FE000ECE799B320466160FFF7CEFF050004D0DF
:104FF00039462046FFF73AFCF1E72046FFF768FC08
:10500000032084F89C02EAE74FF00208C1B160680F
:1050100088421BD0C1B22046FFF710FC31782046F1
:105020006160FFF7B1FF050010D039462046FFF759
:105030001DFC21792046FFF701FC84F89C82CEE715
:10504000616084F89C822046FFF7F8FB2046FFF75A
:105050003FFCC4E77C000024FFF74BBF2DE9F04183
:105060000A784FF0000512F0600208D0202A01D023
:10507000402A71D1D0F8B8229268904731E04B783D
:10508000002201260A2B67D2DFE803F0415E665852
:10509000660805662D29FFF7B9FC5FE0044688889D
:1050A000D8B9C888C8B94888802816D294F89C22F4
:1050B00000F07F07032A10D03946204684F89E72FC
:1050C000FFF7D5FE2046FFF703FC1FB1022084F84E
:1050D0009C0243E084F89C6240E020463CE0FFF7FD
:1050E0005DFF05463AE0CB88012B35D190F89C3224
:1050F000012B04D0022B02D0032B2DD104E000F1B0
:1051000008018260012216E00122011D13E090F8DF
:105110009C22012A03D0022A01D0032A1CD1CA886A
:10512000022A19D1D0F8A412C66009B10321C160C6
:10513000022200F10C01FFF7BEFB0FE049880129B4
:105140000CD1C0F8A46211E090F89C32012B08D079
:10515000022B06D0032B04D0FFF788FB2846BDE8BE
:10516000F08149880129F9D1C0F8A422FFF7B0FBEA
:10517000F4E72DE9F0410446087800260D46097948
:1051800010F060000BD0202801D040286DD1D4F859
:10519000B8022946826820469047064686E068782D
:1051A000A8B3012822D003287CD194F89C020228BD
:1051B00002D0032876D10BE0002973D0802971D06A
:1051C0002046FFF78DFE80212046FFF789FE6DE027
:1051D000688838B931B1802904D0E88810B92046F0
:1051E000FFF77EFE2046FFF773FB5FE094F89C021A
:1051F0000228E1D0032855D16888A8BB480602D010
:105200002046FFF7BAFC2046FFF762FBBFE7FFE747
:1052100094F89C020027022802D0032842D111E012
:1052200009B180293ED1080601F07F0000EB800023
:1052300004EB800101D5143101E001F5AA710222CD
:105240000F602BE0080601F00F0000EB800004EB7C
:1052500080000BD5808C40B101F07F0000EB800016
:1052600004EB800514350CE020E01BE0B0F864018D
:10527000C0B101F07F0000EB800004EB800505F574
:10528000AA7541B1802906D02046FFF761FD10B113
:105290000120286000E02F60022229462046FFF707
:1052A0000AFB03E029462046FFF7E0FA3046BDE856
:1052B000F08170B5064608780D464FF0000410F0F6
:1052C000600003D0202801D0402817D196F89C0216
:1052D000012803D0022801D003280FD12879012802
:1052E0000CD8D6F8B8028268304690470446E88861
:1052F000204306D13046FFF7EBFA02E03046FFF7D5
:10530000B5FA204670BD704700487047401700242A
:1053100070B54D7801230A78012D1C4C02F00F0561
:1053200003FA05F3D0F81C5817D000EB421245EAF7
:105330000343C0F81C38D2F8000B00040BD40B89CF
:10534000C978D2F8000BC3F30A03184344EA814139
:105350000843C2F8000B002070BD9EB23543C0F870
:105360001C5800EB4213D3F800090004F3D40D8954
:10537000C978D3F80009C5F30A058904284341EA2E
:10538000825108432043C3F80009E4E7008000107D
:10539000D0F800196FF30A01C0F80019D0F804180A
:1053A00041F48071C0F804180020704770B50446BD
:1053B00006990A9E049D01290D981DD0E06840F0D1
:1053C0004000E060204600F035F8A16B5EB321F4A8
:1053D0008031A163012D0ED1E16D144A89B2E165DE
:1053E000E16D1143E165A16841F00601A160A1688A
:1053F00041F02001A16070BDA26B01280C4922F48C
:105400008030A063E06800EA0100E060E06820F41A
:105410004010E06003D1E06840F48010E060204676
:1054200000F008F8D6E741F48031D2E70000EE033F
:10543000BFFFBDFF0C49012202E0521C8A420BD87B
:105440000369002BF9DA0369012243F001030361C8
:1054500004E0521C8A4201D9032070470369DB072C
:10546000F7D1002070470000400D030070B50A78A6
:1054700001234C78012C00EB42122CD0D2F8004BC7
:10548000002C0BDAD2F8004B44F00064C2F8004B59
:10549000D2F8004B44F08044C2F8004B0C78D0F8AE
:1054A0003C5804F00F0403FA04F425EA0444C0F85D
:1054B0003C480978D0F81C4801F00F018B401C498A
:1054C00024EA0343C0F81C38D2F8000B0840C2F8A5
:1054D000000B002070BDD2F80049002C0BDAD2F886
:1054E000004944F00064C2F80049D2F8004944F091
:1054F0008044C2F800490D78D0F83C4805F00F050B
:105500000C4E03FA05F5ADB2AC43C0F83C48D0F8F8
:105510001C48097801F00F018B4099B28C43C0F808
:105520001C48D2F800093040C2F80009D1E7000059
:105530000078F3EF007833ECD0F8001E21F003017F
:10554000C0F8001ED0F8041821F00201C0F80418B9
:1055500000207047D0F8001E21F00301C0F8001EA3
:10556000D0F8041841F00201C0F804180020704778
:105570002DE9F04F0E4604460021DDF824B00D461B
:10558000109F0846DDF82C2004EB800CCCF80411A9
:10559000401C0F28F8D32046AFB1806B40F4001CAC
:1055A000C4F838C088460846C4F8000ED4F800088D
:1055B000012A2146C4F800081BD00846D1F800187B
:1055C00041F003011BE0D0F8040840F0020CC4F8DD
:1055D00004C8A06B20F4001CC4F838C0206840F058
:1055E000400CC4F800C0206840F0800CC4F800C033
:1055F000D8E70846D1F800180BB141F00101C0F816
:105600000018102100F092FA00B10125204600F0A8
:105610007DFA00B1012540464FF000694FF67F3317
:105620004FF0904AC4F81088C4F81488C4F81C8855
:10563000002114E004EB4112D2F800C9BCF1000FC4
:1056400006DA11B1C2F800A904E0C4F8009901E03B
:10565000C2F80009C2F81009C2F80839491C8E4284
:10566000E8D8002115E000BF04EB4112D2F800CBCE
:10567000BCF1000F06DA11B1C2F800AB04E0C4F8C7
:10568000009B01E0C2F8000BC2F8100BC2F8083B07
:10569000491C8E42E8D8D4F81038BBF1000F6FF0E7
:1056A000804223F48073C4F81038A061626103D192
:1056B000A06940F01000A061A069094A0C9940EA75
:1056C0000200A06119B1A06940F00800A061012F9B
:1056D00003D1A06903490843A0612846BDE8F08FC3
:1056E00000383C8004000040816821F001018160A5
:1056F0000020704770B50B784E78444C0D78012E21
:1057000000EB431320D0D3F8100B6FF31200C3F853
:10571000100BD3F8100B2040C3F8100B486908B1E8
:1057200088684861D3F8100B012A40F40020C3F8C0
:10573000100BD3F8100B8A68C2F3120240EA020081
:10574000C3F8100B56D059E04E69002ED3F81069FB
:1057500033D06FF31206C3F81069D3F810692640EE
:10576000C3F810694E698C68A64200D94C61D3F821
:10577000104944F40024C3F81049D3F810494E6985
:10578000C6F3120654EA0604C3F81049012A22D0CF
:1057900000EB4512D2F8003943F00443C2F8003957
:1057A0004A6932B30B78D0F83418012203F00F03A2
:1057B0009A401143C0F8341826E02640C3F8106917
:1057C000D3F8104944F40024C3F81049D3F8104921
:1057D0006FF31204D8E7096919B100EB4512C2F85A
:1057E000141900EB4510D0F8001941F00441C0F83D
:1057F000001909E0C86808B1C3F8140BD3F8000B0E
:1058000040F00440C3F8000B002070BDFFFF07E02C
:1058100010B5144C036CA34203D9D0F8003B002B05
:105820001EDB0023C0F8103B0129D0F8101B41F407
:105830000021C0F8101BD0F8101B41F01801C0F86F
:10584000101BD0F8101B41F0C041C0F8101B07D14D
:10585000C0F8142BD0F8001B41F08021C0F8001BC9
:10586000002010BD0A30544F0B784A78012A00EB13
:1058700043100BD0D0F8002B22F40012C0F8002BFC
:10588000C978032914D0022912D017E0D0F80029D2
:1058900022F40012C0F80029C978032901D0022996
:1058A0000CD1D0F8001941F08051C0F8001905E082
:1058B000D0F8001B41F08051C0F8001B0020704759
:1058C0000A784B78D1B2012B00EB421012D0D0F8FD
:1058D000002B002A06DB29B1D0F8001B21F0804103
:1058E000C0F8001BD0F8001B41F40011C0F8001BE9
:1058F00000207047D0F80029002A06DB29B1D0F833
:10590000001921F08041C0F80019D0F8001941F4C5
:105910000011C0F80019EBE7F8B50B786FF060469E
:105920004F78764DDCB2012F00EB431326D0D3F82D
:10593000104B6FF31204C3F8104BD3F8104B2C40EC
:10594000C3F8104B4C698D68002C74D0D3F8107BD1
:105950002C44641EB4FBF5F4A4B206EAC4452F43FC
:10596000C3F8107BD3F8105B8E686643C6F312044D
:105970002543C3F8105B012A72D0A6E04F6927B314
:10598000D3F810796FF31207C3F81079D3F81079B0
:105990002F40C3F810794F698D68D3F810C92F4490
:1059A0007F1EB7FBF5F506EAC54545EA0C05C3F8C9
:1059B0001059D3F810594E69C6F312063543C3F88F
:1059C0001059CD78012D10D01BE0D3F810692E406E
:1059D000C3F81069D3F8105945F40025C3F81059DD
:1059E000D3F810596FF3120509E0D3F8105925F0D8
:1059F000C045C3F81059D3F8105945F00055C3F805
:105A00001059012A18D000EB4413D3F8004944F090
:105A10000444C3F80049CC78012C2FD04A6962B302
:105A20000B78D0F83418012203F00F039A40114389
:105A3000C0F834185FE036E00A691AB100EB44138D
:105A4000C3F81429C97801290FD1D0F80818C9055D
:105A500000EB4411D1F8002903D442F0005202E0D7
:105A60002FE042F08052C1F8002900EB4410D0F83A
:105A7000001941F00441C0F800193CE0D0F8084892
:105A8000E405D3F8004902D444F0005401E044F0A6
:105A90008054C3F8004900928B8A0A78C9689BB287
:105AA00000F072F927E0D3F8104BC5F312052C4330
:105AB000C3F8104BD3F8104B44F40024C3F8104B38
:105AC00059E7CA680AB1C3F8142BC97801290CD167
:105AD000D0F80808C005D3F8000B02D440F00050FD
:105AE00001E040F08050C3F8000BD3F8000B40F009
:105AF0000440C3F8000B0020F8BD0000FFFF07E0E2
:105B0000816841F00101816000207047064A102140
:105B100001610021491C914201D9032070470369AA
:105B2000DB06F7D400207047400D03002023074A0E
:105B300043EA811303610021491C914201D90320EA
:105B4000704703699B06F7D400207047400D03009F
:105B5000D0F8080810F0060004D0022803D0062868
:105B600001D00F20704702207047406900F001000B
:105B70007047D0F81818D0F81C08084080B2704759
:105B8000D0F81818D0F81C080840000C704710B561
:105B9000D0F8102801F00F0300EB4114D0F83418AE
:105BA000D4F80809D94001F0010142EAC1110840C6
:105BB00010BD00EB4111D1F8081BD0F814080840C3
:105BC000704741698069084070470346084630B510
:105BD000940802F00301002203F5805303E01D68DE
:105BE000521C40F8045BA242F9D300290CD01C6877
:105BF0000023491EDD00090403F10103090C24FA06
:105C000005F200F8012BF4D130BD10B5C2680129AE
:105C100022F0C042C26002D029B1012010BDC1688B
:105C200041F0005102E0C16841F08041C160322082
:105C3000FAF768FE002010BDD0F800284FF4FE638C
:105C400003EA011322F4FE62C0F80028D0F800181D
:105C50001943C0F80018002070470000022A3ED106
:105C6000264A274B0A449A4201D20F2138E0254A9E
:105C7000254B0A449A4201D20E2131E0234A244B9B
:105C80000A449A4201D20D212AE0224A224B0A44B8
:105C90009A4201D20C2123E0204B214A0B4493422B
:105CA00001D20B211CE01F4B1F4A0B44934201D22F
:105CB0000A2115E01D4B1E4A0B4493420FD31D4B86
:105CC0001D4A0B44934201D2082109E01B4B1C4A98
:105CD0001944914201D2072102E0062100E0092186
:105CE000C2684FF4705322F47052C26003EA8123F9
:105CF000C1681943C160002070470000405327FF6E
:105D000000350C00401E1BFF40420F0000DC0BFF63
:105D1000804F1200808CF9FE20D6130060B6E5FE9D
:105D200060E3160000D3CEFE40771B00C05BB3FEDD
:105D3000C091210000CA91FE20753800E05459FE40
:105D4000E09C410010B55FF0000104464FF67F3043
:105D500004EB4112491C0F29C2F80809C2F8080BCC
:105D6000F6D30020C4F81008C4F81408C4F81C08BE
:105D70002046FFF7CBFE002805D12046BDE81040A5
:105D80001021FFF7D3BE10BD10B5029C74B900EB13
:105D90000232DB1C00209B0802F5805204E000BFA9
:105DA00051F8044B1460401C9842F9D3002010BDF8
:105DB000FEE700000FB4054B10B503A9044A029892
:105DC00000F0EAF810BC5DF814FB0000A1660008C2
:105DD00090010024090700284FEA116104DB00F15B
:105DE000E02080F80014704700F00F0000F1E02080
:105DF00080F8141D704702E008C8121F08C1002A6D
:105E0000FAD170477047002001E001C1121F002A3B
:105E1000FBD170472DE9FF5F82B00021DDE904303E
:105E2000020DDDF840B0034318D044F61050A2F242
:105E3000FF3242431514119801281FD0A5EB0B0027
:105E4000401C5FEA000A4FF000064E4FDFF8389121
:105E5000B046504615D5CAF1000413E0119801244C
:105E60004AA3012801D16FEA0B010298119AC0E9F7
:105E70000031C0E9024206B0BDE8F09FCBF100005E
:105E8000DFE704460021404A491842EB0450CDE9BF
:105E9000001012E0E00707D032463B464046494634
:105EA000FAF749FB8046894632463B46104619467A
:105EB000FAF741FB06460F466410002CEAD1DDE9F3
:105EC0000401DDE90023BAF1000F06DAFAF733FB2B
:105ED00042464B46FAF72FFB05E0FAF79EFB424697
:105EE0004B46FAF79AFB04460E460022284BFAF777
:105EF0001BFC03D84FF0FF30014607E00022254B82
:105F000020463146FAF770FAFAF7F6FB102409E05A
:105F1000002C0ADB0A220023FAF7DCF9039B30325B
:105F20001A55641E50EA0102F2D1641C039AC4F1AE
:105F300011031444119A012A03D0012208430DD100
:105F40000AE0084304D000204FF0110B119072E7D3
:105F5000A3EB0B056D1E0DE05B4504DD4FF0000269
:105F600005F1010504E003DA4FF00002A5F1010597
:105F7000002AECD002981199C0E90231C0E900452D
:105F800079E70000000014400000F03F30000000FE
:105F90000000F0430000E03F2DE9FF4F95B09A4626
:105FA000884606460025EEE1252877D100242746BD
:105FB000F94A0121039400E0044316F8013F203B15
:105FC00001FA03F01042F7D130782A2811D06FF08F
:105FD0002F033078A0F13002092A16D8039A44F032
:105FE000020402EB820203EB42021044761C03908F
:105FF000EFE758F8042B0392002A03DA504244F4E6
:106000000054039044F00204761C30782E2816D1F8
:1060100016F8010F44F004042A280DD06FF02F0267
:106020003078A0F13003092B09D807EB870302EB86
:106030004303C718761CF3E758F8047B761C3078C6
:106040006C280FD006DC4C2817D068280DD06A28A1
:1060500014D104E0742810D07A280FD10DE044F454
:1060600000140AE044F4801401E044F4401472780F
:10607000824202D104F58014761C761C30786628A2
:106080000BD013DC582877D009DC002875D04528C0
:10609000F6D04628F4D047281AD193E118E06328B7
:1060A00035D0642879D0652812D18BE1702873D05F
:1060B00008DC6728F1D069286FD06E280DD06F28D2
:1060C00006D1ACE073282CD0752874D0782853D032
:1060D0005246179990476D1C54E1C4F302500228B0
:1060E00009D003280DD0D8F8001004280DD00D6079
:1060F00008F1040846E1D8F80010EA17C1E9005297
:10610000F6E7D8F800100D80F2E70D70F0E718F808
:10611000041B8DF8001000208DF80100EB460120D3
:1061200003E058F804BB4FF0FF3061074FF0000167
:1061300002D40DE009F101018946B9420FDA814527
:10614000F8DB1BF809100029F4D108E009F101017E
:1061500089468142FADB1BF809100029F6D1039821
:106160005346A0EB090721463846179A00F080FAFB
:10617000284400EB090507E044E008E10DE01BF8C6
:10618000010B524617999047B9F10109F7D25346CE
:1061900021463846179AF2E039E00A21C4F3025248
:1061A0004FF0000B0091022A06D058F8040BC117DB
:1061B000032A09D00AE023E008F1070020F00702D3
:1061C000F2E80201904605E000B2C117042A01D1AD
:1061D00040B2C117002906DA0A460021404261EBAD
:1061E00002012D2202E0220504D52B228DF8042085
:1061F000012203E0E20701D02022F7E7914657E0B1
:106200000A2100E010214FF0000B00910BE010215B
:106210004FF0000B44F004040827009103E008202D
:106220004FF0000B0090C4F30252022A05D058F838
:10623000040B0021032A08D008E008F1070020F031
:106240000702F2E80201904603E080B2042A00D17E
:10625000C0B24FF0000922072AD53278702A07D041
:10626000DDF800C08CF0100C5CEA0B0C05D00EE0E1
:1062700040228DF80420012208E050EA010306D0F4
:1062800030238DF804308DF8052002229146009BC2
:1062900083F0080353EA0B030AD150EA010201D14B
:1062A000620705D530228DF804204FF001097F1ECA
:1062B0003278582A04D039A20C920CAA02920BE030
:1062C0003BA2F9E75B46009AFAF704F80C9B9B5C4B
:1062D000029A521E0292137050EA0102F2D1029801
:1062E00004A9081A00F1200B600702D524F48034B9
:1062F00000E001275F4502DDA7EB0B0000E0002076
:1063000000EB0B01009003984944401A0390E0030E
:1063100006D453462146179A039800F0A9F905447C
:10632000002706E001A85246C05D179990476D1CF2
:106330007F1C4F45F6DBE0030CD553462146179AE8
:10634000039800F095F9054404E03020524617996F
:1063500090476D1C0099481E00900029F5DC08E06C
:106360000298029952460078491C02911799904769
:106370006D1CBBF10001ABF1010BF1DC5BE100F046
:1063800065F90544761C307800287FF40DAE19B00D
:106390002846BDE8F08F0000092801003031323373
:1063A0003435363738396162636465660000000051
:1063B000303132333435363738394142434445463B
:1063C00000000000600700D4062708F1070020F055
:1063D0000700F0E80223804603F0004C5FEA0C005F
:1063E00001D097A009E0200501D596A005E0E007BF
:1063F00001D095A001E0AFF24C001390307823F06B
:10640000004365280CD006DC452809D046281DD05D
:1064100047287FD13BE0662818D067287AD136E03C
:106420000021112F01DB112000E0781CCDE90001D3
:1064300004A90CA8FFF7EEFCDDE90D010C9A4FF062
:10644000000B07F10109109200914EE04FF000405F
:106450000097CDE9011004A90CA8FFF7DBFCDDE9EA
:106460000D020C9B0F994FF0000B91461093009278
:1064700011B9791C00EB0109B7EB090003D4C0F195
:10648000FF3B07F10109A9EB0700019042E0012F52
:1064900000DA01270021112F01DD112000E038462C
:1064A000CDE9000104A90CA8FFF7B4FCDDE90D015A
:1064B0000C9A00914FF0000BB946109221070FD4AF
:1064C000009A4A4503DA914601E0A9F10109B9F1C0
:1064D000010F05DD109AA9F10101515C3029F4D0BA
:1064E000B84202DA10F1040F03DA0121CDE90110FC
:1064F00010E0002803DC8344A9EB000102E0411C0A
:10650000494500DD8946A0EB0B00401C01904FF08F
:1065100000400290200705D40198484502DB4FF067
:10652000FF30019000208DF84B0002980DF14B07D1
:10653000B0F1004F25D002200C902B200D90029836
:1065400000280CDA404202902D200D9007E00A212D
:106550000298F9F714FF3031029007F8011D0C99E9
:10656000481E0C900029F2DC02980028EFD1791E19
:106570000D980870307800F0200040F0450007F8D2
:10658000020D11A8C01BC01D02901398007800B125
:10659000012000EB0901019801EBE0710298014430
:1065A0000398401A401E0390E00306D45346214648
:1065B000179A039800F05CF805441398007818B116
:1065C0005246179990476D1CE00323D55346214648
:1065D000179A039800F04CF805441BE0BBF1000F3C
:1065E00007DB0098584504DD1098179910F80B0048
:1065F00001E0179930205246904701980BF1010BAA
:10660000401E05F10105019004D12E205246179934
:1066100090476D1CB9F10001A9F10109DEDC05E02C
:1066200017F8010B5246179990476D1C0299481EA6
:1066300002900029F4DC53462146179A03989EE6FF
:106640002D0000002B000000200000002DE9F0418B
:10665000044600251E461746880404D405E0394642
:106660002020B0476D1C641EF9D52846BDE8F08196
:106670002DE9F041044600251E469046C80301D589
:10668000302700E02027880404D505E0414638463D
:10669000B0476D1C641EF9D52846BDE8F0810000A6
:1066A00013B50448642301226946FCF77BFE009879
:1066B0001CBD0000940100244B4C0025DFF82C8108
:1066C0002068800311D4BFF34F8FBFF36F8FC8F8DA
:1066D0000050BFF34F8FBFF36F8F206840F400303E
:1066E0002060BFF34F8FBFF36F8FDFF8FC902068FF
:1066F00009F17009A9F1040A43F6FF76C00321D419
:10670000C9F80050BFF34F8F384BDAF80000103350
:10671000C0F34E31C0F3C90206EA4117104600BF6C
:1067200047EA807CC3F800C0401EF9D2491EF3D26C
:10673000BFF34F8F206840F480302060BFF34F8F4D
:10674000BFF36F8FFAF7E2FAFDF7D2FAFCF7A6FE75
:10675000FDF7D4FE26A0FFF72DFBFDF7C5F8FDF7EA
:10676000F5F8FCF7DBFEBFF34F8FBFF36F8F2168A7
:1067700021F400312160C8F80050BFF34F8FBFF300
:106780006F8FC9F80050BFF34F8F206820F480301E
:106790002060BFF34F8FDAF80000144B2433C0F3AE
:1067A0004E31C0F3C90206EA4114104644EA80772C
:1067B0001F60401EFAD2491EF5D2BFF34F8FBFF3C0
:1067C0006F8F4FF0E02005614561856113A0FFF7F1
:1067D000F1FA4FF01041194A48681060096881F3D6
:1067E00008888047FEE7000014ED00E050EF00E06D
:1067F0000D0A2A2A2A2A2A2A2A2A2A2A2A2A2A2A36
:106800002A2A2A2A2A2A2A2A2A2A2A2A2A2A2A2AE8
:106810002A2A2A2A2A2A2A2A2A0D0A00CCF8D7AAA2
:10682000B5BD573235513634D4CBD0D0D3C3BBA746
:10683000B3CCD0F23E3E3E0D0A0D0A00000000240B
:10684000010002000400060008000A000C0010000D
:106850002000400080000001010101030701000049
:106860000804020408010101000000000102030401
:1068700001020304060708099868000800000024C4
:10688000940100005A08000860690008940100247F
:10689000D42B0000065E0008411341491B08710417
:1068A0001A7D041AA5041AD1041A21041A4D0417DA
:1068B0000403090412011402020216408304405723
:1068C000260201020301031A1A0313BD081B08B7AD
:1068D000041AB3041AE1041AF90419331182103CA2
:1068E00090D0030431130A0632022A40201C090208
:1068F000435F1125C03209041B01020B1305241646
:1069000010010524011009010424020205240617C0
:106910000107058203081C10090495320A1D0705AA
:106920000102432C070581070938442A40072A81C0
:1069300007112B0907440A3B0444137D461408D56C
:106940004514087D4742081A1D101A49101AAB0455
:10695000C11A65181A59041A71041A4D044100002D
:040000050800029954
:00000001FF
