:020000040800F2
:10000000B81C0024AD02000813400008D93E0008C7
:1000100011400008D7040008ED6800080000000047
:10002000000000000000000000000000F150000887
:10003000D9040008000000008F410008FD500008AE
:10004000C7020008C7020008C7020008C70200086C
:10005000C7020008C7020008C7020008C70200085C
:10006000C7020008C7020008C7020008C70200084C
:10007000C7020008C7020008C7020008C70200083C
:10008000C7020008C7020008C7020008C70200082C
:10009000C7020008C7020008C7020008C70200081C
:1000A000C7020008C7020008C7020008C70200080C
:1000B000C7020008C7020008C7020008C7020008FC
:1000C000C7020008C7020008C7020008C7020008EC
:1000D000C7020008C7020008C7020008C7020008DC
:1000E000C7020008C702000800000000C70200089D
:1000F000C7020008C7020008C7020008C7020008BC
:10010000C7020008D1430008C7020008C702000860
:10011000C7020008C7020008C7020008C70200089B
:10012000C7020008C7020008C7020008C70200088B
:10013000C7020008C7020008C7020008C70200087B
:1001400000000000000000000000000000000000AF
:10015000C7020008C7020008C7020008C70200085B
:10016000C7020008C7020008C7020008C70200084B
:10017000C7020008C7020008C7020008C70200083B
:10018000C7020008C7020008C7020008C70200082B
:10019000C7020008C7020008C7020008C70200081B
:1001A000C7020008C7020008C7020008C70200080B
:1001B000C7020008C7020008C7020008C7020008FB
:1001C000C7020008C7020008C7020008C7020008EB
:1001D000C702000815400008C7020008C70200084F
:1001E000C7020008C7020008C7020008C7020008CB
:1001F000C7020008C7020008C7020008C7020008BB
:10020000C7020008C7020008C7020008C7020008AA
:10021000C7020008C7020008C7020008C70200089A
:10022000C7020008C7020008C7020008000000005B
:10023000C7020008C702000800000000C70200084B
:10024000C7020008C7020008C7020008C70200086A
:10025000C7020008C7020008C7020008C70200085A
:10026000C7020008C7020008C7020008C70200084A
:10027000C7020008C7020008C7020008000000000B
:10028000C7020008C7020008C702000800000000FB
:1002900000000000C7020008DFF80CD000F08CF866
:1002A000004800475D870008B81C002406488047C6
:1002B00006480047FEE7FEE7FEE7FEE7FEE7FEE74B
:1002C000FEE7FEE7FEE7FEE71D5200089902000880
:1002D0002DE9F05F0546002092469B46884606467B
:1002E000814640241BE0284641464746224600F00E
:1002F00053F853465A46C01A914110D31146184636
:10030000224600F03AF82D1A67EB01084F462246C4
:100310000120002100F031F817EB00094E41201EAA
:10032000A4F10104DFDC484631462A464346BDE8D5
:10033000F09F40EA01039B0703D009E008C9121FA0
:1003400008C0042AFAD203E011F8013B00F8013B8F
:10035000521EF9D27047D2B201E000F8012B491EBB
:10036000FBD270470022F6E710B513460A46044652
:100370001946FFF7F0FF204610BD202A04DB203A83
:1003800000FA02F1002070479140C2F1200320FAE8
:1003900003F3194390407047202A04DB203A21FAE6
:1003A00002F00021704721FA02F3D040C2F120028E
:1003B0009140084319467047064C074D06E0E06837
:1003C00040F0010394E8070098471034AC42F6D39C
:1003D000FFF766FF409000086090000810B54FF0EE
:1003E000000408B1A41E05E0034802F0E7FF08B1CD
:1003F0006FF00304204610BD6C1000240649C0EBCA
:10040000401010B501EB800002F0EAFF042801D093
:10041000012010BD002010BD6C10002470B54FF0FD
:10042000000508B1AD1E1CE000F020F8012802D044
:100430006FF0060515E00C4C204604F069FC2046E0
:1004400003F09CFD6FF0030628B94FF4804120466D
:1004500002F010FE08B1354603E00221204602F00A
:10046000A7FD284670BD00006C10002410B16FF08D
:10047000010070470120704738B564254FF0000433
:10048000002803FB05F001D0A41E06E000900448FC
:1004900003F0E8F908B16FF00304204638BD00000E
:1004A0006C1000247047000038B564254FF000043C
:1004B000002803FB05F001D0A41E06E000900448CC
:1004C00003F0CAFA08B16FF00304204638BD0000FB
:1004D0006C1000247047FEE7704772B6FEE70022FA
:1004E000AFF300800E4B70B505469C7B0120022CBB
:1004F00015D29E7B002403F10C009C559E7B03EBE0
:10050000860675609D7B2A54987B421C9A733A2319
:100510002F22303008704B7020468A70CC7070BD2E
:10052000A818002410B51449ADF5825D1348FFF7F3
:10053000D6FF1448012212A107F034FB0E4C641EB2
:100540002070A0B110A006F0D3F94FF480500090B5
:100550000022022101AB0AA007F05AF8207040B136
:1005600012A000BF06F0C4F90DF5825D10BD18A001
:10057000F8E71DA0F6E70000010000242C90000819
:10058000303A0000340000245344BFA8BBB9CEB4B5
:10059000B4B4BDA8CEC4BCFECFB5CDB3A3ACBCB47F
:1005A000BDABB8F1CABDBBAF0D0A0000B8F1CABD02
:1005B000BBAFCAA7B0DCA3ACC7EBBCECB2E9BBF2E3
:1005C000B8FCBBBB5344BFA8A3A10D0A00000000A8
:1005D0000D0A5344CEC4BCFECFB5CDB3B9D2D4D8E6
:1005E000B3C9B9A60D0A00005344BFA8B8F1CABDEB
:1005F000BBAFB3C9B9A6A3A10D0A00002DE9F0470E
:10060000ADF5A45D41F228466E4400243046182220
:1006100033A1FFF78EFE38A006F06AF96F460A2272
:10062000384643A107F0E2FA464D287008B146A0CB
:100630000DE051A006F05CF90DF5A25931461822E3
:100640004B46384607F0AEFC287020B154A006F0A7
:100650004FF938462DE05CA006F04AF961A031461A
:1006600006F046F9B846384606F05AFF5FA006F095
:100670003FF91827404601222DA107F0B7FA4B4653
:1006800041F22809E9443A4649462870404607F0B5
:100690008DFB287008B162A008E06BA006F028F975
:1006A0004D46305D295D88420AD06FA006F020F9E2
:1006B000404606F035FF01200DF5A45DBDE8F0874A
:1006C000641CE4B2BC42ECD370A006F011F945A062
:1006D000294606F00DF9404606F022FF0020EBE720
:1006E00053544D3332205344BFA820CEC4BCFECF58
:1006F000B5CDB3B2E2CAD4002D2D2D2D2D2D2D2D2B
:100700002D2D2D2D2D466174467320CEC4BCFEB414
:10071000B4BDA8BACDD0B4C8EBB2E2CAD42D2D2D49
:100720002D2D2D2D2D2D2D2D2D2D2D2D0D0A000096
:10073000303A466174467320546573742E7478742D
:100740000000000000000024CEDEB7A8B4F2BFAA6B
:100750002FB4B4BDA8CEC4BCFEA3ACC7EBBCECB2F6
:10076000E95344BFA8BBF2D6D8D0C2B8F1CABDBBCA
:10077000AF210D0A00000000CEC4BCFEB4F2BFAA37
:100780002FB4B4BDA8B3C9B9A6A3ACD7BCB1B8D077
:10079000B4C8EBCAFDBEDD2E2E2E0D0A00000000EF
:1007A000CEC4BCFED0B4C8EBCAA7B0DCA3ACC7EBC8
:1007B000BCECB2E95344BFA8BBF2D6D8D0C2B8F162
:1007C000CABDBBAF210D0A00D0B4C8EBB3C9B9A6EE
:1007D000A3ACD0B4C8EBC4DAC8DDCEAAA3BA0D0A64
:1007E0000000000025730D0A000000002D2D2D2DA6
:1007F0002D2D2D2D2D2D2D2D2D466174467320CEA2
:10080000C4BCFEB6C1C8A1B2E2CAD42D2D2D2D2D77
:100810002D2D2D2D2D2D2D2D2D2D0D0A00000000FF
:10082000CEDEB7A8B6C1C8A1CEC4BCFEA3ACC7EB90
:10083000BCECB2E95344BFA8BBF2D6D8D0C2B8F1E1
:10084000CABDBBAF210D0A00CEC4BCFEB6C1C8A153
:10085000B3C9B9A6A3ACD5FDD4DAD0A3D1E9CAFDFA
:10086000BEDD2E2E2E0D0A00D0A3D1E9CAA7B0DC22
:10087000A3ACC7EBBCECB2E95344BFA8BBF2D6D8DB
:10088000D0C2B8F1CABDBBAF210D0A00D0A3D1E9D7
:10089000B3C9B9A6A3ACB6C1B3F6B5C4CAFDBEDD33
:1008A000CEAAA3BA0D0A00003EB501AA69460CA063
:1008B00006F045FE0199009BC8694989801E48439E
:1008C00001FB03F2C40A07A0D50A06F011F813A031
:1008D000214606F00DF815A0294606F009F83EBDA0
:1008E000303A00002D2D2D2D2D2D2D2D2D2D2D2D82
:1008F0002D2D2D2D2D2D2DBBF1C8A1C9E8B1B8C8C6
:10090000DDC1BFD0C5CFA22D2D2D2D2D2D2D2D2DEF
:100910002D2D2D2D2D2D2D2D0D0A00005344C8DD1C
:10092000C1BFA3BA25644D420D0A00005344CAA3B7
:10093000D3E0A3BA25644D420D0A000070B5044609
:1009400000F030F90546601C02D0044800780444E9
:1009500000F028F9401BA042FAD370BD0800002423
:100960002DE9F84F03247D4D00234FF001094FF08E
:10097000B04B4FF00F0AE9E009FA03F73A4076D09E
:100980000E7906F00306012E01D0022E18D1D0F800
:1009900008C04FEA430ECE6804FA0EF82CEA080CA1
:1009A00006FA0EF646EA0C068660D0F804C00E7908
:1009B0002CEA070CC6F300169E4046EA0C06466079
:1009C0000E79F643B6070BD0C6684FEA43088F6826
:1009D00004FA08FC26EA0C0607FA08F73743C76052
:1009E0000E7906F00306022E12D1DE080F694FEAD7
:1009F000437C00EB8606B646366A4FEADC6C0AFAA0
:100A00000CF807FA0CF726EA08063743CEF82070F0
:100A10000F7906684FEA430807F0030704FA08FC59
:100A200007FA08F726EA0C06374307604E6816F403
:100A3000403F1CD04A4E376847F00207376036689F
:100A40009F0706F00206009623F0030606F1B04663
:100A5000B6463F0FD6F80864DFF808810AFA07FCAB
:100A6000404526EA0C0603D14FF0000C41E06CE053
:100A7000DFF8F4C0604502D14FF0010C39E0DFF837
:100A8000ECC0604502D14FF0020C32E0DFF8E0C06C
:100A9000604502D14FF0030C2BE0DFF8D8C0604571
:100AA00002D14FF0040C24E0DFF8CCC0604502D145
:100AB0004FF0050C1DE0DFF8C4C0604502D14FF0D7
:100AC000060C16E0DFF8B8C0604502D14FF0070C05
:100AD0000FE0DFF8B0C0604502D14FF0080C08E02D
:100AE000DFF8A4C0604502D14FF0090C01E04FF0DF
:100AF0000A0C0CFA07FC4CEA060CCEF808C44F6846
:100B0000DBF80060FF0226EA020600D516435F46C6
:100B1000CBF80060D1F804C0DBF804605FEA8C2CED
:100B200026EA020600D516437E606E684F6826EA04
:100B30000206BF0300D516436E602E684F6826EA92
:100B40000206FF0300D516432E605B1C0A6832FACA
:100B500003F67FF411AFBDE8F88F00008000005865
:100B6000F4440258000002580004025800080258D9
:100B7000000C0258001002580014025800180258C5
:100B8000001C025800200258002402580AB181615A
:100B900070470904FBE7000001480068000C70473B
:100BA0000010005C014880687047000008000024C5
:100BB000024881680278114481607047080000246F
:100BC000032010B500F086F801F090FE0F4A10499E
:100BD00014681368C4F3032203F00F038A5CC95C32
:100BE00002F01F0201F01F01D0400A4A20FA01F171
:100BF0001160094908600F2000F010F808B10120C9
:100C000010BD00F02BF8002010BD00001844025861
:100C1000C28B0008180000241400002470B50D4D8C
:100C200004462878A0B14FF47A71B1FBF0F00A497C
:100C30000968B1FBF0F002F0FDFF48B9102C07D2B3
:100C400000222146501E00F025F800206C6070BD87
:100C5000012070BD0800002414000024054808B5D8
:100C6000016841F002010160006800F0020000909C
:100C700008BD0000F4440258002809DB410900F0D7
:100C80001F028900012001F1E0219040C1F800011C
:100C9000704700000E4BF0B41B680D46C3F30223EF
:100CA000C3F10706042E00D90426191D072901D215
:100CB000002300E0DB1E012404FA06F19C40491EDB
:100CC0002940641E994014402143F0BC05F020BE29
:100CD0000CED00E0064900F0070210B54FF6FF04E6
:100CE0000868044B204040EA02201843086010BD09
:100CF0000CED00E00000FA057047D0F8080504F09C
:100D00009FBF01EBC10200EB8202D0F80805926C94
:100D100004F0F2BE01EBC10200EB8202D0F808053C
:100D2000D2F8882204F044BFD0F8080504F08ABF46
:100D30000A0601F00F0101EBC10100EB810101D5B1
:100D40003C3101E001F51F71006805F069BC70B528
:100D50004268044601F00F00904201D9012070BDA5
:100D600001F00F024FF000050B0602EBC2014FF03D
:100D7000010204EB810103D581F83D203C3103E001
:100D800081F87D5201F51F718D70087094F8BC04D4
:100D9000012808D084F8BC24206805F0CDFA002092
:100DA00084F8BC5470BD022070BD2DE9F04101F003
:100DB0000F0604460D064FF0010006EBC6014FF08A
:100DC000000504EB810103D581F83D003C3103E0CF
:100DD00081F87D5201F51F714F788A600B710E709A
:100DE00007B14E83022B00D14D7194F8BC24012A27
:100DF00009D084F8BC04206805F024FA284684F859
:100E0000BC54BDE8F0810220FBE770B501F00F058E
:100E1000002405EBC50100EB810101F5227181E899
:100E20001C0001F80B4C01F80C5DC368012B00D1CC
:100E3000CA61027B006805F0D7FA002070BD70B56A
:100E40000D464168044605F00F00884201D9012093
:100E500070BD29064FF000064FF0010207D500EBE8
:100E6000C00104EB810181F83D203C3107E005EB36
:100E7000C50104EB810181F87D6201F51F718A7063
:100E8000087094F8BC04012807D084F8BC242068BA
:100E900005F07EFA280702D007E0022070BD217B12
:100EA00004F2C442206805F01BFA002084F8BC64F8
:100EB00070BD70B501F00F04002504EBC4010126DC
:100EC00000EB8101483181E82C0001F80B6C01F83E
:100ED0000C4DC368012B00D1CA61027B006805F08C
:100EE00083FA002070BD00002DE9FC5F0568044610
:100EF000284605F012FC00287ED1206805F039FC58
:100F0000002879D0D5F80808C0F30D20C4F8FC04F7
:100F1000206805F02EFC800704D52068416901F0A7
:100F200002014161206805F024FCC10604F2C440BE
:100F3000009034D52068816921F0100181612F6A09
:100F400007F00F01C7F3434001EBC101022804EB96
:100F5000810606F51F7602D0062811D01AE047F662
:100F6000F070074216D0C7F30A12F16817462846F8
:100F700005F003FCF16870693944F160384408E019
:100F800000990822284605F0F8FB7069C7F30A119A
:100F9000084470612068816941F010018161206816
:100FA00005F0E7FB00034FF0000A4FF0020B4FF093
:100FB00001097CD52068002605F0BAFB074674E0DD
:100FC000F80770D02068F1B205F0CBFB8046C0076F
:100FD00007D005EB4611C1F8089B3146204603F0C7
:100FE0001FF85FEA087025D505EB46110820C1F807
:100FF000080BFC49206800E042E2026C00EB46105E
:1010000001928A42D0F8081B05D9090403D54FF490
:101010000041C0F8081B204600F06EFAF149019823
:10102000884207D9E068012804D120680121009A8C
:1010300005F056F95FEAC86004D505EB46111020AB
:10104000C1F8080B5FEA88701CD56869000605D5F1
:10105000D5F8040840F48061C5F8041806EBC60012
:1010600004EB800090F87F1200F51F70012905D174
:1010700080F803A02046F1B200F008FA05EB461113
:10108000C1F808BB5FEA886004D505EB4611202053
:10109000C1F8080B5FEA884005D505EB46114FF40F
:1010A0000050C1F8080B7F08761C002F88D12068FB
:1010B00005F05FFB40036FD5206805F032FB00268A
:1010C000074667E0F80763D02068F1B205F037FB08
:1010D0008046C00723D0D5F8342806F00F0C05EB66
:1010E000461309FA0CF08243C5F83428C3F808996E
:1010F000E06801280FD106EBC60004EB8000D0E9C0
:1011000011121144816436B9E06C20B920680121C4
:10111000009A05F0E5F82046F1B2FFF7F2FD5FEA2C
:10112000087004D505EB46110820C1F808095FEAEC
:10113000C86004D505EB46111020C1F808095FEA24
:10114000486004D505EB46114020C1F808095FEA64
:10115000887016D53146284605F0B2FA06EBC6006F
:1011600004EB800090F83F103C30012905D180F855
:1011700003A02046F1B200F085F905EB4611C1F855
:1011800008B95FEA086003D53146204602F0AEFF99
:101190007F08761C002F95D1206805F0EAFA002818
:1011A00011DAD5F8040820F00101C5F8041894F804
:1011B000F40401283BD0204600F082F92068416900
:1011C00001F000414161206805F0D3FA00050BD51C
:1011D000D5F80808C00702D0204600F095F920682D
:1011E000416901F400614161206805F0C2FA000123
:1011F0000AD52068416901F00061416194F8F40466
:10120000E0B1204600F080F9206805F0B2FAC00491
:1012100072D5D5F8040820F00101C5F8041820683B
:10122000102105F04DFA00214FF67F322DE000210C
:10123000204684F8F4A4FFF75FFDBFE784F8F49438
:101240002068406D0121C0F38300C4F8F8042046F3
:10125000FFF752FDD8E700BF05EB4110C0F80829A1
:10126000D0F8003923F40013C0F80039C0F8082B77
:10127000D0F8003B23F40013C0F8003BD0F8003B4B
:1012800043F00063C0F8003B491C60688842E3D823
:10129000D5F81C0840F00111C5F81C18206B68B186
:1012A000D5F8840840F00B01C5F88418D5F8440837
:1012B00040F00B012846C5F844180DE0D5F8140895
:1012C00042F22B010843C5F81408D5F8100840F085
:1012D0000B012846C5F81018D0F8000820F4FE616C
:1012E000C5F80018217B2068009A04F0F9FF2068F7
:1012F000416901F480514161206805F03AFA8004A7
:1013000017D5206804F0DEFF206805F0F9F92061A8
:1013100001F0A6FA217C2368CAB20146184605F0FE
:101320005DFA204600F0B6F82068416901F40051EA
:101330004161206805F01DFA000707D5204600F03E
:10134000C3F82068416901F008014161206805F097
:1013500010FA000616D5A869012620F08001A961BF
:101360000DE000BF06EBC60004EB800090F87F02A2
:10137000012803D12046F1B2FFF7DAFC761C606841
:10138000B042EFD8206805F0F4F9C00221D501265B
:101390004F4616E006EBC60105EB461004EB810153
:1013A000D0F8000991F84020012A09D1002807DA75
:1013B000F0B281F83F7040F080012046FFF7B8FCA2
:1013C000761C6068B042E5D82068416901F480115C
:1013D0004161206805F0CDF9800234D501204B46EB
:1013E00029E000000A30544F00EBC00205EB401129
:1013F00004EB8202D1F8001B92F88062012E19D111
:10140000002917DA94F8FC6401F4803106F0010633
:10141000B1420FD182F87F32A96941F08002AA61FE
:101420006969090606D4D5F8040840F40070C5F8C7
:10143000040803E0401C61688142D5D820684169F6
:1014400001F400114161206805F093F9400007D5CF
:101450002046FFF752FC2068416901F0804141615C
:10146000206805F086F940070AD5206845686807B6
:1014700002D52046FFF758FC2068416829434160A7
:10148000BDE8FC9FD0F8080504F0FCBBD0F80805C7
:1014900004F00CBC70B504460069012570B1022847
:1014A00001D0FFF71AF8D4F80805294604F06DFCBE
:1014B000D4F80805BDE8704004F021BC0025F2E72F
:1014C000D0F8080504F04ABCD0F8080504F050BC78
:1014D00010B5044690F8BC0401280BD0012084F814
:1014E000381084F8BC04206805F067F9002084F8FF
:1014F000BC0410BD022010BDD0F8082500F2C44184
:10150000104604F04EBC000010B50446D0F80805A3
:1015100004F080FC2068D0F8001E41F00101C0F802
:10152000001E206A002804D00248016841F006012C
:10153000016010BD10ED00E0134970B50A68D24398
:10154000520705D5096801F00701814213D118E05F
:101550000A6822F0070202430A60FFF723FB0A4DE4
:101560004FF47A760446083D07E000BFFFF71AFB08
:10157000001BB04201D9012070BD2868C04380041F
:10158000F4D4002070BD00000C48025802480168E5
:1015900041F48071016070470048025810B501F0B5
:1015A0005FF905490968054AC1F30211515C01F070
:1015B0001F01C84010BD000020440258C28B000823
:1015C0004A4930B5494C0B1D0A680C3409681D683E
:1015D000246802F0030305F00102C1F30511C4F30E
:1015E000CC04002914FB02F200EE102AF8EE400AA7
:1015F00076D0414A9FED3E1ADFED3E1AB7EE000A63
:1016000023B1012B5AD0022B18D15CE0374C283C77
:1016100023689B0612D5394B246801EE901A116895
:10162000C4F3C104F8EE612AE34001EE903AC1F33D
:101630000801F8EE611A81EEA22A07E002EE101A04
:101640001168F8EE422A81EEA22A45E001EE901AD6
:101650001168F8EE611A40EE811A71EE800A62EEAE
:10166000200AC1F3462101EE101AB8EE411A31EEFC
:10167000001AC0EE811ABCEEE11A80ED001A116862
:10168000C1F3064101EE101AB8EE411A31EE001A0C
:10169000C0EE811ABCEEE11A80ED011A1168C1F3A7
:1016A000066101EE101AB8EE411A31EE000A80EE22
:1016B000801ABCEEC10A80ED020A30BD01EE901A1C
:1016C000DFED0F2A03E001EE901ADFED0E2A11681C
:1016D000F8EE611A82EEA12AC1F30801B6E7FFE72E
:1016E000002101604160816030BD00002844025843
:1016F000000000390024744C304402580090D0039C
:101700000024744A20BCBE4B494930B5484C0B1DDF
:101710000A68143409681D68246802F00303C5F3DD
:101720000012C1F30531C4F3CC04002914FB02F20A
:1017300000EE102AF8EE400A75D03F4A9FED3D1AA0
:10174000B7EE000A6BB1DFED3D1A012B01D0022B81
:1017500064D002EE101A1168F8EE422A81EEA22A35
:1017600021E0334C283C23689B0612D5344B246877
:1017700001EE901A1168C4F3C104F8EE612AE34047
:1017800001EE903AC1F30801F8EE611A81EEA22A47
:101790000BE001EE901ADFED2B2A00BFF8EE611A84
:1017A000116882EEA12AC1F3080101EE901A1168B6
:1017B000F8EE611A40EE811A71EE800A62EE200A9C
:1017C000C1F3462101EE101AB8EE411A31EE001AAB
:1017D000C0EE811ABCEEE11A80ED001A1168C1F367
:1017E000064101EE101AB8EE411A31EE001AC0EEB1
:1017F000811ABCEEE11A80ED011A1168C1F306618D
:1018000001EE101AB8EE411A31EE000A80EE801A8D
:10181000BCEEC10A80ED020A30BD04E001EE901A70
:10182000DFED092ABAE70021016041608160F3E73A
:101830002844025800000039384402580024744AF1
:101840000090D0030024744C20BCBE4B494930B5F5
:10185000484C0B1D0A681C3409681D68246802F096
:101860000303C5F30022C1F30551C4F3CC040029DE
:1018700014FB02F200EE102AF8EE400A75D03F4A3F
:101880009FED3D1AB7EE000A6BB1DFED3D1A012B5B
:1018900001D0022B64D002EE101A1168F8EE422A31
:1018A00081EEA22A21E0334C283C23689B0612D506
:1018B000344B246801EE901A1168C4F3C104F8EEA9
:1018C000612AE34001EE903AC1F30801F8EE611A93
:1018D00081EEA22A0BE001EE901ADFED2B2A00BF69
:1018E000F8EE611A116882EEA12AC1F3080101EE37
:1018F000901A1168F8EE611A40EE811A71EE800AB2
:1019000062EE200AC1F3462101EE101AB8EE411A28
:1019100031EE001AC0EE811ABCEEE11A80ED001A19
:101920001168C1F3064101EE101AB8EE411A31EE0A
:10193000001AC0EE811ABCEEE11A80ED011A11689E
:10194000C1F3066101EE101AB8EE411A31EE000A39
:1019500080EE801ABCEEC10A80ED020A30BD04E0C0
:1019600001EE901ADFED092ABAE70021016041601B
:101970008160F3E7284402580000003940440258CF
:101980000024744A0090D0030024744C20BCBE4B49
:101990002DE9F04FAC4A0546DFF8A8A280F480702C
:1019A000DFF8AC9289B01311AA4C0843A748AAF1FA
:1019B00004064FF0805C4FF000582CD085F400777F
:1019C0000F4357D0DFF87CB285F480670F430BF1EB
:1019D000080B61D085F400670F4374D085F48057FD
:1019E0000F436ED085F400570F434FF480394FF406
:1019F000003E67D085F400270F4371D085F480370F
:101A00000F436ED085F480460E436BD085F40042C0
:101A10000A4368D02AE0DAF8001001F0070105292E
:101A200024D2DFE801F075BC7D25B10006A8FFF7E0
:101A3000C7FD079809B0BDE8F08F6846FFF764FE60
:101A40000098F7E703A8FFF701FF0398F2E7206883
:101A5000C0F3C10022FA00F0ECE72268D20571D58C
:101A600061456FD11846E5E74145E3D00020E1E745
:101A70004846DFE7DAF8001001F4E07180294FD022
:101A800004DC002944D04029F0D188E0C029EFD0FF
:101A9000B1F5807FEAD177E0DBF8001001F4600156
:101AA000B1F5800F3CD004DC91B3B1F5001FDDD15E
:101AB00075E0B1F5C00FDBD0B1F5000FD6D163E012
:101AC00001E018E030E0DBF8001001F0E061B1F176
:101AD000007F25D008DCD9B1B1F1807FC6D15EE0AE
:101AE00049E06CE079E09CE0B1F1407FC0D0B1F119
:101AF000806FBBD148E0DAF8001001F4E041B1F5A5
:101B0000005F0DD005DC19B1B1F5805FAED146E0C4
:101B100094E0B1F5405FABD0B1F5804FA6D133E092
:101B200020688000A2D58DE7DAF8001001F4E021EA
:101B3000B1F5403F6CD006DC61B149457AD07145C2
:101B400094D157E037E0B1F5802F65D0B1F5A02FE3
:101B50008CD10CE000F0A6FE6CE76846FFF7D4FDE0
:101B6000019867E703A8FFF771FE049862E7216810
:101B70008903F1D47AE7DBF8001011F440310ED07C
:101B8000494510D07145F5D13168256801F04051C3
:101B90006D077FF562AF00297FF45FAF57E72068DC
:101BA0000001E7D549E720688000E3D503A8FFF7E7
:101BB0004DFE05983EE722689203DBD554E7306876
:101BC00010F480303AD04845D4D120680001D1D5F6
:101BD0006846FFF799FD02982CE7DBF8001001F04A
:101BE000E041B1F1405F13D008DC71B1614521D013
:101BF0004145BFD120688000B4D437E7B1F1804FB0
:101C00000AD0B1F1A04FB2D030E7FFF7C7FC11E71F
:101C100020684007AED51AE72068C005AAD521E79D
:101C200008E0DAF8001011F04051A0D0614505D06D
:101C300041459FD1206800018FD417E720688001BB
:101C400098D5F3E6504402580090D00340787D01C7
:101C50000080BB00004402582DE9FE4F0546DFF826
:101C6000E48350F8081B0024F64FC943019005F1A6
:101C70002800264608F12408009008011DD4A86E0B
:101C800050B1B0F5801F0CD0B0F5001F0ED0B0F5EC
:101C9000401F1ED001240FE0386840F40030386047
:101CA00017E00198022102F073FA03E00098022184
:101CB00002F0FEFA04000CD026462888C043C00576
:101CC00023D4A86D05281ED2DFE800F00C11161BE6
:101CD0001B00AA6ED8F8001021F440111143C8F877
:101CE0000010EAE7386840F40030386009E00198F5
:101CF000002102F04DFA03E00098002102F0D8FA2A
:101D0000044674B100E0012426462888C0438005BB
:101D100028D4E86D80281ED00CDC90B140280ED16C
:101D200014E0AA6DD8F8001021F007011143C8F89B
:101D30000010EAE7C02813D0B0F5807F10D001244E
:101D40000FE0386840F40030386009E00198002165
:101D500002F01EFA03E00098002102F0A9FA0446FE
:101D60009CB126462888DFF8DC92C04309F12C0993
:101D700040052CD4D5F8A800B0F5800F20D00DDC9C
:101D8000A0B1B0F5001F0FD115E0EA6DD8F8001032
:101D900021F4E0711143C8F80010E3E7B0F5C00F7B
:101DA00013D0B0F5000F10D001240FE0386840F4D4
:101DB0000030386009E00198002102F0E9F903E001
:101DC0000098002102F074FA04467CB12646288867
:101DD000C04300052DD4D5F8AC00B0F1007F21D070
:101DE0000EDCA8B1B0F1807F10D116E0D5F8A820A4
:101DF000D9F8001021F460011143C9F80010E6E79A
:101E0000B0F1407F13D0B0F1806F10D001240FE00B
:101E1000386840F40030386009E00198002102F091
:101E2000B7F903E00098002102F042FA044674B1C9
:101E300026462868C04380011FD4E86CD8B110281A
:101E40000FD0202812D0302815D0012414E0D5F866
:101E5000AC20D9F8001021F0E0611143C9F800105E
:101E6000E7E7386840F40030386004E00198022168
:101E700002F08EF9044674B126462888C043C00497
:101E80002BD4286EB0F5005F20D00DDCA0B1B0F5EA
:101E9000805F0FD115E06B48EA6C2030016821F0BB
:101EA000300111430160E8E7B0F5405F13D0B0F5B1
:101EB000804F10D001240FE0386840F400303860C3
:101EC00009E00198002102F063F903E00098002185
:101ED00002F0EEF904468CB126462888C0438004FF
:101EE00029D4686EB0F5403F23D010DC08B3B0F5BC
:101EF000803F14D0B0F5003F0FD115E02A6ED8F81E
:101F0000001021F4E0411143C8F80010E5E7B0F5F6
:101F1000802F0ED0B0F5A02F0BD001240AE001983D
:101F2000012102F035F903E00098012102F0C0F927
:101F3000044694B126462888C04340042AD4D5F8E4
:101F4000B000B0F1405F23D010DC08B3B0F1805F87
:101F500014D0B0F1005F0FD115E06A6ED8F8001010
:101F600021F4E0211143C8F80010E4E7B0F1804FFC
:101F70000ED0B0F1A04F0BD001240AE0019801214E
:101F800002F006F903E00098012102F091F90446FD
:101F900074B126462888C04300041FD4286FD8B1E6
:101FA000B0F1805F0ED0B0F1005F10D0012414E0DA
:101FB000D5F8B020D9F8001021F0E0411143C9F85C
:101FC0000010E7E7386840F40030386004E001981A
:101FD000012102F0DDF8044674B126462868C043AA
:101FE000C0011ED4A86CD0B101280ED0022811D097
:101FF000032814D0012413E02A6FD8F8001021F030
:1020000040511143C8F80010E8E7386840F4003048
:10201000386004E00198022102F0BAF80446ACB13D
:1020200026462868DFF81CB0C043ABF11C0B400209
:1020300052D40548016841F480710160FEF7B2FD99
:10204000824611E02C44025800480258FA48AA6C13
:10205000016821F0030111430160E2E7FEF7A2FDF0
:10206000A0EB0A00642835D8F4480068C005F5D50F
:102070008CBBDFF8C4A3B5F8B4100AF1240ADAF86F
:10208000000001F4407100F44070884211D0DAF889
:102090000010DAF8002021F4407142F48032CAF8CE
:1020A0000020DAF8002022F48032CAF80020CAF8B2
:1020B0000010D5F8B400B0F5807F1AD1FEF772FD9C
:1020C000029012E0FEF76EFD0299411A41F288304B
:1020D00081420AD9032426462878DFF85CA3C0434E
:1020E0000AF1080AC00721D03CE0DAF800008007B6
:1020F000E8D5D5F8B410C1F30120032858460DD017
:10210000016821F47C510160B5F8B420DAF80010C0
:10211000C2F30B021143CAF80010DDE7C84A036896
:1021200002EA111223F47C511143ECE7E86F1828FE
:1021300016D005DCA0B1082808D0102804D10AE088
:1021400020280DD028280BD001240AE00198012175
:1021500002F01EF803E00098012102F0A9F80446FD
:1021600064B126462878C04380071ED4A86F06288D
:1021700019D2DFE800F0160C11161616EA6FDAF81D
:10218000001021F038011143CAF80010EAE7019865
:10219000012101F0FDFF03E00098012102F088F821
:1021A00004467CB100E0012426462878C04340075D
:1021B0001FD4D5F89400062819D2DFE800F0160CD9
:1021C00011161616AA6FDAF8001021F00701114354
:1021D000CAF80010E9E70198012101F0D9FF03E0F6
:1021E0000098012102F064F80446A4B100E0012443
:1021F00026462878C04380062BD4D5F89000B0F14D
:10220000405F24D011DC10B3B0F1805F15D0B0F185
:10221000005F10D116E0D5F89420D9F8001021F015
:1022200007011143C9F80010E3E7B0F1804F0ED069
:10223000B0F1A04F0BD001240AE00198002101F079
:10224000A7FF03E00098022102F032F8044694B19F
:1022500026462878C04340062BD4D5F89C00B0F51C
:10226000406F24D011DC10B3B0F5806F15D0B0F5FD
:10227000006F10D116E0D5F89020DAF8001021F0A8
:10228000E0411143CAF80010E3E7B0F5805F0ED0DB
:10229000B0F5A05F0BD001240AE00198002101F005
:1022A00077FF03E00098022102F002F8044694B19F
:1022B00026462878C04300062BD4D5F8A000B0F5F8
:1022C000C04F24D011DC10B3B0F5005F15D0B0F5CD
:1022D000804F10D116E0D5F89C20D9F8001021F4D9
:1022E000E0511143C9F80010E3E7B0F5004F0ED0FC
:1022F000B0F5204F0BD001240AE00198002101F035
:1023000047FF03E00098022101F0D2FF044654B1D8
:1023100026462878C04300071ED4D5F88400B0F5BF
:10232000805F0AD00FE0D5F8A020D9F8001021F482
:1023300060411143C9F80010EBE70098022101F059
:10234000B7FF00B10126D5F88420DAF8001021F497
:1023500040511143CAF800102878C043C00613D476
:10236000D5F89800B0F5807F05D10098022101F0E2
:102370009FFF00B10126D5F89820D9F8001021F46C
:1023800040711143C9F800102868C043000316D4F7
:10239000D5F8A40038B1B0F5803F09D0B0F5003FC2
:1023A0000BD001240AE00198002101F0F1FE03E0C6
:1023B0000098022101F07CFF04468CB12646286873
:1023C000C043400322D4D5F88800B0F5801F11D057
:1023D000B0F5001F13D0B0F5401F15D0012414E054
:1023E000D5F8A420D9F8001021F440311143C9F8E0
:1023F0000010E4E7386840F40030386004E00098EA
:10240000012101F055FF04465CB126462868C0430F
:10241000C00323D4286DA8B1B0F5803F17D00124A4
:102420001BE0D5F88820DAF8001021F440111143A0
:10243000CAF80010EAE700004C440258004802586D
:10244000CFFFFF00386840F40030386004E00198A6
:10245000022101F09DFE0446E4B126462868C043EF
:10246000800005D40098022101F022FF00B101266E
:102470002868C04380031BD4D5F88000B0B1B0F504
:10248000807F0FD0B0F5007F10D0B0F5407F0DD029
:1024900001240CE05A482A6D016821F4803111436F
:1024A0000160DBE7386840F400303860ECB3264662
:1024B0002868C043C00207D46A6FD8F8001021F022
:1024C00000411143C8F800102868C043C00008D478
:1024D000D5F8B820DBF8001021F480411143CBF887
:1024E00000102868C043800207D4EA6ED8F80010B4
:1024F00021F080711143C8F800102868C0434000E3
:102500000CD4DBF8001021F40041CBF80010DBF80C
:102510000010D5F8BC201143CBF800102868C04348
:1025200008D437486A6D016800E018E021F0405196
:10253000114301602868C043000208D4D5F88C20FC
:10254000DAF8001021F440011143CAF8001028798C
:102550000024C04300F0010020430AD00FE0D5F86A
:102560008020DAF8001021F440711143CAF80010FD
:102570009EE70198002101F00BFE00B10646287984
:10258000C04300F00200204305D10198012101F071
:10259000FFFD00B106462879C04300F00400204347
:1025A00005D10198022101F0F3FD00B1064628791A
:1025B000C04300F00800204305D10098002101F03D
:1025C00077FE00B106462879C04300F01000204392
:1025D00005D10098012101F06BFE00B10646287973
:1025E000C04300F02000044304D10098022101F010
:1025F0005FFE00B916B10120BDE8FE8F0020FBE7A9
:102600004C4402582DE9F05F04000F467ED0DFF8FD
:102610003882D8F8000000F00F00B8420CD2D8F889
:10262000001021F00F013943C8F80010D8F800005D
:1026300000F00F00B84269D12078844D40070AD5D8
:102640002069296801F07001884204D9296821F0C5
:1026500070010143296020787C4E361D00070AD5A1
:102660006069316801F07001884204D9316821F055
:102670007001014331602078C0060AD5A069316835
:1026800001F4E061884204D9316821F4E06101433A
:1026900031602078DFF8B4B180060BF1080B0CD55F
:1026A000E1695846DBF8002002F07002914204D93B
:1026B000026822F070020A430260207880070AD57F
:1026C000E068296801F00F01884204D9296821F0E7
:1026D0000F01014329602078C0073ED05B49A26802
:1026E0002868183920F47060104328606068022858
:1026F00018D0032819D00968012819D049070029E2
:102700004ADADFF848A1AAF1080A00E044E0DAF862
:10271000002022F007020243CAF80020FEF742FA26
:10272000814612E009688903E9E709688901E6E75B
:10273000C905E4E7FEF736FAA0EB090141F288305B
:10274000814202D90320BDE8F09F6168DAF80000F9
:1027500000F03800B0EBC10FECD1207880070AD52B
:10276000E068296801F00F01884204D2296821F04D
:102770000F0101432960D8F80010404601F00F0115
:10278000B9420BD9016821F00F013943016000689B
:1027900000F00F00B84201D00120D4E720784007B4
:1027A0000AD52069296801F07001884204D229689D
:1027B00021F0700101432960207800070AD5606983
:1027C000316801F07001884204D2316821F0700153
:1027D000014331602078C0060AD5A069316801F450
:1027E000E061884204D2316821F4E0610143316044
:1027F000207880060CD5E1695846DBF8002002F00D
:102800007002914204D2026822F070020A43026010
:1028100000F06CF80E492A682B68C2F3032203F01B
:102820000F038A5CC95C02F01F0201F01F01D04057
:10283000084A20FA01F1116007490860074800685A
:10284000BDE8F05FFEF7EAB90020005218440258D4
:10285000C28B000818000024140000240C0000247F
:1028600030B500F043F80B4A0B490C4B156814685F
:10287000C5F3032204F00F048A5C095D02F01F0215
:1028800001F01F01D040064A20FA01F119601060E2
:10289000084630BD18440258C28B000818000024B6
:1028A0001400002400B5FFF7DBFF05490968054A5D
:1028B000C1F30211515C01F01F01C84000BD0000CE
:1028C0001C440258C28B000800B5FFF7C9FF054938
:1028D0000968054AC1F30221515C01F01F01C8409B
:1028E00000BD00001C440258C28B0008454970B569
:1028F00045480968434B103B11F0380208D00111DC
:10290000082A03D0102A0BD0182A0BD0084670BD15
:1029100019688906FBD51968C1F3C101C84070BDAB
:102920003A4870BD3749374D18310C1D24350A68B7
:10293000096826682D6802F0030406F00102C1F35D
:102940000511C5F3CC0515FB02F200EE102AB8EE16
:10295000400AE9B32F4ADFED2E0AB7EE001A6CB138
:10296000DFED2D1A012C01D0022C43D002EE101AFB
:102970001068F8EE422A81EEA22A1EE01C68A40626
:1029800011D51B6801EE901A1168C3F3C103F8EE6C
:10299000612AD84001EE900AC1F30800F8EE611AEE
:1029A00081EEA22A0BE001EE901ADFED1C2A00BF97
:1029B000F8EE611A106882EEA12AC0F3080001EE59
:1029C000900AF8EE611A40EE201A31EE810A00E01A
:1029D00015E022EE000A1068C0F34620401C00EE0D
:1029E000900AF8EE600A80EE201ABCEEC10A10EEE2
:1029F000100A70BD01EE901ADFED092AD8E7002019
:102A000070BD0000104402580090D00340787D0152
:102A100000000039304402580024744A0024744CE9
:102A200020BCBE4B2DE9F05F04007DD0FF4F207825
:102A3000FE4D1837DFF8F493103DC00748D0D9F8A1
:102A40000000396800F03800102815D0182803D18C
:102A500001F0030002280FD06068B0F5803F12D06B
:102A600010B1B0F5A02F18D0286820F4803028606D
:102A7000286820F4802009E02868800328D5606851
:102A80000028D2D024E0286840F4803028606068B4
:102A900088B1FEF787F8064609E0286840F48020F0
:102AA0002860F0E7FEF77EF8801B64286FD828685E
:102AB0008003F7D50CE0FEF775F8064605E000BF89
:102AC000FEF770F8801B6428F0D828688003F7D4DC
:102AD000207841F20308D54E0C3E800769D5D9F81D
:102AE0000000396810F038000ED0182801D188078E
:102AF0000AD0E06890B3296821F0190101432960E8
:102B0000FEF750F8824631E02868400702D5E068B9
:102B100000288AD0E168286820F01900084328605E
:102B2000FEF740F8824607E0DFE000BFFEF73AF824
:102B3000A0EB0A000228B9D828684007F6D500BFE4
:102B4000FEF72AF840451BD82069402812D031688A
:102B500021F47C3141EA003030602AE018E000BF07
:102B6000FEF720F8A0EB0A0002289FD8286840074B
:102B7000F6D5E5E7306820F47C3040F40030EBE730
:102B8000207C316821F0FE4141EA0060E4E70DE17C
:102B9000286820F001002860FEF704F8824605E06E
:102BA000FEF700F8A0EB0A0002288DD8286840073D
:102BB000F6D42078C0065DD5D9F80000DFF86CB2F5
:102BC000396800F03800ABF1040B082810D0182841
:102BD00003D101F0030001280AD0E0690028286829
:102BE00038D040F080002860FDF7DCFF824623E00B
:102BF0002868C00523D5E069802876D11FE0206AC7
:102C0000202821D0316821F0F84141EA806030600D
:102C100030E000BF94F82010DBF8002022F07C5256
:102C200042EA0161CBF8001024E000BFFDF7BAFFD3
:102C3000A0EB0A00022898D82868C005F6D5FDF751
:102C4000ABFF4045E6D8DAE7306820F0F84040F0C6
:102C50008040DCE720F080002860FDF7A3FF0646F7
:102C600005E000BFFDF79EFF801B02289DD8286865
:102C7000C005F7D42078000729D56C486169643015
:102C800000298046016811D041F001010160FDF783
:102C900089FF064605E000BFFDF784FF801B022880
:102CA000C9D8D8F800008007F6D510E021F001015E
:102CB0000160FDF777FF064605E000BFFDF772FFF4
:102CC000801B022872D8D8F800008007F6D420783C
:102CD000800623D5A0690028286810D040F48050D1
:102CE0002860FDF75FFF064605E036E1FDF75AFF75
:102CF000801B02285AD828688004F7D50EE020F4FB
:102D000080502860FDF74EFF064604E0FDF74AFFBD
:102D1000801B02284AD828688004F7D4207840070E
:102D20004FD5DFF80C81D8F8001041F48071C8F855
:102D30000010FDF737FF064605E000BFFDF732FF44
:102D4000801B642832D8D8F80000C005F6D5374E6D
:102D5000A068603601280AD008B1052813D0306871
:102D600020F001003060306820F0040002E030689C
:102D700040F001003060A06841F2883A90B1FDF760
:102D800011FF80460AE0306840F004003060EEE752
:102D9000FDF708FFA0EB0801514507D83068800710
:102DA000F6D50EE0FDF7FEFE804607E084E000BFAA
:102DB000FDF7F8FEA0EB080151457DD8306880078B
:102DC000F6D4606AB0B3DFF86480D9F8001008F177
:102DD00020084FF6F87B08F10409C1F3C20103296A
:102DE000A8F1040A69D00228286820F080702860C1
:102DF00003D0FDF7D7FE044684E0FDF7D3FE064678
:102E000005E000BFFDF7CEFE801B022877D82868BA
:102E10008001F7D4E26A40F2F331386854F8283F71
:102E2000884340EA02101843386004E01044025816
:102E300000480258B5E0217B434622894FF4FE0C3E
:102E4000208A4FF0FE474902267D521E401EA1F502
:102E50000071C2F308088AB2761E0CEA004042EA0A
:102E600008020243504607EA06610A431A60DAF88C
:102E7000002022F00102CAF80020D9F80020266ABA
:102E800022EA0B0242EAC602C9F80020DAF8001072
:102E9000A26921F00C011143CAF800100168E2692F
:102EA00021F0020111430160016841F480310160A9
:102EB000016841F4003101E021E027E00160016890
:102EC00041F480210160016841F00101016028683E
:102ED00040F080702860FDF765FE044605E000BF05
:102EE000FDF760FE001B022809D828688001F7D58D
:102EF00057E000BFFDF756FE001B022802D9032051
:102F0000BDE8F09F28688001F4D44AE039680128C0
:102F1000D8F8000021D0A26A01F0030393421CD12B
:102F2000E26AC1F305118A4217D1216BC0F308028E
:102F3000491E8A4211D1616BC0F34622491E91425B
:102F40000BD1A16BC0F30642491E914205D1E16B42
:102F5000C0F30660491E814201D00120D0E7A16C78
:102F60004E46D9F80000C0F3CC00814219D0DAF8FF
:102F70000000554620F00100CAF80000FDF712FEDF
:102F80004FEA0007FDF70EFEB842FBD0A26C306896
:102F900020EA0B0040EAC2003060286840F00100DF
:102FA00028600020ACE7704770477047704700000A
:102FB0002DE9F0410446032084F830004FF480737B
:102FC0002A4A4FF400784FF0000541B1012927D07B
:102FD00002290ED0606B012540F000601AE0A06D60
:102FE000404504D0984202D0A06B012813D111466D
:102FF00008E0A06D4045FAD09842F8D0A06B0128B7
:10300000F5D003E0204601F09DFF20B1606B012563
:1030100040F080506063FDF7C5FD0126074608E0DB
:103020001249491EEEE700BFFDF7BCFDC01B401C66
:1030300015D0204600F0D4F90428F5D12068414687
:1030400001F0FAF930B12268012509499163616BF9
:103050000143616384F830602846BDE8F0814FF099
:103060000040606384F830600320F6E701FFFF80D2
:10307000FF0FE01F2DE9FC5F0446806B0E46032125
:1030800084F83010002703285CD0B6F5004F59D0E3
:10309000B6F5804F4FF000054FF400684FF080699F
:1030A00004D006B3606B40F000603FE00095002163
:1030B0000195206801F0F6FC80011CD46946204689
:1030C00001F038FD70BB019840032DD5B4F84410D1
:1030D0002068090401F07FF920BB206802211DE06F
:1030E000606B284322E0009500210195206801F0E3
:1030F000D9FC800101D54546F2E76946204601F03A
:1031000019FD78B90198C0030ED5B4F844102068B1
:10311000090401F060F928B92068002101F0A5F93F
:103120000028DDD00546DBE74D46D9E76063606BDC
:103130004FF4007BDFF8B8A040B121680127C1F847
:1031400038A042E0606B40F08050EFE700214FF480
:103150008030FEF71DFC010032D0264D3346D4E905
:1031600004C0B1FBF5F8D4E90192804510D9A66DF1
:103170005E450DD0B6F5807F11D04FEA6506E0B10F
:103180004FEA4008B1FBF8F8B04501D9B1FBF5F0C2
:103190004946CDE900C0206801F088FC15E0164ED4
:1031A00030B14FEA4008B1FBF8F8A84502D8EFE784
:1031B000A942EDD9B1FBF6F0EAE7B142E6D8E7E77C
:1031C000606B012740F0006060632068594601F0A1
:1031D00033F930B122680127C2F838A0616B01438E
:1031E0006163012084F830003846BDE8FC9F000090
:1031F000FF0FE01F80F0FA0200E1F50570470000C4
:10320000F0B5C26D920F0A70C26DC2F383624A704C
:10321000C26DC2F301628A70C26D120CCA70B0F83E
:103220005C20120A0A7190F85C204A71026E120D3D
:10323000CA80026EC2F303420A72B0F86020C2F381
:10324000C0324A72B0F86020C2F380328A72B0F89D
:103250006020C2F34032CA72B0F860200026C2F388
:1032600000320A734E730122836B4FF4007463B112
:10327000012B3AD0036850499963416B41F080516A
:10328000416380F830200120F0BDB0F86030456E19
:103290009B051B0D43EA95730B61436EC3F3C26339
:1032A0000B75436EC3F302634B75436EC3F3425316
:1032B0008B75436EC3F38243CB75436EC3F3C23346
:1032C0000B760D696D1C85640B7E03F007039B1C58
:1032D0009D4085640B7A446503F00F0302FA03F303
:1032E0005F0A7D43C0E913350EE090F86050436EED
:1032F000AD06AD0A45EA13430B610B695B1C9B02EB
:103300008364C0E913434465B0F86430C3F3803389
:103310004B76B0F86430C3F3C6138B7690F8643004
:1033200003F07F03CB76836EDB0F0B77836EC3F3E3
:1033300041734B77836EC3F382638B77836EC3F3E2
:103340008353CB77836EC3F3405381F8203081F8E9
:103350002160836EC3F3004381F82230B0F86830F7
:10336000C3F3C03381F82330B0F86830C3F380333F
:1033700081F82430B0F86830C3F3403381F8253049
:10338000B0F86830C3F3003381F82630B0F8683005
:10339000C3F3812381F82730B0F86830C3F30123E9
:1033A00081F8283090F86800C0F3460081F82900C1
:1033B00081F82A200020F0BDFF0FE01F826B0A6019
:1033C000C26B4A60026C8A60426CCA60826C0A619D
:1033D000C26C4A61026D8A61406DC861002070470D
:1033E00070B5B0F84410002504460068090401F0E7
:1033F0002AF918B1616B0143616304E02068002180
:1034000001F050FB0546C5F3432070BD2DE9F041A6
:10341000054690F8300090B00C460026032810D0E6
:103420006946284601F01CFD2A4F4FF0010860B1A3
:103430002A68012697636A6B02436A6385F83080C5
:103440003AE0012010B0BDE8F08100994FF47F40D0
:10345000C1F3811121700099C1F34011617000998D
:103460000A4600EA112141EA12616180019909BA14
:103470006160029921720299090A61720299C1F38D
:103480000351A172DDE9022100EA1240C9B20843EA
:10349000A0810398C0F38520A0730398C0F3012096
:1034A000E0730398C0F303102074039800F00F003A
:1034B00060740498000EA07428684FF4007100F046
:1034C000BBFF28B12A6801269763686385F83080BE
:1034D0003046B7E7FF0FE01F2DE9F84304460068C8
:1034E000E56A416B09041BD5290719D5D4E90950B0
:1034F000202813D30026206801F0EEFA020A287073
:10350000010C6A70030EA970761CEB70082E05F191
:103510000405F0D3A06A2038C4E90950BDE8F88357
:10352000416B0127DFF8EC810026C90551D539022E
:103530004CF23A12816329072068C16B21EA02012B
:10354000C1632068C16B21F08051C1632068C168EC
:1035500021F04001C16018D515F0220F09D0206874
:1035600001F0BEF828B1616B014361632046FFF7AB
:1035700045FE2168AA07C1F8388084F83070E662F9
:1035800023D1204600F05CFAC8E72806C6D520689B
:1035900015F0220F86622068C6622068066509D091
:1035A000206801F09DF828B1616B014361632046FA
:1035B000FFF724FE15F0300F84F83070E66202D079
:1035C000204600F03DFAA807A8D0204600F02CFACB
:1035D000A4E7416B490421D529071FD5D4E9075039
:1035E00020289BD3002628780090697840EA0120A3
:1035F0000090A97840EA01400090E9782D1D40EA4A
:10360000016000902068694601F07EFA761C082E61
:10361000E9D3206A2038C4E907507FE7416B11F0F5
:103620003A0F416B58D0890703D5616B41F0020115
:103630006163416B090703D5616B41F00801616368
:10364000416B890603D5616B41F020016163416BD9
:10365000C90603D5616B41F010016163C0F8388081
:103660002068C16B21F49D71C1632068C16821F09D
:103670004001C1602068C16A41F40051C162206804
:10368000C16841F08001C160206801F029F8626BD7
:103690002B074FF4006140EA020060632068C268B3
:1036A00022F08002C2602068816303D584F8307004
:1036B000E6620DE028068BD5606B002888D0206874
:1036C000C16B21F08051C1632068066584F83070B9
:1036D0002046FFF793FD21E7C9009ED54FF08051AA
:1036E00081632068006D40074FEA856008D4002898
:1036F000204602DAFFF75AFC10E7FFF755FC0DE70A
:103700000028204602DAFFF750FC07E7FFF74BFCE2
:1037100004E700003A0F0018F0B5040085B020D08F
:1037200094F83000002518B92046257600F098F866
:10373000042084F83000204600F03CF888B969463F
:103740002046FFF763FE60B99DF81010A26B9DF84C
:103750001100012A08D0A5652046E168FFF78AFC20
:1037600058B1012005B0F0BD014302D04FF4007004
:1037700001E04FF48070A065EEE7FDF713FA012732
:10378000064604E0FDF70EFA801B401C0AD02046D6
:10379000FFF726FE0428F5D16563E56284F83070F2
:1037A0000020DFE74FF00040606384F830700320B2
:1037B000D8E700002DE9FC414FF0000804464FF423
:1037C00080304146FEF7E4F805004FF0010723D0B2
:1037D0002048434642464146B5FBF0F6CDE9008617
:1037E000206801F063F9206801F070F91EB17000E3
:1037F000B5FBF0F52DB11848B0FBF5F0401CFDF716
:103800009DF8204601F0D2FA60B100BF84F8307014
:10381000616B0143616319E04FF0006084F8307020
:10382000606313E0204601F0F7F90028EED120682C
:103830004FF4007100F000FE002808D0226807490C
:103840009163616B0143616384F830700120BDE8CE
:10385000FC81000000350C0010210100FF0FE01F6B
:10386000704700002DE9F04F87B0994617460D4686
:103870000446FDF797F906903DB194F83000012811
:1038800007D0606B40F000500DE0606B40F00060CE
:1038900009E0226D002007EB09016063914204D921
:1038A000606B40F000706063A8E0032184F8301082
:1038B0002168C862A16B012900D07F024FF0020A83
:1038C000CDE903A090264FF0FF324FEA492305903F
:1038D0008DE84C0080462068694600F079FF20683A
:1038E000B9F1010F4FF00106C16841F04001C1601C
:1038F00006D9C4F82CA03946206800F00FFE04E079
:10390000E6623946206800F023FEDFF814A150B1CA
:103910002368C3F838A0616B0143616384F83060A9
:10392000C4F82C806AE0DDF804B01FE0406B0004AE
:1039300014D5BBF1200F11D30027206801F0CCF87B
:10394000020A2870010C6A70030EA9707F1CEB70CC
:10395000082F05F10405F0D3ABF1200BFDF722F998
:103960000699411A1098814221D200B32068416B18
:1039700011F4957FDAD0C16821F04001C160206860
:10398000416BC90522D5B9F1010F1FD9A16B0329DC
:103990001CD000F0A5FEC8B12368C3F838A0626B44
:1039A0000243626384F83060C4F82C8026E0226809
:1039B000C2F838A0606B40F00040606384F830606B
:1039C000C4F82C80032007B0BDE8F08F2068416B5D
:1039D000090706D5C0F838A0616B404641F00801E0
:1039E00008E0416B89070BD5C0F838A0616B4046F1
:1039F00041F00201616384F83060E0620120E2E797
:103A0000416B890606D5C0F838A0616B404641F08D
:103A10002001EFE70349816384F830600020D2E79A
:103A2000FF0FE01F3A0F0018044910B5884201D07B
:103A3000012000E00020FCF735FD10BD6C100024D3
:103A4000044910B5884201D0012000E00020FCF7B5
:103A500041FD10BD6C1000242DE9F04F89B09A464D
:103A600016460D460446FDF79DF806903DB194F8C4
:103A70003000012807D0606B40F000500DE0606B13
:103A800040F0006009E0226D002006EB0A0160634F
:103A9000914204D9606B40F000706063B2E0032192
:103AA00084F830102168C862A16B012900D0760229
:103AB0004FF0FF314FEA4A22059090230490CDE960
:103AC0000230CDE9001280462068694600F080FE91
:103AD0002068C168BAF1010F41F04002C26006D906
:103AE0002020E0622068314600F03EFE05E0102014
:103AF000E0622068314600F051FEDFF830B1060088
:103B00004FF001090AD02368C3F838B0606B304326
:103B1000606384F83090C4F82C8073E001980890BA
:103B200027E0406B40041CD50898202819D30027B3
:103B300028780790697840EA01200790A97840EA40
:103B400001400790E9782D1D40EA01600790206848
:103B500007A900F0D9FF7F1C082FE9D30898203867
:103B60000890FDF71FF80699411A1298814221D258
:103B700000B32068416B11F48D7FD2D0C16821F071
:103B80004001C1602068416BC90521D5BAF1010F20
:103B90001ED9A16B03291BD000F0A2FDC0B125687E
:103BA000C5F838B0616B0143616384F83090C4F8A4
:103BB0002C8027E02368C3F838B0626B324362631D
:103BC00084F83090C4F82C80032009B0BDE8F08F51
:103BD0002068416B090707D54946C0F838B0626BC9
:103BE000404642F0080209E0416B89070CD549467E
:103BF000C0F838B0626B404642F00202626384F85B
:103C00003010E0620120E0E7416BC90607D5494664
:103C1000C0F838B0626B404642F01002EEE7044A4A
:103C2000826384F830900020CFE70000FF0FE01F90
:103C30003A0F0018401EB0F1807F10B501D301206B
:103C400010BD4FF0E02460610F21601702F060FEAC
:103C50000020A0610721216110BD30B590F88410CB
:103C6000012918D0012280F884202421C0F888106E
:103C70000022202401680B680D6823F0005325F012
:103C800001050D60426601680B60C0F8884080F84D
:103C90008420104630BD022030BD70B5044690F837
:103CA000840001281DD0012284F884202420C4F837
:103CB000880020680568026822F00102026020681E
:103CC000826822F060620A438260204601F014FBA1
:103CD0002268202100201560C4F8881084F8840030
:103CE00070BD022070BD70B5044690F884000128B4
:103CF0001DD0012284F884202420C4F88800206884
:103D00000568026822F0010202602068826822F0E1
:103D100060420A438260204601F0EEFA22682021C8
:103D200000201560C4F8881084F8840070BD02205B
:103D300070BD10B5040003D0D4F8880010B107E0BE
:103D4000012010BD002084F88400204600F026F8F1
:103D50002420C4F888002068016821F00101016076
:103D6000204601F0CFFB0128EBD0A06A10B120461D
:103D700001F0E4FA2068416821F490414160206834
:103D8000816821F02A0181602068016841F0010109
:103D900001602046BDE8104001F034BB10B5B6B05C
:103DA0000446142130A8FCF7DDFAC0216846FCF770
:103DB000D9FA1A49206888422DD100201F9001218C
:103DC0000446CDE900106846FDF746FF08B1FCF750
:103DD00084FB1348016841F010010160006800F0A5
:103DE000100035900E481038016841F00101016063
:103DF00000680DF1C00C022100F0010035904FF475
:103E0000C06007238CE8130003220648CDE9332362
:103E100030A9FCF7A5FD36B010BD00000010014030
:103E2000F0440258000002582DE9F8430446D0F847
:103E30008800984616460D46202802D00220BDE88C
:103E4000F883A5B19EB10021C4F890102120C4F8D8
:103E500088001834FCF7A6FE814654F8100CA6879B
:103E6000E6872027183CB0F5805F02D003E00120F0
:103E7000E5E7206910B12E46002510E000260EE08F
:103E80008021204601F014FDC0B9DEB116F8010B07
:103E900021688862B4F85600401EA4F85600B4F8B1
:103EA00056004B464FF00002CDF800800028E7D1C5
:103EB0004FF04001204601F0FBFC48B1C4F8887087
:103EC0000320BCE735F8020B2168C0F30800E0E7E7
:103ED000C4F888700020B2E7FEE7000030B587B074
:103EE00014216846FCF73EFA2248016841F01001AF
:103EF0000160016801F010010591016841F00401C1
:103F00000160016801F004010591016841F0800140
:103F10000160016801F080010591016841F0010133
:103F20000160016801F001010591016841F00201A1
:103F30000160016801F002010591016841F008018A
:103F4000016000684FF400540B4D002200F008009F
:103F5000214605902846FCF719FE00210094012017
:103F6000CDE90101284603916946FCF7F9FC07B049
:103F700030BD0000E044025800080258002110B58E
:103F8000084C4FF480430622C0E90041C0E9021307
:103F9000C0E904120C46FFF7BFFB00B10124204624
:103FA00010BD0000007000521848002110B5164CDA
:103FB0000C224FF4E1330460C0E90131C160C0E973
:103FC00004128161C161016241628162FFF7B1FE49
:103FD00008B1FCF782FA0D480021FFF784FE08B112
:103FE000FCF77BFA09480021FFF757FE08B1FCF700
:103FF00074FA0648FFF731FE002803D0BDE81040F0
:10400000FCF76BBA10BD000000100140E81000245E
:10401000FEE7FEE70148FCF767BF00009C130024A1
:104020002DE9F0410446C0680D4620272368012889
:104030004FF4004604F2C44203EB4511D3F840C0EC
:10404000D1F8080B09D0DFF89CE0F4453AD102041E
:1040500033D500BFC1F8086B40E0234B5FEA007E18
:1040600004D59C453AD90004F4D437E05FEA806E69
:1040700002D5C1F8087B31E010F0280F2ED19C4505
:1040800001D90004E6D4D1F8101B05EBC50004EB00
:104090008000C1F31201D0F89C32A3EB0101C0F8FB
:1040A000901200F51F70ADB903691BB1C2681144CD
:1040B000C1600FE0206801210AE080060AD5C1F83E
:1040C000087B07E035B9D4F88C0218B900211846EE
:1040D00002F006F92046E9B2FCF71CFE0020BDE81C
:1040E000F08100000A31544F0A30544F2DE9F84F47
:1040F0000E460568814601EBC60100EB8104D4E958
:1041000013203C34904202D90120BDE8F88FA16809
:10411000101A814200D20846C01C05EB46188708D9
:104120001BE000BFA268A0EB010A524500D29246F4
:1041300099F80C100AF1030000911FFA8AF3E16864
:1041400087082846F2B202F0BDFBE16801EB0A00E5
:10415000E060616901EB0A006061D8F8180980B27B
:10416000B84205D3D4E90401814201D20028D9D153
:10417000D4E90401884208D8D5F83418012006F0A3
:104180000F0290408143C5F834180020BDE7704706
:104190002DE9F047454D044689464FF0000A28684E
:1041A000C04380070AD0414E283E306820F080602E
:1041B0003060FCF7F7FC0746B04608E00120BDE898
:1041C000F08700BFFCF7EEFCC01B022867D8D8F8C8
:1041D00000000001F6D4206829684FF4FE0721F49E
:1041E0007C313E0241EA00302860207AA389B4F88D
:1041F00004C040022D4D2D495B1E227CACF1010C08
:104200001035091DA0F5007080B2521ECCF3080CC9
:1042100007EA034340EA0C00184306EA026210432F
:1042200028600868626920F0C000104308600A68CE
:10423000A06922F0200202430A60281D0A6822F0C9
:1042400010020A6002684FF6F873E4699A4342EA82
:10425000C40202600868B9F1000F40F010020A6061
:1042600011D00868B9F1010F11D040F400100860B6
:10427000D8F80000444640F08060C8F80000FCF721
:1042800091FC05460DE0086840F40020EFE740F49B
:104290008010ECE7FCF786FC401B022801D90320C4
:1042A0008DE720680001F5D5504688E7284402587C
:1042B0002DE9F047454D044689464FF0000A28682D
:1042C000C04380070AD0414E283E306820F080501D
:1042D0003060FCF767FC0746B04608E00120BDE807
:1042E000F08700BFFCF75EFCC01B022867D8D8F837
:1042F00000008000F6D4208829684FF4FE0721F0E2
:104300007C713E0241EA00502860207AA389B4F80B
:1043100004C040022D4D2D495B1E227CACF1010CE6
:104320001835091DA0F5007080B2521ECCF3080CA0
:1043300007EA034340EA0C00184306EA026210430E
:1043400028600868626920F44060104308600A68C9
:10435000A06922F4007202430A60281D0A6822F450
:1043600080720A6002684FF6F873E4699A4342EA81
:10437000C40202600868B9F1000F40F480720A605C
:1043800011D00868B9F1010F11D040F080700860B9
:10439000D8F80000444640F08050C8F80000FCF710
:1043A00001FC05460DE0086840F48000EFE740F4AA
:1043B0000000ECE7FCF7F6FB401B022801D90320C4
:1043C0008DE720688000F5D5504688E728440258DC
:1043D0000020FFF781B830B585B0044637204FF490
:1043E00080720DF1080CCDE900100023694615011B
:1043F00020468CE82C0000F073FB372141F2883214
:10440000204600F0F9F905B030BD30B585B004465E
:1044100029204FF480720DF1080CCDE90010002323
:104420006946150120468CE82C0000F059FB204617
:1044300000F09EFA05B030BD30B50446102085B0BE
:104440000DF1080C02010502CDE9001000236946B8
:104450008CE82C00204600F043FB102141F288320A
:10446000204600F0C9F905B030BD30B585B004462E
:1044700006204FF480720DF1080CCDE900100023E6
:104480006946150120468CE82C0000F029FB062126
:1044900041F28832204600F0AFF905B030BD00008F
:1044A00030B585B00546002469464FF4805000942D
:1044B00001940294CDE90340284600F011FB0B4A19
:1044C0004FF4FA5041F288311268B2FBF0F04843E1
:1044D000401E03D24FF0004005B030BD696B0906A5
:1044E000F6D503492046A963F6E70000140000242E
:1044F000C500200030B50821044685B04FF4D570C2
:104500004A0100234D028DE82F006946204600F045
:10451000E7FA204600F096FA05B030BD30B585B018
:10452000044612204FF480720DF1080CCDE9001002
:1045300000236946150120468CE82C0000F0D0FAD3
:10454000122141F28832204600F056F905B030BD04
:1045500030B585B0044611204FF480720DF1080C7F
:10456000CDE9001000236946150120468CE82C0097
:1045700000F0B6FA112141F28832204600F03CF9F1
:1045800005B030BD30B585B0044607204FF48072C9
:104590000DF1080CCDE900100023694615012046F5
:1045A0008CE82C0000F09CFA072141F2883220466A
:1045B00000F022F905B030BD10B585B004460021E9
:1045C00002204FF44072C3020493CDE90010CDE9FC
:1045D00002216946204600F083FA204600F09EF949
:1045E00005B010BD30B585B0044609200DF1080CAA
:1045F0000023CDE900104FF4407269464FF4805516
:1046000020468CE82C0000F06BFA204600F086F97A
:1046100005B030BD10B585B00446002133204FF4FD
:104620008072CDE90221CDE90010130169462046D0
:10463000049300F055FA332141F28832204600F00D
:10464000DBF805B010BD30B585B004460D204FF441
:1046500080720DF1080CCDE90010002369461501A8
:1046600020468CE82C0000F03BFA0D2141F2883204
:10467000204600F0C1F805B030BD30B585B00C461D
:104680000021054603204FF48072CDE90221CDE9D7
:104690000010130169462846049300F021FA032113
:1046A0002246284600F088F905B030BD10B585B027
:1046B000044600210D204FF48072CDE90221CDE99E
:1046C0000010130169462046049300F009FA0D21F9
:1046D00041F28832204600F08FF805B010BD00008E
:1046E00010B585B004464FF4807200200C211301F0
:1046F0008DE80700CDE90303E06840F08000E0604A
:10470000E06820F04000E0606946204600F0E8F9EB
:10471000074A0C21204600F06FF8E168B0F1007FF5
:1047200021F08001E16000D1002005B010BD000043
:1047300000E1F50530B585B0044606204FF48072DF
:104740000DF1080CCDE90010002369461501204643
:104750008CE82C0000F0C4F9062141F28832204692
:1047600000F04AF805B030BD30B585B004461920D8
:104770004FF480720DF1080CCDE90010002369465A
:10478000150120468CE82C0000F0AAF9192141F20D
:104790008832204600F030F805B030BD30B585B025
:1047A000044618204FF480720DF1080CCDE900107A
:1047B00000236946150120468CE82C0000F090F992
:1047C000182141F28832204600F016F805B030BDBD
:1047D00070B50A6842624A688262C46AD1E90225F9
:1047E000D1E9043624F0FF012A4333431A4311432D
:1047F000C162002070BD000030B5464D4FF4FA5341
:10480000434C2D68B5FBF3F353435B1E02D24FF0CC
:10481000004030BD426B2242F7D09204F5D4426B87
:10482000520703D504218163084630BD426BD2078D
:1048300002D00121816306E0354A80328263026939
:10484000D2B28A4201D0012030BD002100F02AF905
:104850003149084201D1002030BD002802DA4FF072
:10486000007030BD410001D5402030BD810001D530
:10487000802030BDC10002D54FF4807030BD0101F1
:1048800002D54FF4007030BD410102D54FF4806075
:1048900030BDC10102D54FF4006030BD010202D528
:1048A0004FF4805030BD410202D54FF4005030BD6E
:1048B000810202D54FF4804030BDC10202D54FF4D1
:1048C000004030BD410302D54FF4003030BD8103BC
:1048D00002D54FF4802030BDC10302D54FF4002033
:1048E00030BD010402D54FF4801030BD410402D523
:1048F0004FF4001030BD810402D54FF4800030BD6C
:10490000000702D54FF4000030BD4FF4803030BDB9
:10491000450020001400002408E0FFFD124B4FF476
:10492000FA5141F288321B68B3FBF1F15143491E41
:1049300002D24FF000407047426B12F0450FF6D0A4
:104940009204F4D4416B490703D5042181630846DE
:104950007047416BC90703D0012181630846704746
:10496000024981630020704714000024C500200024
:104970000F4B4FF4FA5141F288321B68B3FBF1F14F
:104980005143491E02D24FF000407047426B12F073
:10499000450FF6D09204F4D4416B490703D50421A6
:1049A0008163084670470349816300207047000017
:1049B00014000024C500200030B5204D4FF4FA53F8
:1049C00041F288342D68B5FBF3F363435B1E02D2DA
:1049D0004FF0004030BD446B14F0450FF6D0A404F6
:1049E000F4D4436B5B0703D504218163084630BDD3
:1049F000436BDB0702D00121816303E00369DBB273
:104A00008B4201D0012030BD0D498163002100F0AF
:104A100049F810F4604F04D0410406D54FF400501B
:104A200030BD000C1080002030BD000402D54FF4D2
:104A3000805030BD4FF4803030BD000014000024A1
:104A4000C5002000144B4FF4FA5141F288321B6824
:104A5000B3FBF1F15143491E02D24FF000407047C1
:104A6000426B12F0450FF6D09204F4D4416B490723
:104A700003D50421816308467047416BC90703D001
:104A80000121816308467047416B490601D54021E9
:104A9000816300207047000014000024006800F0CB
:104AA00003007047084440697047000030B5114367
:104AB0004268DDE903542B43034D194321432A4047
:104AC0000A434260002030BD002CC0FF016841F065
:104AD0000301016000207047D0F88000704700009B
:104AE00070B5084D0A688260C368D1E90126D1E932
:104AF00003412B4032430C4322431343C360002045
:104B000070BD0000C0E0FEFF0968C0F88010002002
:104B10007047000010B5064C012020700020FBF704
:104B20006DFC18B9207820F001002070207810BDAD
:104B30002C0000242DE9F04F87B00D460446FCF709
:104B400031F80026069020680821B3463746FFF763
:104B500073FC002833D1B4F8441020680904FFF72F
:104B60003AFC00282BD1431E4FF008094FF0020AEF
:104B70004FF0300C4FF00108CDF80CA08DE8081272
:104B8000CDE9046820686946FFF722FE2068FFF738
:104B900041FD002813D140F22A582068416B11EAE8
:104BA000080F06D1416B090315D4BBF1000F09D0E2
:104BB00011E0416B090717D5C0F83890082007B0FD
:104BC000BDE8F08FFFF788FF06462068FFF784FFF7
:104BD00007464FF0010BFBF7E5FF0699401A401C12
:104BE000DBD14FF00040EAE7416B890703D5C0F8FD
:104BF00038A00220E3E7416B890603D520218163B9
:104C00000846DCE7034A39BA33BA82630020C5E9B3
:104C10000013D4E73A0F001870B58CB0044600209A
:104C2000ADF82C00FBF7BEFF05462068FFF736FF06
:104C3000002853D0A06B032841D02068FFF7BCFCAC
:104C4000002849D120680021FFF72CFFE0660421ED
:104C50002068FFF727FF206708212068FFF722FF61
:104C600060670C212068FFF71DFFA16BA067032977
:104C700025D041F2883600BFBDF82C0088B3A06B68
:104C800003281CD0BDF82C10616420680904FFF7CC
:104C9000A9FC002820D120680021FFF703FFE06570
:104CA00004212068FFF7FEFE206608212068FFF738
:104CB000F9FE60660C212068FFF7F4FEA06604216F
:104CC0002068FFF7EFFE000D694620642046FEF7DE
:104CD00097FAA8B14FF080500CB070BD4FF08060D3
:104CE000FAE7FFE720680BA9FFF7C7FC0028F3D11C
:104CF000FBF758FF401BB042BED34FF00040EBE73C
:104D0000B4F8441020680904FFF73CFCE4E7000015
:104D1000224910B5884286B03ED12148016841F44D
:104D200080310160006800F4803005901C480C3030
:104D3000016841F004010160016801F0040105917E
:104D4000016841F00801016000680221012200F0C1
:104D50000800059003230C244FF4F8508DE81F0041
:104D600010486946FBF7FCFD042000900E48694698
:104D7000FBF7F6FD0A485838016841F480310160BC
:104D8000016821F48031016000220E213120FBF7FF
:104D900081FF3120FBF770FF06B010BD6C100024BE
:104DA000D444025800080258000C02582DE9F84F6C
:104DB000002604463546B04600960068FFF770FBB3
:104DC000002829D12068FFF795FBB0F1004F4FF084
:104DD00001094FF0805B4FF6FF7702D0C4F83C909A
:104DE00008E0E6632068FFF75BFB002814D1E06B66
:104DF00001281ED120680021FFF7EDFA58B918E00C
:104E000020680021FFF7E7FA002805D12068514605
:104E1000FFF7FBFA10B15846BDE8F88F2068002173
:104E2000FFF740FE4FEAD07805460098401C0090FE
:104E300002E0DFF828A00098B84202D2B8F1000FD3
:104E4000DED00098B84202D34FF08070E4E76800EB
:104E5000A66301D5C4F838900020DDE7000010C13A
:104E60002DE9F04186B00D460446FBF79BFE00217C
:104E700007462068FFF716FE800104D54FF4006056
:104E800006B0BDE8F08120684021FFF7D5FAC0B92F
:104E9000B4F8441020680904FFF79DFA88B940214E
:104EA0004FF0FF3060224FF0010C022300268DE806
:104EB0004F1020686946FFF78BFC2068FFF7F6FB70
:104EC00098B1616B6163DBE7406B000407D5002696
:104ED0002068FFF701FE761C082E01C5F8D3FBF70A
:104EE00061FEC01B401C02D127E04FF00048206843
:104EF000416B11F4957FE7D0416B090701D508207C
:104F0000BEE7416B890701D50220B9E7406B8006F7
:104F10000AD52020B4E700BFFFF7DEFD01C5FBF78F
:104F200041FEC01B401C08D02068416BC904F3D46B
:104F30000146034888630020A2E74046A0E700003E
:104F40003A0F00182DE9F04F9BB00F46002504469C
:104F500040216846FBF706FA0026FBF723FE804651
:104F6000A06DE0B3FF285FD92068C56240212068AA
:104F7000FFF762FA002838D112AB4FF00209401E49
:104F80004FF0010A4021602283E80702CDE9165A5A
:104F9000206812A9FFF71CFC20683946FFF7CAFBFE
:104FA000050022D140F22A5B21684A6B12EA0B0FFE
:104FB0001ED1486B00040BD500272068FFF78CFD3D
:104FC00007EBC6027F1C082F4DF82200F5D3761C94
:104FD000FBF7E8FDA0EB0800401CE5D100E00DE088
:104FE0004FF00040606384F830A01BB0BDE8F08F44
:104FF000486B000705D50820886315E04FF08060F6
:10500000F3E7486B800701D5484603E0486B80060C
:1050100002D520208863E8E7044888639DF80D00E6
:10502000800701D44FF080552846DEE73A0F00187C
:1050300070B5074C0546012020700020FBF7EEF903
:1050400018B92846FFF766FD2070207870BD000073
:105050002C000024164810B58AB014460078C0070A
:1050600002D003200AB010BD39B1012907D00229AE
:105070000CD0032912D00420F4E70020F2E700202E
:105080006946FBF7ABF9069900200EE0002069465F
:10509000FBF7A4F9079900202180E3E70020694687
:1050A000FBF79CF907990020490A2160DAE7000024
:1050B0002C00002410B501240020FBF7DDF928B9ED
:1050C0000020FBF79BF90028FAD10024204610BDF0
:1050D000FFF720BD10B501240020FBF7E5F928B942
:1050E0000020FBF78BF90028FAD10024204610BDE0
:1050F00070470178407841EA00207047FBF758BDBF
:10510000F0B5CDB04C2130A8FBF72CF9202143A8F5
:10511000FBF728F9C0216846FBF724F90220FCF7C9
:105120000BFA3A4900243A480A6822F001020A6060
:105130000A68026842F440420260026802F4404297
:105140004B9202689204FCD5324A136843F0020382
:105150001360126802F002024B92026842F440426D
:10516000026002680A6842F001020A60096801F000
:1051700001014B9101688904FCD5FCF707FAFBF7A4
:105180000BFD2449843901220B68022008252526BD
:10519000C70323F018030B6005213292CDE9306775
:1051A0003AAF3692C0233990042687E80B00CDE948
:1051B0003D06CDE940543F9030A84294FDF732FCC3
:1051C00008B172B6FEE740204A903F210301CDE9C5
:1051D00046500322CDE9480343AB43A883E81600B9
:1051E0000421FDF70FFA08B172B6FEE700210A4864
:1051F0001F941494CDE900016846FCF72DFD0028AA
:1052000001D072B6FEE74DB0F0BD00002C0400588E
:1052100018480258F4440258010001802C48F0B5A7
:105220002C4A016841F470010160106800F00F0021
:10523000072804D2106820F00F00C01D1060264916
:105240000020254C10340B68244D43F001030B6003
:1052500020600B682B400B60136803F00F03072BD3
:1052600004D9136823F00F03DB1D13601A4C1C4A8A
:1052700018341C4B261D371D2060174C1A4D28343E
:105280003060261D3860371D23603B1D35601C1DB6
:105290003A60251D2E1D1860331D22602860326083
:1052A00018600A680C4B114C22F4802260330A60AB
:1052B000186020686FF30F00B0F1005F03D20C4953
:1052C0000120C1F8080143F2D2000A490860F0BD8C
:1052D00088ED00E000200052004402587FEDF6EA1D
:1052E00080020101000202020000FF010010005CC8
:1052F000008000510040005230B5416EB9B10168E4
:105300000D4B03F108048A688968C2F34262490FB1
:105310005D5C615C2D01B5FBF1F1A0F86A10995C50
:10532000A25C0901B1FBF2F1A0F8681030BD0121C7
:10533000A0F86A10F8E70000B28B000890F8281077
:10534000C90706D00168C36A4A6822F400321A43CA
:105350004A6090F82810890706D50168036B4A68EF
:1053600022F480321A434A6090F82810490706D583
:105370000168436B4A6822F480221A434A6090F81D
:105380002810090706D50168836B4A6822F4004299
:105390001A434A6090F82810C90606D50168C36B05
:1053A0008A6822F480521A438A6090F8281089068D
:1053B00006D50168036C8A6822F400521A438A6099
:1053C00090F82810490611D50168436C4A6822F408
:1053D00080121A434A60416CB1F5801F06D1016802
:1053E000836C4A6822F4C0021A434A6090F828107D
:1053F000090606D50168C26C486820F400201043F5
:10540000486070472DE9F84300250446C0F89050E5
:10541000FBF7C8FB8046206820266FF07E470068B7
:10542000000713D50022434631042046009700F0C0
:105430003FFA58B1216851E8000F20F0800041E8A0
:105440000002002AF6D1C4F8886021E020680068D4
:10545000400722D5002243464FF4800120460097A2
:1054600000F026FAC8B1206850E8001F21F49071BE
:1054700040E80012002AF6D12068083050E8001FEA
:1054800021F0010140E80012002AF5D1C4F88C6037
:10549000032084F88450BDE8F883C4F88860C4F819
:1054A0008C60E5662567002084F88450F3E70000EF
:1054B00010B5026852E8001F21F4907142E8001311
:1054C000002BF6D10E4B0268083252E8001F19403B
:1054D00042E80014002CF6D1C16E012908D10268FF
:1054E00052E8001F21F0100142E80013002BF6D112
:1054F00000212022C0F88C20C166416710BD000049
:10550000FEFFFFEF2DE9F04304468068D84E87B0D8
:10551000D84B2168D4E90427D4F81CC010430A688A
:10552000002547EA0C073843324002430A602068EE
:10553000E268416821F44051114341602268A16949
:105540009A4201D0206A01439768DFF82CC3CB4E02
:10555000CB4807EA0C070F4397602168676ACA6A5D
:1055600022F00F023A43CA622268B2420ED10068AA
:1055700000F03800182873D047DCB8B3082879D079
:1055800010286FD178E028287ED17BE0BD498A427F
:1055900009D1006800F00700062875D2DFE800F0A6
:1055A000546A6C6E7072B8498A4209D1006800F082
:1055B0000700062868D2DFE800F0475D5F61636599
:1055C000B2498A4209D1006800F0070006285BD280
:1055D000DFE800F03A5052545658AD498A420BD198
:1055E000006800F0070006284ED200E010E0DFE877
:1055F00000F02B4143454749A6498A420AD1006839
:1056000000F03800182839D0B7DD2028BBD13CE0A5
:1056100001203AE0A0498A4209D1006800F0070061
:10562000062831D2DFE800F01026282A2C2E9B49CC
:105630008A420BD1006800F00700062824D2DFE878
:1056400000F003191B1D1F2100201EE09A421BD1F0
:105650008B48001D006800F00700062814D202E005
:105660000CE007E010E0DFE800F0030507090B0D90
:1056700002200AE0042008E0082006E0102004E0F0
:10568000202002E0402000E080208549DFF81482DD
:105690009A42854A4FF400434FEA21174FF0000623
:1056A0004ED110281AD006DC022809D004280BD0CD
:1056B00008287CD10DE020283ED0402877D13DE05D
:1056C000FBF76CFF014610E06846FCF71DF80199F6
:1056D0000BE003A8FCF7BAF8049906E0106880060E
:1056E00005D51068C0F3C100C140002970D0606AC0
:1056F000676838F8102007EB4703B1FBF2F08342EC
:1057000055D8B0EB073F52D8002308461946FAF7A0
:10571000DFFD02467808130E120243EA0121101839
:105720003A4671410023FAF7D3FD604AA0F5407173
:1057300091423CD821688FE03946D8E71946D6E730
:10574000D4F81CC04FF6EF799C4546D1082819D0F3
:1057500005DC58B101280CD0042875D10DE01028C3
:1057600015D0202835D040286ED134E0FDF79AF8C6
:1057700001E0FDF7A9F8014610E06846FBF7C4FF19
:1057800001990BE003A8FCF761F8049906E01068A2
:10579000800604D51068C0F3C100C140C1B1636A7E
:1057A000606838F81330B1FBF3F1490000E04BE0DA
:1057B00001EB5001B1FBF0F0A0F11001494543D8D5
:1057C0004FF6F0732168C0F342021840104343E0E3
:1057D00043E03946E3E71946E1E7082819D005DC3C
:1057E00058B101280CD004282ED10DE0102815D076
:1057F00020282BD0402827D12AE0FDF753F801E0DC
:10580000FDF762F8014610E06846FBF77DFF01995D
:105810000BE003A8FCF71AF8049906E0106880066C
:1058200004D51068C0F3C100C140B1B1636A6068BB
:1058300038F81330B1FBF3F101EB5001B1FBF0F09C
:10584000A0F11001494505D9012506E03946EDE7EB
:105850001946EBE7216880B2C8600120A4F86A000D
:10586000A4F8680028466667A66707B0BDE8F0831D
:10587000F369FFCF000C0058FFF4FF110010014046
:10588000544402580044004000480040004C00408E
:10589000005000400014014000780040007C0040AF
:1058A0000090D0039A8B000800440258FFFC0F00C0
:1058B0002DE9F047994617460E460446089D4FF0DD
:1058C00000082FE0681C2DD0FBF76CF9A0EB090055
:1058D000A84214D89DB120680168490722D5C16942
:1058E000C94309070DD4082505622046FFF7E0FDEE
:1058F000C4F89050012084F88480BDE8F08703202C
:10590000FBE7C069C04300050CD421684FF4006078
:1059100008622046FFF7CCFD2021C4F8901084F8DF
:105920008480ECE72068C06936EA000004D00020DB
:10593000B842C7D00020E0E70120F9E710B5D0F861
:10594000B82200245268904700B10324204610BDBD
:10595000002070470020704713460A46002110B50A
:1059600000F0C4F9002010BD13460A46002110B50E
:1059700000F05DFA002010BD10B58021044600F053
:1059800040FA2046BDE81040002100F03ABA10B5B8
:105990000521C0F8941200231A46194600F0A6F912
:1059A000002010BD10B582610223C0F89432C2619C
:1059B00013460A46002100F03AFA002010BD10B547
:1059C0000421C0F8941200231A46194600F02FFA59
:1059D000002010BDF8B504460D460020ADF80000CB
:1059E0004888010A062947D006DC01290FD0022980
:1059F00012D0032962D11DE0072946D00F295DD1BD
:105A0000D4F8B402C26920E0694690473BE0D4F87C
:105A1000B412207C0A68F7E7207C02260028D4F81C
:105A2000B80205D0C16A684688470146467036E02C
:105A3000816AF8E7C0B2062840D2DFE800F0030927
:105A40000D111519D4F8B4024268B2B3207CDBE71B
:105A5000D4F8B4028268F8E7D4F8B402C268F4E774
:105A6000D4F8B4020269F0E7D4F8B4024269ECE772
:105A7000D4F8B4028269E8E7207CF0B9D4F8B8021F
:105A8000416B68468847014609E0207CA8B9D4F8F4
:105A9000B802016B68468847014607204870EA88CB
:105AA0008AB1BDF8000040B1824200D902462046CA
:105AB000ADF80020FFF776FFF8BDFFE72946204646
:105AC000FFF75AFFF8E72046FFF779FFF4E70100F8
:105AD0004FF0000004D0012901D0022901D0032099
:105AE00070470120704710B5D0F8C802FBF72FF9B6
:105AF000BDE81040FFF7EBBF2DE9F0411746044623
:105B00004FF0000521B194F89C02032842D04CE0EC
:105B1000D4F8941204F11400022935D1D0E90263BB
:105B20009E4206D9F21A394682602046FFF71CFFD2
:105B30000FE0B34214D14068984211D3D4F89812C0
:105B400088420DD2002220461146FFF70DFFC4F80F
:105B5000985200231A461946204600F0C7F813E071
:105B600094F89C02032808D1D4F8B802C16821B186
:105B7000C4F8D452C168204688478021204600F0EE
:105B800040F92046FFF703FF94F8A00268B184F8BB
:105B9000A0520AE0D4F8B802426932B1C4F8D45233
:105BA000426920469047002800D10020BDE8F081DE
:105BB00070B5134604464FF0000221B194F89C02E0
:105BC000032830D03AE0D4F8941204F5AA700329DF
:105BD00034D1D0E902518D420AD96A1A826008464E
:105BE000824200D3024619462046FFF7B5FE25E063
:105BF00094F8AA0210F01F0003D0012802D0022856
:105C000000D0002294F89C02032808D1D4F8B802EE
:105C1000016921B1C4F8D422016920468847204691
:105C2000FFF7CDFE0AE0D4F8B802836933B1C4F8B7
:105C3000D422826920469047002800D1002070BD00
:105C40000020704710B5D0F8B812012280F89C22CD
:105C5000002429B103794A68D9B2904700B10324DE
:105C6000204610BDD0F8C82201F07F000B0600EBE3
:105C7000C00002EB800002D590F83E00704790F81B
:105C80007E02704710B5D0F8D42200EB8202D2F821
:105C9000B82222B190F89C32032B02D004E00320FA
:105CA00010BD126A02B19047002010BD10B5D0F8A7
:105CB000D42200EB8202D2F8B82222B190F89C32B2
:105CC000032B02D004E0032010BD526A02B19047BA
:105CD000002010BD10B51C46D0F8C802134622465D
:105CE000FBF763F8BDE81040FFF7F1BE10B5D0F840
:105CF000C802FBF78AF8BDE81040FFF7E8BE2DE9BF
:105D0000F041044601250020D4F8B812064684F874
:105D10009C52C4F894026060C4F8A40284F8A00203
:105D200031B14A6822B100212046904700B10326D4
:105D30002046002240231146FFF7CCFF4027A4F85D
:105D4000645100223B4680212046C4F86071FFF771
:105D5000C1FFA58430462762BDE8F08190F89C120F
:105D6000042903D190F89D1280F89C1200207047FE
:105D700010B590F89C12032905D1D0F8B81211B1D2
:105D8000C96901B18847002010BD01740020704727
:105D900010B5D0F8C802FBF79BFBBDE81040FFF739
:105DA00096BE70B5044600F2AA20054600F048F8F9
:105DB00094F8AA020123B4F8B01210F01F02C4F83C
:105DC0009432C4F898120AD0012A0ED0022A12D0B6
:105DD00000F080012046BDE8704000F012B829466E
:105DE0002046BDE8704000F0A9B829462046BDE82D
:105DF000704000F0ECB929462046BDE8704000F044
:105E000034B910B5D0F8C802FBF719F8BDE8104056
:105E1000FFF75DBE90F89C12042903D090F89C1205
:105E200080F89D12042180F89C120020704710B564
:105E3000D0F8C802FBF73DF8BDE81040FFF747BEB9
:105E400070B5054608788C1C287048786870204624
:105E5000FFF74FF9A41C68802046FFF74AF9A88095
:105E6000A01CFFF746F9E88070BDD0F8B8320246B2
:105E70000020002B02D01B68104618477047000016
:105E80002DE9F0412C4E0446887800258846C1B2A1
:105E90000129317006D941462046FFF76DFD0320E8
:105EA000BDE8F08194F89C02022702280CD0032858
:105EB0001DD041462046FFF75FFD31782046FFF7B1
:105EC0003DFD03252846EBE789B320466160FFF7D7
:105ED000CCFF050004D041462046FFF74DFD1DE0F4
:105EE0002046FFF76CFD032084F89C02EAE7C1B16D
:105EF000606888421BD0C1B22046FFF71FFD317891
:105F000020466160FFF7B1FF050010D041462046F2
:105F1000FFF732FD21792046FFF710FD84F89C72CF
:105F2000D0E7616084F89C722046FFF707FD2046A9
:105F3000FFF745FDC6E700001C0000242DE9F041F5
:105F40000A784FF0000512F060020CD0202A01D030
:105F5000402A7DD1D0F8D42200EB8202D2F8B822B8
:105F60009268904731E04B78002201260A2B6FD2CD
:105F7000DFE803F041666E586E08056E2D29FFF7C5
:105F800029FD67E004468888D8B9C888C8B9488818
:105F9000802816D294F89C2200F07F07032A10D0A4
:105FA0003946204684F89E72FFF7F2FE2046FFF73E
:105FB00006FD1FB1022084F89C024BE084F89C622D
:105FC00048E0204644E0FFF75BFF054642E0CB880F
:105FD000012B3DD190F89C32012B04D0022B02D032
:105FE000032B35D104E000F108018260012216E0A4
:105FF0000122011D13E090F89C22012A03D0022AFD
:1060000001D0032A24D1CA88022A21D1D0F8A412AF
:10601000C66009B10321C160022200F10C01FFF743
:10602000C1FC17E04A88012A02D0022A03D00FE0FF
:10603000C0F8A46216E08988090A80F8A01211E06D
:1060400090F89C32012B08D0022B06D0032B04D0F1
:10605000FFF792FC2846BDE8F08149880129F9D173
:10606000C0F8A422FFF7ABFCF4E72DE9F0410A7871
:106070000E460979054612F060004FF00008CCB2D8
:106080000BD0202801D040286AD121462846FFF7AE
:106090005FFCFF2800D0D8B396E07078C8B3012821
:1060A00024D003285CD195F89C02022802D0032852
:1060B00056D10CE0002C53D0802C51D021462846DC
:1060C000FFF79FFE80212846FFF79BFE7CE070884B
:1060D00040B93CB1802C05D0F08818B9214628463B
:1060E000FFF78FFE2846FFF76AFC6DE095F89C02EB
:1060F0000228DFD0032863D1708880BB600603D0FC
:1061000021462846FFF7EFFC2846FFF758FCBCE77E
:1061100000E00AE0C5F8D402D5F8B8028268F2B10E
:1061200031462846904780464EE095F89C0200276D
:10613000022802D0032843D113E00CB1802C3FD1B8
:10614000200604F07F0000EB800005EB800101D504
:10615000143101E001F5AA7102220F602CE033E056
:106160002EE0200604F00F0000EB800005EB80001D
:1061700009D5808C20B304F07F0000EB800005EB94
:10618000800614360AE0B0F86401C8B104F07F005C
:1061900000EB800005EB800606F5AA764CB1802C5A
:1061A00007D021462846FFF75DFD10B10120306081
:1061B00000E03760022231462846FFF7F3FB03E098
:1061C00031462846FFF7D8FB4046BDE8F08170B560
:1061D000054608780E464FF0000410F0600003D02A
:1061E000202801D0402827D195F89C02012803D00F
:1061F000022801D003281FD1B088C1B201291AD8C2
:10620000C1B22846FFF7A6FBFF280CD058B9D5F835
:10621000B8128A683AB1C5F8D40228468A6831466D
:106220009047044600E00324F088204307D1284625
:10623000FFF7C5FB03E031462846FFF79DFB2046EC
:1062400070BD000070B54D7801230A78012D1C4CFB
:1062500002F00F0503FA05F3D0F81C5817D000EB35
:10626000421245EA0343C0F81C38D2F8000B000480
:106270000BD40B890979D2F8000BC3F30A03184336
:1062800044EA81410843C2F8000B002070BD9EB271
:106290003543C0F81C5800EB4213D3F80009000442
:1062A000F3D40D890979D3F80009C5F30A058904E7
:1062B000284341EA825108432043C3F80009E4E738
:1062C00000800010D0F800196FF30A01C0F800191F
:1062D000D0F8041841F48071C0F804180020704709
:1062E00010B5144C036CA34203D9D0F8003B002B2B
:1062F0001EDB0023C0F8103B0129D0F8101B41F42D
:106300000021C0F8101BD0F8101B41F01801C0F894
:10631000101BD0F8101B41F0C041C0F8101B07D172
:10632000C0F8142BD0F8001B41F08021C0F8001BEE
:10633000002010BD0A30544F0B784A78012A00EB38
:1063400043100BD0D0F8002B22F40012C0F8002B21
:106350000979032914D0022912D017E0D0F80029B6
:1063600022F40012C0F800290979032901D002297A
:106370000CD1D0F8001941F08051C0F8001905E0A7
:10638000D0F8001B41F08051C0F8001B002070477E
:106390000A784B78D1B2012B00EB421012D0D0F822
:1063A000002B002A06DB29B1D0F8001B21F0804128
:1063B000C0F8001BD0F8001B41F40011C0F8001B0E
:1063C00000207047D0F80029002A06DB29B1D0F858
:1063D000001921F08041C0F80019D0F8001941F4EB
:1063E0000011C0F80019EBE7F8B50B786FF06046C4
:1063F0004F788A4DDCB2012F00EB43132BD0D3F83A
:10640000107B002C07EAC544C3F8104BD3F8104B9F
:1064100004EA0504C3F8104B7ED00D69002D7CD032
:106420008C6825446D1EB5FBF4F5ADB26C430C626F
:1064300006EAC545D3F8104B2C43C3F8104BD3F8EC
:10644000104B0D6AC5F3120554EA0504C3F8104B4E
:10645000012A6ED0C9E00F6937B3D3F810796FF312
:106460001207C3F81079D3F8107907EA0507C3F8C3
:1064700010794CB30F698D68D3F810C92F447F1E73
:10648000B7FBF5F506EAC54545EA0C05C3F8105912
:106490000E69D3F81059C6F312063543C3F81059E4
:1064A0000D79012D1CD027E0D3F810692E40C3F8D8
:1064B0001069D3F8105945F40025C3F81059D3F8E2
:1064C00010596FF3120515E00E698D68AE4200D9C0
:1064D0000D61D0F8106946F40026C0F81069D7E7BE
:1064E000D3F8105925F0C045C3F81059D3F8105906
:1064F00045F00055C3F81059012A1BD000EB441396
:10650000D3F8004944F00444C3F800490C79012C45
:1065100031D00A6972B301E042E055E00B78D0F85F
:106520003418012203F00F039A401143C0F83418C5
:1065300071E056E0CA691AB100EB4413C3F814299C
:10654000097901290ED1D0F80818C90500EB4411CA
:10655000D1F8002902D442F0005201E042F080520A
:10656000C1F8002900EB4410D0F8001941F00441B3
:10657000C0F800194FE0D0F80848E405D3F8004906
:1065800002D444F0005401E044F08054C3F80049C0
:1065900000920B8A0A78C9689BB200F093F93AE03E
:1065A0000C690CB18C680C618C680C62C4F3120528
:1065B000D0F8104B2C43C0F8104BD0F8104B44F4DB
:1065C0000024C0F8104B43E78D68D3F8104BC5F397
:1065D00012052C43C3F8104BD3F8104B44F400249D
:1065E00034E7CA680AB1C3F8142B097901290CD120
:1065F000D0F80808C005D3F8000B02D440F00050D2
:1066000001E040F08050C3F8000BD3F8000B40F0DD
:106610000440C3F8000B0020F8BD0000FFFF07E0B6
:1066200038B5002242F21074002300920A784D78A7
:10663000012D00EB421219D0D2F8005B002D3CDA9C
:10664000D2F8005B45F00065C2F8005B0A7800EB09
:106650004212D2F8005B45F08045C2F8005B009A18
:10666000521C0092A24221D9012326E0D2F80059FF
:10667000002D22DAD2F8005945F00065C2F8005921
:106680000A7800EB4212D2F8005945F08045C2F872
:106690000059009A521C0092A242E5D80A7800EBF9
:1066A0004212D2F80029002AF3DB06E00A7800EB58
:1066B0004212D2F8002B002AD1DB184638BD000068
:1066C00018B50E4A00230093009C641C0094944269
:1066D0000CD80469002CF7DA2024009344EA8111D5
:1066E00001610099491C0091914201D9032018BD14
:1066F00001698906F5D4002018BD0000400D030093
:10670000D0F8080810F0060004D0022803D00628AC
:1067100001D00F20704702207047406900F001004F
:106720007047D0F81818D0F81C08084080B270479D
:10673000D0F81818D0F81C080840000C704710B5A5
:10674000D0F8102801F00F0300EB4114D0F83418F2
:10675000D4F80809D94001F0010142EAC11108400A
:1067600010BD00EB4111D1F8081BD0F81408084007
:10677000704741698069084070470346084630B554
:10678000940802F00301002203F5805303E01D6822
:10679000521C40F8045BA242F9D300290CD01C68BB
:1067A0000023491EDD00090403F10103090C24FA4A
:1067B00005F200F8012BF4D130BDD0F800284FF4D9
:1067C000FE6303EA011322F4FE62C0F80028D0F849
:1067D00000181943C0F8001800207047022A3ED163
:1067E000264A274B0A449A4201D20F2138E0254A13
:1067F000254B0A449A4201D20E2131E0234A244B10
:106800000A449A4201D20D212AE0224A224B0A442C
:106810009A4201D20C2123E0204B214A0B4493429F
:1068200001D20B211CE01F4B1F4A0B44934201D2A3
:106830000A2115E01D4B1E4A0B4493420FD31D4BFA
:106840001D4A0B44934201D2082109E01B4B1C4A0C
:106850001944914201D2072102E0062100E00921FA
:10686000C2684FF4705322F47052C26003EA81236D
:10687000C1681943C160002070470000405327FFE2
:1068800000350C00401E1BFF40420F0000DC0BFFD8
:10689000804F1200808CF9FE20D6130060B6E5FE12
:1068A00060E3160000D3CEFE40771B00C05BB3FE52
:1068B000C091210000CA91FE20753800E05459FEB5
:1068C000E09C410010B5029C74B900EB0232DB1C65
:1068D00000209B0802F5805204E000BF51F8044BF1
:1068E0001460401C9842F9D3002010BDFEE7000060
:1068F0000FB4054B10B503A9044A029800F028F81C
:1069000010BC5DF814FB0000458500083000002431
:10691000090700284FEA116104DB00F1E02080F84C
:106920000014704700F00F0000F1E02080F8141D03
:10693000704702E008C8121F08C1002AFAD1704748
:106940007047002001E001C1121F002AFBD17047EF
:106950002DE9FF4F8DB09B460F460446002606E00A
:1069600025280BD05A460F999047641C761C207836
:106970000028F5D111B03046BDE8F08F0025A846BB
:106980000122984900E0054314F8013F203B02FA38
:1069900003F00842F7D120782E2817D114F8010F00
:1069A00045F004052A280ED06FF02F022078A0F1C0
:1069B000300109290AD808EB880102EB410100EBFC
:1069C0000108641CF2E757F8048B641C20786C28DB
:1069D0000DD004DC4C2812D06A2811D104E07428B0
:1069E0000DD07A280CD10AE045F4001507E0617853
:1069F00045F48015814202D1641C05F58015641CA4
:106A00002278692A45D008DC002AB3D0582A69D0F8
:106A1000632A10D0642A08D13BE0702A67D0732A19
:106A200013D0752A5CD0782A5CD010465A460F994C
:106A30009047761CD3E017F8040B8DF80000002077
:106A40008DF80100E946012003E057F8049B4FF060
:106A5000FF3069074FF0000501D40AE06D1C454581
:106A60000DDA8542FADB19F805100029F6D106E0A7
:106A70006D1C8542FCDB19F805100029F8D12E4465
:106A800004E019F8010B5A460F9990476D1EF8D291
:106A9000A5E00A200021CDE90801C5F30250022833
:106AA0000DD001CFC117031E71F100030DDA4FF0B5
:106AB000000CD0EB0C006CEB01012D2308E0FF1D56
:106AC00027F00707F7E80201EDE72B0504D52B2394
:106AD0008DF8283001233BE0EB0739D02023F7E77E
:106AE0000A2000E010200021CDE9080107E0102075
:106AF000002145F00405CDE908014FF00808C5F371
:106B0000025002280FD001CF00214FF0000A2B07BE
:106B10001FD5702A0DD0DDE908C38CF0100C5CEA9B
:106B2000030C0CD015E0FF1D27F00707F7E8020162
:106B3000EBE740228DF828204FF0010A0BE050EAE5
:106B4000010306D030238DF828308DF82920022348
:106B50009A46582A04D024A20DF120090B9209E08C
:106B600026A2F9E7DDE90823F9F7B2FB0B9B9B5C52
:106B700009F8013D50EA0102F4D1ADEB09002030E3
:106B80000890680701D44FF001080899884502DD94
:106B9000A8EB010000E000208046002506E00AA8DE
:106BA0005A46405D0F9990476D1C761C5545F6DBA3
:106BB00004E030205A460F999047761CB8F1000146
:106BC000A8F10108F5DC05E019F8010B5A460F9908
:106BD0009047761C0899481E08900029F4DC641C34
:106BE000C5E600000928010030313233343536372C
:106BF0003839616263646566000000003031323309
:106C000034353637383941424344454600000000A8
:106C100010B504460022501EE2706063204601F069
:106C200024FE08B1042010BD04F2362001F091FDCD
:106C3000A0F52A41553901D0032010BD94F8380041
:106C4000E92805D0EB2813D194F83A0090280FD109
:106C5000032208A104F16E0001F0E8FD0028ECD049
:106C6000052205A104F18A0001F0E0FD0028E4D02E
:106C7000022010BD4641540046415433320000000A
:106C800000E0401C02780AB18A42FAD1D0B27047C3
:106C9000C269891E921E8A4201D800207047026B89
:106CA000408900FB012070472DE9F05F0C468246C9
:106CB00001F11A0001F04DFD78BB20780127002674
:106CC000DFF8609000F03F004FF6FF7B401E00EBC6
:106CD000800101EBC00500BF19F80600204401F057
:106CE00038FD80466FB1FF2D17D201F061FA0746DB
:106CF0003AF815006D1C01F05BFA87420DD147464A
:106D000001E0D84509D1761C0D2EE5D32078400648
:106D100006D52FB13AF8150010B10020BDE8F09F5C
:106D20000120FBE7D28B00082DE9F04106680F0037
:106D3000804606D001F05AFC022809D20120BDE8A5
:106D4000F081746914B1F069A04207D8012405E00C
:106D5000411CF4D0F1698142F1D83C46B069002869
:106D6000EDD0BC4216D1F069651CA84200D80225BE
:106D70004046294601F03AFC0128E0D0411CDED013
:106D800038B17069022805D3F169814202D90446FD
:106D900000E0ADB92546F0696D1CA84203D8022C6D
:106DA0004FF002050AD32946404601F01FFC38B1D6
:106DB0000128C4D0411CC2D0A542ECD10020BEE7BE
:106DC0004FF0FF3429462246304601F067FD30B9C6
:106DD0005FB12A463946304601F060FD28B10128EE
:106DE00000D0012425462846A9E7D6E906017561A9
:106DF000891E884201D8401EB061307940F0010000
:106E00003071F0E72DE9F84F88460168002482468A
:106E10002546D8F800600F69705D6D1C202812D3DC
:106E20002F280BD05C2809D0FF2C03D2814600F01C
:106E300009F978B10620BDE8F88F6D1C715D2F2926
:106E4000FBD05C29F9D07119C8F80010202816D29F
:106E5000042520E040F2B511484601F075F95FEADB
:106E60000009E7D0B9F1800F05D201466FA0FFF706
:106E700007FF0028DED127F81490641CCCE700251A
:106E800009E000BF07EB440030F8020C202801D0D5
:106E90002E2802D1641E002CF4D10020002C27F8EB
:106EA0001400C7D00B2220210AF1200001F0D6FCEB
:106EB000002600E0761C37F816002028FAD02E288D
:106EC000F8D01EB145F0030500E0641E2CB107EBBD
:106ED000440030F8020C2E28F7D14FF000094FF093
:106EE000080BCDF8009000BF37F8160006F1010638
:106EF0005FEA000824D0B8F1200F04D0B8F12E0FBB
:106F000004D1A64202D045F00305EDE700985845AC
:106F100001D2A64219D1BBF10B0F0FD0A64201D06E
:106F200045F003050CD84FEA896126464FF008006A
:106F30004FF00B0B4FEA11690090D5E745F00305C0
:106F40009AF82000E5284DD04FE0B8F1800F404678
:106F50000DD345F0020540F2B51101F00DF9804660
:106F6000000604D5344908F07F0011F80080B8F11C
:106F7000FF0F404612D90099ABF10100814204D3C2
:106F800045F00305CDF800B0AEE7009851444FEA54
:106F90001822401C009081F820201BE0B8F1000F5F
:106FA00004D0014625A0FFF76BFE18B15F2045F025
:106FB00003050EE0A8F14100192802D849F00209A2
:106FC00008E0A8F16100192804D8413080B249F0E6
:106FD00001098046009A00995244491C009182F8A8
:106FE000208081E705218AF82010BBF1080F03D12A
:106FF0004FEA89604FEA1069C9F38100032803D082
:107000006FEA0901890701D145F00205A90709D4F2
:1070100009F00301012901D145F01005012801D132
:1070200045F008058AF82B50002004E7222A3A3C54
:107030003E3F7C7F00000000DF8B00082B2C3B3D97
:107040005B5D0000002800D0002070472DE9F04172
:107050000D46044601F064FDF8B929462046FFF7C5
:1070600017FE0646606304F13800A2890021054638
:1070700001F0F4FB0127A846002500E03D446089AB
:10708000A84207D9607872193B46414600F03AFAA7
:107090000028F3D06089A84202D00120BDE8F08129
:1070A0000020FBE72DE9F047D0F8009000210546CD
:1070B00000F0A8F9002852D1471EEF62FF24A04635
:1070C000A969484601F0D1FB060047D1E969087873
:1070D00050B1CA7AE52802F03F02AA7136D01307F0
:1070E00004D50F2A32D105E0042637E00F2A01D05B
:1070F000E4B120E095F82B20520629D4420606D5AB
:1071000091F80D8000F0BF002B690446EB62A042AD
:1071100009D14A7B424506D1D9F81000FFF7C4FDDA
:1071200008B1641E00E0FF24E4B211E0084601F05B
:10713000A5FC404512D095F82B00C00706D1E869A0
:107140000B2205F1200101F071FB38B1FF24EF6241
:107150000021284600F005F80600B1D03046BDE811
:10716000F0872DE9F0470446076980698946203792
:10717000266810B1B7F5001F02D30420BDE8F087E0
:10718000B189B7FBF1F201FB127191BB6169401C3F
:107190004FF00008A06129B3B0897289B7FBF0F005
:1071A000521E104230D1204601F020FA0128054637
:1071B00022D9681C14D0F069A8421FD8B9F1000F79
:1071C00014D061692046FFF7AFFD050012D0012DF4
:1071D00012D0681C04D029463046FFF737FF68B14B
:1071E0000120CBE73089B0EB571F0DD8C4F81880C9
:1071F000C3E709E00720C1E70220BFE72946304680
:107200006561FFF745FDA0612761B089B7FBF0F12B
:1072100000FB117030443830E0610020AEE7000020
:107220002DE9F04F044690F82B008FB010F0A00F1E
:10723000D4F8009003D006200FB0BDE8F08FD9F845
:107240001000002500E06D1C30F815100029FAD15F
:107250000C2204F12001029108A801F0F5FA9DF832
:107260002B00C00719D0402084F82B000126D9F844
:107270001020029808A9334601F070F92046FFF764
:1072800011FF10B9761C642EF1D3642E0FD00428A0
:10729000D2D19DF82B0084F82B009DF82B0080079D
:1072A00007D50D200C35B5FBF0F56D1C02E007206D
:1072B000C2E7012527680021204600F0A3F888B91D
:1072C0000026A169384601F0D0FA58B9E069007883
:1072D000E5280AD048B1002620460121FFF741FFEA
:1072E0000028EED0042812D012E0761C2846AE42C8
:1072F000F2D1451E0B9567D02169684201EB401120
:10730000204600F07FF85FEA000803D076E007200F
:10731000804673E0029801F0B1FB4FF6FF7B0C90C2
:10732000A169484601F0A1FA5FEA000866D10B990D
:107330000F23D4F81C80C9B20391D9F810100C980F
:107340000591002188F80D0008F11A0088F80B302B
:1073500088F80C1001F08EFB03990027DFF8A0A03D
:10736000491E01EB810202EBC10601E05D4503D03D
:10737000059830F81650761C1AF8071001EB080033
:10738000294601F077FB05B95D467F1C0D2FEDD333
:107390005D4505D0059830F8160008B1039803E064
:1073A000039840F04000039088F80000012000217D
:1073B00089F803002046FFF7D4FE5FEA00081DD1DC
:1073C0000B98401E0B90ABD1A169484601F04DFAD5
:1073D0005FEA000812D1E0692022002101F03EFAA4
:1073E000E0690B22029901F02FFAE269012094F87A
:1073F0002B1001F01801117389F8030040461BE7B8
:10740000D28B00082DE9F0410468B1F5001F0F464A
:1074100006463CD2F8063AD1B568376125B92078DE
:10742000032806D3E56A25B16089A18900FB01F82C
:1074300012E02089B0EB571F29D9E06A12E03046EC
:1074400001F0D4F80546401C1FD0022D1FD3E0697F
:10745000A8421CD9A7EB080729464745EFD220468A
:10746000FFF716FCC6E9055088B1A189B7FBF1F119
:107470000844B061A089B7FBF0F100FB1170204413
:107480003830F0610020BDE8F0810120FBE70220E8
:10749000F9E700000849002210B50B5C4BB9012246
:1074A0000A5401EB800208445168007B0968884750
:1074B0000246104610BD0000A8180024044B30B44A
:1074C00003EB800418446368007B1B6930BC1847D9
:1074D000A818002430B4054C04EB800520446C68E7
:1074E000007BA468A44630BC60470000A8180024B4
:1074F000034901EB800208445168007B4968084752
:10750000A818002430B4054C04EB800520446C68B6
:10751000007BE468A44630BC60470000A818002443
:1075200038B5044600F0F7FC002807D1694620462C
:1075300001F019FB002801D10021216038BD2DE99F
:10754000F74386B014460022894606A8694600F033
:107550006FFE5FEA000856D1009820600098D0E9DD
:107560000617BA1E914202D8C9F800104BE0017804
:107570000025012902D0866A002418E00224019027
:1075800001A8214601F032F8411C03D0012803D0A4
:1075900028B105E0012000E0022080462BE06D1CB0
:1075A0000098641CC0698442EAD324E03CB9009886
:1075B0003146761C01F059F95FEA00081BD10098AA
:1075C0000178204400F13800022904D001F0B6F817
:1075D000000106D006E001F0BCF800B96D1CA41C47
:1075E00001E06D1C241D00987F1E8089B4FBF0F122
:1075F00000FB1144DAD1C9F8005000988561017987
:1076000041F00101017109B04046BDE8F08300007E
:107610002DE9FF4F91B01D4611A814468B461E9EC2
:1076200001F05BF8002803DA0B2015B0BDE8F08FFD
:10763000FE4951F8201009B100220A70C0B204902E
:10764000FFF728FFC10701D00320EEE7400701D56F
:107650000A20EAE7049803210EAAFFF72FFF38B9A2
:107660000E9828B1B0F5004F02D8411E084201D053
:1076700001200E900498022106AAFFF71FFF0028A0
:1076800072D1BDF81800A0F50071B1F5606F6BD82C
:10769000411E0842F4D124B184423AD3B4F1807F30
:1076A00037D8611E0C4234D1B6FBF0FAB4FBF0F7C8
:1076B0002C460AFB00F1109100296ED0049801219C
:1076C0000AAAFFF7FBFE0028DAD14FEA0B710A98ED
:1076D0006FEAA1114FEA916948455ED3A0EB09001A
:1076E0000A90802859D3802F13D85FEA8B714FF608
:1076F000F57240F6F57E07D50BF0070102297CD024
:107700005FEACB7179D002E05FEACB7101D002264B
:10771000A2E0132089E73D000ED10021C44B0125D2
:107720004FEA504C01E06D00491C33F81180B8F16C
:10773000000F01D0E045F6D9B0FBF5F1BDF81830E7
:107740004FF0200CCDF808C04FF0000CCDF81CC055
:10775000914203EB810C0CF1070CBCFBF3F81CD934
:10776000B44B994219D830E05EE1B14B00214FEAA9
:10777000103C0E3B012501E06D00491C33F81180DF
:10778000B8F1000F01D0E045F6D9B0FBF5F1714535
:1077900004D9042303EB410307E070E0032301262F
:1077A00001EB4101491C03EB5103BDF818104FF4E4
:1077B00080484FF0010C0B44CDF808C05B1EB8FBAD
:1077C000F1FCB3FBF1F8CDF81CC0032E029B09EBD2
:1077D00003010D9101EB080C07990E9B6144A3F185
:1077E000010C0B44A3F1010323EA0C03A3EB0103F7
:1077F00019D0984401EB051300E033E0A3EB090135
:1078000081423CD80299431A0799A3EB0803A3EBE2
:107810000101B1FBF5F1032E0F910ED0022E13D012
:10782000012E2AD02DE0DDF808C09C44CDF808C018
:10783000DDF834C063440D93DCE7914221D8F7B9F9
:107840006F087FF468AF1AE0914211D93FB9402127
:10785000B1EB450F03D36F003D0096D185E75FEA9A
:107860008B7107D5032656E76F00802FF4D906E009
:10787000714506D8002FF7D001E0714501D90E20DF
:10788000D3E6BDF818200021204600F0E7FF0B22C8
:10789000204669A100F0D8FFBDF8181004F10B00D4
:1078A00001F0E8F86573029881B204F10E0001F06E
:1078B000E1F801202074032E0ED0410204F11100E2
:1078C00001F0D8F80A99B1F5803F07D289B204F1E6
:1078D000130001F0CFF805E00021EFE704F12000EC
:1078E00001F0C0F8F82060753F2104F1180001F0A4
:1078F000C1F8FF2104F11A0001F0BCF804F11C00EA
:10790000494601F0AFF88027032E27D000F0E3FEB0
:10791000014604F1270001F0A5F81FFA88F104F1EF
:10792000160001F0A7F8292084F82470132284F8A7
:10793000260044A104F12B0000F086FF04F5FF703F
:107940004AF655210C9001F095F8049801234A4617
:107950002146FFF7D7FD002866D124E000F0BBFEEA
:10796000014604F1430001F07DF804F12400414692
:1079700001F078F8022104F12C0001F073F80121E4
:1079800004F1300001F076F8062104F1320001F034
:1079900071F8292084F84070132284F842002EA147
:1079A00004F14700C8E7032E33D10498012309F1FD
:1079B00006022146FFF7A6FDBDF81820002120464B
:1079C00000F04CFF2949204601F04CF8284904F505
:1079D000F27001F047F80F9904F5F470491E01F0B8
:1079E00041F8022104F5F67001F03CF80C984AF6D3
:1079F000552101F03FF80498012309F107022146BF
:107A0000FFF780FD0498012309F101022146FFF7E9
:107A100079FD109A0021204600F020FF0D98032EDA
:107A20006FF00701029025E084E0000024000024AC
:107A30006E8C0008F5FFFF0FEBFE904D53444F5343
:107A4000352E30004E4F204E414D452020202046FF
:107A500041542020202020004E4F204E414D4520F3
:107A600020202046415433322020200052526141D0
:107A70007272416102D0012E0DD00DE0204600F05F
:107A8000F1FF201D4FF0FF3100F0ECFF6FF070416F
:107A900004F1080001E04249204600F0E3FF4746B8
:107AA0005046574500D83846029A80460346049807
:107AB0002146FFF727FDE8BBBDF81820002120462E
:107AC00000F0CCFE0298B7EB080740440290E7D1E3
:107AD000032E00D0079D5046554501D9074600E0CA
:107AE0002F46029A04983B462146FFF70BFD08BB40
:107AF0000298ED1B38440290EDD1032E05D00A9870
:107B0000B0F5803F03D3062604E00C2602E0022EE7
:107B100039D001265FEA0B7037D4BDF81820002158
:107B2000204600F09BFE0C984AF6552100F0A2FF7B
:107B3000002000E031E004F5DF7543F6C162012169
:107B4000FE232870E8706970A9703F212E710A9E8B
:107B50006B7109EB0600B0FBF2F041EA9001A971EC
:107B60004946E87105F1080000F07CFF0A9905F12B
:107B70000C0000F077FF0498012300222146FFF754
:107B8000C1FC50B901E00426C4E700220498114664
:107B9000FFF794FC00283FF458AD012045E50000B4
:107BA000F8FFFF0017B581B01446029800906846B0
:107BB00000F093FD002802DA0B2004B010BD0A4A41
:107BC000002352F8201001B10B70019901B10B7024
:107BD00042F820102CB1002201A902A800F028FBD5
:107BE000EBE70020E9E70000240000242DE9F7433B
:107BF0000500ADF50E7D0BD002F03F0669468FA85B
:107C0000324600F015FB04004FF0000805D0C7E035
:107C100009200DF5117DBDE8F08300980DA90190B4
:107C2000016101A88F9900F04FFC040004D19DF878
:107C30002F00000600D5062416F01C0F48D04CB1CA
:107C4000042C03D101A8FFF7EBFA044646F008061E
:107C50005CB1A5E09DF80A0010F0110F01D00724D7
:107C60009EE0700701D508249AE030073FD50899B7
:107C7000009800F050FD074600F02DFD01460898E1
:107C80000E3000F0EFFE089920200022C8720899FB
:107C9000009800F0D3FE089800211C3000F0E2FEAE
:107CA00000990120C87007B3D1F83490002201A8D0
:107CB000394600F089FE040072D10098494600F070
:107CC000D4FD04000098A7F1010747610BD067E0DD
:107CD000D4BB9DF80A00C10601D5042460E0B107B9
:107CE00001D5C007BBD1300701D546F0400600984A
:107CF000416B296208996962089900F00CFDA8603F
:107D000008981C3000F01AFDE8604FF4805200988B
:107D1000286005F1280000998146C988A9800021C2
:107D20002E7485F81180C5F81C80C5F8148000F009
:107D300095FDB00636D5EE68A6B36E610098A968C9
:107D40004789808947430FE02AE0284600F04EFC2F
:107D50000128014600D80224481C02D0F61B1CB1A1
:107D600004E00124F61B01E0BE42EED8A961BCB9D3
:107D700000988289B6FBF2F302FB136292B1FEF720
:107D800087FF010010D0009801238289B6FBF2F230
:107D90000A44EA6140784946FFF79CFB10B1012490
:107DA000C5F80080204634E70224F9E72DE9FE4FAC
:107DB000154699460022044688461A6002A900F03A
:107DC000D2FE002812D1607C00280FD1207CC00791
:107DD0000BD062690127E16804F1280B4FF0020A19
:107DE000881A854200D9054690E00720BDE8FE8F3D
:107DF000029960698A89B0FBF2F302FB1303002B3E
:107E000065D1B0FBF2F64989491E0E4009D128B36D
:107E1000A169204600F0EAFB022821D3411C51D081
:107E2000A061A1690298FEF733FF010018D0029803
:107E3000314401918189B5FBF1F1009149B3009A78
:107E4000418932448A4201D9891B009140784146D8
:107E5000DDE90032FFF73EFBA0BB05E0A068DBE7F1
:107E6000022084F811A0C1E7207C00060CD5E1694E
:107E70000198081A0099884206D202998A895946BF
:107E800000FB028000F0E0FC0298868900984643DF
:107E900032E0E26901998A4217D0217C090609D5AE
:107EA000407801235946FFF72DFB58B9207C00F09C
:107EB0007F00207402980123019A59464078FFF709
:107EC00009FB10B10120677490E70198E061029806
:107ED00061698089B1FBF0F200FB1212861AAE4292
:107EE00000D92E46B1FBF0F200FB12103246011908
:107EF0004046283100F0A8FCD9F80010AD1BB04472
:107F00003144C9F80010606930446061002D7FF48D
:107F10006FAF00206AE7F8B50446694600F023FE1B
:107F200000280ED1217C4A060BD508060ED50098F4
:107F30000123E26904F128014078FFF7E3FA08B170
:107F40000120F8BD207C00F07F00207400F0C3FB0E
:107F5000216A0646009800F088FC0028F1D1656A85
:107F60002946E87A40F02000E872A268206800F014
:107F700065FDE16805F11C0000F074FD05F11600D7
:107F8000314600F06FFD002105F1120000F072FD96
:107F900000980121C17000F07FFD217C01F0BF013C
:107FA0002174F8BD2DE9FE4F16469946002204467D
:107FB00088461A6002A900F0D6FD002806D1607C30
:107FC000002803D1207C800702D40720BDE8FE8F63
:107FD0006069012704F1280B4FF0020A811900D3D0
:107FE000C643A7E0029A60699189B0FBF1F301FBF7
:107FF0001303002B74D1B0FBF1F55289521E1540CA
:1080000012D108B1A16902E0A06828B90021204678
:10801000FEF78AFE00287DD0012830D0411C59D0BF
:10802000A168A06101B9A060207C00060BD5029870
:108030000123E26959464078FFF764FAC8BB207C07
:1080400000F07F002074A1690298FEF721FEB0B114
:108050000299284401908889B6FBF0F0009048B35B
:10806000009A48892A44824201D9401B00904878EE
:108070004146DDE90032FFF745FAD0B903E00220BE
:1080800084F811A0A2E7E1690198081A00998842D2
:108090000AD202998A8900FB0281584600F0D4FB7B
:1080A000207C00F07F002074029885890098454369
:1080B0002FE00FE0FFE7E269019882420ED0E2680C
:1080C000606990420AD248780123019A5946FFF725
:1080D00001FA18B10120677478E701E00198E061C6
:1080E000029861698089B1FBF0F200FB1212851AD7
:1080F000B54200D93546B1FBF0F200FB12102A461A
:1081000041462044283000F09FFB207C40F0800056
:10811000207400E011E0D9F80010761BA84429442F
:10812000C9F80010606928446061E168884200D89D
:108130000846E060002E7FF455AF207C40F0400000
:108140002074002042E700000A4B80284FF0000214
:1081500010B501D202460BE0A1F58074B53C07D101
:10816000FF2805D803EB4000A0F58050B0F8002FA1
:10817000104610BD7C8C00080C4B802802464FF046
:10818000000010B501D2104610BDA1F58074B53CB9
:1081900004D010BD401C80B2802803D233F81010E8
:1081A0009142F7D18030C0B210BD00007C8C000835
:1081B00030B5B0F5805F01D21B4900E01B4931F8B2
:1081C000022B002A15D0904213D331F8024B52FAF9
:1081D00084F5230A8542E4B221D9092B09D2DFE8CC
:1081E00003F005090E11131517191B00801A31F839
:1081F000100030BD811A01F00101401A00E0103872
:1082000080B230BD2038FBE73038F9E71A38F7E79D
:108210000830F5E75038F3E7A0F5E350F0E7002B1E
:10822000CDD101EB4401CAE77C8D00086E8F0008B8
:108230002DE9FF41002790460E460F6000F04DFAF1
:10824000050003D50B2004B0BDE8F0819A4850F832
:1082500025409CB1346008F0FE06207820B160789B
:10826000FFF746F9C1070BD02770B846E8B2607037
:10827000FFF710F9C10708D00320E4E70C20E2E77C
:108280000EB1400704D40020DDE71EB1400701D540
:108290000A20D8E76078022104F10C02FFF70EF9FA
:1082A000F0BBA089A0F50071B1F5606F40D8411E08
:1082B00008423DD1002720463946FEF7A9FC022896
:1082C00022D100254FEA0D0604EB051090F8FA11B3
:1082D00000F5FB7019B1083000F030FA00E0002022
:1082E00046F825006D1C042DEED3002556F82570A8
:1082F00037B139462046FEF78BFC022801D203E055
:1083000003206D1C042DF1D3042811D0022861D262
:1083100004F1430000F01DFAA18988427AD100E0FF
:1083200006E004F14E0000F014FA010002D006E06D
:10833000012088E704F15C0000F000FA014694F89F
:1083400048602162012EA67001D0022E62D14E43F8
:1083500094F845006081E8B3411E08425AD104F107
:10836000490000F0F6F9A18920814909B0FBF1F23A
:1083700001FB120070BB04F14B0000F0EAF90500AC
:1083800004D104F1580000F0D9F9054604F1460083
:1083900000F0DFF902003DD0A0899119238940093E
:1083A000B3FBF0F001448D4234D360896D1AB5FB04
:1083B000F0F078B1DFF804C10025604500D803254E
:1083C0004FF6F57C604500D8022540F6F57C604507
:1083D00003D800E01EE0012500E0DDB13A44801C36
:1083E00039442163E061032DC4E9097214D08BB1D3
:1083F0009119E162022D20D000F0010100EB400054
:1084000001EB5000A189401E226A0844B0FBF1F044
:10841000904214D90D2016E704F1620000F099F99A
:108420000028F7D120890028F4D104F1640000F07D
:1084300085F9E169E0628800E4E74000E2E74FF097
:10844000FF31A16180206161032D20712CD104F1E5
:10845000680000F07EF9012826D1791C204600F042
:1084600004FA08BB04F2362084F8048000F071F9A5
:10847000A0F52A41553917D104F1380000F05EF912
:108480000F49884210D104F5077000F057F90D49E3
:10849000884209D104F5087000F050F9A06104F594
:1084A000097000F04BF9606103492570091F0888C5
:1084B000401C0880E080E6E624000024F5FFFF0F62
:1084C000525261417272416173B505680446019868
:1084D00001E0401C019001782F29FAD05C29F8D0E6
:1084E0000020A06001980078202807D2802084F81E
:1084F0002B0000212046FEF785FF7CBD01A9204608
:10850000FEF780FC0028F8D12046FEF7CBFD94F85A
:108510002B1028B10428F0D14907EED405207CBDEA
:108520004907FCD4A079C006F8D5A9892069B0FB19
:10853000F1F201FB120041192846383100F0EBF846
:10854000A060DBE713B50448642301226946FBF70A
:108550006BFC00981CBD0000E81000242DE9FC41D4
:108560001C4615460B22074600F06EF9052C11D962
:108570001D4A0CE00021AD1C23460446400863F36D
:108580005F04E30300D55440491C1029F4D3288824
:108590000028EFD107256E4604F00F00303039284F
:1085A00000D9C01D70552409A5F10105F4D17E2024
:1085B000A5F10108705506E0FEF744FD10B14445F1
:1085C00006D0641C641CAC4202D2385D2028F3D172
:1085D000082D02D2705D6D1C00E020203855641C0F
:1085E000082CF5D3BDE8FC81211001002DE9F041F4
:1085F000046802290D460BD3E069A84208D9207807
:108600004FF0FF36012807D0022835D003284AD082
:1086100001263046BDE8F081A08905EB5507A16A27
:10862000B7FBF0F00144204600F01FF90028F0D11C
:10863000A08907F10108B7FBF0F100FB1171B8FB4D
:10864000F0F0214491F83870A16A0144204600F00E
:108650000CF90028DDD1A089E907B8FBF0F200FB96
:108660001280204490F8381047EA012001D0060912
:10867000CFE7C0F30B06CCE7A189A06A4908B5FB98
:10868000F1F10144204600F0F0F80028C1D1A089A2
:108690006900B1FBF0F200FB12102044383000F00A
:1086A00058F80646B5E7A189A06A8908B5FBF1F13B
:1086B0000144204600F0D9F80028AAD1A089A900D9
:1086C000B1FBF0F200FB12102044383000F036F815
:1086D00020F070469DE70020704710B503680446FF
:1086E0004FF0FF30002B13D01A4600E0521C1178D7
:1086F00020290ED33A29F9D113F8011B3039092961
:1087000006D8934204D1022902D2521C08462260A4
:1087100010BD002010BD70B50D46064601F11A00CF
:1087200000F017F804463078032805D105F114004D
:1087300000F00FF844EA0044204670BD8378427888
:108740000178C07843EA002042EA002041EA002094
:1087500070470178407841EA00207047304B002094
:108760001968890311D4BFF34F8FBFF36F8F2D4961
:108770000860BFF34F8FBFF36F8F196841F400316A
:108780001960BFF34F8FBFF36F8F1968C90322D4ED
:10879000234970310860BFF34F8F081F43F6FF7401
:1087A0000068204D1035C0F34E31C0F3C90204EA11
:1087B0004116104646EA80772F60401EFAD2491EC5
:1087C000F5D2BFF34F8F186840F480301860BFF3C4
:1087D0004F8FBFF36F8FF8F7F3F9FCF791FCFBF7BE
:1087E0007DFBFBF7E1FBF7F79DFEF8F75DF8F7F788
:1087F00005FF0D4C4FF400564FF47A7531460122B7
:108800002046F8F7C3F92846F8F798F800223146D1
:108810002046F8F7BBF92846F8F790F8EEE7000095
:1088200014ED00E050EF00E0000802582DE9104080
:1088300010F8013B11F8014B521EA3EB040301D0C9
:10884000002BF5D0184610BD002A05D011F8013BC9
:10885000521E00F8013BF9D1704700005FFA81F128
:10886000521E00F8011BFBD1704770B50446406BE7
:1088700000260D46A8420FD0204600F051F9060010
:108880000AD16078012304F138012A46FEF722FE5E
:1088900008B1751E01266563304670BD2DE9F047AD
:1088A000022917460D4604464FF002067ED3E069C2
:1088B000A8427BD920784FF00109012804D0022872
:1088C00043D003287DD157E0A18905EB5508A26A62
:1088D000B8FBF1F081182046FFF7C7FF060070D102
:1088E000A2894046EE07B8FBF2F308F1010802FB4B
:1088F0001300204400F1380004D00178FAB262F38A
:108900001F1100E03946017084F80390A189A26A22
:10891000B8FBF1F081182046FFF7A7FF060050D101
:10892000A189EB07B8FBF1F201FB1280204400F1B2
:10893000380002D0C7F3071105E00178C7F303221E
:1089400001F0F0011143017039E0A189A06A4908E2
:10895000B5FBF1F101442046FFF787FF060030D157
:10896000A0896900B1FBF0F200FB1210B9B22044FB
:10897000383000F07FF822E0A189A06A8908B5FBB1
:10898000F1F101442046FFF770FF060019D1A089DC
:10899000AD00B5FBF0F100FB115020443830FFF77B
:1089A000CDFE67F31B000146A08900E009E0B5FB9E
:1089B000F0F200FB12502044383000F053F884F8F5
:1089C00003903046BDE8F0872DE9F04105680229A3
:1089D00013460E4607462DD3E869B0422AD93BB16B
:1089E0004FF0FF3219462846FFF758FF00281FD1E5
:1089F00031463846FFF7FAFD040018D0012C19D093
:108A0000601C19D0002231462846FFF747FF002896
:108A10000ED1D5E90610821E914205D22A79491C51
:108A2000A96142F001022A712646B042E0D8002036
:108A3000BDE8F0810220FBE70120F9E770B50C46A4
:108A4000154691B2064604F11A0000F013F830788A
:108A5000032806D1290C04F11400BDE8704000F091
:108A600009B870BD0A0A01704270110A81700A0AC1
:108A7000C27070470A0A01704270704701460020B8
:108A80000B2210B5440811F8013B04EBC010184448
:108A9000521EC0B2F6D110BD70B5044600F040F8C9
:108AA000050036D1207803282CD12079012829D13E
:108AB00004F13800A28900210646FFF7CFFE04F238
:108AC00036204AF65521FFF7D5FF13493046FFF708
:108AD000C9FF124904F50770FFF7C4FFA16904F547
:108AE0000870FFF7BFFF616904F50970FFF7BAFF6F
:108AF000626A01233146521C62636078FEF702FD10
:108B000000202071002260781146FEF7D7FC00B1EA
:108B10000125284670BD00005252614172724161C8
:108B200070B50446C078002548B104F1380160787A
:108B3000626B01230E46FEF7E5FC10B101252846C5
:108B400070BDA36A0020626B216AD31AE0708B4269
:108B5000F5D2A0780228F2D10A4460780123314688
:108B6000FEF7D0FCEBE770B504000E464FF00905A8
:108B70000CD0206850B1017841B1A188C2889142DF
:108B800004D14078FEF7B4FCC00703D00020306069
:108B9000284670BD20680025F9E7010002000400A6
:108BA000060008000A000C001000200040008000B1
:108BB000000101010103070100000804020408018B
:108BC0000101000000000102030401020304060782
:108BD000080901030507090E10121416181C1E803F
:108BE0009A45418E418F804545454949498E8F9030
:108BF00092924F994F555559999A9B9C9D9E9F4192
:108C0000494F55A5A5A6A7A8A9AAABACADAEAFB0D4
:108C1000B1B2B3B4B5B6B7B8B9BABBBCBDBEBFC0CC
:108C2000C1C2C3C4C5C6C7C8C9CACBCCCDCECFD0BC
:108C3000D1D2D3D4D5D6D7D8D9DADBDCDDDEDFE0AC
:108C4000E1E2E3E4E5E6E7E8E9EAEBECEDEEEFF09C
:108C5000F1F2F3F4F5F6F7F8F9FAFBFCFDFEFF008C
:108C600001000400100040000001000200000100AB
:108C7000020004000800100020000000C700FC00F3
:108C8000E900E200E400E000E500E700EA00EB00B4
:108C9000E800EF00EE00EC00C400C500C900E600EB
:108CA000C600F400F600F200FB00F900FF00D60059
:108CB000DC00A200A300A500A7209201E100ED00C6
:108CC000F300FA00F100D100AA00BA00BF0010239F
:108CD000AC00BD00BC00A100AB00BB0091259225FB
:108CE00093250225242561256225562555256325D2
:108CF000512557255D255C255B2510251425342538
:108D00002C251C2500253C255E255F255A2554254C
:108D100069256625602550256C256725682564250D
:108D2000652559255825522553256B256A25182573
:108D30000C25882584258C2590258025B103DF000E
:108D40009303C003A303C303B500C403A60398039E
:108D5000A903B4031E22C603B50329226122B10070
:108D60006522642220232123F7004822B000192223
:108D7000B7001A227F20B200A025A00061001A03CC
:108D8000E0001703F8000703FF000100780100016D
:108D9000300132010601390110014A012E01790129
:108DA000060180014D00430281018201820184019C
:108DB000840186018701870189018A018B018B016A
:108DC0008D018E018F019001910191019301940118
:108DD000F60196019701980198013D029B019C01C3
:108DE0009D0120029F01A001A001A201A201A401F6
:108DF000A401A601A701A701A901AA01AB01AC0129
:108E0000AC01AE01AF01AF01B101B201B301B301D9
:108E1000B501B501B701B801B801BA01BB01BC0188
:108E2000BC01BE01F701C001C101C201C301C401FF
:108E3000C501C401C701C801C701CA01CB01CA01EC
:108E4000CD011001DD0101008E01DE011201F301EF
:108E50000300F101F401F401F801280122021201DA
:108E60003A020900652C3B023B023D02662C3F02A0
:108E700040024102410246020A01530240008101C0
:108E80008601550289018A0158028F015A02900118
:108E90005C025D025E025F02930161026202940164
:108EA0006402650266026702970196016A02622CFB
:108EB0006C026D026E029C01700271029D017302D0
:108EC00074029F0176027702780279027A027B02AD
:108ED0007C02642C7E027F02A60181028202A9012B
:108EE0008402850286028702AE014402B101B2010A
:108EF00045028D028E028F0290029102B7017B0320
:108F00000300FD03FE03FF03AC0304008603880394
:108F100089038A03B1031103C2030200A303A3035D
:108F2000C4030803CC0303008C038E038F03D80310
:108F30001801F2030A00F903F303F403F503F6033F
:108F4000F703F703F903FA03FA033004200350048C
:108F50001007600422018A043601C1040E01CF0407
:108F60000100C004D00444016105260400007D1DF9
:108F70000100632C001E9601A01E5A01001F080666
:108F8000101F0606201F0806301F0806401F060691
:108F9000511F0700591F521F5B1F541F5D1F561F93
:108FA0005F1F601F0806701F0E00BA1FBB1FC81F7F
:108FB000C91FCA1FCB1FDA1FDB1FF81FF91FEA1FCB
:108FC000EB1FFA1FFB1F801F0806901F0806A01F3B
:108FD0000806B01F0400B81FB91FB21FBC1FCC1F6A
:108FE0000100C31FD01F0206E01F0206E51F01009B
:108FF000EC1FF31F0100FC1F4E21010032217021E4
:109000001002842101008321D0241A05302C2F0462
:10901000602C0201672C0601752C0201802C640172
:10902000002D260841FF1A030000000031500008FF
:10903000D1500008B5500008D55000085550000820
:10904000609000080000002434000000326900082D
:109050009490000834000024841C00004269000839
:1090600000000000000000000100000010000000EF
:10907000000000000090D0030090D003000000002A
:1090800000000000000000000000000001000000DF
:0490900000000000DC
:040000050800029954
:00000001FF
