:020000040800F2
:1000000038160020AD020008E77E00088D65000864
:10001000E57E00089508000849AF000800000000D0
:10002000000000000000000000000000DB96000857
:1000300031100008000000003382000859970008C2
:10004000C7020008C7020008C7020008C70200086C
:10005000C7020008C7020008C7020008C70200085C
:10006000C7020008C7020008C7020008C70200084C
:10007000C7020008C7020008C7020008C70200083C
:10008000C7020008C7020008C7020008C70200082C
:10009000C7020008C7020008C7020008C70200081C
:1000A000C7020008C7020008C7020008C70200080C
:1000B000C7020008C7020008C7020008C7020008FC
:1000C000C7020008C7020008C7020008C7020008EC
:1000D000C7020008C7020008C7020008C7020008DC
:1000E000C7020008C702000800000000C70200089D
:1000F000C7020008C7020008C7020008C7020008BC
:10010000C7020008AD880008C7020008C70200083F
:10011000C7020008C7020008C7020008C70200089B
:10012000C7020008C7020008C7020008C70200088B
:10013000C7020008C7020008C7020008C70200087B
:1001400000000000000000000000000000000000AF
:10015000C7020008C70200084D0B0008C7020008CC
:10016000C7020008C7020008C7020008C70200084B
:10017000C7020008C7020008AD0A0008C70200084D
:10018000C7020008C7020008C7020008C70200082B
:10019000C7020008C7020008C7020008C70200081B
:1001A000C7020008C7020008C7020008C70200080B
:1001B000C7020008C7020008C7020008C7020008FB
:1001C000C7020008C7020008C7020008C7020008EB
:1001D000C7020008E97E0008C7020008C70200083D
:1001E000C7020008C7020008C7020008C7020008CB
:1001F000C7020008C7020008C7020008C7020008BB
:10020000C7020008C7020008C7020008C7020008AA
:10021000C7020008C7020008C7020008C70200089A
:10022000C7020008C7020008C7020008000000005B
:10023000C7020008C702000800000000C70200084B
:10024000C7020008C7020008C7020008C70200086A
:10025000C7020008C7020008C7020008C70200085A
:10026000C7020008C7020008C7020008C70200084A
:10027000C7020008C7020008C7020008000000000B
:10028000C7020008C7020008C702000800000000FB
:1002900000000000C7020008DFF80CD000F048FAA8
:1002A0000048004779C300083816002006488047F8
:1002B00006480047FEE7FEE7FEE7FEE7FEE7FEE74B
:1002C000FEE7FEE7FEE7FEE77998000899020008DE
:1002D0002DE9F05F0546002092469B46884606467B
:1002E000814640241BE0284641464746224600F00E
:1002F00057F853465A46C01A914110D31146184632
:10030000224600F03EF82D1A67EB01084F462246C0
:100310000120002100F035F817EB00094E41201EA6
:10032000A4F10104DFDC484631462A464346BDE8D5
:10033000F09FD2B201E000F8012B491EFBD27047BA
:100340000022F6E710B513460A4604461946FFF7A1
:10035000F0FF204610BD30B50B460146002020229C
:10036000012409E021FA02F59D4205D303FA02F5C2
:10037000491B04FA02F52844151EA2F10102F1DC22
:1003800030BD202A04DB203A00FA02F10020704739
:100390009140C2F1200320FA03F3194390407047C3
:1003A000202A04DB203A21FA02F00021704721FACA
:1003B00002F3D040C2F12002914008431946704731
:1003C0002DE9FE4F804681EA0300C00F0C460090E5
:1003D00021F0004123F00045B8EB0200A94105D20D
:1003E0004046214690461C460B46024623F00040FC
:1003F000104347D0270DC7F30A00C3F30A510290F8
:10040000401A019040286BDAC3F3130040F4801BBC
:100410000098924620B10023D2EB030A63EB0B0B4A
:1004200001985946C0F140025046FFF7AAFF064620
:100430000D4650465946019A00F08CF910EB080021
:100440006141002487EA115284EAE7731A4340D0DD
:10045000009A62B3019A012A4FEA075215DC001B89
:1004600061EB02014FF0004202EA0752CDE900427F
:10047000001C41F5801132462B4600F08CF903B088
:10048000BDE8F08F40462146F9E7001B61EB020111
:10049000001C41F5801300185B412018A2F50017DD
:1004A00047EB030140EAD570B6196D4111E06D08C4
:1004B0004FEA360645EAC0754FEA0752001B61EB6A
:1004C0000201001C41F5801149084FEA3000001973
:1004D000514132462B4603B0BDE8F04F00F04CB915
:1004E0000098012240000023D0EB020263EBE0738E
:1004F000009821464FEAE074B8EB000061EB04017C
:10050000E9E783F000435BE781F0004158E72DE91C
:10051000FE4F81EA030404F0004421F000410094FE
:100520004FF0000B23F0004350EA01045ED052EA82
:1005300003045BD0C3F30A54C1F30A552C44A4F25C
:10054000F3340194A0FB0254C1F3130141F4801170
:10055000C3F3130343F4801301FB024400FB034E77
:10056000840A970A44EA815447EA8357A4FB076840
:1005700002958D0A05FB07854FEA932C04FB0C546A
:100580002705029D4FEA065847EA1637B5EB0805DE
:100590006EEB070C870E920E47EA811742EA831230
:1005A000A7FB0201B6EB0B0164EB00042B0D43EA41
:1005B0000C335E1844EB1C50DA465146E7FB02014F
:1005C000C5F313044FEA0B3343EA14534FEA0432E2
:1005D000019C43EA0603A4F10C040294009CCDE9BB
:1005E00000B400F0D8F803B0BDE8F08F0020014659
:1005F000F9E72DE9F04D81EA030404F0004B21F006
:10060000004514464FF0000A23F0004150EA05026D
:1006100020D054EA01021DD0C5F30A570246C5F3A3
:100620001303C1F31300C1F30A5640F4801543F4D9
:100630008013A7EB0608101BD64608F2FD3873EBB3
:10064000050002D308F1010801E092185B41B8F1FE
:10065000000F03DA00200146BDE8F08D00204FF4C2
:100660008011064684460EE0171B73EB050705D381
:10067000121B63EB050306434CEA010C49084FEAE1
:10068000300092185B4150EA0107EDD152EA0300B5
:1006900012D082EA040083EA0501084305D0101B4A
:1006A000AB4106D20122002306E000224FF00043B6
:1006B00002E06FF0010253101AEB06004CEB0851F8
:1006C00010EB0A0041EB0B01BDE8F04D00F054B80F
:1006D000C1F30A52C1F3130140F2FF3341F4801118
:1006E0009A4202DA00200146704740F233439A42B0
:1006F000A2F2334202DC5242FFF752BEFFF741BE84
:1007000030B5041E71F1000404DB4FF00044404298
:1007100064EB0101141E73F1000405DB1C464FF06D
:100720000043524263EB0403994208BF904230BD3C
:10073000064C074D06E0E06840F0010394E807002E
:1007400098471034AC42F6D3FFF7AAFDD84701080A
:10075000F8470108202A06DBCB17203A41FA02F0BD
:1007600043EAE07306E041FA02F3D040C2F120020E
:10077000914008431946704710B5141E73F10004E8
:1007800008DA401C41F1000192185B411A4301D183
:1007900020F0010010BD2DE9F04D92469B4611B1AD
:1007A000B1FA81F202E0B0FA80F220329046FFF70F
:1007B000E8FD04460F4640EA0A0041EA0B015346B1
:1007C0005A46084313D0114653EA010019D0C8F124
:1007D00040025046FFF7E4FD05460E465046594696
:1007E0004246FFF7CEFD084305D0012004E0204635
:1007F0003946BDE8F08D0020054346EAE0762C43FB
:1008000037430A986305E40AA0EB08000022FD0ABA
:1008100044EA47540A3002D500200146E9E70105C1
:1008200010196941DDE9084500196941BDE8F04D3D
:10083000A2E7000070B54FF0000508B1AD1E1CE046
:1008400000F020F8012802D06FF0060515E00C4CEE
:10085000204608F053FC204607F0CCFA6FF0030660
:1008600028B94FF48041204604F0F8FE08B135461F
:1008700003E00221204604F08FFE284670BD0000F0
:100880008C0A002010B16FF0010070470120704702
:1008900070477047FEE700007CB50C460546002017
:1008A00007F08EF8C4F178044DB1681E00EB4000EB
:1008B000400000EE100A0122B8EEC00A16E0012244
:1008C0008C2178209FED220A08F03AFF8C222146E5
:1008D000684600F04FFEDDE9000182B28BB28C2148
:1008E000782006F0A7FA9FED1B0A01228C217820C0
:1008F00008F026FF8C222146684600F03BFEDDE929
:10090000000182B28BB28C21782006F093FA05EBBD
:1009100045000122400000EE100A8C217820B8EE3C
:10092000C00A08F00DFF8C222146684600F022FE26
:10093000DDE900454FF47F4007F042F802B0ABB26A
:10094000A2B2BDE870408C21782006F073BA000096
:10095000000000000000B14300EB40002DE9FC4125
:1009600040000D4600EE100A002401228C21782060
:10097000B8EEC00A08F0E4FE8C226846C5F17801A2
:1009800000F0F8FD4FF47F47DDE90056384607F0E8
:1009900017F8B3B2AAB28C21782006F04BFA3220B5
:1009A00002F066FA002007F00BF8B3B2AAB28C216D
:1009B000782006F03FFA384607F002F8C4EB04103E
:1009C0000122400000EE100A8C217820B8EE400A87
:1009D00008F0B6FE8C2268461E2100F0CBFD8C226A
:1009E00068462821DDE9005600F0C4FDDDE900235A
:1009F000B1B2A8B29BB292B206F01CFA641CE4B287
:100A00000C2CDBD3BDE8FC8110B5806B816C496D8B
:100A1000022906D0012180F83510C16C41F0400157
:100A2000C16400F0F2FD10BD10B5816B0C468A6BFD
:100A3000886C0168CAB10A68A36B02F40022DB0764
:100A400006D12AB1C968E26B01EBC201002207E0BE
:100A50000A68120319D40969E26B01EBC201012291
:100A600000F0A4FFA06B401E0EE00868000302D552
:100A7000606CC86009E00868000306D4E26B606C33
:100A800000EB82000861206CA063A06B216C88429F
:100A90000BD12068C16841F00101C1602068006885
:100AA000800702D5012084F8350010BD014800F010
:100AB000C5BD00009800002070B507F06FFD07F07D
:100AC00021F907F049FA07F0BBFA07F0A9FAB0F5E7
:100AD000195F014609D0A1F51850423805D00EA083
:100AE0000AF034FA4FF0FF3070BD12A00AF02EFA6F
:100AF000154807F0FFF94FF496744FF4C875214676
:100B0000284607F0B9FAF02023464FF48C712A46A4
:100B100007F000FA002070BD4F56323634302045C1
:100B200052524F522121212121202049443A255857
:100B30000D0A00004F5632363430204F4B2C4944BA
:100B40003A307825580D0A00A6C50008014801F082
:100B5000EBBA0000E8000020294A016891423AD02F
:100B6000274A1832914236D0254A3032914232D04B
:100B7000234A483291422ED0214A603291422AD0F3
:100B80001F4A7832914226D01D4A9032914222D09B
:100B90001B4AA83291421ED01A4A91421BD0194AD0
:100BA0001832914217D0174A3032914213D0154A69
:100BB000483291420FD0134A603291420BD0114A11
:100BC0007832914207D00F4A9032914203D00D4AB9
:100BD000A832914211D1CAB21823103AB2FBF3F2F3
:100BE0006FF30901032A02F00703074AD25CC265CA
:100BF00000D9091D81650846704721F0FF01F9E71A
:100C00001000024010040240D645010830B5224AC7
:100C1000012301689142CAB21BD01F4C1434A14277
:100C200017D01D4C2834A14213D01B4C3C34A14298
:100C30000FD0194C5034A1420BD0174C6434A14250
:100C400007D0154C7834A14203D0134C8C34A14208
:100C50000CD11421114C083AB2FBF1F10F4A803249
:100C600001F01F0504EB8101AB4010E00C4D18248E
:100C7000103A0D44B2FBF4F1A82D00D80831094A0E
:100C800001F01F0402EB8101064AA340803260306C
:100C900080E80E0030BD0000085402580058025889
:100CA000F0FBFDBF0008024010B50279531E072B70
:100CB0002DD8174C0168A1421BD0154C1434A14209
:100CC00017D0134C2834A14213D0114C3C34A1420C
:100CD0000FD00F4C5034A1420BD00D4C6434A142C4
:100CE00007D00B4C7834A14203D0094C8C34A1427C
:100CF00003D10849074C443102E00749064C44310E
:100D000004EB8202C0E91B2101219940416710BD1B
:100D100008540258FC580258FC08024010B5836978
:100D20004FF0C074826A0146002053B1B3F5005FF2
:100D300015D072B1012A0CD0022A0AD0032A09D197
:100D400004E01AB1012A06D0022A03D1C96AC901F6
:100D500000D5012010BDC96AA142FAD010BD002AF9
:100D6000F7D0012AF2D0022AF3D0032AF3D010BD23
:100D700030B5254D0468AC4238D0234D1835AC420F
:100D800034D0214D3035AC4230D01F4D4835AC42C7
:100D90002CD01D4D6035AC4228D01B4D7835AC426F
:100DA00024D0194D9035AC4220D0174DA835AC4217
:100DB0001CD0164DAC4219D0144D1835AC4215D08C
:100DC000124D3035AC4211D0104D4835AC420DD0EB
:100DD0000E4D6035AC4209D00C4D7835AC4205D093
:100DE0000A4D9035AC4201D0084DA8356360836848
:100DF000402B036803D099600068C26030BD9A60E0
:100E00000068C16030BD00001000024010040240C4
:100E10002DE9F04F804E804FDFF8FC911836DFF857
:100E2000F8A148370468856D0AF1300ADFF8ECB1A3
:100E30004C45DFF8ECC1DFF8ECE16DD0B4426BD08B
:100E4000544569D0BC4267D0DFF8D081A8F11808BA
:100E5000444561D05C455FD064455DD074455BD04E
:100E6000DFF8C481444557D0DFF8BC8108F1180889
:100E7000444551D0DFF8B08108F1300844454BD0EB
:100E8000DFF8A48108F14808444545D0DFF898818F
:100E900008F1600844453FD0DFF88C8108F17808FC
:100EA000444539D0DFF8808108F19008444533D0BB
:100EB000DFF8748108F1A80844452DD0DFF86C8173
:100EC000444529D0DFF8648108F11408444523D053
:100ED000DFF8588108F1280844451DD0DFF84C811F
:100EE00008F13C08444517D0DFF8408108F150086C
:100EF000444511D0DFF8348108F1640844450BD033
:100F0000DFF8288108F17808444505D0DFF81C8116
:100F100008F18C08444509D1D0E91948C4F8048087
:100F2000C46E1CB1D0E91C48C4F8048004684C4568
:100F30002ED0B4422CD054452AD0BC4228D0374EB3
:100F4000183EB44224D05C4522D0644520D074457C
:100F50001ED0354EB4421BD0334E1836B44217D093
:100F6000314E3036B44213D02F4E4836B4420FD0F3
:100F70002D4E6036B4420BD02B4E7836B44207D09B
:100F8000294E9036B44203D0274EA836B44215D12C
:100F900090F85C603F2406F01F06B440AC60046823
:100FA000256825F4802525602EE09A600068C160E0
:100FB000BDE8F08F99600068C260F9E71B4EB4424B
:100FC0001BD01A4E1436B44217D0184E2836B442ED
:100FD00013D0164E3C36B4420FD0144E5036B442A5
:100FE0000BD0124E6436B44207D0104E7836B4425D
:100FF00003D00E4E8C36B442DAD190F85C600124F6
:1010000006F01F06B4406C60046863608368402B80
:101010000368CFD1C9E700001000024088000240F9
:10102000A0000240B80002401004024008540258D8
:10103000704700002DE9F05F0746994650000E46C4
:1010400000254FF0010AC0F1000B1446C2F101085F
:1010500050E000BFB8F1000F03DB0BF1020B641E80
:10106000D8440AF1020A5FEA4972D04405F1010549
:101070000DD5301981B27A1990B2204A05F074FF6B
:10108000701981B23A1990B21C4A05F06DFF5FEAFF
:1010900089700DD5301B81B27A1990B2174A05F0CC
:1010A00063FF701B81B23A1990B2144A05F05CFFDD
:1010B0005FEA09700DD5701981B23A1B90B20F4AE0
:1010C00005F052FF301981B27A1B90B20B4A05F03D
:1010D0004BFF5FEAC9700DD0701B81B23A1B90B212
:1010E000064A05F041FF301B81B27A1B90B2034AD9
:1010F00005F03AFFA542ADDBBDE8F09F80FF800020
:101100002DE9FF5F81468846500014460127DDF82F
:1011100038A00025C2F10106C0F1000B42E0002E0C
:1011200003DB0BF1020B641E5E44039807F1020718
:101130003E44C00705F1010518D00AEB4400401CED
:1011400082B2A8EB040309EB050C99B21FFA8CF0EC
:1011500005F0EAFE0AEB4500A8EB050291B2401C3F
:1011600082B209EB040398B205F0DEFE0398800713
:1011700018D50AEB4400401C82B2A8EB040CA9EB82
:1011800005031FFA8CF198B205F0CEFE0AEB45007C
:10119000A8EB050291B2401C82B2A9EB040398B2FD
:1011A00005F0C2FEA542BADBBDE8FF9F2DE9FF4F67
:1011B000C2F1010015461C468946411BAB4603FBA4
:1011C00004F205FB05F091B0614300230190570044
:1011D00007934600984607FB05F001FB04FA0C92C2
:1011E000CDE904303FE0079A07991198521CA9EB0A
:1011F00001010D925844109192B20F9089B280B2C1
:1012000005F092FE119810990D9AA0EB0B0089B28F
:101210000E9080B292B205F087FE0F981FFA89F106
:101220000D9A80B292B205F07FFE0D9A1FFA89F1F5
:101230000E9892B280B205F077FE07980199401C93
:101240000790049888443044049001980AEB4801C0
:1012500000293044019006DD0598D044ABF1010B24
:10126000C01B0590BA44DDE904018142BBDAC4F138
:101270000100A0EB04080C980021089108FB05F878
:1012800006FB04FB08FB05F88A460591029038E04E
:10129000A9EB04000D9081B2089B1198651CAAB2BD
:1012A00018440E9080B205F03FFE0D98089A81B266
:1012B0001198801A0D9080B2AAB205F035FE0E98F2
:1012C000AAB21FFA89F180B205F02EFE0D98AAB2DB
:1012D0001FFA89F180B205F027FE08980299401C98
:1012E000089005988A4438440590029808EB4A0112
:1012F00000293844029004DDC244641EABEB060BA7
:10130000B04405985845C3DD15B0BDE8F08F2DE910
:10131000F04F87B004461E469046B1420D46DDE9C7
:1013200010094FF0000BCDF800B007DD04EB080109
:10133000EA180C1B551B561BA1EB04084E450ADD91
:1013400009EB060200EB0801081AA2EB0909A2EB5F
:101350000906A1EB0008B54207DD04EB0801AA1954
:101360000C1B551B561BA1EB04084D4518D1A0457D
:101370002146424601DA144601E000DD1146A04252
:1013800001DA044602E0884200DD01460A1B07B08C
:10139000A9B2A0B2BDE8F04F521C92B205F0A4BDB4
:1013A000A8EB04010691011BA0EB08000390701B41
:1013B0000590A9EB05004E45CDE90110A9EB06000B
:1013C000049001D1B24601E0A6F1010A2F461BE0CC
:1013D000059900989BFBF1F3029990FBF1F20699B5
:1013E0008B44DDE900010844009018191119884266
:1013F00002DD0144081A091A0A1A521C80B2B9B255
:1014000092B205F071FD7F1C5745E1DD0398BE1BCC
:101410007D1B46430198454319E0049896FBF0F282
:10142000029895FBF0F1039806440198054402EBFD
:1014300008002144884202DD0144081A091A0A1AE8
:10144000521C80B2B9B292B205F04EFD7F1C4F45DE
:10145000E3DD07B0BDE8F08F2DE9F84F98469146DF
:101460000D4606460A9F89B2C7F1000BC41902EB6C
:101470004B0A1FFA8AF2A0B205F036FD05EB080010
:101480000090401E81B21FFA8AF2A0B205F02CFD36
:1014900008EB4B083D44B0B21FFA88F2A9B205F040
:1014A00043FD4E44701E1FFA88F2A9B280B205F0C7
:1014B0003BFD0123294620463A46FFF7BBFDF61BBC
:1014C0002946701E3A460223FFF7B4FD0098042314
:1014D0003A46C51B701E691EFFF7ACFD01B02046E1
:1014E000691E3A460823BDE8F04FFFF7A3BD2DE97A
:1014F000F047984691460E460746DDE9085405F048
:1015000099FC23462A464146484605F093FC33465B
:101510003A4621462846BDE8F04705F08BBC2DE948
:10152000F84F15469A46884681460A9C89B267421A
:10153000061902EB470292B2B0B205F0BBFD09EB0F
:1015400005002246001B0AEB470708EB04057F1E37
:10155000294601230097401EFFF7D2FD02232946AA
:10156000304622460097FFF7CBFDBDE8F88F72B6F4
:10157000FEE700003EB5044602ABCDE90112084A81
:10158000D068009092ED020AD2E9000101AAB7EEFC
:10159000C00A06F06FFFDDE90101C4E900013EBDAC
:1015A0001C00002070B590F83440049D012C12D02E
:1015B0000124022680F8356043EA0543056841EAC4
:1015C000024100226B620368196280F8354080F89E
:1015D0003420104670BD022070BD10B590F8341054
:1015E000012910D0012180F83410022280F8352022
:1015F00050F8342B0023146844F004041460417044
:101600000370184610BD022010BD704710B501F0E0
:101610006FFD094C6168401AB0F57A7F06D301F07E
:1016200067FD606000216078A070617001216078C2
:10163000401C6070217010BD040000202DE9F041B5
:1016400004460068234F0426056969070BD54661E7
:10165000E06C40F00200E06484F83560A06C07653F
:10166000A06C00F01FFCA8070DD52168022048617E
:10167000E06C40F00100E06484F83560A06C076520
:10168000A06C00F00FFCE80605D521681020486129
:10169000204600F06FF8280705D52168082048612A
:1016A000204600F081F9E80712D020680168890718
:1016B00003D5C16821F01E01C16020680121C26804
:1016C00022F00102C260206841612046FFF79EFFC0
:1016D000BDE8F081090A00082DE9F041040003D0BB
:1016E00094F8350018B105E00120BDE8F0812046EE
:1016F00000F042F8A16902204FF0000E84F8350096
:1017000009B1C4F824E02068194A01681140016059
:10171000D4E90452E168D4E9010C29431043A269D9
:10172000084354F8201B40EA0C001043B4E8E810CA
:101730000A68184328433043384340EA0C001043FA
:10174000086054F8300C343C102805D12268E17F41
:10175000E06961F31F60906120680121C26842F076
:101760001E02C260C4F84CE084F835100020BCE7CB
:1017700007F0E0FF704700002DE9F04186B0044615
:1017800014216846FEF7DCFD4549206888427DD17A
:101790004448016841F001010160006800F0010067
:1017A00005904048001D016841F01001016001688A
:1017B00001F010010591016841F00101016001682B
:1017C00001F001010591016841F004010160016827
:1017D00001F004010591016841F008010160016810
:1017E00001F008010591016841F002010160016802
:1017F00001F002010591016841F0080101600068F3
:10180000022502AA694600F0080005907320CDE980
:1018100000050024244803260D2782E8D00001F0AB
:1018200039FB5020694602AACDE900051F4882E82D
:10183000D00001F02FFBC020694602AACDE90005C7
:101840001B4882E8D00001F025FB0820DFF8648007
:1018500002AA6946CDE90005404682E8D00001F0C1
:1018600019FB8020694602AACDE90005124882E8EA
:10187000D00001F00FFB012240469503294601F0FC
:101880002CFC01206946CDE9005000E004E0CDE9E0
:101890000204404601F0FEFA06B0BDE8F081000007
:1018A00000000248DC4402580010025800000258B0
:1018B00000080258000C0258000402582DE9F843B1
:1018C000044690F83400012833D0354802274FF001
:1018D000010884F83480002584F8357026684FF4B8
:1018E000803C6345376847F48047376026684FF08F
:1018F0004009376827F0020737602668376847EAEB
:1019000001073760A16CC863A66C2649F164A16C1D
:101910000D65A5632564E56365640DD22168A06C3F
:10192000283101F057F980B3C4F84C9084F8358021
:1019300027E00220BDE8F883A16C46464864C4F85D
:101940003880E363626405E0E06B4008E063A06B0D
:101950004000A063E06B6045F6D2A06B801EA063E0
:10196000A36BE16BE06B2364009002EB81032168C1
:10197000A06C283100F062F838B1C4F84C9084F8BB
:101980003560012084F83450D4E7FFE7206801680F
:1019900041F001010160002084F83450CAE70000E2
:1019A000290A0008090A0008704700000068214B56
:1019B000984238D01F4B1833984234D01D4B3033E7
:1019C000984230D01B4B483398422CD0194B60338F
:1019D000984228D0174B7833984224D0154B903337
:1019E000984220D0134BA83398421CD0124B9842F7
:1019F00019D0114B1833984215D00F4B3033984201
:101A000011D00D4B483398420DD00B4B60339842A8
:101A100009D0094B7833984205D0074B9033984250
:101A200001D0054BA83312B1016100207047C1609D
:101A3000FBE7000010000240100402402DE9FF4FB8
:101A400081B081689646044600200E9A8029009055
:101A500012D094F83400012813D094F835000121F5
:101A600084F8341001280ED0C9020120009061656D
:101A7000009805B0BDE8F08F4FF4807060650120DC
:101A8000F7E70220F5E7FE4D02272068002684F8DC
:101A90003570A842FB4D6665FB4EFC4FDFF8F093B6
:101AA000DFF8F0A3DFF8F0B33FD0A8423DD0B0425A
:101AB0003BD0B84239D0484537D0504535D058454D
:101AC00033D0DFF8D4C30CF1180C60452DD0DFF80B
:101AD000CCC3604529D0DFF8C4C30CF1180C6045B5
:101AE00023D0DFF8B8C30CF1300C60451DD0DFF80F
:101AF000ACC30CF1480C604517D0DFF8A0C30CF163
:101B0000600C604511D0DFF894C30CF1780C60458F
:101B10000BD0DFF888C30CF1900C604505D0DFF8DE
:101B20007CC30CF1A80C604510D1D0F800C03F2157
:101B30004CF4802CC0F800C02068036194F85C303D
:101B4000A06D03F01F039940816010E0D0F800C041
:101B500048F220084CEA080CC0F800C02068036175
:101B600094F85C30A06D03F01F0399404160134668
:101B7000029972462046FFF7FBF8C94AC84BDFF8C6
:101B800020E31432DFF8F882283320680EF13C0E8F
:101B9000C34940455FD0A8425DD0B0425BD0B84257
:101BA00059D0484557D0504555D0584553D0DFF807
:101BB000E8C20CF1180C60454DD0DFF8E0C260457A
:101BC00049D0DFF8D8C20CF1180C604543D0DFF8DB
:101BD000CCC20CF1300C60453DD0DFF8C0C20CF136
:101BE000480C604537D0DFF8B4C20CF1600C60459A
:101BF00031D0DFF8A8C20CF1780C60452BD0DFF8AB
:101C00009CC20CF1900C604525D0DFF890C20CF11D
:101C1000A80C60451FD088421DD090421BD098422E
:101C200019D0704517D0DFF878C20CF1500C604520
:101C300011D0DFF86CC20CF1640C60450BD0DFF8FA
:101C400060C20CF1780C604505D0DFF854C20CF18D
:101C50008C0C604509D1D4E9190CC0F804C0E06EC1
:101C600018B1D4E91C0CC0F804C0C4462068604513
:101C70003FD0A8423DD0B0423BD0B84239D04845D1
:101C800037D0504535D0584533D0DFF80C8208F1B5
:101C9000180840452DD0DFF80482404529D0DFF8F0
:101CA000FC8108F11808404523D0DFF8F08108F1E5
:101CB000300840451DD0DFF8E48108F14808404570
:101CC00017D0DFF8D88108F16008404511D0DFF85F
:101CD000CC8108F1780840450BD0DFF8C08108F1CD
:101CE0009008404505D0DFF8B48108F1A8084045C8
:101CF00018D1D0F8008028F01E0848F01608C0F867
:101D000000802068D0F8148048F08008C0F8148063
:101D1000206C08B9A06CC0B12068D0F8008048F0F1
:101D2000080810E0D0F8008028F00E0848F00A08F3
:101D3000C0F80080206C08B9A06C30B12068D0F8E1
:101D4000008048F00408C0F800802068E046404564
:101D500057D0A84255D0B04253D0B84251D0484590
:101D60004FD050454DD058454BD0DFF82CC10CF129
:101D7000180C604545D0DFF824C1604541D0DFF83C
:101D80001CC10CF1180C60453BD0DFF810C10CF100
:101D9000300C604535D0DFF804C10CF1480C6045CB
:101DA0002FD0DFF8F8C00CF1600C604529D0DFF8C7
:101DB000ECC00CF1780C604523D0DFF8E0C00CF1EA
:101DC000900C60451DD0DFF8D4C00CF1A80C604524
:101DD00017D0884215D0904213D0984211D0704548
:101DE0000FD02F49503188420BD02D4964318842A1
:101DF00007D02B497831884203D029498C31884259
:101E00000DD1206E0168C90303D5016841F48071CA
:101E10000160E06E18B1016841F4807101602068D2
:101E2000404528D0A84226D0B04224D0B84222D083
:101E3000484520D050451ED058451CD01649183171
:101E4000884218D01549884215D014491831884263
:101E500011D01249303188420DD0104948318842A2
:101E600009D00E496031884205D00C49783188424A
:101E700001D00A499031016841F001010160F7E5A4
:101E8000100002402800024040000240580002407A
:101E90007000024088000240A0000240100402408E
:101EA000085402582DE9F05F28B190F83510022946
:101EB00004D0802141650120BDE8F09F904C904BFB
:101EC0000168183C18338E4ADFF83C92A1428D4CD1
:101ED000DFF838E28E4FDFF83CB2DFF83CA28F4DDE
:101EE0008F4E31D091422FD099422DD0A1422BD08C
:101EF000494529D0714527D0B94225D0DFF810C215
:101F00000CF1180C61451FD0DFF808C2ACF1600C71
:101F1000614519D0DFF8FCC1ACF1480C614513D024
:101F2000DFF8F0C1ACF1300C61450DD0DFF8E4C151
:101F3000ACF1180C614507D0594505D0514503D087
:101F4000A94201D0B1422CD1DFF8B4C14FF004084E
:101F500080F83580ACF1180C61451DD091421BD042
:101F6000994219D0A14217D0494515D0714513D0D7
:101F7000B94211D06648183081420DD065486038AA
:101F8000814209D063484838814205D061483038E1
:101F9000814201D05F481838086820F001000860CD
:101FA000ABE0D1F800C02CF00E08DFF854C1C1F846
:101FB0000080ACF1180C0168614527D0914225D012
:101FC000994223D0A14221D049451FD071451DD04F
:101FD000B9421BD0DFF838C10CF1180C614515D09F
:101FE000DFF830C1ACF1600C61450FD0DFF824C1DF
:101FF000ACF1480C614509D0DFF818C1ACF1300CE8
:10200000614503D0DFF80CC1ACF1180CD1F800C069
:102010002CF0010CC1F800C0DFF8E4804FF0010C97
:102020000168A8F11808414546D0914244D0994230
:1020300042D0A14240D049453ED071453CD0B94242
:102040003AD0334A1832914236D0324A603A9142FD
:1020500032D0304A483A91422ED02E4A303A9142FC
:102060002AD02C4A183A914226D0594524D05145BD
:1020700022D0A94220D0B1421ED02A4A91421BD080
:10208000284A1432914217D0264A2832914213D05E
:10209000244A3C3291420FD0224A503291420BD016
:1020A000204A6432914207D01E4A7832914203D0CE
:1020B0001C4A8C32914218D1016E0A6822F4807257
:1020C0000A6090F85C20816D02F01F020CFA02F2A7
:1020D0004A60D0E919124A60C16E31B10A6822F42F
:1020E00080720A60D0E91C124A600022016D80F8FB
:1020F00035C080F8342001B188470020DCE60000BC
:10210000280002405800024070000240880002404F
:10211000A00002407004024088040240A004024073
:10212000B8040240085402582DE9FC5F0446F74EFB
:102130000020DFF8D88300904FF41652F44808F1DD
:102140001808A56DDFF8C493DFF8C0A3016809F192
:10215000300920680AF1480AB1FBF2F1B04201915E
:102160002F68D5F800C0DFF8ACB335D041468842BF
:1021700032D0484530D050452ED058452CD0E54976
:102180001831884228D0E3493031884224D0E149CF
:102190004831884220D0E04988421DD0DE491831BC
:1021A000884219D0DC493031884215D0DA494831AB
:1021B000884211D0DFF860E30EF1600E70450BD05D
:1021C000D54A7832904207D0D34B9033984203D00F
:1021D000D149A83188427DD194F85C20082102F0D1
:1021E0001F0201FA02F23A424AD0B04232D04045D0
:1021F00030D048452ED050452CD058452AD0C54A1D
:102200001832904226D0C34A3032904222D0C14A7E
:10221000483290421ED0C04A90421BD0BE4A18326B
:10222000904217D0BC4A3032904213D0BA4A48325A
:1022300090420FD0B84A603290420BD0B64A783202
:10224000904207D0B44A9032904203D0B24AA832AA
:10225000904203D1026802F0040202E0026802F038
:1022600008026AB1026822F00402026094F85C007D
:1022700000F01F008140A960606D40F001006065C2
:1022800094F85C00012100F01F008140394240D0E9
:102290002068B04234D0404532D0484530D0504517
:1022A0002ED058452CD09B4A1832904228D0994ABB
:1022B0003032904224D0974A4832904220D0964AF9
:1022C00090421DD0944A1832904219D0924A30322E
:1022D000904200E0AFE113D08F4A483290420FD0D5
:1022E0008D4A603290420BD08B4A7832904207D0B0
:1022F000894A9032904203D0874AA83290427DD1D9
:10230000406910F0800F04D0A960606D40F00200B9
:10231000606594F85C00042100F01F0081403942A0
:102320003ED02068B04232D0404530D048452ED013
:1023300050452CD058452AD0764A1832904226D0A3
:10234000744A3032904222D0724A483290421ED0B3
:10235000714A90421BD0704A1832904217D06E4A90
:102360003032904213D06C4A483290420FD06A4AC1
:10237000603290420BD0684A7832904207D0664A69
:102380009032904203D0644AA83290424ED1006805
:1023900010F0020F04D0A960606D40F00400606589
:1023A00094F85C00102100F01F008140394258D0A1
:1023B0002068B04234D0404532D0484530D05045F6
:1023C0002ED058452CD0534A1832904228D0514A2A
:1023D0003032904224D04F4A4832904220D04E4A68
:1023E00090421DD04C4A1832904219D04A4A30329D
:1023F000904215D0484A4832904200E014E00FD095
:10240000454A603290420BD0434A7832904207D01E
:10241000414A9032904203D03F4AA832904207D1BD
:10242000006800F0080006E0006872E70068B7E79F
:10243000006800F00400A0B1A960206801684903A9
:1024400004D50068000308D5A16C07E00168C90540
:1024500003D4016821F008010160216C09B1204614
:10246000884794F85C00202100F01F008140394229
:1024700079D02068B04232D0404530D048452ED087
:1024800050452CD058452AD0224A1832904226D0A6
:10249000204A3032904222D01E4A483290421ED00A
:1024A0001D4A90421BD01C4A1832904217D01A4A3B
:1024B0003032904213D0184A483290420FD0164A18
:1024C000603290420BD0144A7832904207D0124AC0
:1024D0009032904203D0104AA832904203D1006853
:1024E00000F0100002E0006800F00200B0B3A96044
:1024F00094F835000428206801680FD049037ED580
:10250000006800032BD4616C2AE000001000024038
:1025100084000020700002401004024021F01601E7
:1025200001602068416921F080014161206C08B997
:10253000A06C20B12068016821F00801016094F8C6
:102540005C303F21012003F01F0300229940A96065
:1025500084F8350084F83420216D65E003E0E16BF8
:1025600009B120468847606D00287DD0606DC007A6
:1025700059D02068042184F83510B0422BD0404552
:1025800029D0484527D0504525D0584523D09D49CE
:10259000884220D09B49183188421CD0994930315B
:1025A000884218D09849884215D0974918318842F6
:1025B00011D09549303188420DD093494831884235
:1025C00009D091496031884205D08F4978318842DD
:1025D00001D08D499031016821F00101016020682E
:1025E0000099019A491C0091914202D80168C907DB
:1025F000F6D10068C00710D003200FE0FFE70168A4
:10260000C905ACD403680121002223F01003036044
:1026100084F8351084F83420A1E7012084F83500CF
:10262000002084F83400E16C00291DD002B020465F
:10263000BDE8F05F0847754988421DD073491431E1
:10264000884219D071492831884215D06F493C31F0
:10265000884211D06D49503188420DD06B496431A8
:10266000884209D0694900E084E07831884203D08B
:1026700066498C3188427DD194F85C8004270168DA
:1026800008F01F0807FA08F717EA0C0F009746D062
:102690004F0744D500980F04686003D5C8033CD4A5
:1026A000A16CC1E7880638D42068B0422DD05549C6
:1026B0006039884229D0484527D0504525D0584513
:1026C00023D05049884220D04E49183188421CD02E
:1026D0004C493031884218D04B49884215D04A497C
:1026E0001831884211D04849303188420DD04649CE
:1026F0004831884209D0704507D0904205D09842B1
:1027000003D04149A831884203D1016821F0080172
:1027100002E0016821F004010160216C84E70227D6
:1027200007FA08F717EA0C0F00974ED08F074CD521
:1027300000980F04686003D5C80344D4616C73E744
:10274000880640D42068B0422FD02E496039884294
:102750002BD0484529D0504527D0584525D0294968
:10276000884222D02749183188421ED0254930316D
:10277000884200E044E018D02349884215D022491D
:102780001831884211D02049303188420DD01E497D
:102790004831884209D0704507D0904205D0984210
:1027A00003D01949A831884203D1016821F01401EE
:1027B00002E0016821F00A010160012184F835106E
:1027C000002084F83400E16B2EE7082202FA08F2B8
:1027D00012EA0C0F14D0090712D5016821F00E017E
:1027E000016094F85C100120002201F01F0100FA42
:1027F00001F16960606584F8350084F8342012E7DF
:10280000BDE8FC9F880002401004024008540258B2
:102810002DE9F05F044600F06BFC002C07467DD0EC
:10282000E34E022120684FF00308DFF888934FF051
:102830000005DFF884A3B042DFF880B334D0DC4A6F
:102840001832904230D048452ED050452CD05845B3
:102850002AD0DA4A1832904226D0D84A30329042F2
:1028600022D0D64A483290421ED0D54A90421BD040
:10287000D34A1832904217D0D14A3032904213D006
:10288000CF4A483290420FD0CD4A603290420BD0AE
:10289000CB4A7832904207D0C94A9032904203D056
:1028A000C74AA83290427DD184F83510B04284F8EE
:1028B00034502ED0BE49183188422AD0484528D0FD
:1028C000504526D0584524D0BC491831884220D0E4
:1028D000BA49303188421CD0B8494831884218D0B2
:1028E000B749884215D0B6491831884211D0B44949
:1028F000303188420DD0B2494831884209D0B049C0
:102900006031884205D0AE497831884201D0AC4967
:102910009031016821F00101016008E027E100BF6A
:1029200000F0E6FBC01B052801D920211CE120682E
:102930000068C007F4D104F108002168D4E9053C1F
:102940008E4685C809681043D4E907281F43636A87
:1029500038439C4F40EA0C001043394040EA0800DD
:10296000042B40EA010003D1D4E90B1211430843C0
:10297000954909686FF30F01B1F1005F0FD36168EA
:10298000A1F12902052A08D9163A032A05D9083ADD
:10299000012A02D94F39032901D840F48010CEF81A
:1029A000000000E023E02068676A4069042F20F0FF
:1029B000070047EA00070DD1D4E90A01074349B1EE
:1029C0002046FEF7ABF928B140206065012184F86C
:1029D0003510CCE0206847612046FEF7BDF894F83A
:1029E0005C203F2102F01F029140816054E0774A51
:1029F00090421BD0754B1433984217D0734B283339
:102A0000984213D0714B3C3398420FD06F4B5033E8
:102A100098420BD06D4B6433984207D06B4B7833A0
:102A2000984203D0694B8C3398427DD184F835109D
:102A300084F83450664B0168A26801EA030E402A0C
:102A400073D0802A72D00022D4E90378D4E905310A
:102A500042EAD70242EAD8085C4AD4E9077C48EA4D
:102A6000D30848EAD10141EAD701524241EA1C1198
:102A7000142341EA0E01016020681044B0FBF3F01A
:102A80008000E0652046FEF767F894F85C2001219D
:102A900002F01F02914041602068B04257D0444983
:102AA0001831884253D0484551D050454FD05845F1
:102AB0004DD042491831884249D04049303188428E
:102AC00045D03E494831884241D03D4988423ED0B8
:102AD0003B49183188423AD039493031884236D0A2
:102AE00037494831884232D03549603188422ED04A
:102AF0003349783188422AD031499031884226D0F2
:102B00002F49A831884222D0304988421FD02F490E
:102B1000143188421BD02D492831884217D02B49C7
:102B20003C31884213D002E01DE017E018E027494D
:102B3000503188420BD025496431884207D023495F
:102B40007831884203D021498C31884229D12046EE
:102B5000FEF75CF8A06880280CD00CE0102273E728
:102B60004FF4804270E74021616584F83580012090
:102B7000BDE8F09F6560216E20790860D4E91901F5
:102B800041606068401E072808D82046FEF78CF890
:102B9000E06E0560D4E91C01416002E0E56625674E
:102BA00065670120656584F835000020E0E70000D6
:102BB00010000240400002405800024070000240F5
:102BC000100402403F8010FE0010005C08540258C0
:102BD0000F00FEFF2DE9F84F04008C464FF0000077
:102BE000009014D094F83400012812D094F8355095
:102BF0000120002184F83400012D0CD0C002606552
:102C00000120009084F834100098BDE8F88F01206E
:102C1000FBE70220F9E78C4D0226206884F8356036
:102C2000A8428A4D61658A4E8A4FDFF82C82DFF810
:102C30002C92DFF82CA2DFF82CB226D0A84224D0A8
:102C4000B04222D0B84220D040451ED048451CD0CA
:102C500050451AD0584518D08349884215D082492A
:102C60001831884211D08049303188420DD07E49D8
:102C70004831884209D07C496031884205D07A4980
:102C80007831884201D078499031016821F0010102
:102C9000016061462046FEF7BBF86B492068884218
:102CA0002CD0A8422AD0B04228D0B84226D04045E5
:102CB00024D0484522D0504520D058451ED06A4ADD
:102CC00090421BD0684A1832904217D0664A303280
:102CD000904213D0644A483290420FD0624A603228
:102CE00090420BD0604A7832904207D05E4A9032D0
:102CF000904203D05C4AA83290420CD1026822F084
:102D00001E0242F016020260206C88B12068026840
:102D100042F008020BE0026822F00E0242F00A02C2
:102D20000260206C20B12068026842F00402026058
:102D3000206888424BD0A84249D0B04247D0B84220
:102D400045D0404543D0484541D050453FD05845F7
:102D50003DD0454A90423AD0434A1832904236D04C
:102D6000414A3032904232D03F4A483290422ED0CF
:102D70003D4A603290422AD03B4A7832904226D077
:102D8000394A9032904222D0374AA83290421ED01F
:102D9000364A90421BD0354A1432904217D0334AFB
:102DA0002832904213D0314A3C3290420FD02F4A01
:102DB000503290420BD02D4A6432904207D02B4AB9
:102DC0007832904203D0294A8C3290420DD1206E45
:102DD0000268D20303D5026842F480720260E06E9A
:102DE00018B1026842F4807202602068884226D0DE
:102DF000A84224D0B04222D0B84220D040451ED0B4
:102E000048451CD050451AD0584518D0164988421C
:102E100015D015491831884211D0134930318842F4
:102E20000DD011494831884209D00F49603188429C
:102E300005D00D497831884201D00B4990310168A5
:102E400041F001010160DFE610000240280002406D
:102E500040000240580002407000024088000240DA
:102E6000A0000240B800024010040240085402587A
:102E700070B5044600F03CF90546601C02D00448D9
:102E80000078044400F034F9401BA042FAD370BD2E
:102E9000780000202DE9F84F03247D4D00234FF0EA
:102EA00001094FF0B04B4FF00F0AE9E009FA03F7C0
:102EB0003A4076D00E7906F00306012E01D0022E9C
:102EC00018D1D0F808C04FEA430ECE6804FA0EF8C5
:102ED0002CEA080C06FA0EF646EA0C068660D0F8D4
:102EE00004C00E792CEA070CC6F300169E4046EA91
:102EF0000C0646600E79F643B6070BD0C6684FEA5B
:102F000043088F6804FA08FC26EA0C0607FA08F75B
:102F10003743C7600E7906F00306022E12D1DE0891
:102F20000F694FEA437C00EB8606B646366A4FEAE5
:102F3000DC6C0AFA0CF807FA0CF726EA08063743A5
:102F4000CEF820700F7906684FEA430807F00307B0
:102F500004FA08FC07FA08F726EA0C06374307606C
:102F60004E6816F4403F1CD04A4E376847F00207BF
:102F7000376036689F0706F00206009623F00306C6
:102F800006F1B046B6463F0FD6F80864DFF8088170
:102F90000AFA07FC404526EA0C0603D14FF0000C64
:102FA00041E06CE0DFF8F4C0604502D14FF0010C65
:102FB00039E0DFF8ECC0604502D14FF0020C32E09E
:102FC000DFF8E0C0604502D14FF0030C2BE0DFF8E2
:102FD000D8C0604502D14FF0040C24E0DFF8CCC02B
:102FE000604502D14FF0050C1DE0DFF8C4C060451C
:102FF00002D14FF0060C16E0DFF8B8C0604502D1F0
:103000004FF0070C0FE0DFF8B0C0604502D14FF081
:10301000080C08E0DFF8A4C0604502D14FF0090CAD
:1030200001E04FF00A0C0CFA07FC4CEA060CCEF853
:1030300008C44F68DBF80060FF0226EA020600D5EC
:1030400016435F46CBF80060D1F804C0DBF804609B
:103050005FEA8C2C26EA020600D516437E606E6875
:103060004F6826EA0206BF0300D516436E602E683D
:103070004F6826EA0206FF0300D516432E605B1C4C
:103080000A6832FA03F67FF411AFBDE8F88F00004A
:1030900080000058F444025800000258000402580E
:1030A00000080258000C0258001002580014025880
:1030B00000180258001C0258002002580024025830
:1030C0000069084000D001207047426921EA0203EC
:1030D0000A4043EA0241816170470AB18161704749
:1030E0000904FBE701480068000C70470010005C11
:1030F000014880687047000078000020024881681D
:10310000027811448160704778000020032010B5D8
:1031100000F0D4F801F0DEFE0F4A1049146813687D
:10312000C4F3032203F00F038A5CC95C02F01F02A0
:1031300001F01F01D0400A4A20FA01F1116009494B
:1031400008600F2000F010F808B1012010BD00F059
:1031500079F8002010BD0000184402580646010806
:10316000880000208400002070B50D4D04462878AA
:10317000A0B14FF47A71B1FBF0F00A490968B1FBD4
:10318000F0F003F0B1F848B9102C07D20022214624
:10319000501E00F073F800206C6070BD012070BDFF
:1031A0007800002084000020F0B5154C4378211DE4
:1031B0000A1D23600378F3B143680B60057BC67A70
:1031C000817A437B2D07847B45EA0665C77B90F8AF
:1031D00009C0067A90F800E045EAC14040EA834021
:1031E00040EA444040EA074040EA0C2040EA4600FA
:1031F00040EA0E0001E0002008601060F0BD000011
:1032000098ED00E0BFF35F8F044800210368034A94
:1032100023F48033036070321160704724ED00E0C6
:10322000074A40F00100064970321060086840F417
:1032300080300860BFF34F8FBFF36F8F704700007F
:1032400024ED00E0054808B5016841F00201016085
:10325000006800F00200009008BD0000F44402582D
:10326000002809DB410900F01F028900012001F15B
:10327000E0219040C1F80001704700000E4BF0B40F
:103280001B680D46C3F30223C3F10706042E00D9C1
:103290000426191D072901D2002300E0DB1E0124AA
:1032A00004FA06F19C40491E2940641E99401440CE
:1032B0002143F0BC07F086BE0CED00E0064900F0AB
:1032C000070210B54FF6FF040868044B204040EA9F
:1032D00002201843086010BD0CED00E00000FA0564
:1032E0007047D0F8080506F0D9BF01EBC10200EB2A
:1032F0008202D0F80805926C06F02CBF01EBC102E7
:1033000000EB8202D0F80805D2F8882206F07EBFD2
:10331000D0F8080506F0C4BF0A0601F00F0101EB62
:10332000C10100EB810101D53C3101E001F51F71C4
:10333000006807F0A3BC70B54268044601F00F00B6
:10334000904201D9012070BD01F00F024FF000053D
:103350000B0602EBC2014FF0010204EB810103D521
:1033600081F83D203C3103E081F87D5201F51F7169
:103370008D70087094F8BC04012808D084F8BC242F
:10338000206807F007FB002084F8BC5470BD0220C1
:1033900070BD2DE9F04101F00F0604460D064FF017
:1033A000010006EBC6014FF0000504EB810103D5D7
:1033B00081F83D003C3103E081F87D5201F51F7139
:1033C0004F788A600B710E7007B14E83022B00D1CB
:1033D0004D7194F8BC24012A09D084F8BC042068FB
:1033E00007F05EFA284684F8BC54BDE8F08102205C
:1033F000FBE770B501F00F05002405EBC50100EBFC
:10340000810101F5227181E81C0001F80B4C01F8E3
:103410000C5DC368012B00D1CA61027B006807F014
:1034200011FB002070BD70B50D464168044605F0E3
:103430000F00884201D9012070BD29064FF0000617
:103440004FF0010207D500EBC00104EB810181F8C8
:103450003D203C3107E005EBC50104EB810181F81B
:103460007D6201F51F718A70087094F8BC04012810
:1034700007D084F8BC24206807F0B8FA280702D0E7
:1034800007E0022070BD217B04F2C442206807F0EF
:1034900055FA002084F8BC6470BD70B501F00F04CB
:1034A000002504EBC401012600EB8101483181E8CD
:1034B0002C0001F80B6C01F80C4DC368012B00D1F6
:1034C000CA61027B006807F0BDFA002070BD0000F1
:1034D0002DE9FC5F05680446284607F04CFC0028EF
:1034E0007ED1206807F073FC002879D0D5F8080851
:1034F000C0F30D20C4F8FC04206807F068FC8007C6
:1035000004D52068416901F002014161206807F09B
:103510005EFCC10604F2C440009034D52068816985
:1035200021F0100181612F6A07F00F01C7F34340BA
:1035300001EBC101022804EB810606F51F7602D0DB
:10354000062811D01AE047F6F070074216D0C7F3EC
:103550000A12F1681746284607F03DFCF1687069C9
:103560003944F160384408E000990822284607F001
:1035700032FC7069C7F30A110844706120688169E0
:1035800041F010018161206807F021FC00034FF039
:10359000000A4FF0020B4FF001097CD5206800268D
:1035A00007F0F4FB074674E0F80770D02068F1B22A
:1035B00007F005FC8046C00707D005EB4611C1F8AF
:1035C000089B3146204604F07DFD5FEA087025D552
:1035D00005EB46110820C1F8080BFC49206800E003
:1035E00042E2026C00EB461001928A42D0F8081BBE
:1035F00005D9090403D54FF40041C0F8081B204643
:1036000000F06EFAF1490198884207D9E068012874
:1036100004D120680121009A07F090F95FEAC860A0
:1036200004D505EB46111020C1F8080B5FEA88703D
:103630001CD56869000605D5D5F8040840F48061FA
:10364000C5F8041806EBC60004EB800090F87F1262
:1036500000F51F70012905D180F803A02046F1B2C2
:1036600000F008FA05EB4611C1F808BB5FEA886074
:1036700004D505EB46112020C1F8080B5FEA88400D
:1036800005D505EB46114FF40050C1F8080B7F0833
:10369000761C002F88D1206807F099FB40036FD576
:1036A000206807F06CFB0026074667E0F80763D048
:1036B0002068F1B207F071FB8046C00723D0D5F82F
:1036C000342806F00F0C05EB461309FA0CF0824380
:1036D000C5F83428C3F80899E06801280FD106EB33
:1036E000C60004EB8000D0E911121144816436B9A0
:1036F000E06C20B920680121009A07F01FF92046EC
:10370000F1B2FFF7F2FD5FEA087004D505EB461150
:103710000820C1F808095FEAC86004D505EB461126
:103720001020C1F808095FEA486004D505EB46118E
:103730004020C1F808095FEA887016D5314628464E
:1037400007F0ECFA06EBC60004EB800090F83F109F
:103750003C30012905D180F803A02046F1B200F0E9
:1037600085F905EB4611C1F808B95FEA086003D591
:103770003146204604F00CFD7F08761C002F95D1C1
:10378000206807F024FB002811DAD5F8040820F09F
:103790000101C5F8041894F8F40401283BD0204630
:1037A00000F082F92068416901F000414161206820
:1037B00007F00DFB00050BD5D5F80808C00702D0AF
:1037C000204600F095F92068416901F400614161EB
:1037D000206807F0FCFA00010AD52068416901F071
:1037E0000061416194F8F404E0B1204600F080F9F2
:1037F000206807F0ECFAC00472D5D5F8040820F070
:103800000101C5F804182068102107F087FA00218B
:103810004FF67F322DE00021204684F8F4A4FFF714
:103820005FFDBFE784F8F4942068406D0121C0F388
:103830008300C4F8F8042046FFF752FDD8E700BF24
:1038400005EB4110C0F80829D0F8003923F4001323
:10385000C0F80039C0F8082BD0F8003B23F400135F
:10386000C0F8003BD0F8003B43F00063C0F8003BD9
:10387000491C60688842E3D8D5F81C0840F0011163
:10388000C5F81C18206B68B1D5F8840840F00B010E
:10389000C5F88418D5F8440840F00B012846C5F84F
:1038A00044180DE0D5F8140842F22B010843C5F87E
:1038B0001408D5F8100840F00B012846C5F8101878
:1038C000D0F8000820F4FE61C5F80018217B2068BC
:1038D000009A07F033F82068416901F48051416192
:1038E000206807F074FA800417D5206807F018F8EC
:1038F000206807F033FA206101F0A6FA217C2368E2
:10390000CAB20146184607F097FA204600F0B6F80A
:103910002068416901F400514161206807F057FABD
:10392000000707D5204600F0C3F82068416901F080
:1039300008014161206807F04AFA000616D5A86917
:10394000012620F08001A9610DE000BF06EBC60052
:1039500004EB800090F87F02012803D12046F1B2E9
:10396000FFF7DAFC761C6068B042EFD8206807F0F9
:103970002EFAC00221D501264F4616E006EBC601FD
:1039800005EB461004EB8101D0F8000991F84020C6
:10399000012A09D1002807DAF0B281F83F7040F01F
:1039A00080012046FFF7B8FC761C6068B042E5D87D
:1039B0002068416901F480114161206807F007FA2D
:1039C000800234D501204B4629E000000A30544FD4
:1039D00000EBC00205EB401104EB8202D1F8001BA2
:1039E00092F88062012E19D1002917DA94F8FC644C
:1039F00001F4803106F00106B1420FD182F87F3226
:103A0000A96941F08002AA616969090606D4D5F85E
:103A1000040840F40070C5F8040803E0401C616825
:103A20008142D5D82068416901F4001141612068C4
:103A300007F0CDF9400007D52046FFF752FC20687B
:103A4000416901F080414161206807F0C0F94007F9
:103A50000AD520684568680702D52046FFF758FC5C
:103A60002068416829434160BDE8FC9FD0F8080503
:103A700006F036BCD0F8080506F046BC70B5044622
:103A80000069012570B1022801D0FDF770FDD4F85E
:103A90000805294606F0A7FCD4F80805BDE87040E3
:103AA00006F05BBC0025F2E7D0F8080506F084BC00
:103AB000D0F8080506F08ABC10B5044690F8BC049E
:103AC00001280BD0012084F8381084F8BC04206849
:103AD00007F0A1F9002084F8BC0410BD022010BD3D
:103AE000D0F8082500F2C441104606F088BC00005A
:103AF00010B50446D0F8080506F0BAFC2068D0F8E6
:103B0000001E41F00101C0F8001E206A002804D008
:103B10000248016841F00601016010BD10ED00E0AF
:103B2000134970B50A68D243520705D5096801F0F8
:103B30000701814213D118E00A6822F0070202430C
:103B40000A60FFF7D5FA0A4D4FF47A760446083D2D
:103B500007E000BFFFF7CCFA001BB04201D90120FB
:103B600070BD2868C0438004F4D4002070BD0000FC
:103B70000C4802580248016841F4807101607047A6
:103B80000048025810B501F05FF905490968054A77
:103B9000C1F30211515C01F01F01C84010BD0000CB
:103BA00020440258064601084A4930B5494C0B1DCD
:103BB0000A680C3409681D68246802F0030305F0E4
:103BC0000102C1F30511C4F3CC04002914FB02F275
:103BD00000EE102AF8EE400A76D0414A9FED3E1AD8
:103BE000DFED3E1AB7EE000A23B1012B5AD0022BAB
:103BF00018D15CE0374C283C23689B0612D5394B22
:103C0000246801EE901A1168C4F3C104F8EE612A29
:103C1000E34001EE903AC1F30801F8EE611A81EE3B
:103C2000A22A07E002EE101A1168F8EE422A81EE8D
:103C3000A22A45E001EE901A1168F8EE611A40EEF2
:103C4000811A71EE800A62EE200AC1F3462101EE6C
:103C5000101AB8EE411A31EE001AC0EE811ABCEE0D
:103C6000E11A80ED001A1168C1F3064101EE101A45
:103C7000B8EE411A31EE001AC0EE811ABCEEE11A1C
:103C800080ED011A1168C1F3066101EE101AB8EE59
:103C9000411A31EE000A80EE801ABCEEC10A80EDB6
:103CA000020A30BD01EE901ADFED0F2A03E001EEAB
:103CB000901ADFED0E2A1168F8EE611A82EEA12A41
:103CC000C1F30801B6E7FFE70021016041608160B0
:103CD00030BD000028440258000000390024744C14
:103CE000304402580090D0030024744A20BCBE4BDC
:103CF000494930B5484C0B1D0A68143409681D68E1
:103D0000246802F00303C5F30012C1F30531C4F3C4
:103D1000CC04002914FB02F200EE102AF8EE400A4F
:103D200075D03F4A9FED3D1AB7EE000A6BB1DFED4B
:103D30003D1A012B01D0022B64D002EE101A11683B
:103D4000F8EE422A81EEA22A21E0334C283C236877
:103D50009B0612D5344B246801EE901A1168C4F307
:103D6000C104F8EE612AE34001EE903AC1F3080184
:103D7000F8EE611A81EEA22A0BE001EE901ADFED57
:103D80002B2A00BFF8EE611A116882EEA12AC1F356
:103D9000080101EE901A1168F8EE611A40EE811ADE
:103DA00071EE800A62EE200AC1F3462101EE101A7C
:103DB000B8EE411A31EE001AC0EE811ABCEEE11ADB
:103DC00080ED001A1168C1F3064101EE101AB8EE39
:103DD000411A31EE001AC0EE811ABCEEE11A80EDF4
:103DE000011A1168C1F3066101EE101AB8EE411A0A
:103DF00031EE000A80EE801ABCEEC10A80ED020AA4
:103E000030BD04E001EE901ADFED092ABAE7002187
:103E1000016041608160F3E72844025800000039E6
:103E2000384402580024744A0090D0030024744C93
:103E300020BCBE4B494930B5484C0B1D0A681C34A8
:103E400009681D68246802F00303C5F30022C1F36A
:103E50000551C4F3CC04002914FB02F200EE102A31
:103E6000F8EE400A75D03F4A9FED3D1AB7EE000AC2
:103E70006BB1DFED3D1A012B01D0022B64D002EEB5
:103E8000101A1168F8EE422A81EEA22A21E0334C82
:103E9000283C23689B0612D5344B246801EE901A07
:103EA0001168C4F3C104F8EE612AE34001EE903AD0
:103EB000C1F30801F8EE611A81EEA22A0BE001EECF
:103EC000901ADFED2B2A00BFF8EE611A116882EE1E
:103ED000A12AC1F3080101EE901A1168F8EE611AE7
:103EE00040EE811A71EE800A62EE200AC1F346218B
:103EF00001EE101AB8EE411A31EE001AC0EE811A26
:103F0000BCEEE11A80ED001A1168C1F3064101EE22
:103F1000101AB8EE411A31EE001AC0EE811ABCEE4A
:103F2000E11A80ED011A1168C1F3066101EE101A61
:103F3000B8EE411A31EE000A80EE801ABCEEC10ADA
:103F400080ED020A30BD04E001EE901ADFED092A8F
:103F5000BAE70021016041608160F3E7284402581C
:103F600000000039404402580024744A0090D003F5
:103F70000024744C20BCBE4B2DE9F04FAC4A0546E2
:103F8000DFF8A8A280F48070DFF8AC9289B013113A
:103F9000AA4C0843A748AAF104064FF0805C4FF0F2
:103FA00000582CD085F400770F4357D0DFF87CB24F
:103FB00085F480670F430BF1080B61D085F400672F
:103FC0000F4374D085F480570F436ED085F40057AB
:103FD0000F434FF480394FF4003E67D085F400273B
:103FE0000F4371D085F480370F436ED085F480463F
:103FF0000E436BD085F400420A4368D02AE0DAF819
:10400000001001F00701052924D2DFE801F075BC9A
:104010007D25B10006A8FFF7C7FD079809B0BDE8E8
:10402000F08F6846FFF764FE0098F7E703A8FFF7F4
:1040300001FF0398F2E72068C0F3C10022FA00F004
:10404000ECE72268D20571D561456FD11846E5E7E6
:104050004145E3D00020E1E74846DFE7DAF8001009
:1040600001F4E07180294FD004DC002944D04029BC
:10407000F0D188E0C029EFD0B1F5807FEAD177E0B8
:10408000DBF8001001F46001B1F5800F3CD004DCD6
:1040900091B3B1F5001FDDD175E0B1F5C00FDBD0F4
:1040A000B1F5000FD6D163E001E018E030E0DBF8B5
:1040B000001001F0E061B1F1007F25D008DCD9B13A
:1040C000B1F1807FC6D15EE049E06CE079E09CE030
:1040D000B1F1407FC0D0B1F1806FBBD148E0DAF8D8
:1040E000001001F4E041B1F5005F0DD005DC19B11D
:1040F000B1F5805FAED146E094E0B1F5405FABD062
:10410000B1F5804FA6D133E020688000A2D58DE7BD
:10411000DAF8001001F4E021B1F5403F6CD006DC84
:1041200061B149457AD0714594D157E037E0B1F596
:10413000802F65D0B1F5A02F8CD10CE000F0A6FE49
:104140006CE76846FFF7D4FD019867E703A8FFF71F
:1041500071FE049862E721688903F1D47AE7DBF8FD
:10416000001011F440310ED0494510D07145F5D101
:104170003168256801F040516D077FF562AF002975
:104180007FF45FAF57E720680001E7D549E7206873
:104190008000E3D503A8FFF74DFE05983EE72268AF
:1041A0009203DBD554E7306810F480303AD04845AC
:1041B000D4D120680001D1D56846FFF799FD029857
:1041C0002CE7DBF8001001F0E041B1F1405F13D0C3
:1041D00008DC71B1614521D04145BFD12068800024
:1041E000B4D437E7B1F1804F0AD0B1F1A04FB2D0CB
:1041F00030E7FFF7C7FC11E720684007AED51AE7A4
:104200002068C005AAD521E708E0DAF8001011F00F
:104210004051A0D0614505D041459FD120680001A3
:104220008FD417E72068800198D5F3E650440258F0
:104230000090D00340787D010080BB00004402580C
:104240002DE9FE4F0546DFF8E48350F8081B0024F3
:10425000F64FC943019005F12800264608F12408CD
:10426000009008011DD4A86E50B1B0F5801F0CD08D
:10427000B0F5001F0ED0B0F5401F1ED001240FE096
:10428000386840F40030386017E00198022103F0EC
:10429000D1FF03E00098022104F05CF804000CD088
:1042A00026462888C043C00523D4A86D05281ED201
:1042B000DFE800F00C11161B1B00AA6ED8F80010E6
:1042C00021F440111143C8F80010EAE7386840F4BF
:1042D0000030386009E00198002103F0ABFF03E0F3
:1042E0000098002104F036F8044674B100E001247F
:1042F00026462888C043800528D4E86D80281ED033
:104300000CDC90B140280ED114E0AA6DD8F8001052
:1043100021F007011143C8F80010EAE7C02813D0C4
:10432000B0F5807F10D001240FE0386840F40030F1
:10433000386009E00198002103F07CFF03E0009859
:10434000002104F007F804469CB126462888DFF8CF
:10435000DC92C04309F12C0940052CD4D5F8A80003
:10436000B0F5800F20D00DDCA0B1B0F5001F0FD14B
:1043700015E0EA6DD8F8001021F4E0711143C8F897
:104380000010E3E7B0F5C00F13D0B0F5000F10D068
:1043900001240FE0386840F40030386009E00198EB
:1043A000002103F047FF03E00098002103F0D2FF53
:1043B00004467CB126462888C04300052DD4D5F894
:1043C000AC00B0F1007F21D00EDCA8B1B0F1807F4D
:1043D00010D116E0D5F8A820D9F8001021F460011A
:1043E0001143C9F80010E6E7B0F1407F13D0B0F1F7
:1043F000806F10D001240FE0386840F4003038603E
:1044000009E00198002103F015FF03E00098002166
:1044100003F0A0FF044674B126462868C04380011B
:104420001FD4E86CD8B110280FD0202812D0302823
:1044300015D0012414E0D5F8AC20D9F8001021F0F3
:10444000E0611143C9F80010E7E7386840F4003034
:10445000386004E00198022103F0ECFE044674B1D8
:1044600026462888C043C0042BD4286EB0F5005FD0
:1044700020D00DDCA0B1B0F5805F0FD115E06B4806
:10448000EA6C2030016821F0300111430160E8E757
:10449000B0F5405F13D0B0F5804F10D001240FE08D
:1044A000386840F40030386009E00198002103F0DA
:1044B000C1FE03E00098002103F04CFF04468CB1DC
:1044C00026462888C043800429D4686EB0F5403F52
:1044D00023D010DC08B3B0F5803F14D0B0F5003F16
:1044E0000FD115E02A6ED8F8001021F4E0411143F5
:1044F000C8F80010E5E7B0F5802F0ED0B0F5A02F7A
:104500000BD001240AE00198012103F093FE03E09F
:104510000098012103F01EFF044694B12646288826
:10452000C04340042AD4D5F8B000B0F1405F23D096
:1045300010DC08B3B0F1805F14D0B0F1005F0FD190
:1045400015E06A6ED8F8001021F4E0211143C8F894
:104550000010E4E7B0F1804F0ED0B0F1A04F0BD0C7
:1045600001240AE00198012103F064FE03E00098B1
:10457000012103F0EFFE044674B126462888C043AB
:1045800000041FD4286FD8B1B0F1805F0ED0B0F115
:10459000005F10D0012414E0D5F8B020D9F8001045
:1045A00021F0E0411143C9F80010E7E7386840F412
:1045B0000030386004E00198012103F03BFE04461E
:1045C00074B126462868C043C0011ED4A86CD0B17F
:1045D00001280ED0022811D0032814D0012413E0A2
:1045E0002A6FD8F8001021F040511143C8F800108C
:1045F000E8E7386840F40030386004E001980221B0
:1046000003F018FE0446ACB126462868DFF81CB05B
:10461000C043ABF11C0B400252D40548016841F481
:1046200080710160FEF764FD824611E02C4402585F
:1046300000480258FA48AA6C016821F003011143AE
:104640000160E2E7FEF754FDA0EB0A00642835D8CC
:10465000F4480068C005F5D58CBBDFF8C4A3B5F8F5
:10466000B4100AF1240ADAF8000001F4407100F4F1
:104670004070884211D0DAF80010DAF8002021F4F6
:10468000407142F48032CAF80020DAF8002022F4A7
:104690008032CAF80020CAF80010D5F8B400B0F58E
:1046A000807F1AD1FEF724FD029012E0FEF720FD74
:1046B0000299411A41F2883081420AD903242646E0
:1046C0002878DFF85CA3C0430AF1080AC00721D0AC
:1046D0003CE0DAF800008007E8D5D5F8B410C1F363
:1046E0000120032858460DD0016821F47C51016057
:1046F000B5F8B420DAF80010C2F30B021143CAF87F
:104700000010DDE7C84A036802EA111223F47C5165
:104710001143ECE7E86F182816D005DCA0B1082893
:1047200008D0102804D10AE020280DD028280BD06A
:1047300001240AE00198012103F07CFD03E00098C8
:10474000012103F007FE044664B126462878C043E1
:1047500080071ED4A86F062819D2DFE800F0160CD7
:1047600011161616EA6FDAF8001021F0380111431D
:10477000CAF80010EAE70198012103F05BFD03E0AD
:104780000098012103F0E6FD04467CB100E001241D
:1047900026462878C04340071FD4D5F89400062841
:1047A00019D2DFE800F0160C11161616AA6FDAF807
:1047B000001021F007011143CAF80010E9E7019841
:1047C000012103F037FD03E00098012103F0C2FD51
:1047D0000446A4B100E0012426462878C0438006A0
:1047E0002BD4D5F89000B0F1405F24D011DC10B389
:1047F000B0F1805F15D0B0F1005F10D116E0D5F8B0
:104800009420D9F8001021F007011143C9F80010D5
:10481000E3E7B0F1804F0ED0B0F1A04F0BD00124F0
:104820000AE00198002103F005FD03E00098022151
:1048300003F090FD044694B126462878C043400614
:104840002BD4D5F89C00B0F5406F24D011DC10B308
:10485000B0F5806F15D0B0F5006F10D116E0D5F827
:104860009020DAF8001021F0E0411143CAF800105E
:10487000E3E7B0F5805F0ED0B0F5A05F0BD0012468
:104880000AE00198002103F0D5FC03E00098022122
:1048900003F060FD044694B126462878C043000624
:1048A0002BD4D5F8A000B0F5C04F24D011DC10B344
:1048B000B0F5005F15D0B0F5804F10D116E0D5F8F7
:1048C0009C20D9F8001021F4E0511143C9F80010E0
:1048D000E3E7B0F5004F0ED0B0F5204F0BD0012428
:1048E0000AE00198002103F0A5FC03E000980221F2
:1048F00003F030FD044654B126462878C043000733
:104900001ED4D5F88400B0F5805F0AD00FE0D5F84A
:10491000A020D9F8001021F460411143C9F800101B
:10492000EBE70098022103F015FD00B10126D5F850
:104930008420DAF8001021F440511143CAF8001025
:104940002878C043C00613D4D5F89800B0F5807F0E
:1049500005D10098022103F0FDFC00B10126D5F835
:104960009820D9F8001021F440711143C9F80010C3
:104970002868C043000316D4D5F8A40038B1B0F5B8
:10498000803F09D0B0F5003F0BD001240AE0019828
:10499000002103F04FFC03E00098022103F0DAFC51
:1049A00004468CB126462868C043400322D4D5F87B
:1049B0008800B0F5801F11D0B0F5001F13D0B0F5FE
:1049C000401F15D0012414E0D5F8A420D9F8001018
:1049D00021F440311143C9F80010E4E7386840F48D
:1049E0000030386004E00098012103F0B3FC044675
:1049F0005CB126462868C043C00323D4286DA8B103
:104A0000B0F5803F17D001241BE0D5F88820DAF8F4
:104A1000001021F440111143CAF80010EAE7000029
:104A20004C44025800480258CFFFFF00386840F459
:104A30000030386004E00198022103F0FBFB0446DB
:104A4000E4B126462868C043800005D400980221BE
:104A500003F080FC00B101262868C04380031BD40A
:104A6000D5F88000B0B1B0F5807F0FD0B0F5007FF1
:104A700010D0B0F5407F0DD001240CE05A482A6DCB
:104A8000016821F4803111430160DBE7386840F4AC
:104A900000303860ECB326462868C043C00207D413
:104AA0006A6FD8F8001021F000411143C8F80010D7
:104AB0002868C043C00008D4D5F8B820DBF800103F
:104AC00021F480411143CBF800102868C0438002D4
:104AD00007D4EA6ED8F8001021F080711143C8F8AD
:104AE00000102868C04340000CD4DBF8001021F40B
:104AF0000041CBF80010DBF80010D5F8BC201143C2
:104B0000CBF800102868C04308D437486A6D0168A4
:104B100000E018E021F04051114301602868C043D3
:104B2000000208D4D5F88C20DAF8001021F44001F6
:104B30001143CAF8001028790024C04300F0010096
:104B400020430AD00FE0D5F88020DAF8001021F4D5
:104B500040711143CAF800109EE70198002103F04C
:104B600069FB00B106462879C04300F002002043EB
:104B700005D10198012103F05DFB00B106462879BB
:104B8000C04300F00400204305D10198022103F046
:104B900051FB00B106462879C04300F008002043CD
:104BA00005D10098002103F0D5FB00B10646287915
:104BB000C04300F01000204305D10098012103F00C
:104BC000C9FB00B106462879C04300F02000044329
:104BD00004D10098022103F0BDFB00B916B10120F9
:104BE000BDE8FE8F0020FBE74C4402582DE9F05F42
:104BF00004000F467ED0DFF83882D8F8000000F0BD
:104C00000F00B8420CD2D8F8001021F00F01394340
:104C1000C8F80010D8F8000000F00F00B84269D1C1
:104C20002078844D40070AD52069296801F0700179
:104C3000884204D9296821F0700101432960207855
:104C40007C4E361D00070AD56069316801F070019D
:104C5000884204D9316821F0700101433160207825
:104C6000C0060AD5A069316801F4E061884204D920
:104C7000316821F4E061014331602078DFF8B4B19C
:104C800080060BF1080B0CD5E1695846DBF80020D3
:104C900002F07002914204D9026822F070020A43C5
:104CA0000260207880070AD5E068296801F00F01CA
:104CB000884204D9296821F00F0101432960207836
:104CC000C0073ED05B49A2682868183920F470609C
:104CD000104328606068022818D0032819D009689A
:104CE000012819D0490700294ADADFF848A1AAF1BA
:104CF000080A00E044E0DAF8002022F0070202434C
:104D0000CAF80020FEF7F4F9814612E00968890329
:104D1000E9E709688901E6E7C905E4E7FEF7E8F98C
:104D2000A0EB090141F28830814202D90320BDE89D
:104D3000F09F6168DAF8000000F03800B0EBC10FB6
:104D4000ECD1207880070AD5E068296801F00F01CE
:104D5000884204D2296821F00F0101432960D8F864
:104D60000010404601F00F01B9420BD9016821F053
:104D70000F0139430160006800F00F00B84201D014
:104D80000120D4E7207840070AD52069296801F07E
:104D90007001884204D2296821F070010143296022
:104DA000207800070AD56069316801F070018842F7
:104DB00004D2316821F07001014331602078C006CF
:104DC0000AD5A069316801F4E061884204D23168F3
:104DD00021F4E06101433160207880060CD5E1695F
:104DE0005846DBF8002002F07002914204D20268BB
:104DF00022F070020A43026000F06CF80E492A6843
:104E00002B68C2F3032203F00F038A5CC95C02F033
:104E10001F0201F01F01D040084A20FA01F1116081
:104E20000749086007480068BDE8F05FFEF79CB9D5
:104E3000002000521844025806460108880000204D
:104E4000840000207C00002030B500F043F80B4ABD
:104E50000B490C4B15681468C5F3032204F00F04CA
:104E60008A5C095D02F01F0201F01F01D040064A72
:104E700020FA01F119601060084630BD184402584C
:104E800006460108880000208400002000B5FFF7D6
:104E9000DBFF05490968054AC1F30211515C01F0C5
:104EA0001F01C84000BD00001C440258064601080E
:104EB00000B5FFF7C9FF05490968054AC1F302219A
:104EC000515C01F01F01C84000BD00001C440258A5
:104ED00006460108454970B545480968434B103BF3
:104EE00011F0380208D00111082A03D0102A0BD083
:104EF000182A0BD0084670BD19688906FBD51968B9
:104F0000C1F3C101C84070BD3A4870BD3749374D43
:104F100018310C1D24350A68096826682D6802F0CE
:104F2000030406F00102C1F30511C5F3CC0515FB1E
:104F300002F200EE102AB8EE400AE9B32F4ADFED84
:104F40002E0AB7EE001A6CB1DFED2D1A012C01D03C
:104F5000022C43D002EE101A1068F8EE422A81EEBD
:104F6000A22A1EE01C68A40611D51B6801EE901A47
:104F70001168C3F3C103F8EE612AD84001EE900A2C
:104F8000C1F30800F8EE611A81EEA22A0BE001EEEF
:104F9000901ADFED1C2A00BFF8EE611A106882EE4D
:104FA000A12AC0F3080001EE900AF8EE611A40EE63
:104FB000201A31EE810A00E015E022EE000A1068A6
:104FC000C0F34620401C00EE900AF8EE600A80EE26
:104FD000201ABCEEC10A10EE100A70BD01EE901A44
:104FE000DFED092AD8E7002070BD00001044025808
:104FF0000090D00340787D01000000393044025811
:105000000024744A0024744C20BCBE4B2DE9F05F90
:1050100004007DD0FF4F2078FE4D1837DFF8F49361
:10502000103DC00748D0D9F80000396800F03800BA
:10503000102815D0182803D101F0030002280FD042
:105040006068B0F5803F12D010B1B0F5A02F18D035
:10505000286820F480302860286820F4802009E047
:105060002868800328D560680028D2D024E028680A
:1050700040F480302860606888B1FEF739F8064651
:1050800009E0286840F480202860F0E7FEF730F857
:10509000801B64286FD828688003F7D50CE0FEF7E2
:1050A00027F8064605E000BFFEF722F8801B6428BB
:1050B000F0D828688003F7D4207841F20308D54E51
:1050C0000C3E800769D5D9F80000396810F0380027
:1050D0000ED0182801D188070AD0E06890B329685B
:1050E00021F0190101432960FEF702F8824631E000
:1050F0002868400702D5E06800288AD0E16828685F
:1051000020F0190008432860FDF7F2FF824607E00F
:10511000DFE000BFFDF7ECFFA0EB0A000228B9D8E2
:1051200028684007F6D500BFFDF7DCFF40451BD8D7
:105130002069402812D0316821F47C3141EA0030E6
:1051400030602AE018E000BFFDF7D2FFA0EB0A00B4
:1051500002289FD828684007F6D5E5E7306820F494
:105160007C3040F40030EBE7207C316821F0FE41D8
:1051700041EA0060E4E70DE1286820F001002860C2
:10518000FDF7B6FF824605E0FDF7B2FFA0EB0A008F
:1051900002288DD828684007F6D42078C0065DD54F
:1051A000D9F80000DFF86CB2396800F03800ABF1D4
:1051B000040B082810D0182803D101F0030001289F
:1051C0000AD0E0690028286838D040F080002860C4
:1051D000FDF78EFF824623E02868C00523D5E069ED
:1051E000802876D11FE0206A202821D0316821F064
:1051F000F84141EA8060306030E000BF94F8201050
:10520000DBF8002022F07C5242EA0161CBF800106A
:1052100024E000BFFDF76CFFA0EB0A00022898D83D
:105220002868C005F6D5FDF75DFF4045E6D8DAE70A
:10523000306820F0F84040F08040DCE720F080004B
:105240002860FDF755FF064605E000BFFDF750FF5B
:10525000801B02289DD82868C005F7D42078000755
:1052600029D56C486169643000298046016811D0F5
:1052700041F001010160FDF73BFF064605E000BF7C
:10528000FDF736FF801B0228C9D8D8F80000800738
:10529000F6D510E021F001010160FDF729FF064677
:1052A00005E000BFFDF724FF801B022872D8D8F864
:1052B00000008007F6D42078800623D5A069002856
:1052C000286810D040F480502860FDF711FF064692
:1052D00005E036E1FDF70CFF801B02285AD828684C
:1052E0008004F7D50EE020F480502860FDF700FF21
:1052F000064604E0FDF7FCFE801B02284AD8286819
:105300008004F7D4207840074FD5DFF80C81D8F817
:10531000001041F48071C8F80010FDF7E9FE064660
:1053200005E000BFFDF7E4FE801B642832D8D8F802
:105330000000C005F6D5374EA068603601280AD0B7
:1053400008B1052813D0306820F0010030603068C3
:1053500020F0040002E0306840F001003060A068F6
:1053600041F2883A90B1FDF7C3FE80460AE030680A
:1053700040F004003060EEE7FDF7BAFEA0EB080154
:10538000514507D830688007F6D50EE0FDF7B0FE2E
:10539000804607E084E000BFFDF7AAFEA0EB08010D
:1053A00051457DD830688007F6D4606AB0B3DFF825
:1053B0006480D9F8001008F120084FF6F87B08F156
:1053C0000409C1F3C2010329A8F1040A69D0022823
:1053D000286820F08070286003D0FDF789FE04461D
:1053E00084E0FDF785FE064605E000BFFDF780FE80
:1053F000801B022877D828688001F7D4E26A40F23F
:10540000F331386854F8283F884340EA02101843C3
:10541000386004E01044025800480258B5E0217B8F
:10542000434622894FF4FE0C208A4FF0FE47490282
:10543000267D521E401EA1F50071C2F308088AB2F3
:10544000761E0CEA004042EA08020243504607EA90
:1054500006610A431A60DAF8002022F00102CAF855
:105460000020D9F80020266A22EA0B0242EAC6028E
:10547000C9F80020DAF80010A26921F00C011143EC
:10548000CAF800100168E26921F0020111430160CD
:10549000016841F480310160016841F4003101E0AC
:1054A00021E027E00160016841F48021016001688A
:1054B00041F001010160286840F080702860FDF72C
:1054C00017FE044605E000BFFDF712FE001B022890
:1054D00009D828688001F7D557E000BFFDF708FE1E
:1054E000001B022802D90320BDE8F09F2868800134
:1054F000F4D44AE039680128D8F8000021D0A26A23
:1055000001F0030393421CD1E26AC1F305118A4200
:1055100017D1216BC0F30802491E8A4211D1616B79
:10552000C0F34622491E91420BD1A16BC0F3064243
:10553000491E914205D1E16BC0F30660491E8142CC
:1055400001D00120D0E7A16C4E46D9F80000C0F38D
:10555000CC00814219D0DAF80000554620F0010055
:10556000CAF80000FDF7C4FD4FEA0007FDF7C0FDD3
:10557000B842FBD0A26C306820EA0B0040EAC200BF
:105580003060286840F0010028600020ACE77047D8
:1055900070477047704700002DE9F0410446032032
:1055A00084F830004FF480732A4A4FF400784FF0AB
:1055B000000541B1012927D002290ED0606B0125D9
:1055C00040F000601AE0A06D404504D0984202D03F
:1055D000A06B012813D1114608E0A06D4045FAD018
:1055E0009842F8D0A06B0128F5D003E0204603F0E4
:1055F0009FFE20B1606B012540F080506063FDF795
:1056000077FD0126074608E01249491EEEE700BF74
:10561000FDF76EFDC01B401C15D0204600F0C2F9FE
:105620000428F5D12068414603F074F930B12268AE
:10563000012509499163616B0143616384F830601E
:105640002846BDE8F0814FF00040606384F8306088
:105650000320F6E701FFFF80FF0FE01F2DE9FC5F4D
:105660000446806B0E46032184F83010002703287F
:105670005CD0B6F5004F59D0B6F5804F4FF000051D
:105680004FF400684FF0806904D006B3606B40F0BF
:1056900000603FE0009500210195206803F008FCC0
:1056A00080011CD46946204603F03AFC70BB019887
:1056B00040032DD5B4F844102068090403F0F9F82C
:1056C00020BB206802211DE0606B284322E000958A
:1056D00000210195206803F0EBFB800101D54546D0
:1056E000F2E76946204603F01BFC78B90198C00335
:1056F0000ED5B4F844102068090403F0DAF828B98C
:105700002068002103F01FF90028DDD00546DBE703
:105710004D46D9E76063606B4FF4007BDFF8B8A0BB
:1057200040B121680127C1F838A042E0606B40F029
:105730008050EFE700214FF48030FEF71DFC0100A0
:1057400032D0264D3346D4E904C0B1FBF5F8D4E994
:105750000192804510D9A66D5E450DD0B6F5807FCB
:1057600011D04FEA6506E0B14FEA4008B1FBF8F806
:10577000B04501D9B1FBF5F04946CDE900C020683C
:1057800003F09AFB15E0164E30B14FEA4008B1FB2A
:10579000F8F8A84502D8EFE7A942EDD9B1FBF6F039
:1057A000EAE7B142E6D8E7E7606B012740F0006026
:1057B00060632068594603F0ADF830B122680127D4
:1057C000C2F838A0616B01436163012084F83000A6
:1057D0003846BDE8FC9F0000FF0FE01F80F0FA0292
:1057E00000E1F50570470000F0B5C26D920F0A7038
:1057F000C26DC2F383624A70C26DC2F301628A70E5
:10580000C26D120CCA70B0F85C20120A0A7190F8CE
:105810005C204A71026E120DCA80026EC2F303420E
:105820000A72B0F86020C2F3C0324A72B0F8602049
:10583000C2F380328A72B0F86020C2F34032CA727A
:10584000B0F860200026C2F300320A734E730122C2
:10585000836B4FF4007463B1012B3AD00368504955
:105860009963416B41F08051416380F83020012001
:10587000F0BDB0F86030456E9B051B0D43EA957393
:105880000B61436EC3F3C2630B75436EC3F30263D4
:105890004B75436EC3F342538B75436EC3F3824320
:1058A000CB75436EC3F3C2330B760D696D1C8564F3
:1058B0000B7E03F007039B1C9D4085640B7A4465B7
:1058C00003F00F0302FA03F35F0A7D43C0E91335C7
:1058D0000EE090F86050436EAD06AD0A45EA134302
:1058E0000B610B695B1C9B028364C0E91343446535
:1058F000B0F86430C3F380334B76B0F86430C3F350
:10590000C6138B7690F8643003F07F03CB76836EFA
:10591000DB0F0B77836EC3F341734B77836EC3F357
:1059200082638B77836EC3F38353CB77836EC3F32A
:10593000405381F8203081F82160836EC3F3004327
:1059400081F82230B0F86830C3F3C03381F82330D7
:10595000B0F86830C3F3803381F82430B0F8683091
:10596000C3F3403381F82530B0F86830C3F3003317
:1059700081F82630B0F86830C3F3812381F82730EE
:10598000B0F86830C3F3012381F8283090F868003C
:10599000C0F3460081F8290081F82A200020F0BDDC
:1059A000FF0FE01F70B5B0F84410002504460068F2
:1059B000090403F082F818B1616B0143616304E0EC
:1059C0002068002103F074FA0546C5F3432070BD3A
:1059D0002DE9F041054690F8300090B00C460026C5
:1059E000032810D06946284603F030FC2A4F4FF0B8
:1059F000010860B12A68012697636A6B02436A63F3
:105A000085F830803AE0012010B0BDE8F0810099BF
:105A10004FF47F40C1F3811121700099C1F340110F
:105A2000617000990A4600EA112141EA1261618021
:105A3000019909BA6160029921720299090A617299
:105A40000299C1F30351A172DDE9022100EA12407B
:105A5000C9B20843A0810398C0F38520A0730398BE
:105A6000C0F30120E0730398C0F30310207403987F
:105A700000F00F0060740498000EA07428684FF4C2
:105A8000007102F047FF28B12A6801269763686316
:105A900085F830803046B7E7FF0FE01F2DE9F84367
:105AA00004460068E56A416B09041BD5290719D52E
:105AB000D4E90950202813D30026206803F012FAF5
:105AC000020A2870010C6A70030EA970761CEB7034
:105AD000082E05F10405F0D3A06A2038C4E9095066
:105AE000BDE8F883416B0127DFF8EC810026C9058A
:105AF00051D539024CF23A12816329072068C16BF3
:105B000021EA0201C1632068C16B21F08051C163A9
:105B10002068C16821F04001C16018D515F0220F3E
:105B200009D0206803F016F828B1616B0143616366
:105B30002046FFF757FE2168AA07C1F8388084F88D
:105B40003070E66223D1204600F07AF9C8E72806D3
:105B5000C6D5206815F0220F86622068C6622068CC
:105B6000066509D0206802F0F5FF28B1616B01439A
:105B700061632046FFF736FE15F0300F84F8307071
:105B8000E66202D0204600F05BF9A807A8D02046C4
:105B900000F04AF9A4E7416B490421D529071FD534
:105BA000D4E9075020289BD30026287800906978F4
:105BB00040EA01200090A97840EA01400090E9788D
:105BC0002D1D40EA016000902068694603F0A2F9AB
:105BD000761C082EE9D3206A2038C4E907507FE7F5
:105BE000416B11F03A0F416B58D0890703D5616BB7
:105BF00041F002016163416B090703D5616B41F01C
:105C000008016163416B890603D5616B41F0200196
:105C10006163416BC90603D5616B41F0100161639B
:105C2000C0F838802068C16B21F49D71C163206881
:105C3000C16821F04001C1602068C16A41F400518F
:105C4000C1622068C16841F08001C160206802F033
:105C500081FF626B2B074FF4006140EA0200606332
:105C60002068C26822F08002C2602068816303D588
:105C700084F83070E6620DE028068BD5606B002852
:105C800088D02068C16B21F08051C163206806650F
:105C900084F830702046FFF7A5FD21E7C9009ED5A6
:105CA0004FF0805181632068006D40074FEA8560A6
:105CB00008D40028204602DAFFF76CFC10E7FFF753
:105CC00067FC0DE70028204602DAFFF762FC07E7D1
:105CD000FFF75DFC04E700003A0F0018F0B5040080
:105CE00085B020D094F83000002518B920462576DC
:105CF00000F098F8042084F83000204600F03CF8CA
:105D000088B969462046FFF763FE60B99DF8101018
:105D1000A26B9DF81100012A08D0A5652046E16814
:105D2000FFF79CFC58B1012005B0F0BD014302D043
:105D30004FF4007001E04FF48070A065EEE7FDF7CE
:105D4000D7F90127064604E0FDF7D2F9801B401C75
:105D50000AD02046FFF726FE0428F5D16563E562E8
:105D600084F830700020DFE74FF00040606384F873
:105D700030700320D8E700002DE9FC414FF0000807
:105D800004464FF480304146FEF7F6F805004FF028
:105D9000010723D02048434642464146B5FBF0F672
:105DA000CDE90086206803F087F8206803F094F8B6
:105DB0001EB17000B5FBF0F52DB11848B0FBF5F041
:105DC000401CFDF755F8204603F0E6F960B100BF2E
:105DD00084F83070616B0143616319E04FF000603B
:105DE00084F83070606313E0204603F00BF900285C
:105DF000EED120684FF4007102F08CFD002808D02D
:105E0000226807499163616B0143616384F83070D4
:105E10000120BDE8FC81000000350C0010210100CC
:105E2000FF0FE01F70470000044910B5884201D001
:105E3000012000E00020FAF72BFD10BD8C0A0020A5
:105E4000044910B5884201D0012000E00020FAF793
:105E500020FD10BD8C0A00202DE9F047040029D058
:105E6000594A4FF000092068584B594D9042C4F8E8
:105E7000289006D0984204D0A84202D0E1680F29A9
:105E800018D8E1684FF0010AE76B0831C9080AEB3E
:105E900057167143904205D0984203D0A84201D0D2
:105EA000082907D8904203D0984201D0A84204D1D3
:105EB000102902D90120BDE8F08794F8810020B9AB
:105EC000204684F8809000F085F8022084F8810054
:105ED0002068016821F0010101602068A1698268E1
:105EE000B1F1806F02F4F81110D16268B2F5800F41
:105EF00001D01AB10AE0A26B22B107E0A26BB2F1A5
:105F0000805F03D1026842F4805202606068400200
:105F100009D5E068072806D32068236D026822F4BB
:105F200080721A4303E02068026822F480720260E3
:105F3000A66AE069E26B25683043E3680A431043D0
:105F40001843A860D4E90D02D4E90581636A256984
:105F50001843D4F820C00A43266810432843A56D8F
:105F6000D4E90172D4E9123140EA080040EA0C0099
:105F700038430843104318432843F060606868B909
:105F80002068816821F4C05141F40061816020687B
:105F9000816821F4C06141F4806181602068016DF5
:105FA00021F0010101656068400206D52068626D3C
:105FB000C16821F000411143C160C4F8849084F8A5
:105FC00081A0002077E70000003001400038004049
:105FD000003C0040F0B5B7B00446142130A8FAF7F1
:105FE000AFF9C0216846FAF7ABF923492068884227
:105FF00040D14114002019900446CDE900106846B4
:10600000FEF71EF908B1FBF7B2FA1C48016841F42B
:1060100000510160006800F40050359017481038B6
:10602000016841F010010160006830AD0221144F99
:1060300000F0100035904FF4B040052385E81300C0
:1060400003223846CDE9332330A9FCF723FF01268C
:106050000C484FF400453095CDE9316430A93394B4
:10606000FCF718FF309530A9CDE9316438463394F8
:10607000FCF710FF37B0F0BD00340140F044025887
:1060800000100258000C02582DE9F84F8A4690F88B
:10609000801099461746012904464FF0000B0DD099
:1060A0004FF0010884F88080FDF722F8064694F846
:1060B00081000025012804D0022034E00220BDE840
:1060C000F88FBAF1000F2DD067B3A1680320C4F890
:1060D0005CA0A4F8607084F88100C4F88450A4F82F
:1060E00062706566A4F86850A4F86A50B1F5C02FD4
:1060F00065672567206819D0C16821F4C02141F483
:106100000031C160206841686FF30F01394341607D
:106110002068016841F0010101606068B0F5800FFE
:1061200009D00DE0012084F88050C8E7016841F4EF
:1061300000610160E6E72068016841F400710160D8
:10614000E0680F281CD82EE02068416989070BD52C
:10615000E16D09680162E06D001DE065B4F8620060
:10616000401EA4F862000BE0FCF7C2FF811B49450A
:1061700003D3B9F1FF3F03D007E0B9F1000F04D01A
:10618000B4F862000028DFD183E0204603F046F92E
:10619000D4F8841084F8805041F48071C4F88410DD
:1061A00084F881809CE007282CD86EE02068416943
:1061B00089071BD5B4F8621001290BD9E16B49B1ED
:1061C000E16D09680162E06D001DE065B4F86200F0
:1061D000801E08E0E16D09880184E06D801CE065A7
:1061E000B4F86200401EA4F862000BE0FCF780FFE8
:1061F000811B494503D3B9F1FF3F03D0C5E7B9F18E
:10620000000FC2D0B4F862000028CFD141E020686E
:10621000416989072DD5B4F8621003290CD9E16BC7
:10622000402909D9E16D09680162E06D001DE06552
:10623000B4F86200001F19E0B4F8621001290BD90C
:10624000E16B49B1E16D09880184E06D801CE06576
:10625000B4F86200801E09E0E16D097880F8201032
:10626000E06D401CE065B4F86200401EA4F86200D6
:106270000BE0FCF73DFF811B494503D3B9F1FF3F1C
:1062800003D020E0B9F1000F1DD0B4F8620000285F
:10629000BDD100224B4608212046009603F0FAF9B2
:1062A00028B1D4F8840040F02000C4F884002046CF
:1062B00003F0B4F884F88180D4F8840084F8805026
:1062C00080B10120FBE6204603F0A8F8D4F8840052
:1062D00084F8805040F48070C4F8840084F8818091
:1062E0000320ECE65846EAE6401EB0F1807F10B588
:1062F00001D3012010BD4FF0E02460610F21601731
:1063000004F060FE0020A0610721216110BD30B5BE
:1063100090F88410012918D0012280F884202421CB
:10632000C0F888100022202401680B680D6823F053
:10633000005325F001050D60426601680B60C0F84E
:10634000884080F88420104630BD022030BD70B5F2
:10635000044690F8840001281DD0012284F884208E
:106360002420C4F8880020680568026822F0010231
:1063700002602068826822F060620A4382602046E0
:1063800003F0E8FA2268202100201560C4F8881084
:1063900084F8840070BD022070BD70B5044690F88A
:1063A000840001281DD0012284F884202420C4F810
:1063B000880020680568026822F0010202602068F7
:1063C000826822F060420A438260204603F0C2FAEB
:1063D0002268202100201560C4F8881084F8840009
:1063E00070BD022070BD10B5040003D0D4F8880041
:1063F00010B107E0012010BD002084F88400204681
:1064000000F026F82420C4F888002068016821F0F4
:1064100001010160204603F0A3FB0128EBD0A06A34
:1064200010B1204603F0B8FA2068416821F4904189
:1064300041602068816821F02A018160206801683C
:1064400041F0010101602046BDE8104003F008BBA7
:1064500010B5B6B00446142130A8F9F771FFC02179
:106460006846F9F76DFF1A49206888422DD100204F
:106470001F9001210446CDE900106846FDF7E0FEBB
:1064800008B1FBF774F81348016841F0100101608E
:10649000006800F0100035900E481038016841F097
:1064A0000101016000680DF1C00C022100F0010043
:1064B00035904FF4C06007238CE813000322064890
:1064C000CDE9332330A9FCF7E5FC36B010BD000060
:1064D00000100140F0440258000002582DE9F84332
:1064E0000446D0F88800984616460D46202802D06B
:1064F0000220BDE8F883A5B19EB10021C4F8901038
:106500002120C4F888001834FCF7F2FD814654F8C5
:10651000100CA687E6872027183CB0F5805F02D0D4
:1065200003E00120E5E7206910B12E46002510E0C8
:1065300000260EE08021204603F0E8FCC0B9DEB161
:1065400016F8010B21688862B4F85600401EA4F8C2
:106550005600B4F856004B464FF00002CDF80080CC
:106560000028E7D14FF04001204603F0CFFC48B1AE
:10657000C4F888700320BCE735F8020B2168C0F32B
:106580000800E0E7C4F888700020B2E7FEE70000EA
:1065900000B587B014216846F9F7D2FE09480168B2
:1065A00041F00401016000680021012200F00400B4
:1065B000059002208DE8070003486946FCF76AFC55
:1065C00007B000BDE04402580008025870B5114DF4
:1065D00002212846FCF774FD0F4C18B100206070B2
:1065E000207870BD0A20FCF743FC02212846FCF706
:1065F00067FD0028F4D160780028F1D102212846F7
:10660000FCF75EFD0028F9D020780121401C2070A5
:106610006170E5E700080258740000202DE9FC4194
:1066200000F08AF8354801F0CBF900244FF47F459B
:106630004FF4B47600EE104AB8EEC00A03F054F8F6
:106640008C21782003F076F8E62268467821FAF764
:1066500091FFDDE900012A4680B289B200F084FC96
:106660000520FCF705FC641CB442E3DB5A228C21B4
:10667000782000F01BFAC820FCF7FAFB0124A2B234
:106680008C21782000F0CEFC1E20FCF7F1FB641C6E
:106690001E2CF4DBC820FCF7EBFB00244FEA0508B6
:1066A00000EE104AB8EEC00A03F01EF88C217820E4
:1066B00003F040F8E62268467821FAF75BFFDDE94F
:1066C0000057404601F07CF9B9B2A8B20A2200F0A6
:1066D000A9FC3220FCF7CCFB002001F071F9B9B223
:1066E000A8B20A2200F09EFC641CB442D8DBBDE8CC
:1066F000FC414FF4FA70FCF7BBBB000080FF800048
:1067000010B500F019F80B4801F05AF964228C21F9
:10671000782000F0CBF9C820FCF7AAFB64228C217A
:10672000782000F07FFCBDE810404FF4FA70FCF7D1
:106730009FBB000080FF800070B5134C6189A08969
:10674000491E8AB2401E83B20021084601F0F6F8C5
:1067500001220E48D103FCF7C0FCA4F688050F20E7
:10676000E8602846FFF778FB6289A089A188424348
:1067700089B2284600F06AFF0720E8602846BDE895
:106780007040FFF769BB0000E809002000100258C4
:1067900070B5FFF7D1FF194801F012F95A228C2188
:1067A000782000F083F9002628213046FAF774F8A3
:1067B000002501E0B54203D128213046FAF76CF8F4
:1067C000002450212046FAF7C7F8AC4207D13C21FB
:1067D0002846FAF761F828213046FAF75DF8B44206
:1067E00005D128213046FAF757F8641CE9E7641C04
:1067F0003C2CE6DB6D1C032DDCDB70BD80FF8000D4
:106800002DE9F04117461C460A19C519069E521E6D
:1068100093B26D1EAAB201F091F801220B48D10388
:10682000FCF75BFC0A4D0F20E8602846FFF714FBDD
:1068300007FB04F23146284600F0B4FF0720E86069
:106840002846BDE8F041FFF707BB000000100258E2
:10685000600100202DE9F05FDFF8A0E0203A00237E
:10686000274E02F0FF0A894683461A46DEF80800E2
:10687000194626E0234DD0F80080B5F800C0AF8857
:106880000AFB04851FFA8CFCBFB2002413F80550E4
:106890005FEAC57802D026F812C001E026F812702F
:1068A000B0F80480491C521C89B26D0892B2884528
:1068B00001D1002103E0641CA4B2082CE8D35B1CC6
:1068C0009BB204899C42D5D8C288A9F10101838872
:1068D000ABF101001144744618448BB2494682B2B0
:1068E000584601F02BF8A0688188C088BDE8F05FA9
:1068F0004143034889B201F081B900000C00002037
:10690000E8010020E80900202DE9F05FDFF8D080E1
:106910008346177800238A461946D8F80C00048964
:1069200006685D1C04FB05FC16F80CC0BC4508D1CC
:1069300005FB046592F801C06D78654501D1994663
:1069400004E045899B1C9BB29D42EAD80022254E5B
:106950001346C64627E0DFF890C0056809FB0455DA
:10696000BCF800800024BCF804C01FFA88F75D5D05
:106970001FFA8CFC5FEAC57802D026F8127001E09D
:1069800026F812C0B0F80480491C521C89B26D0868
:1069900092B2884501D1002103E0641CA4B2082C06
:1069A000E8D35B1C9BB204899C42D4D8C288AAF16C
:1069B00001018388ABF101001144744618448BB285
:1069C000514682B2584600F0B9FFE0688188C0881D
:1069D000BDE8F05F4143034889B201F00FB9000000
:1069E0000C000020E8010020E80900207FB51E46C9
:1069F000094B05460C46187A1346324648B107A1A2
:106A0000684604F0B3FA6A462146284600F00CF8BE
:106A10007FBD03A1F4E70000E8090020252A6400F7
:106A200025302E2A640000002DE9F0410B4F154659
:106A30000B4E8846044608E041462046FFF70AFF11
:106A4000B8686D1C8088204484B27089A04202D945
:106A50002A78002AF0D1BDE8F08100000C00002067
:106A6000E80900202DE9F0410F4E14460F46054677
:106A700015E07F2A09D839462846FFF7EBFEB068B3
:106A8000641C8088284485B209E02246394628469D
:106A9000FFF73AFFF068A41C8088284485B222786A
:106AA000002AE6D1BDE8F0810C0000202DE9F84F66
:106AB0005542814602201F4F0026884600EB4504C0
:106AC00008EB060A3A68A9EB05001FFA8AF1009064
:106AD00080B200F049FA09EB050B3A681FFA8AF117
:106AE0001FFA8BF000F040FAA8EB060A3A681FFA8A
:106AF0008BF01FFA8AF100F037FA00981FFA8AF13A
:106B00003A6880B200F030FAB442204608DC761CC5
:106B100000EB4604641CF54202D1A84200DC0020D0
:106B2000A84203DD6D1C04EB4504641C002DC7DD89
:106B3000BDE8F88FE80900202DE9F05F00EE102A8B
:106B400000EE903AC2F10007804602200E46B8EEF1
:106B5000C00AF8EEE00A00EB47046D489A424FF095
:106B600000052DED028B67DD80EE208A4FEA0009DB
:106B700000EE105AA8EB070BD9F80020B8EEC00AB7
:106B8000C0EE080ABCEEE00A10EE100A304481B2F2
:106B90001FFA8BF000F0E8F900EE105A08EB070A34
:106BA000D9F80020B8EEC00AC0EE080ABCEEE00A30
:106BB00010EE100A304481B21FFA8AF000F0D4F9C6
:106BC00000EE105AD9F80020B8EEC00AC0EE080A4C
:106BD000BCEEE00A10EE100A301A81B21FFA8AF0F9
:106BE00000F0C2F900EE105AD9F80020F8EEC00A01
:106BF00080EE880ABCEEC00A10EE100A301A81B28C
:106C00001FFA8BF000F0B0F9AC42204608DC6D1C96
:106C100000EB4504641CEF4202D1B84200DC0020C6
:106C2000B84203DD7F1C04EB4704641C002F9FDD8A
:106C3000BDEC028BBDE8F09F80EE808A5F424FEA98
:106C40000009002500EE105A06EB070AD9F80020CB
:106C50001FFA8AF1B8EEC00AC0EE080ABCEEE00ADC
:106C600010EE100AA8EB000080B200F07DF900EEF3
:106C7000105A1FFA8AF1D9F80020B8EEC00AC0EE07
:106C8000080ABCEEE00A10EE100A404480B200F0A0
:106C90006BF900EE105AA6EB070AD9F800201FFA8C
:106CA0008AF1B8EEC00AC0EE080ABCEEE00A10EEA7
:106CB000100A404480B200F057F900EE105A1FFA53
:106CC0008AF1D9F80020B8EEC00AC0EE080ABCEE7E
:106CD000E00A10EE100AA8EB000080B200F044F9C0
:106CE000AC4220460ADC6D1C05EB45021418EF424D
:106CF00004F1010402D1B84200DC0020B84204DDF6
:106D00007F1C07EB47000444641C002F9ADD8FE7CB
:106D1000E80900202DE9FF4F4FF480619B46B1FB4D
:106D2000FBF183B0144607464FF0000A3E46554635
:106D3000049800903819401EDDF84090CDE901100C
:106D40006EE00020B4EE001A27E0384B002199F8DD
:106D50000020A3F5006EB3F800C09B881FFA8CFCDE
:106D60001FFA83F35FEAC27802D02EF815C001E063
:106D70002EF81530761CB6B26D1C5208A6EB07082B
:106D8000ADB2A04501D13E4603E0491C89B20829B5
:106D9000E8D3401C80B209F1010900EE104A00EE70
:106DA000900AF8EE401AB8EE600A61EE810AF4EE3D
:106DB000C00AF1EE10FAC8DC01986043A84216D16F
:106DC000DDE90001002500EB01080299A8F10100AE
:106DD00083B238468AB2009900F0B0FD0198604352
:106DE00081B2134800F00AFF1FFA88F000900AF100
:106DF0000108D84512D1049938468A4402991FFAED
:106E00008AF38AB2009900F099FD0099AAEB01007B
:106E1000401C604381B2064800F0F0FE1FFA88FA79
:106E2000DA458ED307B0BDE8F08F0000E8090020F6
:106E3000E80100202DE9FC5F151A0027002D00DC79
:106E4000851A5C1A0FFA85FC002C00DCCC1A06B2FD
:106E500082424FF0FF320DB220B203D301240094DE
:106E6000A24601E0924600928B4203D34FF0010B01
:106E7000D94601E09346D9464FF00001844507DB2F
:106E8000894600910CEBDC71E04601904C1025E046
:106E90008A464FF0000B00EBD0718046CDF804C05D
:106EA0004C101BE00F48A9B20268B0B200F05CF8C9
:106EB0000198204404B2444508DB0098A4EB080183
:106EC0000CB2321805EB0B0016B205B27F1C06EBB4
:106ED0000A0105EB09000EB205B23FB24745E1DDFC
:106EE000BDE8FC9FE80900200B460D4970B514462B
:106EF0000A88A1F50065002192B203E04E1C25F836
:106F00001120B1B2A142F9D30119491E8AB2194622
:106F100000F014FD21460348BDE8704000F06EBE4D
:106F2000E8090020E801002070B514460C4AA2F5DB
:106F30000065138800229BB203E0561C25F812302E
:106F4000B2B2A242F9D30A19521E93B2024600F01D
:106F5000F5FC21460348BDE8704000F04FBE00003C
:106F6000E8090020E801002010B514460B4602464F
:106F700000F0E4FCA0B2BDE8104000F073BE2DE9C3
:106F8000F0411C4616460D460746FFF7ADFF28198F
:106F90003246401E81B23846FFF7A6FF22462946F8
:106FA0003846FFF7C1FFB81922462946BDE8F0412F
:106FB000401E80B2FFF7B8BF10B5FFF7BDFB174802
:106FC00000F0FEFC5A233C228C217820FFF7B4FD10
:106FD000C820FBF74DFF5A233C228C217820FAF77A
:106FE000E5F8C820FBF744FFFFF7A6FB0C4800F0CC
:106FF000E7FC322350228C217820FFF79DFDC8202A
:10700000FBF736FF322350228C217820FAF7CEF896
:10701000BDE810404FF4FA70FBF72ABF80FF8000F4
:1070200080FFFF002DE9F84F8B469046032107466D
:1070300000244FF6FF79A1EB4806154631E08DB1EB
:107040003B1BABEB0501009109EA450298B2924661
:1070500089B2FFF769FF0099381980B2524689B2A8
:10706000FFF762FF8CB17B1BABEB0401009109EAD7
:10707000440298B2924689B2FFF756FF00997819F8
:1070800080B2524689B2FFF74FFF002E03DA06EBBB
:107090008406B61D04E0601B6D1E06EB80060A36F2
:1070A000641CAC42CBD9424659463846BDE8F84F3D
:1070B000FFF7FCBC70B51D4614464B1902195B1E48
:1070C000521E9BB292B200F039FC01220C48D1034F
:1070D000FCF703F80B4E0F20F0603046FEF7BCFEC5
:1070E00006F6880004FB05F2008881B2304600F005
:1070F000ADFA0720F0603046BDE87040FEF7ACBE48
:10710000001002586001002070B5FFF715FB214800
:1071100000F056FC00244FF48C7500BF04EB840093
:107120002B4682B20E210C20FFF784FE0A20FBF7CB
:107130009FFE641C302CF1DD174800F041FC002458
:107140002B4660420E2100EB8000F03082B2E4203A
:10715000FFF770FE0A20FBF78BFE641C302CEFDD7E
:107160000E4800F02DFC00242B4660428B2100EBE2
:107170008000F03082B27820FFF75CFE0A20FBF737
:1071800077FE641C302CEFDDBDE870404FF4FA70E0
:10719000FBF76EBEFF80800080FF80008080FF00D4
:1071A00038B5FFF7C9FA0E4800F00AFC0D48EF2386
:1071B00014211A4600900020FFF7ACFD4FF47A74BA
:1071C0002046FBF755FE0848EF2314211A4600908D
:1071D0000020FFF79FFD2046BDE83840FBF748BE82
:1071E00080FF8000D4290108D20D01082DE9F04F5D
:1071F00001244FF0780B00204FF08C0A2DED028B0C
:10720000CBB04FF0500821944690FFF795FA4348D1
:1072100000F0D6FBFFF790FA002540E000EE105A90
:107220009FED3F8B00EE904AB8EE401BB8EEE02B8E
:1072300021EE081B81EE020B04F0B6F801EE10BA45
:1072400001EE908AB8EEC12BB8EEE11B01EE002BE7
:1072500000EE904ABDEEC20BB8EEE02B10EE101A15
:1072600000EE105A4DF82510B8EE401B21EE081B19
:1072700081EE020B04F0F0F801EE10AA01EE908A04
:1072800022A9B8EEC12BB8EEE11B6A1C01EE002B5F
:10729000BDEEC20B10EE100A41F82500D5B2A54292
:1072A000BCDB0025A4F102091DE0681C4890671EA4
:1072B000C6B214E022A83DF826203DF825C092B2BF
:1072C00030F8263030F825009BB281B21FFA8CF0DE
:1072D000FFF7B0FD0220FBF7CBFD761CF6B2BE42F5
:1072E000E8DD4898C5B24D45DFDD219804440F2CF8
:1072F00000D00CB9404221903220FBF7B9FD4698EE
:10730000401C46901E2803D03220FBF7B1FD81E7D8
:107310004BB0BDEC028BBDE8F08F000080FF800019
:107320004AD8124DFB2119402DE9F05FFFF704FA0E
:10733000724800F045FB02244FF6FF77F0264FF429
:107340008C7500BFA4EBC402A4EB840304EB4400DF
:1073500005EB420206EB830C93B2C4EBC40189B285
:107360001FFA8CF207EA4000FFF709FE1E20FBF728
:107370007FFD641C142CE5DBC820FBF779FD13248A
:10738000A4EBC402A4EB840304EB440005EB42022B
:1073900006EB830C93B2C4EBC40189B21FFA8CF2E2
:1073A00007EA4000FFF786FE1E20FBF761FD641E22
:1073B000022CE5DAC820FBF75BFD002000F000FBA3
:1073C0000224A946B246BB46A4EBC406A4EB84073C
:1073D00004EB440809EB46030AEB8702C4EBC4053F
:1073E0009BB292B2A9B20BEA4800FFF7C8FDEE20AB
:1073F0004FF48B7100EB8702012303EB480001EB94
:1074000046018BB205F1010C92B21FFA8CF180B2E9
:10741000FFF7B5FDEC2000EB870202234FF48A71E1
:1074200003EB480001EB46018BB205F1020C92B26E
:107430001FFA8CF180B2FFF7A2FDEA204FF48971A8
:1074400000EB8702032303EB480001EB46018BB2FC
:1074500005F1030C92B21FFA8CF180B2FFF78FFD99
:107460000421E8204FF4887201EB480802EB460241
:1074700000EB870793B2291DBAB289B21FFA88F0D0
:10748000FFF77DFD4FF4877000EB460083B26D1D62
:10749000BAB2A9B21FFA88F0FFF771FD1E20FBF700
:1074A000E7FC641C142C8FDBC820FBF7E1FC0020F8
:1074B00000F086FA13244D4656465F46A4EBC402FC
:1074C000A4EB840304EB440005EB420206EB830CBF
:1074D00093B2C4EBC40189B21FFA8CF207EA4000F0
:1074E000FFF7E8FD1E20FBF7C3FC641E022CE5DA63
:1074F000BDE8F05F4FF4FA70FBF7BABC80FF800084
:10750000F8B5FFF719F9214800F05AFA02240C25C2
:107510005FF0F0074FF48C760095A4EBC401A4EB68
:10752000840204EB440006EB410307EB82024000B7
:10753000C4EBC401DBB2D2B2F9F78EFF1E20FBF719
:1075400097FC641C132CE7DBC820FBF791FC12248A
:107550000095A4EBC402A4EB840006EB420304EB09
:10756000440107EB80024800C4EBC401DBB2D2B295
:10757000F9F7D5FF1E20FBF77BFC641E022CE7DA2F
:10758000BDE8F8404FF4FA70FBF772BC80FF800052
:1075900010B5026840F26F335169946944F00804F1
:1075A00094610268946944F010049461026814685C
:1075B00024F001041460026814699C431461026899
:1075C000936823F44043936090F88120042A0CD000
:1075D0008A060AD5D0F8842042F08002C0F88420C0
:1075E0000268936943F02003936190F88120032A95
:1075F0000CD04A060AD5D0F8842042F00402C0F824
:1076000084200268936943F0400393618A050AD598
:10761000D0F8842042F00102C0F884200268936907
:1076200043F400739361C9050AD5D0F8841041F082
:107630000801C0F8841001688A6942F480728A6186
:107640000021A0F86210A0F86A1010BD2DE9FC5FBF
:107650008A4690F8801004461646002001900129C1
:107660004FF47A770DD04FF0010884F88080FBF753
:107670003FFD814694F881000025012804D00220B6
:1076800017E00220BDE8FC9F96B1A16803204AEAFA
:107690000A4B84F88100C4F884506566A4F86850E9
:1076A000A4F86A50B1F5C02F6567256704D008E0DB
:1076B000012084F88050E5E72068016841F400610A
:1076C0000160206841686FF30F0141602068016824
:1076D00041F0010101606068B0F5800F04D12068BD
:1076E000016841F4007101602068416989070DD586
:1076F000B4F86210012905D9E16B19B1C0F820B0C6
:10770000B61E17E0A0F820A0761E13E0FBF7F0FCF1
:10771000A0EB0900B8420DD32046FFF739FFD4F89B
:10772000841084F8805041F48071C4F8841084F887
:10773000818033E0002ED7D100224B464FF4805198
:107740002046009700F0D9F828B1D4F8840040F022
:107750002000C4F884002068016841F48061016061
:1077600000224B464FF400612046009700F0C5F818
:1077700028B1D4F8840040F02000C4F884002046EA
:10778000FFF706FF2068826942F40062826184F894
:10779000805084F88180D4F8840008B1012071E71A
:1077A00001986FE72DE9F84F0E4690F880104FF4DE
:1077B0007A771546012904464FF0000B0DD04FF0A3
:1077C000010984F88090FBF793FC94F881108246BD
:1077D0000020012904D0022116E00220BDE8F88F24
:1077E0008DB1A2680321804684F88110C4F884001A
:1077F0006066A4F86800A4F86A00B2F5C02F60675C
:10780000206705D009E0012184F880000846E5E7FB
:107810002068016841F400610160206841686FF3ED
:107820000F0141602068016841F00101016060685A
:10783000B0F5800F04D12068016841F40071016047
:107840002068416989070CD5012D05D9E16B19B173
:1078500002CE0162AD1E18E036F8021B01846D1ED7
:1078600013E0FBF745FCA0EB0A00B8420DD320461D
:10787000FFF78EFED4F8842084F8808042F4807173
:10788000C4F8841084F8819033E0002DD8D1002210
:1078900053464FF480512046009700F02EF828B14F
:1078A000D4F8840040F02000C4F884002068016807
:1078B00041F480610160002253464FF4006120468C
:1078C000009700F01AF828B1D4F8840040F02000A6
:1078D000C4F884002046FFF75BFE2068836943F408
:1078E0000063836184F8808084F88190D4F88400F8
:1078F00008B1012072E7584670E72DE9F04198463B
:1079000016460D460746069C09E0FBF7F1FBA0EB87
:107910000800A04202D3601C01D00BE054B13868CB
:10792000406935EA000007D00020B042EDD00020C9
:10793000BDE8F0810320FBE70120F6E72DE9F041E7
:10794000984615460E4607462A2000F077F90F4C58
:10795000A07B384480B200F085F9A07B284480B237
:1079600000F080F92B2000F069F9E07B304480B210
:1079700000F078F9E17B01EB080080B200F072F9C9
:10798000BDE8F0412C2000F059B90000E8090020C2
:1079900001498860704700000C0000204FF47841D6
:1079A0004FF4FC6301EA1021C0F3C40203EA501053
:1079B000014302481143416070470000E80900207C
:1079C0004FF478414FF4FC6301EA1021C0F3C40284
:1079D00003EA501001430248114301607047000060
:1079E000E80900202DE9F041194C002514264FF03C
:1079F000F0084FF48C77607298B1022816D00128F5
:107A000019D003280BD1362000F018F95FF0C00020
:107A100000F040F9A573E673A4F80A80A781BDE8D9
:107A2000F081362000F00AF9702008E0362000F0DE
:107A300005F90020ECE7362000F000F9A02000F066
:107A400029F9A673E5736781A4F80C80E7E70000C5
:107A5000E80900200C49C860808814280FD005DC94
:107A60000C280AD0102807D1084804E0182808D0AC
:107A7000202801D10648886070470648FBE7064881
:107A8000F9E70648F7E700000C0000205C00002042
:107A90003800002068000020500000204400002032
:107AA000002010B5FFF77AFFFEF746FE2648FFF7E5
:107AB00087FF2648FFF76CFF1921142024A2FEF748
:107AC000B3FFC820FBF7D4F92448FFF761FF2A2150
:107AD00014201FA2FEF7A8FFC820FBF7C9F9204811
:107AE000FFF756FF4121142019A2FEF79DFFC82081
:107AF000FBF7BEF91B48FFF74BFF5F21142014A2D0
:107B0000FEF792FFC820FBF7B3F91748FFF740FFD5
:107B1000822114200EA2FEF787FFC820FBF7A8F9E8
:107B20001248FFF797FFB421142011A2FEF79AFF25
:107B3000E121142010A2FEF795FFBDE810404FF49C
:107B4000FA70FBF795B9000080FF80006800002004
:107B50004D616B6572626173650000005C0000201E
:107B60005000002044000020380000202C0000209D
:107B7000B4B4BFCD00000000BBF9B5D800000000D0
:107B80007CB5FEF7D9FD1B48FFF71AFFFF25E4245B
:107B90000E2322460C201946CDE90045F9F7A7FC33
:107BA000C820FBF765F90E23E42219460C20CDE925
:107BB0000045F9F7ACFBC820FBF75AF90E48FFF770
:107BC000FFFE0C22FF2310460E21CDE90045F9F7F8
:107BD0008EFCC820FBF74CF90C22FF2310460E2127
:107BE000CDE90045F9F793FBBDE87C404FF4FA700E
:107BF000FBF73EB980FF800080FFFF0070B50122D7
:107C00000C4605460B48D103FBF767FA0A4E0F20D6
:107C1000F0603046FEF720F94FF47A732246294689
:107C20003046FEF731FA0720F0603046BDE870407C
:107C3000FEF712B9001002586001002001B5074894
:107C400000224FF40041FBF748FA054801224FF4A7
:107C50007A736946FEF718FA08BD00000010025852
:107C600060010020012238B5D10304460748FBF724
:107C700034FA200A8DF80000054802224FF47A7386
:107C800069468DF80140FEF7FFF938BD0010025833
:107C900060010020012201B50548D103FBF71DFA60
:107CA000044801224FF47A736946FEF7EDF908BDE6
:107CB00000100258600100201FB5FBF7A3FA012154
:107CC0008DF80F1000208DF80E1012238DF808305B
:107CD00003248DF80B408DF800104FF010528DF8F2
:107CE0000D108DF80A0001928DF801008DF8090041
:107CF0008DF80C006846FBF757FA0420FBF790FA62
:107D00001FBD000012480021104A10B5C0E9002133
:107D10008160C16001614161816101624162816292
:107D2000C1620163F9F7D8FC052200214E20FBF760
:107D3000A5FA4E20FBF794FA0548F9F7CDFC002888
:107D400003D0BDE81040F9F712BC10BD0000024896
:107D50009800002030B587B014216846F8F7F0FA93
:107D60002248016841F010010160016801F0100132
:107D70000591016841F004010160016801F004010E
:107D80000591016841F080010160016801F0800106
:107D90000591016841F001010160016801F00101F4
:107DA0000591016841F002010160016801F00201E2
:107DB0000591016841F00801016000684FF400542A
:107DC0000B4D002200F00800214605902846FBF7E5
:107DD00084F9002100940120CDE901012846039196
:107DE0006946FBF757F807B030BD0000E044025881
:107DF00000080258002110B5084C4FF480430622B9
:107E0000C0E90041C0E90213C0E904120C46FDF7C5
:107E100065FF00B10124204610BD00000070005233
:107E200070B515484FF480050021124CEB01072274
:107E3000C0E90321C0E90513C1615A000162202392
:107E400041626E118162C162C0E90D21C0E90F314A
:107E500041648164C16401654165816580E87000A9
:107E6000FDF7FAFF002803D0BDE87040F9F77FBBAB
:107E700070BD00000034014060010020184800215E
:107E800010B5164C0C224FF4E1330460C0E9013107
:107E9000C160C0E904128161C16101624162816215
:107EA000FEF7A1FA08B1F9F762FB0D480021FEF7D1
:107EB00074FA08B1F9F75BFB09480021FEF747FAAD
:107EC00008B1F9F754FB0648FEF721FA002803D061
:107ED000BDE81040F9F74BBB10BD00000010014099
:107EE000F8090020FEE7FEE70148FBF7F1BA0000C1
:107EF000280D002070B50024054605E005EB44017F
:107F0000497800F0C3FC641C15F814000028F5D172
:107F100070BD000038B590424FF0FF3401D2994255
:107F200001D3204638BD121A95B25A1A04EB400309
:107F300002EBD272491E88B2009004EB620205483F
:107F400092B229469BB2F9F72DFB0248F9F745FB9F
:107F5000002038BD980000201748F8B5016841F0AE
:107F60000201016000684B27144E154C00F002001E
:107F7000009000203115C4E90067A0600C348A002D
:107F80000B018D102FC40426032784E8C100E06094
:107F90002061203C0A48FAF73BFCA4F15000002283
:107FA00011468464A0634620FBF768F9BDE8F840F9
:107FB0004620FBF755B90000D8440258B8040240E7
:107FC000E800002070B50C46084905464FF4807063
:107FD000C8610846FAF71CFC044823462A46BDE857
:107FE000704000215038F9F769BC0000E80000201B
:107FF00001B5002249F6404181B00CE0ADF8002007
:1080000005E000BFBDF80000401CADF80000BDF861
:1080100000008842F6D30198431E0193EED20CBDB6
:108020000121FF2010B500F031FC0A2000F052FBC6
:1080300004460B2000F04EFB40EA042010BD000077
:10804000052010B5FFF7D4FF0A4800224FF4804105
:10805000FBF743F80520FFF7CBFF0121FF2000F0DD
:1080600015FC8021122000F011FCBDE810400A2010
:10807000FFF7BEBF000C025870B50C460546204302
:10808000800702D04FF0FF3070BD0021FF2000F0CC
:10809000FDFB5A20C5F3870100F0F8FB5B20C4F319
:1080A000870100F0F3FB042000EA1421C5F38122CC
:1080B00011435C2000F0EAFB0021E02000F0E6FB29
:1080C000002070BD2DE9F0410446C0680D46202710
:1080D000236801284FF4004604F2C44203EB451123
:1080E000D3F840C0D1F8080B09D0DFF89CE0F44584
:1080F0003AD1020433D500BFC1F8086B40E0234BEE
:108100005FEA007E04D59C453AD90004F4D437E0F8
:108110005FEA806E02D5C1F8087B31E010F0280FCD
:108120002ED19C4501D90004E6D4D1F8101B05EBF3
:10813000C50004EB8000C1F31201D0F89C32A3EB20
:108140000101C0F8901200F51F70ADB903691BB1B1
:10815000C2681144C1600FE0206801210AE0800676
:108160000AD5C1F8087B07E035B9D4F88C0218B9F4
:108170000021184602F0E2FB2046E9B2FBF7BEF808
:108180000020BDE8F08100000A31544F0A30544FFE
:108190002DE9F84F0E460568814601EBC60100EB5C
:1081A0008104D4E913203C34904202D90120BDE877
:1081B000F88FA168101A814200D20846C01C05EB56
:1081C000461887081BE000BFA268A0EB010A5245D1
:1081D00000D2924699F80C100AF1030000911FFAA0
:1081E0008AF3E16887082846F2B202F099FEE16856
:1081F00001EB0A00E060616901EB0A006061D8F8F8
:10820000180980B2B84205D3D4E90401814201D2F1
:108210000028D9D1D4E90401884208D8D5F8341807
:10822000012006F00F0290408143C5F83418002069
:10823000BDE770472DE9F047454D044689464FF0AC
:10824000000A2868C04380070AD0414E283E3068A3
:1082500020F080603060FAF74BFF0746B04608E038
:108260000120BDE8F08700BFFAF742FFC01B0228DB
:1082700067D8D8F800000001F6D4206829684FF4C8
:10828000FE0721F47C313E0241EA00302860207A6A
:10829000A389B4F804C040022D4D2D495B1E227CF9
:1082A000ACF1010C1035091DA0F5007080B2521E12
:1082B000CCF3080C07EA034340EA0C00184306EA33
:1082C0000262104328600868626920F0C000104311
:1082D00008600A68A06922F0200202430A60281D93
:1082E0000A6822F010020A6002684FF6F873E46927
:1082F0009A4342EAC40202600868B9F1000F40F0F4
:1083000010020A6011D00868B9F1010F11D040F4D1
:1083100000100860D8F80000444640F08060C8F8BB
:108320000000FAF7E5FE05460DE0086840F400207D
:10833000EFE740F48010ECE7FAF7DAFE401B022882
:1083400001D903208DE720680001F5D5504688E764
:10835000284402582DE9F047454D044689464FF020
:10836000000A2868C04380070AD0414E283E306882
:1083700020F080503060FAF7BBFE0746B04608E0B8
:108380000120BDE8F08700BFFAF7B2FEC01B02284B
:1083900067D8D8F800008000F6D4208829684FF408
:1083A000FE0721F07C713E0241EA00502860207AED
:1083B000A389B4F804C040022D4D2D495B1E227CD8
:1083C000ACF1010C1835091DA0F5007080B2521EE9
:1083D000CCF3080C07EA034340EA0C00184306EA12
:1083E0000262104328600868626920F4406010430C
:1083F00008600A68A06922F4007202430A60281D1E
:108400000A6822F480720A6002684FF6F873E46921
:108410009A4342EAC40202600868B9F1000F40F4CE
:1084200080720A6011D00868B9F1010F11D040F0D4
:1084300080700860D8F80000444640F08050C8F8CA
:108440000000FAF755FE05460DE0086840F480008C
:10845000EFE740F40000ECE7FAF74AFE401B022881
:1084600001D903208DE720688000F5D5504688E7C4
:10847000284402582DE9F0410C4605461E46174691
:108480002DED048BB0EE409B19681068091BDDF8D8
:108490002880401B494300FB001000EE100AB8EE94
:1084A000C00A04F061F830683968B7EEC08A001B72
:1084B000491B00EE900A00EE101AB8EEE01BB8EE71
:1084C000C00B02F091FEB8F1000F02D030EE090BA4
:1084D00001E030EE490BB0EE409B02F065FF01EE8B
:1084E000105AB8EEC11B08EE001BBDEEC10B87EDA4
:1084F000000AB0EE490B02F0AFFF01EE104AB8EEF1
:10850000C11B08EE001BBDEEC10B86ED000ABDECE1
:10851000048BBDE8F081000070B5154D4FF48074F8
:10852000002221462846FAF7D8FD082000F022F85C
:108530006600284600223146FAF7CFFD082000F0F9
:1085400019F8012221462846FAF7C7FD082000F055
:1085500011F8002221462846FAF7BFFD01223146D4
:108560002846FAF7BAFDBDE87040082000F002B8CE
:1085700000040258002208B50DE000BFADF800204D
:1085800005E000BFBDF80010491CADF80010BDF8B3
:1085900000100629F6D3401EF0D208BD70B586B093
:1085A00014216846F7F7CCFE1948016841F0020132
:1085B0000160016801F002010591016841F00201CA
:1085C0000160006811214FF48074124E00F0020027
:1085D000059000200094CDE90110694603903046D3
:1085E000FAF758FC6500694630460095FAF752FCE8
:1085F000012130460A46019102912146FAF76DFDAC
:10860000012229463046FAF768FD06B070BD000029
:10861000E04402580004025870B5124D4FF48074C3
:10862000002221462846FAF758FD0820FFF7A2FF4E
:10863000012228465102FAF750FD0820FFF79AFF61
:10864000012221462846FAF748FD0820FFF792FF4D
:10865000002221462846FAF740FDBDE87040082078
:10866000FFF788BF000402582DE9F047184F002596
:108670004FF4807681464FF4007A2C4668063146E6
:1086800001224FEA10683846FAF727FD0820FFF765
:1086900071FF51463846FAF713FD00F001053146E7
:1086A0000022384645EA0805FAF717FD0820FFF7CB
:1086B00061FF641CE4B2082CE0D3B9F1010F04D0CF
:1086C000FFF7AAFF2846BDE8F087FFF725FFF9E787
:1086D0000004025870B50024054600F015F828463D
:1086E00000F0C6F870B900F035F800F00DF8612020
:1086F00000F088F8012803D10020FFF7B5FF0446F9
:1087000000F028F8204670BD70B50122104D5402CB
:1087100028462146FAF7E1FC012228461602314696
:10872000FAF7DBFC0820FFF725FF00222146284648
:10873000FAF7D3FC0820FFF71DFF00223146284638
:10874000FAF7CBFCBDE870400820FFF713BF00002C
:108750000004025870B5134D4FF480740022214676
:108760002846FAF7BAFC0820FFF704FF66002846FF
:1087700000223146FAF7B1FC0820FFF7FBFE012288
:1087800021462846FAF7A9FC0820FFF7F3FE01224C
:1087900031462846FAF7A1FCBDE870400820FFF7F3
:1087A000E9BE00000004025870B50122144C5502C5
:1087B00020462946FAF791FC0820FFF7DBFE01224C
:1087C000204616023146FAF788FC0820FFF7D2FE51
:1087D00029462046FAF774FC00284FF00002314683
:1087E000204606D0FAF779FC0820FFF7C3FE0020E8
:1087F00070BDFAF772FC0820FFF7BCFE012070BDC7
:10880000000402582DE9F041184E00244FF48077FF
:1088100005464FF40078280601D5012200E0002229
:1088200041463046FAF759FC0820FFF7A3FE012223
:1088300039463046FAF751FC0820FFF79BFE00222C
:1088400039463046FAF749FC072C04D1012241464B
:108850003046FAF742FC6806641C050EE4B2082CA8
:10886000D9D3BDE8F041FFF79FBF000000040258D4
:1088700010B50446FFF748FF6020FFF7C3FF01284B
:1088800002D12046FFF7BEFF002010BD70B50D4697
:108890000446FFF739FF2046FFF7EAFF10B92846E4
:1088A000FFF7B0FFFFF756FF002070BD0020FDF777
:1088B000F5B830B585B0044637204FF480720DF11D
:1088C000080CCDE9001000236946150120468CE80C
:1088D0002C0000F00BFB372141F28832204600F0DB
:1088E00091F905B030BD30B585B0044629204FF46C
:1088F00080720DF1080CCDE90010002369461501C6
:1089000020468CE82C0000F0F1FA204600F036FA00
:1089100005B030BD30B50446102085B00DF1080C0F
:1089200002010502CDE90010002369468CE82C0005
:10893000204600F0DBFA102141F28832204600F098
:1089400061F905B030BD30B585B0044606204FF45E
:1089500080720DF1080CCDE9001000236946150165
:1089600020468CE82C0000F0C1FA062141F2883242
:10897000204600F047F905B030BD000030B585B0A5
:108980000546002469464FF48050009401940294F7
:10899000CDE90340284600F0A9FA0B4A4FF4FA50FB
:1089A00041F288311268B2FBF0F04843401E03D216
:1089B0004FF0004005B030BD696B0906F6D503499C
:1089C0002046A963F6E7000084000020C5002000CF
:1089D00030B50821044685B04FF4D5704A01002314
:1089E0004D028DE82F006946204600F07FFA2046B0
:1089F00000F02EFA05B030BD30B585B00446072032
:108A00004FF480720DF1080CCDE900100023694687
:108A1000150120468CE82C0000F068FA072141F28D
:108A20008832204600F0EEF805B030BD10B585B0B4
:108A30000446002102204FF44072C3020493CDE9A2
:108A40000010CDE902216946204600F04FFA204689
:108A500000F06AF905B010BD30B585B004460920B4
:108A60000DF1080C0023CDE900104FF44072694667
:108A70004FF4805520468CE82C0000F037FA204651
:108A800000F052F905B030BD10B585B004460021A4
:108A900033204FF48072CDE90221CDE9001013019B
:108AA00069462046049300F021FA332141F28832CE
:108AB000204600F0A7F805B010BD30B585B00446DB
:108AC0000D204FF480720DF1080CCDE90010002349
:108AD0006946150120468CE82C0000F007FA0D21AC
:108AE00041F28832204600F08DF805B030BD30B537
:108AF00085B00C460021054603204FF48072CDE975
:108B00000221CDE90010130169462846049300F0C4
:108B1000EDF903212246284600F054F905B030BD96
:108B200010B585B0044600210D204FF48072CDE9C8
:108B30000221CDE90010130169462046049300F09C
:108B4000D5F90D2141F28832204600F05BF805B0DE
:108B500010BD000010B585B004464FF480720020AF
:108B60000C2113018DE80700CDE90303E06840F014
:108B70008000E060E06820F04000E0606946204648
:108B800000F0B4F9074A0C21204600F03BF8E168F8
:108B9000B0F1007F21F08001E16000D1002005B03C
:108BA00010BD000000E1F50530B585B00446062093
:108BB0004FF480720DF1080CCDE9001000236946D6
:108BC000150120468CE82C0000F090F9062141F2B6
:108BD0008832204600F016F805B030BD70B50A683E
:108BE00042624A688262C46AD1E90225D1E9043648
:108BF00024F0FF012A4333431A431143C16200208A
:108C000070BD000030B5464D4FF4FA53434C2D680B
:108C1000B5FBF3F353435B1E02D24FF0004030BD6F
:108C2000426B2242F7D09204F5D4426B520703D52F
:108C300004218163084630BD426BD20702D0012176
:108C4000816306E0354A803282630269D2B28A4289
:108C500001D0012030BD002100F02AF9314908423D
:108C600001D1002030BD002802DA4FF0007030BD85
:108C7000410001D5402030BD810001D5802030BDAC
:108C8000C10002D54FF4807030BD010102D54FF410
:108C9000007030BD410102D54FF4806030BDC1018C
:108CA00002D54FF4006030BD010202D54FF4805070
:108CB00030BD410202D54FF4005030BD810202D5D3
:108CC0004FF4804030BDC10202D54FF4004030BDAA
:108CD000410302D54FF4003030BD810302D54FF47B
:108CE000802030BDC10302D54FF4002030BD010407
:108CF00002D54FF4801030BD410402D54FF400106E
:108D000030BD810402D54FF4800030BD000702D58C
:108D10004FF4000030BD4FF4803030BD45002000DE
:108D20008400002008E0FFFD124B4FF4FA5141F29D
:108D300088321B68B3FBF1F15143491E02D24FF058
:108D400000407047426B12F0450FF6D09204F4D405
:108D5000416B490703D50421816308467047416B85
:108D6000C90703D001218163084670470249816326
:108D70000020704784000020C50020000F4B4FF4F6
:108D8000FA5141F288321B68B3FBF1F15143491E9D
:108D900002D24FF000407047426B12F0450FF6D000
:108DA0009204F4D4416B490703D50421816308463A
:108DB0007047034981630020704700008400002051
:108DC000C500200030B5204D4FF4FA5341F28834ED
:108DD0002D68B5FBF3F363435B1E02D24FF00040F6
:108DE00030BD446B14F0450FF6D0A404F4D4436BAB
:108DF0005B0703D504218163084630BD436BDB0765
:108E000002D00121816303E00369DBB28B4201D010
:108E1000012030BD0D498163002100F049F810F4B4
:108E2000604F04D0410406D54FF4005030BD000C13
:108E30001080002030BD000402D54FF4805030BDBA
:108E40004FF4803030BD000084000020C5002000B9
:108E5000144B4FF4FA5141F288321B68B3FBF1F125
:108E60005143491E02D24FF000407047426B12F04E
:108E7000450FF6D09204F4D4416B490703D5042181
:108E8000816308467047416BC90703D001218163A4
:108E900008467047416B490601D540218163002097
:108EA0007047000084000020006800F00300704755
:108EB000084440697047000030B511434268DDE95D
:108EC00003542B43034D194321432A400A43426074
:108ED000002030BD002CC0FF016841F0030101609B
:108EE00000207047D0F880007047000070B5084D32
:108EF0000A688260C368D1E90126D1E903412B40A9
:108F000032430C4322431343C360002070BD000072
:108F1000C0E0FEFF0968C0F8801000207047000024
:108F20002DE9F04F87B00D460446FAF7E1F8002628
:108F3000069020680821B3463746FFF7EBFC00286F
:108F400033D1B4F8441020680904FFF7B2FC0028BC
:108F50002BD1431E4FF008094FF0020A4FF0300C9E
:108F60004FF00108CDF80CA08DE80812CDE9046897
:108F700020686946FFF732FE2068FFF785FD00286C
:108F800013D140F22A582068416B11EA080F06D12C
:108F9000416B090315D4BBF1000F09D011E0416BFF
:108FA000090717D5C0F83890082007B0BDE8F08F42
:108FB000FFF798FF06462068FFF794FF07464FF03B
:108FC000010BFAF795F80699401A401CDBD14FF0D7
:108FD0000040EAE7416B890703D5C0F838A00220BA
:108FE000E3E7416B890603D5202181630846DCE76E
:108FF000034A39BA33BA82630020C5E90013D4E7C3
:109000003A0F001870B58CB004460020ADF82C0063
:10901000FAF76EF805462068FFF746FF002853D0A0
:10902000A06B032841D02068FFF700FD002849D13C
:1090300020680021FFF73CFFE06604212068FFF76D
:1090400037FF206708212068FFF732FF60670C2197
:109050002068FFF72DFFA16BA067032925D041F2FF
:10906000883600BFBDF82C0088B3A06B03281CD045
:10907000BDF82C10616420680904FFF7EDFC00289E
:1090800020D120680021FFF713FFE065042120684C
:10909000FFF70EFF206608212068FFF709FF6066D2
:1090A0000C212068FFF704FFA06604212068FFF769
:1090B000FFFE000D694620642046FCF795FBA8B131
:1090C0004FF080500CB070BD4FF08060FAE7FFE7C2
:1090D00020680BA9FFF70BFD0028F3D1FAF708F879
:1090E000401BB042BED34FF00040EBE7B4F8441051
:1090F00020680904FFF780FCE4E70000224910B56E
:10910000884286B03ED12148016841F48031016037
:10911000006800F4803005901C480C30016841F074
:1091200004010160016801F004010591016841F04A
:109130000801016000680221012200F0080005908A
:1091400003230C244FF4F8508DE81F0010486946A3
:10915000F9F7A0FE042000900E486946F9F79AFE40
:109160000A485838016841F480310160016821F4EF
:109170008031016000220E213120FAF77FF8312082
:10918000FAF76EF806B010BD8C0A0020D4440258DD
:1091900000080258000C02582DE9F84F002604463A
:1091A0003546B04600960068FFF7E8FB002829D155
:1091B0002068FFF70DFCB0F1004F4FF001094FF0B0
:1091C000805B4FF6FF7702D0C4F83C9008E0E6637E
:1091D0002068FFF7D3FB002814D1E06B01281ED1D3
:1091E00020680021FFF765FB58B918E020680021CE
:1091F000FFF75FFB002805D120685146FFF773FB9E
:1092000010B15846BDE8F88F20680021FFF750FEE6
:109210004FEAD07805460098401C009002E0DFF845
:1092200028A00098B84202D2B8F1000FDED0009812
:10923000B84202D34FF08070E4E76800A66301D51E
:10924000C4F838900020DDE7000010C12DE9F0419E
:1092500086B00D460446F9F74BFF0021074620680B
:10926000FFF726FE800104D54FF4006006B0BDE88C
:10927000F08120684021FFF74DFBC0B9B4F84410DD
:1092800020680904FFF715FB88B940214FF0FF3033
:1092900060224FF0010C022300268DE84F10206859
:1092A0006946FFF79BFC2068FFF73AFC98B1616BB9
:1092B0006163DBE7406B000407D500262068FFF7F9
:1092C00011FE761C082E01C5F8D3F9F711FFC01B5B
:1092D000401C02D127E04FF000482068416B11F498
:1092E000957FE7D0416B090701D50820BEE7416BA8
:1092F000890701D50220B9E7406B80060AD52020F6
:10930000B4E700BFFFF7EEFD01C5F9F7F1FEC01BA2
:10931000401C08D02068416BC904F3D401460348BF
:1093200088630020A2E74046A0E700003A0F00183B
:109330002DE9F04F9BB00F460025044640216846BA
:10934000F6F7FEFF0026F9F7D3FE8046A06DE0B3E6
:10935000FF285FD92068C56240212068FFF7DAFA4C
:10936000002838D112AB4FF00209401E4FF0010A1D
:109370004021602283E80702CDE9165A206812A92D
:10938000FFF72CFC20683946FFF70EFC050022D1C0
:1093900040F22A5B21684A6B12EA0B0F1ED1486B20
:1093A00000040BD500272068FFF79CFD07EBC602E1
:1093B0007F1C082F4DF82200F5D3761CF9F798FE94
:1093C000A0EB0800401CE5D100E00DE04FF00040AC
:1093D000606384F830A01BB0BDE8F08F486B0007D5
:1093E00005D50820886315E04FF08060F3E7486BEF
:1093F000800701D5484603E0486B800602D520204F
:109400008863E8E7044888639DF80D00800701D46D
:109410004FF080552846DEE73A0F001810B5026875
:1094200040F26F335169946944F008049461026812
:10943000946944F0100494610268146824F00104F3
:109440001460026814699C4314610268936823F4F1
:109450004043936090F88120042A0CD08A060AD5F4
:10946000D0F8842042F08002C0F88420026893691A
:1094700043F02003936190F88120032A0CD04A0620
:109480000AD5D0F8842042F00402C0F88420026893
:10949000936943F0400393618A050AD5D0F884208C
:1094A00042F00102C0F884200268936943F400731B
:1094B0009361C9050AD5D0F8841041F00801C0F8BD
:1094C000841001688A6942F480728A610021A0F8E0
:1094D0006210A0F86A1010BD10B5FEF7A1FC0A20BA
:1094E000F9F7C6FC3620FEF7A9FB0020FEF7D2FBF9
:1094F0003A20FEF7A3FB0520FEF7CCFBB220FEF7D7
:109500009DFB0C20FEF7C6FB0C20FEF7C3FB0020E2
:10951000FEF7C0FB3320FEF7BDFB3320FEF7BAFB9E
:10952000B720FEF78BFB3520FEF7B4FBBB20FEF720
:1095300085FB1920FEF7AEFBC020FEF77FFB2C2039
:10954000FEF7A8FBC220FEF779FB0120FEF7A2FB85
:10955000C320FEF773FB1220FEF79CFBC420FEF72E
:109560006DFB2020FEF796FBC620FEF767FB0F2061
:10957000FEF790FBD020FEF761FBA420FEF78AFBEC
:10958000A120FEF787FBE020FEF758FBD020FEF776
:1095900081FB0420FEF77EFB0D20FEF77BFB1120F4
:1095A000FEF778FB1320FEF775FB2B20FEF772FB0E
:1095B0003F20FEF76FFB5420FEF76CFB4C20FEF7BC
:1095C00069FB1820FEF766FB0D20FEF763FB0B20FE
:1095D000FEF760FB1F20FEF75DFB2320FEF75AFB22
:1095E000E120FEF72BFBD020FEF754FB0420FEF712
:1095F00051FB0C20FEF74EFB1120FEF74BFB132016
:10960000FEF748FB2C20FEF745FB3F20FEF742FB10
:109610004420FEF73FFB5120FEF73CFB2F20FEF7D6
:1096200039FB1F20FEF736FB1F20FEF733FB2020FF
:10963000FEF730FB2320FEF72DFB2120FEF7FEFA7C
:109640001120FEF7FBFA7820F9F712FC2920FEF72B
:10965000F5FA0220FEF7C6F90020FEF79FF96FF039
:109660007F40FEF7ADF9FDF767F80749012205488D
:109670008860002005490872D103BDE81040044805
:10968000F9F72BBD440000200C000020E809002061
:10969000000C02582DE9F0411C4616460D460746BF
:1096A000DDF818800AE000BFF9F722FDA0EB080002
:1096B000A04202D3601C01D00BE054B1386840696D
:1096C00035EA000007D00020B042EDD00020BDE810
:1096D000F0810320FBE70120F6E77047017840782E
:1096E00041EA002070470000B5EEC00AF1EE10FA22
:1096F00002D19FED090B09E0B7EEC00A9FED082BE0
:109700009FED091B20EE022B82EE010B0848B7EEFD
:10971000C00B80ED020A704700000000000000004E
:109720006E861BF0F92109400000000000806640B1
:109730001C000020014AC2E9000170471C00002003
:10974000134600B5FFF7F6FF0248C3605DF804EB6F
:10975000FFF7CABF1C000020F9F7D0BCF0B5CDB0B0
:109760004C2130A8F6F7ECFD202143A8F6F7E8FDE0
:10977000C0216846F6F7E4FD0220FAF7D1F93A492C
:1097800000243A480A6822F001020A600A68026866
:1097900042F440420260026802F440424B92026886
:1097A0009204FCD5324A136843F002031360126836
:1097B00002F002024B92026842F4404202600268E8
:1097C0000A6842F001020A60096801F001014B9148
:1097D00001688904FCD5FAF7CDF9F9F783FC24492F
:1097E000843901220B68022008252526C70323F0AF
:1097F00018030B6005213292CDE930673AAF3692FB
:10980000C0233990042687E80B00CDE93D06CDE959
:1098100040543F9030A84294FBF7F8FB08B172B671
:10982000FEE740204A903F210301CDE94650032244
:10983000CDE9480343AB43A883E816000421FBF7B6
:10984000D5F908B172B6FEE700210A481F941494B6
:10985000CDE900016846FAF7F3FC002801D072B6A2
:10986000FEE74DB0F0BD00002C0400581848025827
:10987000F4440258010001802C48F0B52C4A0168DC
:1098800041F470010160106800F00F00072804D255
:10989000106820F00F00C01D106026490020254CE4
:1098A00010340B68244D43F001030B6020600B68FB
:1098B0002B400B60136803F00F03072B04D91368C8
:1098C00023F00F03DB1D13601A4C1C4A18341C4B89
:1098D000261D371D2060174C1A4D28343060261D78
:1098E0003860371D23603B1D35601C1D3A60251D07
:1098F0002E1D1860331D22602860326018600A68CF
:109900000C4B114C22F4802260330A6018602068EE
:109910006FF30F00B0F1005F03D20C490120C1F8D2
:10992000080143F2D2000A490860F0BD88ED00E06A
:1099300000200052004402587FEDF6EA8002010147
:10994000000202020000FF010010005C00800051D4
:109950000040005230B5416EB9B101680D4B03F1C2
:1099600008048A688968C2F34262490F5D5C615CE1
:109970002D01B5FBF1F1A0F86A10995CA25C090118
:10998000B1FBF2F1A0F8681030BD0121A0F86A1017
:10999000F8E70000F645010890F82810C90706D03E
:1099A0000168C36A4A6822F400321A434A6090F898
:1099B0002810890706D50168036B4A6822F48032B3
:1099C0001A434A6090F82810490706D50168436B8E
:1099D0004A6822F480221A434A6090F82810090746
:1099E00006D50168836B4A6822F400421A434A6034
:1099F00090F82810C90606D50168C36B8A6822F45E
:109A000080521A438A6090F82810890606D50168AA
:109A1000036C8A6822F400521A438A6090F8281076
:109A2000490611D50168436C4A6822F480121A4332
:109A30004A60416CB1F5801F06D10168836C4A68A9
:109A400022F4C0021A434A6090F82810090606D58D
:109A50000168C26C486820F40020104348607047D9
:109A60002DE9F84300250446C0F89050F9F740FB73
:109A70008046206820266FF07E470068000713D5D7
:109A80000022434631042046009700F03FFA58B1C7
:109A9000216851E8000F20F0800041E80002002A10
:109AA000F6D1C4F8886021E020680068400722D51C
:109AB000002243464FF480012046009700F026FA2A
:109AC000C8B1206850E8001F21F4907140E80012EE
:109AD000002AF6D12068083050E8001F21F001016B
:109AE00040E80012002AF5D1C4F88C60032084F805
:109AF0008450BDE8F883C4F88860C4F88C60E566DB
:109B00002567002084F88450F3E7000010B5026850
:109B100052E8001F21F4907142E80013002BF6D1A7
:109B20000E4B0268083252E8001F194042E8001448
:109B3000002CF6D1C16E012908D1026852E8001F3D
:109B400021F0100142E80013002BF6D10021202261
:109B5000C0F88C20C166416710BD0000FEFFFFEF1A
:109B60002DE9F04304468068D84E87B0D84B216871
:109B7000D4E90427D4F81CC010430A68002547EA3A
:109B80000C073843324002430A602068E2684168AB
:109B900021F44051114341602268A1699A4201D0E9
:109BA000206A01439768DFF82CC3CB4ECB4807EA05
:109BB0000C070F4397602168676ACA6A22F00F0298
:109BC0003A43CA622268B2420ED1006800F03800FF
:109BD000182873D047DCB8B3082879D010286FD183
:109BE00078E028287ED17BE0BD498A4209D100680F
:109BF00000F00700062875D2DFE800F0546A6C6EAA
:109C00007072B8498A4209D1006800F0070006283E
:109C100068D2DFE800F0475D5F616365B2498A4260
:109C200009D1006800F0070006285BD2DFE800F0E9
:109C30003A5052545658AD498A420BD1006800F050
:109C4000070006284ED200E010E0DFE800F02B41CC
:109C500043454749A6498A420AD1006800F03800C6
:109C6000182839D0B7DD2028BBD13CE001203AE0EC
:109C7000A0498A4209D1006800F00700062831D2C5
:109C8000DFE800F01026282A2C2E9B498A420BD1AF
:109C9000006800F00700062824D2DFE800F003196E
:109CA0001B1D1F2100201EE09A421BD18B48001D66
:109CB000006800F00700062814D202E00CE007E07C
:109CC00010E0DFE800F0030507090B0D02200AE0B1
:109CD000042008E0082006E0102004E0202002E034
:109CE000402000E080208549DFF814829A42854AAE
:109CF0004FF400434FEA21174FF000064ED11028D1
:109D00001AD006DC022809D004280BD008287CD100
:109D10000DE020283ED0402877D13DE0F9F732FF12
:109D2000014610E06846F9F7E3FF01990BE003A84C
:109D3000FAF780F8049906E01068800605D51068E7
:109D4000C0F3C100C140002970D0606A676838F86C
:109D5000102007EB4703B1FBF2F0834255D8B0EB7C
:109D6000073F52D8002308461946F6F7B1FA0246D3
:109D70007808130E120243EA012110183A46714185
:109D80000023F6F7A5FA604AA0F5407191423CD84D
:109D900021688FE03946D8E71946D6E7D4F81CC0C9
:109DA0004FF6EF799C4546D1082819D005DC58B10B
:109DB00001280CD0042875D10DE0102815D02028DA
:109DC00035D040286ED134E0FBF760F801E0FBF7B6
:109DD0006FF8014610E06846F9F78AFF01990BE039
:109DE00003A8FAF727F8049906E01068800604D55E
:109DF0001068C0F3C100C140C1B1636A606838F83F
:109E00001330B1FBF3F1490000E04BE001EB5001EE
:109E1000B1FBF0F0A0F11001494543D84FF6F073C3
:109E20002168C0F342021840104343E043E0394642
:109E3000E3E71946E1E7082819D005DC58B1012805
:109E40000CD004282ED10DE0102815D020282BD0BE
:109E5000402827D12AE0FBF719F801E0FBF728F8A2
:109E6000014610E06846F9F743FF01990BE003A8AB
:109E7000F9F7E0FF049906E01068800604D5106841
:109E8000C0F3C100C140B1B1636A606838F81330F3
:109E9000B1FBF3F101EB5001B1FBF0F0A0F11001C7
:109EA000494505D9012506E03946EDE71946EBE7B6
:109EB000216880B2C8600120A4F86A00A4F8680094
:109EC00028466667A66707B0BDE8F083F369FFCF51
:109ED000000C0058FFF4FF110010014054440258D8
:109EE0000044004000480040004C0040005000404A
:109EF0000014014000780040007C00400090D00336
:109F0000DE45010800440258FFFC0F002DE9F04730
:109F1000994617460E460446089D4FF000082FE06C
:109F2000681C2DD0F9F7E4F8A0EB0900A84214D87A
:109F30009DB120680168490722D5C169C943090755
:109F40000DD4082505622046FFF7E0FDC4F89050C7
:109F5000012084F88480BDE8F0870320FBE7C06916
:109F6000C04300050CD421684FF40060086220460D
:109F7000FFF7CCFD2021C4F8901084F88480ECE732
:109F80002068C06936EA000004D00020B842C7D07B
:109F90000020E0E70120F9E710B5D0F8B82200244E
:109FA0005268904700B10324204610BD002070473E
:109FB0000020704713460A46002110B500F0C4F98E
:109FC000002010BD13460A46002110B500F05DFACE
:109FD000002010BD10B58021044600F040FA204654
:109FE000BDE81040002100F03ABA10B50521C0F8D4
:109FF000941200231A46194600F0A6F9002010BD5D
:10A0000010B582610223C0F89432C26113460A4639
:10A01000002100F03AFA002010BD10B50421C0F86C
:10A02000941200231A46194600F02FFA002010BDA2
:10A03000F8B504460D460020ADF800004888010A36
:10A04000062947D006DC01290FD0022912D00329A6
:10A0500062D11DE0072946D00F295DD1D4F8B402A2
:10A06000C26920E0694690473BE0D4F8B412207CF6
:10A070000A68F7E7207C02260028D4F8B80205D049
:10A08000C16A684688470146467036E0816AF8E74B
:10A09000C0B2062840D2DFE800F003090D111519FF
:10A0A000D4F8B4024268B2B3207CDBE7D4F8B4023F
:10A0B0008268F8E7D4F8B402C268F4E7D4F8B402CE
:10A0C0000269F0E7D4F8B4024269ECE7D4F8B402CC
:10A0D0008269E8E7207CF0B9D4F8B802416B6846A1
:10A0E0008847014609E0207CA8B9D4F8B802016B82
:10A0F00068468847014607204870EA888AB1BDF85B
:10A10000000040B1824200D902462046ADF800204E
:10A11000FFF776FFF8BDFFE729462046FFF75AFF15
:10A12000F8E72046FFF779FFF4E701004FF0000061
:10A1300004D0012901D0022901D003207047012059
:10A14000704710B5D0F8C802F9F7F5F8BDE810402F
:10A15000FFF7EBBF2DE9F041174604464FF000052D
:10A1600021B194F89C02032842D04CE0D4F8941218
:10A1700004F11400022935D1D0E902639E4206D9C8
:10A18000F21A394682602046FFF71CFF0FE0B34207
:10A1900014D14068984211D3D4F8981288420DD255
:10A1A000002220461146FFF70DFFC4F89852002305
:10A1B0001A461946204600F0C7F813E094F89C02AE
:10A1C000032808D1D4F8B802C16821B1C4F8D45228
:10A1D000C168204688478021204600F040F920468B
:10A1E000FFF703FF94F8A00268B184F8A0520AE0D8
:10A1F000D4F8B802426932B1C4F8D4524269204658
:10A200009047002800D10020BDE8F08170B51346CA
:10A2100004464FF0000221B194F89C02032830D08C
:10A220003AE0D4F8941204F5AA70032934D1D0E9A5
:10A2300002518D420AD96A1A82600846824200D3CE
:10A24000024619462046FFF7B5FE25E094F8AA021B
:10A2500010F01F0003D0012802D0022800D00022F5
:10A2600094F89C02032808D1D4F8B802016921B1FE
:10A27000C4F8D4220169204688472046FFF7CDFE66
:10A280000AE0D4F8B802836933B1C4F8D4228269F1
:10A2900020469047002800D1002070BD0020704764
:10A2A00010B5D0F8B812012280F89C22002429B100
:10A2B00003794A68D9B2904700B10324204610BD03
:10A2C000D0F8C82201F07F000B0600EBC00002EBC3
:10A2D000800002D590F83E00704790F87E027047EB
:10A2E00010B5D0F8D42200EB8202D2F8B82222B105
:10A2F00090F89C32032B02D004E0032010BD126AB8
:10A3000002B19047002010BD10B5D0F8D42200EB68
:10A310008202D2F8B82222B190F89C32032B02D0EC
:10A3200004E0032010BD526A02B19047002010BD26
:10A3300010B51C46D0F8C80213462246F9F729F892
:10A34000BDE81040FFF7F1BE10B5D0F8C802F9F72C
:10A3500050F8BDE81040FFF7E8BE2DE9F041044693
:10A3600001250020D4F8B812064684F89C52C4F89F
:10A3700094026060C4F8A40284F8A00231B14A6873
:10A3800022B100212046904700B10326204600223A
:10A3900040231146FFF7CCFF4027A4F86451002268
:10A3A0003B4680212046C4F86071FFF7C1FFA584B9
:10A3B00030462762BDE8F08190F89C12042903D151
:10A3C00090F89D1280F89C120020704710B590F80C
:10A3D0009C12032905D1D0F8B81211B1C96901B195
:10A3E0008847002010BD01740020704710B5D0F8D8
:10A3F000C802F9F761FBBDE81040FFF796BE70B5E3
:10A40000044600F2AA20054600F048F894F8AA0293
:10A410000123B4F8B01210F01F02C4F89432C4F84B
:10A4200098120AD0012A0ED0022A12D000F0800120
:10A430002046BDE8704000F012B829462046BDE82D
:10A44000704000F0A9B829462046BDE8704000F0F1
:10A45000ECB929462046BDE8704000F034B910B58B
:10A46000D0F8C802F8F7DFFFBDE81040FFF75DBE87
:10A4700090F89C12042903D090F89C1280F89D1249
:10A48000042180F89C120020704710B5D0F8C80253
:10A49000F9F703F8BDE81040FFF747BE70B5054671
:10A4A00008788C1C2870487868702046FFF716F9E9
:10A4B000A41C68802046FFF711F9A880A01CFFF7B4
:10A4C0000DF9E88070BDD0F8B83202460020002BAC
:10A4D00002D01B6810461847704700002DE9F04174
:10A4E0002C4E0446887800258846C1B20129317077
:10A4F00006D941462046FFF76DFD0320BDE8F081F7
:10A5000094F89C02022702280CD003281DD0414653
:10A510002046FFF75FFD31782046FFF73DFD03251C
:10A520002846EBE789B320466160FFF7CCFF0500C2
:10A5300004D041462046FFF74DFD1DE02046FFF7C1
:10A540006CFD032084F89C02EAE7C1B16068884290
:10A550001BD0C1B22046FFF71FFD31782046616055
:10A56000FFF7B1FF050010D041462046FFF732FD4E
:10A5700021792046FFF710FD84F89C72D0E76160D6
:10A5800084F89C722046FFF707FD2046FFF745FD43
:10A59000C6E700008C0000202DE9F0410A784FF05A
:10A5A000000512F060020CD0202A01D0402A7DD193
:10A5B000D0F8D42200EB8202D2F8B82292689047F9
:10A5C00031E04B78002201260A2B6FD2DFE803F03E
:10A5D00041666E586E08056E2D29FFF729FD67E06C
:10A5E00004468888D8B9C888C8B94888802816D24F
:10A5F00094F89C2200F07F07032A10D039462046A9
:10A6000084F89E72FFF7F2FE2046FFF706FD1FB1A9
:10A61000022084F89C024BE084F89C6248E02046CB
:10A6200044E0FFF75BFF054642E0CB88012B3DD1BC
:10A6300090F89C32012B04D0022B02D0032B35D191
:10A6400004E000F108018260012216E00122011DF0
:10A6500013E090F89C22012A03D0022A01D0032A99
:10A6600024D1CA88022A21D1D0F8A412C66009B127
:10A670000321C160022200F10C01FFF7C1FC17E0C9
:10A680004A88012A02D0022A03D00FE0C0F8A4624F
:10A6900016E08988090A80F8A01211E090F89C322F
:10A6A000012B08D0022B06D0032B04D0FFF792FC1D
:10A6B0002846BDE8F08149880129F9D1C0F8A422D3
:10A6C000FFF7ABFCF4E72DE9F0410A780E46097973
:10A6D000054612F060004FF00008CCB20BD02028E5
:10A6E00001D040286AD121462846FFF75FFCFF28A9
:10A6F00000D0D8B396E07078C8B3012824D00328DE
:10A700005CD195F89C02022802D0032856D10CE0B7
:10A71000002C53D0802C51D021462846FFF79FFEB5
:10A7200080212846FFF79BFE7CE0708840B93CB151
:10A73000802C05D0F08818B921462846FFF78FFEF7
:10A740002846FFF76AFC6DE095F89C020228DFD0EE
:10A75000032863D1708880BB600603D02146284659
:10A76000FFF7EFFC2846FFF758FCBCE700E00AE0E3
:10A77000C5F8D402D5F8B8028268F2B1314628464D
:10A78000904780464EE095F89C020027022802D0B0
:10A79000032843D113E00CB1802C3FD1200604F0F4
:10A7A0007F0000EB800005EB800101D5143101E052
:10A7B00001F5AA7102220F602CE033E02EE02006A2
:10A7C00004F00F0000EB800005EB800009D5808CC1
:10A7D00020B304F07F0000EB800005EB8006143608
:10A7E0000AE0B0F86401C8B104F07F0000EB80001B
:10A7F00005EB800606F5AA764CB1802C07D02146E1
:10A800002846FFF75DFD10B10120306000E03760A1
:10A81000022231462846FFF7F3FB03E03146284683
:10A82000FFF7D8FB4046BDE8F08170B505460878D3
:10A830000E464FF0000410F0600003D0202801D035
:10A84000402827D195F89C02012803D0022801D086
:10A8500003281FD1B088C1B201291AD8C1B2284635
:10A86000FFF7A6FBFF280CD058B9D5F8B8128A68B4
:10A870003AB1C5F8D40228468A6831469047044662
:10A8800000E00324F088204307D12846FFF7C5FBEA
:10A8900003E031462846FFF79DFB204670BD0000CF
:10A8A00070B54D7801230A78012D1C4C02F00F057C
:10A8B00003FA05F3D0F81C5817D000EB421245EA12
:10A8C0000343C0F81C38D2F8000B00040BD40B89EA
:10A8D0000979D2F8000BC3F30A03184344EA814113
:10A8E0000843C2F8000B002070BD9EB23543C0F88B
:10A8F0001C5800EB4213D3F800090004F3D40D896F
:10A900000979D3F80009C5F30A058904284341EA07
:10A91000825108432043C3F80009E4E70080001097
:10A92000D0F800196FF30A01C0F80019D0F8041824
:10A9300041F48071C0F804180020704710B5144C21
:10A94000036CA34203D9D0F8003B002B1EDB00238D
:10A95000C0F8103B0129D0F8101B41F40021C0F8C9
:10A96000101BD0F8101B41F01801C0F8101BD0F8D4
:10A97000101B41F0C041C0F8101B07D1C0F8142BC8
:10A98000D0F8001B41F08021C0F8001B002010BD52
:10A990000A30544F0B784A78012A00EB43100BD051
:10A9A000D0F8002B22F40012C0F8002B09790329FB
:10A9B00014D0022912D017E0D0F8002922F4001296
:10A9C000C0F800290979032901D002290CD1D0F857
:10A9D000001941F08051C0F8001905E0D0F8001BC3
:10A9E00041F08051C0F8001B002070470A784B7876
:10A9F000D1B2012B00EB421012D0D0F8002B002A6C
:10AA000006DB29B1D0F8001B21F08041C0F8001B03
:10AA1000D0F8001B41F40011C0F8001B0020704763
:10AA2000D0F80029002A06DB29B1D0F8001921F05E
:10AA30008041C0F80019D0F8001941F40011C0F8A5
:10AA40000019EBE7F8B50B786FF060464F788A4D48
:10AA5000DCB2012F00EB43132BD0D3F8107B002C7A
:10AA600007EAC544C3F8104BD3F8104B04EA0504B9
:10AA7000C3F8104B7ED00D69002D7CD08C68254426
:10AA80006D1EB5FBF4F5ADB26C430C6206EAC5452C
:10AA9000D3F8104B2C43C3F8104BD3F8104B0D6A6E
:10AAA000C5F3120554EA0504C3F8104B012A6ED011
:10AAB000C9E00F6937B3D3F810796FF31207C3F801
:10AAC0001079D3F8107907EA0507C3F810794CB369
:10AAD0000F698D68D3F810C92F447F1EB7FBF5F5B9
:10AAE00006EAC54545EA0C05C3F810590E69D3F8C6
:10AAF0001059C6F312063543C3F810590D79012DCC
:10AB00001CD027E0D3F810692E40C3F81069D3F8A1
:10AB1000105945F40025C3F81059D3F810596FF3B4
:10AB2000120515E00E698D68AE4200D90D61D0F8AE
:10AB3000106946F40026C0F81069D7E7D3F8105919
:10AB400025F0C045C3F81059D3F8105945F0005509
:10AB5000C3F81059012A1BD000EB4413D3F8004965
:10AB600044F00444C3F800490C79012C31D00A693F
:10AB700072B301E042E055E00B78D0F834180122BE
:10AB800003F00F039A401143C0F8341871E056E007
:10AB9000CA691AB100EB4413C3F8142909790129D1
:10ABA0000ED1D0F80818C90500EB4411D1F80029DE
:10ABB00002D442F0005201E042F08052C1F8002974
:10ABC00000EB4410D0F8001941F00441C0F800191E
:10ABD0004FE0D0F80848E405D3F8004902D444F027
:10ABE000005401E044F08054C3F8004900920B8AFD
:10ABF0000A78C9689BB200F093F93AE00C690CB18D
:10AC00008C680C618C680C62C4F31205D0F8104B90
:10AC10002C43C0F8104BD0F8104B44F40024C0F87B
:10AC2000104B43E78D68D3F8104BC5F312052C4346
:10AC3000C3F8104BD3F8104B44F4002434E7CA682F
:10AC40000AB1C3F8142B097901290CD1D0F80808EE
:10AC5000C005D3F8000B02D440F0005001E040F0F2
:10AC60008050C3F8000BD3F8000B40F00440C3F849
:10AC7000000B0020F8BD0000FFFF07E038B5002200
:10AC800042F21074002300920A784D78012D00EBF7
:10AC9000421219D0D2F8005B002D3CDAD2F8005BEA
:10ACA00045F00065C2F8005B0A7800EB4212D2F86A
:10ACB000005B45F08045C2F8005B009A521C009290
:10ACC000A24221D9012326E0D2F80059002D22DA30
:10ACD000D2F8005945F00065C2F800590A7800EB37
:10ACE0004212D2F8005945F08045C2F80059009A46
:10ACF000521C0092A242E5D80A7800EB4212D2F828
:10AD00000029002AF3DB06E00A7800EB4212D2F8B1
:10AD1000002B002AD1DB184638BD000018B50E4ABA
:10AD200000230093009C641C009494420CD8046996
:10AD3000002CF7DA2024009344EA81110161009984
:10AD4000491C0091914201D9032018BD016989066F
:10AD5000F5D4002018BD0000400D0300D0F808080D
:10AD600010F0060004D0022803D0062801D00F20DE
:10AD7000704702207047406900F001007047D0F82A
:10AD80001818D0F81C08084080B27047D0F818187E
:10AD9000D0F81C080840000C704710B5D0F81028F7
:10ADA00001F00F0300EB4114D0F83418D4F808096F
:10ADB000D94001F0010142EAC111084010BD00EB89
:10ADC0004111D1F8081BD0F81408084070474169B8
:10ADD0008069084070470346084630B5940802F081
:10ADE0000301002203F5805303E01D68521C40F864
:10ADF000045BA242F9D300290CD01C680023491E31
:10AE0000DD00090403F10103090C24FA05F200F83E
:10AE1000012BF4D130BDD0F800284FF4FE6303EAD3
:10AE2000011322F4FE62C0F80028D0F8001819437C
:10AE3000C0F8001800207047022A3ED1264A274B4E
:10AE40000A449A4201D20F2138E0254A254B0A4490
:10AE50009A4201D20E2131E0234A244B0A449A42FD
:10AE600001D20D212AE0224A224B0A449A4201D201
:10AE70000C2123E0204B214A0B44934201D20B21A9
:10AE80001CE01F4B1F4A0B44934201D20A2115E0DC
:10AE90001D4B1E4A0B4493420FD31D4B1D4A0B44BE
:10AEA000934201D2082109E01B4B1C4A19449142EC
:10AEB00001D2072102E0062100E00921C2684FF417
:10AEC000705322F47052C26003EA8123C1681943AF
:10AED000C160002070470000405327FF00350C0080
:10AEE000401E1BFF40420F0000DC0BFF804F120092
:10AEF000808CF9FE20D6130060B6E5FE60E31600F4
:10AF000000D3CEFE40771B00C05BB3FEC091210092
:10AF100000CA91FE20753800E05459FEE09C4100C3
:10AF200010B5029C74B900EB0232DB1C00209B08B8
:10AF300002F5805204E000BF51F8044B1460401C3D
:10AF40009842F9D3002010BDFEE700000FB4054B76
:10AF500010B503A9044A029800F052FE10BC5DF837
:10AF600014FB000061C30008900000200FB4084BE0
:10AF700010B504A902AA039800F042FE044602A9F3
:10AF8000002001F0D4F9204610BC5DF814FB00004D
:10AF90002FC3000803B401984100009850EAC12073
:10AFA00018BF04204A0D18BF40F0010040F2FF72A4
:10AFB000B2EB515F08BF40F00200012808BF052036
:10AFC00002B07047090700284FEA116104DB00F165
:10AFD000E02080F80014704700F00F0000F1E0203E
:10AFE00080F8141D7047000070B565482DED020B08
:10AFF0002DED048B059D25F00044A04218DC61482E
:10B00000844202DC0AD1049840B19DED040BBDECF2
:10B01000048B02B0BDE8704000F0FABC002DCCBF3C
:10B020009FED590B9FED5A0BBDEC048B02B070BD28
:10B030005948A04215DD5948A042D8BF4FF0FF340F
:10B0400055DD9DED040B51EC100BFFF7A3FF042819
:10B0500008BF00F0F1FC9DED040BBDEC048B02B0C9
:10B0600070BD9DED040B51EC100B01F06DF9CDE9B5
:10B0700004014B489FED4C0BA0421CDD4C48A04204
:10B080000BDD9DED042B00249FED4B1B12EE010BFD
:10B0900032EE011B80EE012B27E09DED041B9DEDA0
:10B0A000042B012431EE401B32EE000B81EE002B0D
:10B0B0008DED042B1BE04248A0420FDD9DED042BDB
:10B0C00002249FED411B9DED043B32EE412B03EE2C
:10B0D000010B82EE001B8DED041B08E09DED040BBF
:10B0E0009FED3B1B032481EE002B8DED042B9DED8A
:10B0F000040B3948062120EE009B29EE098BB0EEA7
:10B10000480B784400F0F8FB20EE099B3348B0EE82
:10B11000480B0521784400F0EFFB20EE080B002CD3
:10B120000BDA9DED042B39EE001B9DED040BBDECFD
:10B13000048B02B002EE410B70BD2948784439EE11
:10B14000000B00EBC4009DED042B90ED001B254887
:10B1500012EE001B9DED040B31EE400B784400EB2A
:10B16000C400002D90ED001B31EE400BB8BFB1EED6
:10B17000400BBDEC048B02B070BD0000000000006D
:10B18000000010440000F07F182D4454FB21F93FCB
:10B19000182D4454FB21F9BF0000DC3F0000203E85
:10B1A0000000F33F00000000000000000000F03F3E
:10B1B0000000E63F0000000000000000000000402A
:10B1C0000080034000000000000000000000F83F85
:10B1D000000000000000F0BF7A95000040950000DC
:10B1E000F8940000B894000070B55F4E2DED040B8C
:10B1F0002DED028B82B0DDF81CC0DDE905235C4239
:10B200002CF000411C4341EAD474049D22F000401C
:10B21000B44205D86C422C4340EAD474B4420BD9F2
:10B220009DED061B9DED040B02B0BDEC028B04B03E
:10B23000BDE8704000F0EFBBACF14054A4F17F6476
:10B240001C430BD0022404EAAC7444EAD2740543D4
:10B250009FED478B9FED482B0DD016E09DED040B25
:10B2600051EC100B01F068F841EC100B02B0BDEC92
:10B27000028B04B070BD002C14BF012C9DED040B9B
:10B28000F4D0022C2ED0032C2FD00B439FED3C1B6F
:10B290009FED3D0B0AD0B1421DD1B04209D121F042
:10B2A000804120F080400791059014E0002ADDDA0B
:10B2B00015E0374B7B44002C08BF93ED000BD5D035
:10B2C000012C04BF93ED000BB1EE400BCED0022C4D
:10B2D00008D0032C09D0B0420AD1002AC6DAB0EE59
:10B2E000410BC3E7B0EE480BC0E7B0EE420BBDE741
:10B2F000401A00153C28C8BF8DED000B17DCBCF1CF
:10B30000000FBEBF10F13C0F9FED230B8DED000B26
:10B310000DDB9DED041B9DED062B81EE020B51EC28
:10B32000100B01F011F801F007F8CDE90001002C35
:10B3300008BF9DED000B99D0012C0CD09DED001B9A
:10B340009FED170B022C31EE400B0CBF38EE400B7B
:10B3500030EE480B8AE7019880F0004001909DEDA7
:10B36000000B83E7000000000000F07F00000000F9
:10B37000182D4454FB210940182D4454FB2109C0C9
:10B38000182D4454FB21F9BF182D4454FB21F93FDB
:10B3900028940000000000000000000000000000F1
:10B3A000075C143326A6A13C10B529499FED261B46
:10B3B0002DED020B84B0059820F000408842D8BFE4
:10B3C0009DED040B2DDD2349884209D1049840B935
:10B3D0004FF0010000F04CFB00F022FB06B010BD66
:10B3E00005DB9DED040B30EE000B06B010BD68468A
:10B3F0009DED040B00F088F810F0030004BF9DEDF4
:10B40000021B9DED000B0CD001280ED09DED021B00
:10B410009DED000B022810D0012000F0A5FA06B027
:10B4200010BD00F0F9F906B010BD9DED021B9DEDB9
:10B43000000B012000F098FA01E000F0EDF906B0F1
:10B44000B1EE400B10BD0000000000000000000045
:10B45000FB21E93F0000F07F10B529499FED261B35
:10B460002DED020B84B0059820F000408842DCBF2F
:10B4700000209DED040B2EDD2249884209D104985D
:10B4800040B94FF0010000F0F3FA00F0C9FA06B03D
:10B4900010BD05DB9DED040B30EE000B06B010BDBA
:10B4A00068469DED040B00F02FF810F003000DD05E
:10B4B000012814D09DED021B9DED000B022816D033
:10B4C00000F0AAF906B0B1EE400B10BD9DED021BD5
:10B4D0009DED000B012000F047FA06B010BD9DED78
:10B4E000021B9DED000B00F097F906B010BD012086
:10B4F00000F03AFAE6E7000000000000000000005B
:10B50000FB21E93F0000F07F2DE9F14F04462DEDCE
:10B51000020B2DED048B94B09FED9D0B80ED020B83
:10B52000199E9D4826F0004585420ADC9DED180BCA
:10B53000002084ED000B14B0BDEC048B03B0BDE81B
:10B54000F08F96489FED969B9FED978BA84225DD47
:10B5500097489FED991B9FED9A2B9DED180B002EA0
:10B560000DDD30EE490B854212BF30EE480B30EE58
:10B57000410B30EE420B84ED000B0120DBE730EE97
:10B58000090B854212BF30EE080B30EE010B30EE96
:10B59000020B84ED000B4FF0FF30CCE78A48A84245
:10B5A00053DB9DED180B51EC100B00F0CDFE41EC80
:10B5B000100BB0EE401B9FED862B9FED870B290DE6
:10B5C000DFF81CC201EE020B0120FDEEC00B10EEF5
:10B5D000903A00EE903AB8EEE02BB0EE410B02EE5E
:10B5E000490B22EE081BFC44032830EE411B84ED7E
:10B5F000001B1DD011EE902A00EB4015113DC2F347
:10B600000A528A1A954213DA0CEB0012B0EE403B54
:10B6100092ED000B401C20EE021B33EE410B33EE8B
:10B62000403B33EE411B92ED023B12EE031BDBE786
:10B63000002EA8BF1846BFF67EAF94ED000B58420F
:10B64000B1EE400B84ED000B75E7C6F3130040F438
:10B65000801EC6F30A50A0F2F530471100F01F0516
:10B66000C5F12000DDF860B013900020089009902B
:10B6700005200DF1080C5B49002D07EB0002794411
:10B6800008BF51F8221009D051F8223001EB820195
:10B69000AB404A68139922FA01F11943A1FB0E2627
:10B6A000A1FB0B131A449A4234BF0123002303EB7E
:10B6B00006080CEB8003D3E901A60E448E4234BF8A
:10B6C0000121002192448A4411B1924502D903E03C
:10B6D000924501D2012100E00021C3E901A64144C5
:10B6E0004CF82010011EA0F10100C4DC04989DED6F
:10B6F000050A00F10050810F04989FED3B4B80003C
:10B7000001EE100ADDED060A9DED072AB8EEC13BF9
:10B71000B8EE401BB8EE600BB8EE422B002021EED5
:10B72000041B9FED334B20EE040B9FED334B22EEB9
:10B73000042B30EE024B34EE014B34EE034B8DED17
:10B74000004B00909DED004B199834EE433B10F0F8
:10B75000004F33EE411B31EE400B32EE401B9DEDAE
:10B76000000B9FED272B20EE020B9FED272B01EE08
:10B77000020B9DED001B9FED262B01EE020B1CBF63
:10B780004942B1EE400B84ED000B0846D3E60000C1
:10B790000000000000000000FB21E93F7CD90240CE
:10B7A00000004054FB21F93F3163621A61B4D03D7F
:10B7B000FB21F93F000000000000601A61B4D03D99
:10B7C0007370032E8A19A33BFB213941000000004E
:10B7D00083C8C96D305FE43F000000000000E03F17
:10B7E000FE90000096900000000000000000103E57
:10B7F000000000000000103C000000000000103AB3
:10B800003326A611460B113C182D4454FB21F93D5B
:10B8100000000054FB21F93D10B52DED040B2DED7A
:10B82000068B82B0B0EE41AB09989FED299B20F0CA
:10B830000044B4F1795F0FDA9DED080BBDEEC00B4B
:10B8400010EE100A002801BFB0EE490B02B0BDECAB
:10B85000068B04B008BF10BD9DED080B1E480621E5
:10B8600020EE008BB0EE480B784400F045F820EE57
:10B87000080B9DED081B1C48844228EE000B01EECE
:10B880004A0B9FED171B28EE011BBCBF31EE400B8E
:10B8900039EE400B16DB1548A042BCBF9FED142BC0
:10B8A0008DED002B06DBA4F5001001900020009028
:10B8B0009DED002B31EE421B39EE422B31EE400B59
:10B8C00032EE400B02B0BDEC068B04B010BD0000A0
:10B8D000000000000000F03F448E00000000000067
:10B8E000000000000000E03F3333D33F0000E93F99
:10B8F000000000000000D23F491E00EBC102B0EE84
:10B90000401B92ED000B31F006020DD0491E00EBFA
:10B91000C102B0EE403B92ED002B31F00602B0EEDA
:10B92000420B03EE010BF1D1022914D004290AD0F5
:10B93000062918BF704790ED0A2B00EE012B90ED01
:10B94000080B02EE010B90ED062B00EE012B90EDA3
:10B95000040B02EE010B90ED022B00EE012B90ED9B
:10B96000000B02EE010B704731B504462DED040BC0
:10B970002DED068BB0EE419B07989DED060B20F058
:10B980000040B0F1795F0DDA51EC100BFFF702FBCC
:10B99000042808BF00F050F89DED060BBDEC068BA7
:10B9A00005B030BD20EE008B1348052128EE00AB1A
:10B9B000B0EE480B7844FFF79FFF9FED111B8CB151
:10B9C0009FED112B29EE022B0AEE402B9DED060B6D
:10B9D00018EE029B0AEE419B30EE490BBDEC068B44
:10B9E00005B030BD08EE001B9DED060B0AEE010B05
:10B9F000BDEC068B05B030BDF88D000000000000E6
:10BA0000495555555555C5BF000000000000E03FA1
:10BA100030EE000B704730EE010B70470000000065
:10BA20009FED031B81EE010B70470000000000003A
:10BA300000000000000000009FED030B20EE000B53
:10BA4000704700000000000000000000000000102F
:10BA500002E008C8121F08C1002AFAD170477047D7
:10BA6000002001E001C1121F002AFBD17047000035
:10BA70000149086070470000940000202DE9FF5F35
:10BA800082B00021DDE90430020DDDF840B003434F
:10BA900018D044F61050A2F2FF3242431514119808
:10BAA00001281FD0A5EB0B00401C5FEA000A4FF0F5
:10BAB00000064E4FDFF83891B046504615D5CAF112
:10BAC000000413E0119801244AA3012801D16FEA70
:10BAD0000B010298119AC0E90031C0E9024206B098
:10BAE000BDE8F09FCBF10000DFE704460021404AAB
:10BAF000491842EB0450CDE9001012E0E00707D0EE
:10BB000032463B4640464946F4F701FD80468946A9
:10BB100032463B4610461946F4F7F9FC06460F46F6
:10BB20006410002CEAD1DDE90401DDE90023BAF15B
:10BB3000000F06DAF4F7EBFC42464B46F4F7E7FC5D
:10BB400005E0F4F756FD42464B46F4F752FD044635
:10BB50000E460022284BF4F7D3FD03D84FF0FF30F8
:10BB6000014607E00022254B20463146F4F728FC29
:10BB7000F4F7AEFD102409E0002C0ADB0A220023B2
:10BB8000F4F7A6FB039B30321A55641E50EA0102FB
:10BB9000F2D1641C039AC4F111031444119A012ACE
:10BBA00003D0012208430DD10AE0084304D000204D
:10BBB0004FF0110B119072E7A3EB0B056D1E0DE01A
:10BBC0005B4504DD4FF0000205F1010504E003DAF6
:10BBD0004FF00002A5F10105002AECD0029811995E
:10BBE000C0E90231C0E9004579E7000000001440D7
:10BBF0000000F03F300000000000F0430000E03F94
:10BC00002DE9FF4F95B09B468946064600250FE279
:10BC1000252877D100242746F84A0121059400E021
:10BC2000044316F8013F203B01FA03F01042F7D11C
:10BC300030782A2811D06FF02F033078A0F130022D
:10BC4000092A16D8059A44F0020402EB820203EB9B
:10BC500042021044761C0590EFE759F8042B059238
:10BC6000002A03DA504244F40054059044F00204E0
:10BC7000761C30782E2816D116F8010F44F00404F3
:10BC80002A280DD06FF02F023078A0F13003092B55
:10BC900009D807EB870302EB4303C718761CF3E7C9
:10BCA00059F8047B761C30786C280FD006DC4C28C1
:10BCB00017D068280DD06A2814D104E0742810D059
:10BCC0007A280FD10DE044F400140AE044F4801403
:10BCD00001E044F440147278824202D104F58014E9
:10BCE000761C761C307866280BD013DC582877D069
:10BCF00009DC002875D04528F6D04628F4D047281E
:10BD00001AD19DE118E0632835D0642879D06528E0
:10BD100012D195E1702873D008DC6728F1D069282A
:10BD20006FD06E280DD06F2806D1B5E073282CD0C7
:10BD3000752875D0782874D05A46179990476D1C8D
:10BD400075E1C4F30250022809D003280DD0D9F8B8
:10BD5000001004280DD00D6009F1040967E1D9F83D
:10BD60000010EA17C1E90052F6E7D9F800100D807B
:10BD7000F2E70D70F0E719F8041B8DF800100020B1
:10BD80008DF80100EA46012003E059F804AB4FF0BA
:10BD9000FF3061074FF0000102D40DE008F101010E
:10BDA0008846B9420FDA8045F8DB1AF808100029F6
:10BDB000F4D108E008F1010188468142FADB1AF863
:10BDC00008100029F6D105985B46A0EB080721462C
:10BDD0003846179A00F094FA284400EB080507E06B
:10BDE0004DE029E10DE01AF8010B5A4617999047EA
:10BDF000B8F10108F7D25B4621463846179A13E19D
:10BE000042E00A220092C4F302524FF0000A022AD2
:10BE100008D059F804CB032A4FEAEC710AD00DE0A0
:10BE200029E02AE009F1070121F00702F2E802C146
:10BE3000914609E00FFA8CFC4FEAEC71042A03D119
:10BE40004FFA8CFC4FEAEC71002907DA0A46002110
:10BE5000DCF1000C61EB02012D2202E0220504D589
:10BE60002B228DF80420012203E0E20701D02022DA
:10BE7000F7E7904659E00A2102E010220DE0102178
:10BE80004FF0000A00910BE010224FF0000A44F03E
:10BE900004040827009203E008224FF0000A0092F1
:10BEA000C4F30252022A05D059F804CB0021032A18
:10BEB00008D009E009F1070121F00702F2E802C108
:10BEC000914605E01FFA8CFC042A01D10CF0FF0C0E
:10BED0004FF00008220728D5702806D0009B83F079
:10BEE000100353EA0A0305D00EE040228DF8042027
:10BEF000012208E05CEA010206D030228DF804201D
:10BF00008DF8050002229046009B83F0080353EA57
:10BF10000A030AD15CEA010201D1620705D5302289
:10BF20008DF804204FF001087F1E582804D034A05B
:10BF300003900EA802900DE036A0F9E75346604644
:10BF4000009AF4F7C5F984460398825C0298401E73
:10BF5000029002705CEA0100F0D1029806A9081A6A
:10BF600000F1200A600702D524F4803400E00127A4
:10BF7000574502DDA7EB0A0000E0002000EB0A01B4
:10BF8000009005984144401A0590E00306D45B46B2
:10BF90002146179A059800F0B3F90544002706E0FA
:10BFA00001A85A46C05D179990476D1C7F1C4745F4
:10BFB000F6DBE0030CD55B462146179A059800F0A6
:10BFC0009FF9054404E030205A46179990476D1CAC
:10BFD0000099481E00900029F5DC08E002980299BB
:10BFE0005A460078491C0291179990476D1CBAF186
:10BFF0000001AAF1010AF1DC65E100000928010055
:10C0000030313233343536373839616263646566CE
:10C010000000000030313233343536373839414290
:10C02000434445460000000000F058F90544761CE2
:10C03000307800287FF4ECAD19B02846BDE8F08FC9
:10C04000620700D4062709F1070222F0070CFCE87A
:10C050000223E14603F000485FEA080C02D00FF229
:10C06000702C0DE05FEA045C02D50FF2682C07E04B
:10C070005FEAC47C02D00FF2602C01E0AFF2700CDA
:10C080004FF0FF3823F00043CDF850C065280CD0A6
:10C0900006DC452809D046281DD047283DD13DE083
:10C0A000662818D067287ED138E00021112F01DBE7
:10C0B000112000E0781CCDE9000106A90EA8FFF7C9
:10C0C000DDFCDDE90F010E9A03910021009207F1DA
:10C0D000010A04914DE04FF000400097CDE90110B6
:10C0E00006A90EA8FFF7CAFCDDE90F0203920E9B1A
:10C0F00011990022DDF80CA00093049211B9791C6B
:10C1000000EB010AB7EB0A0004D4C0F1FF3007F1DD
:10C11000010A0490AAEB0700019044E0012F00DA25
:10C1200001270021112F01DD112000E03846CDE963
:10C13000000106A90EA8FFF7A1FCDDE90F010E9A88
:10C140000391002104910092BA4621070CD403996F
:10C15000514500DA8A46BAF1010F05DD009AAAF1CD
:10C160000101515C302908D0B84202DA10F1040F05
:10C1700006DA0121CDE9011015E0AAF10101E9E794
:10C18000002805DC049901440491AAEB000102E0B7
:10C19000411C514500DD8A460499401A401C01901B
:10C1A0004FF000400290200704D40198504501DB75
:10C1B000CDF8048000208DF84F0002980DF14F0754
:10C1C000B0F1004F25D02B200E9002984FF00208BE
:10C1D00000280CDA404202902D200E9007E00A2140
:10C1E0000298F4F7B8F83031029007F8011DB8F161
:10C1F0000001A8F10108F2DC02980028EFD1791EB5
:10C200000E980870307800F0200040F0450007F8E4
:10C21000020D12A8C01B00F107081498007800B1A5
:10C22000012000EB0A01019801EBE07105984144FF
:10C23000401A401E0590E00306D45B462146179A3B
:10C24000059800F05DF805441498007818B15A4636
:10C25000179990476D1CE00324D55B462146179A39
:10C26000059800F04DF805441CE00498002807DB11
:10C27000DDE90301884203DD0098405C179901E085
:10C28000179930205A469047049805F10105401C43
:10C2900004900198401E019004D12E205A4617990F
:10C2A00090476D1CBAF10001AAF1010ADDDC05E03E
:10C2B00017F8010B5A46179990476D1CB8F1000109
:10C2C000A8F10108F4DC5B462146179A0598ABE615
:10C2D0002D0000002B000000200000002DE9F0419F
:10C2E000044600251E461746880404D405E0394656
:10C2F0002020B0476D1C641EF9D52846BDE8F081AA
:10C300002DE9F041044600251E469046C80301D59C
:10C31000302700E02027880404D505E04146384650
:10C32000B0476D1C641EF9D52846BDE8F0810A6847
:10C33000531C0B601070704710B541EC100BFEF7EA
:10C3400053FE51EC100B10BD82B0CDE9000121F07D
:10C35000004001909DED000B02B051EC100B7047B6
:10C3600013B50448642301226946FAF7B7F8009828
:10C370001CBD0000F80900202DE9F843FBF79CFCE8
:10C38000694900240868800311D4BFF34F8FBFF3BD
:10C390006F8F66480460BFF34F8FBFF36F8F0868DD
:10C3A00040F400300860BFF34F8FBFF36F8F086811
:10C3B000C00323D45C4870300460BFF34F8F001F6C
:10C3C00043F6FF760068594D1035C0F34E32C0F386
:10C3D000C90306EA4217184647EA807CC5F800C040
:10C3E000401EF9D2521EF4D2BFF34F8F086840F4BA
:10C3F00080300860BFF34F8FBFF36F8FF6F786FE74
:10C40000FDF7ACF9FBF7A6FCFBF738FDFAF7C0F82F
:10C41000FDF762F8F4F750FB4FF0105848F2403146
:10C420004046FBF7CFFD424F5FF00506FAF7CEF826
:10C430000546B0FBF6F006FB1050012808D1052D8B
:10C4400006D241033B48F6F740FEC820F6F710FD40
:10C45000B5FBF6F006FB105002281AD1052D18D2B4
:10C460003878012815D13C700021F02208464FF49D
:10C470008C73CDF80080FAF7C3F9F02154202EA276
:10C48000FAF7D2FA2E4802230278F0218420FAF734
:10C49000ADFAB5FBF6F006FB105003281BD1052DB5
:10C4A00019D20020FBF77AFAFAF746F92548FBF78C
:10C4B00087FA0020F4F7BEF92349002808602348D2
:10C4C00010D0FBF765FA22A219211420FAF7ACFA72
:10C4D000C820F6F7CDFCB5FBF6F006FB105004289B
:10C4E00004D01EE0FBF754FA1CA2EDE7052D18D28C
:10C4F000FBF7D6FAFAF754FEFAF706FEFAF714FF3E
:10C50000FAF7FEFFFAF758FDFAF7FAF8FBF738FBEF
:10C51000FAF784F8FAF76AFEFAF73AF90020BDE86C
:10C52000F883B5FBF6F081E714ED00E050EF00E092
:10C5300004000020000802584650533A0000000052
:10C540000600002080FF800000000020380000204E
:10C550005344204572726F72000000005344205310
:10C56000756363657373000010EE100A0649B6EE3A
:10C57000001A0844400800EE900AC0EE201A31EE7E
:10C58000A00A20EE010A704762CF763FFF00DA0969
:10C59000D703E00005000000FF00DA10E177D703C1
:10C5A000E00005000000FF011280FF002CFF2EDFDD
:10C5B000FF013C322C0C33783A333BFB3E004311F5
:10C5C0001610399235DA221A37C3361A4C005B003E
:10C5D00042034A8121995C0063007C056C006D80F8
:10C5E0006E007002719473C12080283037C03D38CE
:10C5F0006D002300068807C00D870E411100090257
:10C6000004281240144815003209038A46002440C9
:10C610002538268234C061706280171118431901D1
:10C620001A9713E50C3A4FBB509C5A23FF00E57F45
:10C63000412476FF33A0422043184C00D703D91081
:10C64000883FC808C9807C007D007C037D487D4808
:10C650007C087D207D107D0E9000910E911A913105
:10C66000915A91699175917E9188918F919691A33C
:10C6700091AF91C491D791E891209200930693E3F2
:10C680009305930593009304930093009300930004
:10C690009300930093009600970897199702970CC0
:10C6A0009724973097289726970297989780970016
:10C6B0009700A400A800C511C651BF80C710B66678
:10C6C000B8A5B764B97CB3AFB497B5FFB0C5B194A2
:10C6D000B20FC45C7F00F9C0E01487D0C3EDC20E76
:10C6E000863DDA09C064C14B8C00500051C8529697
:10C6F0005300540055005700D304E51FE167DD7F68
:10C70000E000050000000000000000000000000242
:10C710000000000E001800070018001B00188071B0
:10C72000001880C1001880802118C0806318400064
:10C7300021182000201830402018F0FF20186860D1
:10C740002018646020186260201860602018606003
:10C7500020186060201860602018603C2018601865
:10C7600020186000021860000218600002186000C3
:10C77000021840000318C0FFC71FC0FF030F0000CE
:10C78000000400000000B4B400000000000000003D
:10C790000000000000000000000000000000000099
:10C7A0000000000000000000000000000000000089
:10C7B0000000000000000000000000000000000079
:10C7C0000000000000000000000000000000000069
:10C7D0000000000000000000000000000000000059
:10C7E0000000000000000000000000000000000049
:10C7F0000000000000000000000000000000000039
:10C800000000000000000000000000000000000028
:10C81000000000000000000000000080000000C0D8
:10C82000030000800300FCFFFF7FFCFFFF7F0C087C
:10C8300000600C0E00600CFFFF6780FFFF07E00F39
:10C840008003781CE00118F87C0000C00F0000FF96
:10C85000FF00FF1FF0FF3E0000FCC0FFFF07C0FF0E
:10C86000FF07C0000006C0000006C0000006C0FFB1
:10C87000FF07C0FFFF07C000000600000000000027
:10C88000000000000000BFCD00000000000000001C
:10C890000000000000000000000000000000000098
:10C8A0000000000000000000000000000000000088
:10C8B0000000000000000000000000000000000078
:10C8C0000000000000000000000000000000000068
:10C8D0000000000000000000000000000000000058
:10C8E0000000000000000000000000000000000048
:10C8F0000000000000000000000000000000000038
:10C900000000000000000000000000000000000225
:10C910001000000E7000000630000006300CF8FF1A
:10C92000FF1F00063000000630000006300000FE49
:10C930003F00000630000006300000FE3F00000609
:10C940003000000630080006301CFCFFFF3F000CE2
:10C95000080000861000008761000083C001C080CD
:10C96000800F6080307E18FF7F18048000000080F8
:10C9700000000080000000800006F8FFFF0F0000AC
:10C98000000000000000BBF90000000000000000F3
:10C990000000000000000000000000000000000097
:10C9A0000000000000000000000000000000000087
:10C9B0000000000000000000000000000000000077
:10C9C0000000000000000000000000000000000067
:10C9D0000000000000000000000000000000000057
:10C9E0000000000000000000000000000000000047
:10C9F0000000000000000000000000000000000037
:10CA00000000000000000000000000000000000026
:10CA1000080000003800C0001800C0001800C04026
:10CA20001800C0C01800C0C01800C0C01804C0C0A2
:10CA3000180FC0C0F806C0C41806FCCF1F06C0E01F
:10CA40001806C0D81806C0C41806C0C01806C0C052
:10CA50001806C0C01806C0C01806C0C09807C0C0DD
:10CA60001813C0D81810C0C71810E0C100107CC03F
:10CA700000101CC0003004C0FF3F0080FF1F0000FA
:10CA8000000000000000B5D8000000000000000019
:10CA90000000000000000000000000000000000096
:10CAA0000000000000000000000000000000000086
:10CAB0000000000000000000000000000000000076
:10CAC0000000000000000000000000000000000066
:10CAD0000000000000000000000000000000000056
:10CAE0000000000000000000000000000000000046
:10CAF0000000000000000000000000000000000036
:10CB00000000000000000000000000000000000025
:10CB10000000000000000000000000000000000015
:10CB20000000000000000000000000000000000005
:10CB300000000000000000000000000000000000F5
:10CB400000000000000000000000000000000000E5
:10CB50000000C003C003C003C003C003C0038003C0
:10CB600080018001800180018001800180018001BD
:10CB70000000000000008001C003C003800100002D
:10CB800000000000000000000000C018E01CE01CD5
:10CB9000700E300618038C018400000000000000B5
:10CBA0000000000000000000000000000000000085
:10CBB0000000000000000000000000000000000075
:10CBC0000000000000000000000000000000000065
:10CBD000000020102010201020102010FE7FFE7F6B
:10CBE000FE7F100810081008100810081008FE7FBB
:10CBF000FE7FFE7F180C08040804080408040000E7
:10CC000000000000000000000000000000008000A4
:10CC10008000C003B00C90189818981C981CB8009D
:10CC2000B000F000E000C0038007800F800C801C83
:10CC300080189C189C188C188C0C9806E0038000B7
:10CC400080008000000000000000000000000000E4
:10CC500000001C08360822046304630263026302B6
:10CC6000630163012201B61C9C364022406340638D
:10CC7000206320631063106310220836081C000034
:10CC800000000000000000000000000000000000A4
:10CC90000000F00098008C018C018C018C018C004C
:10CCA000CC005C0038001C3E3C083208730863046A
:10CCB000E304C3048303834306678C3E781C0000AF
:10CCC000000000000000000000001C003C003C00D0
:10CCD0003000300010000C000600000000000000D2
:10CCE0000000000000000000000000000000000044
:10CCF0000000000000000000000000000000000034
:10CD000000000000000000000000004000200010B3
:10CD10000018000C0004000600020003000380015C
:10CD200080018001800180018001800180018001FB
:10CD300000030003000200060004000C00180010AD
:10CD40000020004000000000000002000400080075
:10CD500018003000200060004000C000C0008001CA
:10CD600080018001800180018001800180018001BB
:10CD7000C000C000C00060002000300018000800A3
:10CD8000040002000000000000000000000000009D
:10CD90000000000000000003800380030C631C718E
:10CDA0003839600D80038003600D38391C718C6147
:10CDB00080038003800300000000000000000000EA
:10CDC0000000000000000000000000000000000063
:10CDD000000000000000000000010001000100014F
:10CDE000000100010001FC7F0001000100010001C1
:10CDF0000001000100010000000000000000000030
:10CE00000000000000000000000000000000000022
:10CE10000000000000000000000000000000000012
:10CE20000000000000000000000000000000000002
:10CE30000000000000001C003C003C0030003000FE
:10CE400010000C00060000000000000000000000C0
:10CE500000000000000000000000000000000000D2
:10CE6000000000000000FE7F000000000000000045
:10CE700000000000000000000000000000000000B2
:10CE800000000000000000000000000000000000A2
:10CE90000000000000000000000000000000000092
:10CEA0000000000000000000000000000000000082
:10CEB00000000000000018003C003C0018000000CA
:10CEC00000000000000000000000000000400060C2
:10CED00000200030001000180008000C00040006BC
:10CEE00000020003000180018000C00040006000DB
:10CEF000200030001000180008000C00040006009C
:10CF0000020000000000000000000000000000001F
:10CF10000000C0036004300C1818181818100C30EA
:10CF20000C300C300C300C300C300C300C300C3021
:10CF30000C30181018181818300C6004C0030000CA
:10CF400000000000000000000000000000000000E1
:10CF5000000000018001F801800180018001800152
:10CF600080018001800180018001800180018001B9
:10CF700080018001800180018001C003F81F000052
:10CF800000000000000000000000000000000000A1
:10CF90000000E007101C0818043004300C300C307E
:10CFA000003000180018000C000600038001C000CB
:10CFB00040002020102008200430FC1FFC1F00002F
:10CFC0000000000000000000000000000000000061
:10CFD0000000E00318060C0C0C180C180C180018B4
:10CFE0000018000C0006C003000E001800100030EE
:10CFF00000300C300C300C100C18180CE003000042
:10D000000000000000000000000000000000000020
:10D0100000000006000600070007800680064006A4
:10D02000200620061006100608060C060406020656
:10D03000FE3F00060006000600060006C03F000096
:10D0400000000000000000000000000000000000E0
:10D050000000F03FF03F080008000800080008004A
:10D060000800C807280C18180810003000300030DD
:10D0700000300C300C3004180418180CE0030000C9
:10D0800000000000000000000000000000000000A0
:10D0900000008007601830181018180008000800F9
:10D0A0000C00CC076C0C1C181C100C300C300C3015
:10D0B0000C300C30183018103018700CC0070000FD
:10D0C0000000000000000000000000000000000060
:10D0D0000000F83FF83F08100C080408040400049E
:10D0E00000020002000200010001800080008000B8
:10D0F0008000C000C000C000C000C000C000000030
:10D10000000000000000000000000000000000001F
:10D110000000E007300C18180C300C300C301C30BC
:10D120001C107818F004E003180F0C1E0C1C0638B5
:10D1300006300630063006300C18180CE0030000EC
:10D1400000000000000000000000000000000000DF
:10D150000000E00318040C080C1806100630063016
:10D160000630063006300E380C341836F0310030F8
:10D170000018001800080C0C0C060C03F00100004D
:10D18000000000000000000000000000000000009F
:10D19000000000000000000000000000000000008F
:10D1A0008001C003C00380010000000000000000F7
:10D1B0000000000000008001C003C00380010000E7
:10D1C000000000000000000000000000000000005F
:10D1D000000000000000000000000000000000004F
:10D1E0000000C001C001C0010000000000000000FC
:10D1F0000000000000000000C001C001C00180016B
:10D20000C000C0000000000000000000000000009E
:10D21000000000200010000800040002000180004F
:10D22000400020001000080008001000200040000E
:10D23000800000010002000400080010002000002F
:10D2400000000000000000000000000000000000DE
:10D2500000000000000000000000000000000000CE
:10D26000FE7F00000000000000000000FE7F0000C4
:10D2700000000000000000000000000000000000AE
:10D28000000000000000000000000000000000009E
:10D290000000040008001000200040008000000191
:10D2A0000002000400080010001000080004000242
:10D2B0000001800040002000100008000400000071
:10D2C000000000000000000000000000000000005E
:10D2D0000000C0073018183008600C601C601C602B
:10D2E0001C6000300018000E000300010001000166
:10D2F0000001000000008001C003C00380010000A5
:10D30000000000000000000000000000000000001D
:10D310000000C0076008301018200C2B8C4D844C86
:10D32000C64CC6446644664466446646662666261F
:10D330006417CC0C0C40082018303018C0070000CF
:10D3400000000000000000000000000000000000DD
:10D350000000C001C001C001C00120032003200360
:10D36000200330021006100610061004F80F080CF7
:10D37000080C080C04180418041806381F7C000058
:10D38000000000000000000000000000000000009D
:10D390000000FE07181C1818183018301830183004
:10D3A00018301818180CF8071818183018201860BA
:10D3B000186018601860186018301818FE0F000008
:10D3C000000000000000000000000000000000005D
:10D3D0000000C0076038103018600C400C400C0092
:10D3E000060006000600060006000600060006000D
:10D3F00006000C400C40082018103008C007000040
:10D40000000000000000000000000000000000001C
:10D410000000FE03180E1818181018301830186085
:10D42000186018601860186018601860186018603C
:10D43000182018301830181818181806FE030000A5
:10D4400000000000000000000000000000000000DC
:10D450000000FE3F1830182018401840180018002F
:10D4600018081808180CF80F180C180818081800D5
:10D47000180018001840184018201830FE3F00000F
:10D48000000000000000000000000000000000009C
:10D490000000FE3F183818201840184018001800E7
:10D4A00018081808180CF80F180C1808180818088D
:10D4B0001800180018001800180018007E0000005E
:10D4C000000000000000000000000000000000005C
:10D4D0000000C003300C100818180C100C100400C9
:10D4E00006000600060006000600067E061806185E
:10D4F00004180C180C18081818183004E003000061
:10D50000000000000000000000000000000000001B
:10D5100000003FFC0C300C300C300C300C300C3068
:10D520000C300C300C30FC3F0C300C300C300C301C
:10D530000C300C300C300C300C300C303FFC000048
:10D5400000000000000000000000000000000000DB
:10D550000000F81F800180018001800180018001AE
:10D5600080018001800180018001800180018001B3
:10D57000800180018001800180018001F81F00008E
:10D58000000000000000000000000000000000009B
:10D590000000E07F00060006000600060006000608
:10D5A000000600060006000600060006000600064B
:10D5B00000060006000600060006000600060E062D
:10D5C0000E038E01FC0000000000000000000000BF
:10D5D00000007E3E180C18041806180218011801E5
:10D5E00098009800D800B801B8011803180318066D
:10D5F0001806180C180C180C181818187E7C000047
:10D60000000000000000000000000000000000001A
:10D6100000007E00180018001800180018001800FC
:10D62000180018001800180018001800180018003A
:10D63000180018001840184018201830FE3F00004D
:10D6400000000000000000000000000000000000DA
:10D6500000000FF01C381C381C381C381C343434C3
:10D6600034343434343234326432643264326431C7
:10D670004431C431C431C430C43084308FFC000024
:10D68000000000000000000000000000000000009A
:10D6900000000FF81C201C2034203420642064205B
:10D6A000C420C420842184210423042304260426C6
:10D6B000042C042C04380438043004301F200000EB
:10D6C000000000000000000000000000000000005A
:10D6D0000000C003300C181808100C300C30062065
:10D6E000066006600660066006600660066006600A
:10D6F00004600C300C3008101818300CC003000007
:10D700000000000000000000000000000000000019
:10D710000000FE0F181818301860186018601860A4
:10D720001860186018301818F8071800180018004A
:10D730001800180018001800180018007E000000DB
:10D7400000000000000000000000000000000000D9
:10D750000000C003300C181808100C300C300660A4
:10D760000660066006600660066006600660066089
:10D770000660E4211C331C36181E300EC007004C16
:10D78000003C003800000000000000000000000025
:10D790000000FE07181C1818183018301830183000
:10D7A00018301818180CF80718031803180618066C
:10D7B0001806180C180C180C181818187E78000089
:10D7C0000000000000000000000000000000000059
:10D7D0000000F013181E0C1806180610061006009C
:10D7E0000E003C00F800E003800F001E0018003817
:10D7F00002300230063004300C181C0CE407000024
:10D800000000000000000000000000000000000018
:10D810000000FC3F8C2184618241824180018001B3
:10D8200080018001800180018001800180018001F0
:10D83000800180018001800180018001E0070000FB
:10D8400000000000000000000000000000000000D8
:10D8500000003F7C0C100C100C100C100C100C1065
:10D860000C100C100C100C100C100C100C100C10D8
:10D870000C100C100C100C1018083804E0030000F9
:10D880000000000000000000000000000000000098
:10D8900000003E78183018101810181030083008A2
:10D8A0003008300830046004600460046002C00284
:10D8B000C002C002C0018001800180008000000021
:10D8C0000000000000000000000000000000000058
:10D8D0000000CFF386618621842104210C238C2350
:10D8E0008C238C138C138813481258165816580E14
:10D8F000380E300E300E300C3004100410040000CE
:10D900000000000000000000000000000000000017
:10D9100000003E7C181018083008300460046002D3
:10D92000C002C001800180018001800340034006E5
:10D930002006200E100C100C181808383E7C000031
:10D9400000000000000000000000000000000000D7
:10D9500000007E7C1C1018101808300830083004B5
:10D9600060046004C002C002C00180018001800127
:10D97000800180018001800180018001E0070000BA
:10D980000000000000000000000000000000000097
:10D990000000F87F383018300C180418000C00060E
:10D9A00000060003000380018001C000C000600089
:10D9B00060003000184018600C200C38FE3F00005A
:10D9C000000000000000000000000000C03FC00098
:10D9D000C000C000C000C000C000C000C000C00047
:10D9E000C000C000C000C000C000C000C000C00037
:10D9F000C000C000C000C000C000C000C000C00027
:10DA0000C03F000000000000000000000000000017
:10DA10001800180010003000200060006000400076
:10DA2000C0008000800180010001000300020006A8
:10DA30000006000C000C000C00180018003000302C
:10DA4000003000600000000000000000FC03000344
:10DA500000030003000300030003000300030003AE
:10DA6000000300030003000300030003000300039E
:10DA7000000300030003000300030003000300038E
:10DA8000FC030000000000000000C003C0076004A9
:10DA9000100800000000000000000000000000006E
:10DAA0000000000000000000000000000000000076
:10DAB0000000000000000000000000000000000066
:10DAC0000000000000000000000000000000000056
:10DAD0000000000000000000000000000000000046
:10DAE0000000000000000000000000000000000036
:10DAF0000000000000000000000000000000000026
:10DB000000000000FFFF000000007800C0000001DE
:10DB10000000000000000000000000000000000005
:10DB200000000000000000000000000000000000F5
:10DB300000000000000000000000000000000000E5
:10DB400000000000000000000000000000000000D5
:10DB500000000000000000000000000000000000C5
:10DB6000E007180C0C180C180C18001CE01B3818D7
:10DB70000C1806180618061806980C9EF871000076
:10DB80000000000000000000000000000000000095
:10DB900010001E00180018001800180018001800C7
:10DBA0009807581C3818383018301830183018308A
:10DBB00018301830183018103818380CC807000002
:10DBC0000000000000000000000000000000000055
:10DBD0000000000000000000000000000000000045
:10DBE000C0077008301818180C180C000C000C0036
:10DBF0000C000C000C20182018103008C007000082
:10DC00000000000000000000000000000000000014
:10DC10000010001E00180018001800180018001846
:10DC2000E01B301C181818180C180C180C180C18BD
:10DC30000C180C180C180818181C307AE009000091
:10DC400000000000000000000000000000000000D4
:10DC500000000000000000000000000000000000C4
:10DC6000C003300C101818100C300C300C30FC3F76
:10DC70000C000C000C00182018107018C0070000D1
:10DC80000000000000000000000000000000000094
:10DC90000000003E80618060C060C000C000C00025
:10DCA000FC1FC000C000C000C000C000C000C00019
:10DCB000C000C000C000C000C000C000F80F0000DD
:10DCC0000000000000000000000000000000000054
:10DCD0000000000000000000000000000000000044
:10DCE000C077306C10181818181818181018300C45
:10DCF000F00718001800F803F01F18380C300C302B
:10DD00000C301818E00700000000000000000000C0
:10DD100010001E0018001800180018001800180045
:10DD20009807580C381818181818181818181818B0
:10DD30001818181818181818181818187E7E0000C7
:10DD400000000000000000000000000000000000D3
:10DD500000008001C00380010000000000000001FD
:10DD6000F801800180018001800180018001800133
:10DD7000800180018001800180018001F81F000086
:10DD80000000000000000000000000000000000093
:10DD90000000001C001E000C000000000000000835
:10DDA000C00F000C000C000C000C000C000C000C50
:10DDB000000C000C000C000C000C000C000C000C03
:10DDC00018061802F001000000000000000000002A
:10DDD00010001E0018001800180018001800180085
:10DDE000183E180C1804180218019801D80178037D
:10DDF00038031806180C180C181818387E7C000008
:10DE00000000000000000000000000000000000012
:10DE10000001F80180018001800180018001800102
:10DE200080018001800180018001800180018001EA
:10DE3000800180018001800180018001F81F0000C5
:10DE400000000000000000000000000000000000D2
:10DE500000000000000000000000000000000400BE
:10DE6000F73C8E6386618661866186618661866124
:10DE7000866186618661866186618661CFF3000076
:10DE80000000000000000000000000000000000092
:10DE90000000000000000000000000000000000082
:10DEA00090075E0C38181818181818181818181831
:10DEB0001818181818181818181818187E7E000046
:10DEC0000000000000000000000000000000000052
:10DED0000000000000000000000000000000000042
:10DEE000C003300C1018181808300C300C300C30EF
:10DEF0000C300C300C3018181818300CC00300000F
:10DF00000000000000000000000000000000000011
:10DF10000000000000000000000000000000000001
:10DF200090075E0C38181810183018301830183058
:10DF300018301830183018183818780C980718004E
:10DF4000180018007E000000000000000000000023
:10DF500000000000000000000000000000000000C1
:10DF6000C013301E181C18180C180C180C180C189C
:10DF70000C180C180C180818181C301EE019001882
:10DF800000180018007E00000000000000000000E3
:10DF90000000000000000000000000000000000081
:10DFA00060387E666061E001E00060006000600053
:10DFB000600060006000600060006000FE0700001C
:10DFC0000000000000000000000000000000000051
:10DFD0000000000000000000000000000000000041
:10DFE000C02760383030302030207000E003800FD0
:10DFF000001E00380830083018303818C80F0000EC
:10E000000000000000000000000000000000000010
:10E01000000000000000800080008000C000E000E0
:10E02000FC1FC000C000C000C000C000C000C00095
:10E03000C000C000C000C020C0208011000F000040
:10E0400000000000000000000000000000000000D0
:10E0500000000000000000000000000000001010A0
:10E060001E1E181818181818181818181818181824
:10E070001818181818181818181C307AE009000019
:10E080000000000000000000000000000000000090
:10E090000000000000000000000000000000000080
:10E0A0003E7C18301810181830083008200460041E
:10E0B0006004C002C002C003800180018000000033
:10E0C0000000000000000000000000000000000050
:10E0D0000000000000000000000000000000000040
:10E0E000DFF3866184218C218C218C1388135813D3
:10E0F0005812580E700E300E300C30042004000000
:10E10000000000000000000000000000000000000F
:10E1100000000000000000000000000000000000FF
:10E120007C3E300870086004C002C002800180019B
:10E13000800340062006200C101818183E7E0000B0
:10E1400000000000000000000000000000000000CF
:10E1500000000000000000000000000000000000BF
:10E160003E7C181818081008300820046004600469
:10E170004002C00280028001800180008000800097
:10E1800040007C003C000000000000000000000097
:10E19000000000000000000000000000000000007F
:10E1A000FC1F0C1C0C0C0406040700038001C001BA
:10E1B000C00060007020302018300C18FC1F0000D8
:10E1C0000000000000000000000000300008000413
:10E1D000000400040004000400040004000400041F
:10E1E0000004000400038001000200040004000495
:10E1F00000040004000400040004000400040004FF
:10E2000000080030000000010001000100010001D1
:10E2100000010001000100010001000100010001F6
:10E2200000010001000100010001000100010001E6
:10E2300000010001000100010001000100010001D6
:10E240000001000100010000000018002000400053
:10E2500040004000400040004000400040004000BE
:10E26000400040008001000380004000400040006A
:10E27000400040004000400040004000400040009E
:10E2800020001800000000007800C4008241024114
:10E290000027001C0000000000000000000000003B
:10E2A000000000000000000000000000000000006E
:10E2B000000000000000000000000000000000005E
:10E2C000000000000000000000000000000000004E
:10E2D000000000000000000000000000000000003E
:10E2E000000000000000000000000000000000002E
:10E2F00000000000000000000000000000006000BE
:10E30000600060006000600060006000400020006D
:10E31000200020000000000000006000600060009D
:10E3200000000000000000000000600660063003EE
:10E330009801880044000000000000000000000078
:10E3400000000000000000000000000000000000CD
:10E3500000000000000000000000000000001002AB
:10E36000100210021002FE07FE0708020801080151
:10E3700008010801FE07FE0704010401040104016D
:10E38000000000000000000000000000400040000D
:10E39000F00158034C03CC034C0058007000E0001F
:10E3A000C001C00140034C035C034C034801F00072
:10E3B00040004000000000000000000000000E01CE
:10E3C0000A01910091009100510051003A00AE0302
:10E3D000A002500450044804480448048402840302
:10E3E00000000000000000000000000000003800F5
:10E3F0006C006C006C006C006C002C0098071C0119
:10E400001A01330133016301E300C308C6093C0765
:10E41000000000000000000000000C001C001000C4
:10E4200010000800040000000000000000000000D0
:10E4300000000000000000000000000000000000DC
:10E4400000000000000000000000000400020001C5
:10E4500080008000400040002000200020002000BC
:10E4600020002000200040004000800080000001CB
:10E470000002000400000000000002000400080088
:10E48000100010002000200040004000400040002C
:10E490004000400040002000200010001000080054
:10E4A0000400020000000000000000000000000066
:10E4B00000004000C0004000460C4E0FD001F001AB
:10E4C0005E0F460C400040004000000000000000CD
:10E4D000000000000000000000000000000000003C
:10E4E0000000000040004000400040004000FE0FDF
:10E4F00040004000400040004000000000000000DC
:10E50000000000000000000000000000000000000B
:10E5100000000000000000000000000000000000FB
:10E52000000000000000000000000C001C001000B3
:10E5300010000800040000000000000000000000BF
:10E540000000000000000000000000000000FE07C6
:10E5500000000000000000000000000000000000BB
:10E5600000000000000000000000000000000000AB
:10E57000000000000000000000000000000000009B
:10E58000000000000000000000001C001C001C0037
:10E59000000000000000000000000004000600026F
:10E5A0000003000100018000800040004000600086
:10E5B0002000200010001000080008000C000400DB
:10E5C0000600020000000000000000000000000043
:10E5D000F00098010C030C03060606060606060664
:10E5E00006060606060606060C030C039801F00054
:10E5F000000000000000000000000000000000001B
:10E6000040007C006000600060006000600060000E
:10E610006000600060006000600060006000FC035B
:10E6200000000000000000000000000000000000EA
:10E63000F8008401020306030603000300018001C1
:10E64000C000600020001000080204020602FE0361
:10E6500000000000000000000000000000000000BA
:10E660007800C6008601860180018001C00070002C
:10E670008001000100030003060306038601F80081
:10E68000000000000000000000000000000000008A
:10E6900080018001C001A001A001900188018801D2
:10E6A00084018201FE0F8001800180018001E0076A
:10E6B000000000000000000000000000000000005A
:10E6C000FC0304000400040004000400F4008C01B6
:10E6D0000403000300030603060382018401F8001B
:10E6E000000000000000000000000000000000002A
:10E6F000E00118030C030C0004000600E6011603F9
:10E700000E0606060606060604060C021803F000AE
:10E7100000000000000000000000000000000000F9
:10E72000F8070C06040204010001000180008000CB
:10E730004000400040006000600060006000600039
:10E7400000000000000000000000000000000000C9
:10E75000F8010C030606060606060C021C03F00070
:10E76000C8010C0306060606060606060C03F001A1
:10E770000000000000000000000000000000000099
:10E78000F0000C010C030602060606060606060744
:10E790008C0678060006000300030C018C0178004B
:10E7A0000000000000000000000000000000000069
:10E7B00000000000000000000000E000E000E000B9
:10E7C00000000000000000000000E000E000E000A9
:10E7D0000000000000000000000000000000000039
:10E7E0000000000000000000000060006000000069
:10E7F0000000000000000000000000006000600059
:10E800004000200020000000000000000000000484
:10E8100000020001800040002000100008000400F9
:10E8200008001000200040008000000100020004E9
:10E8300000000000000000000000000000000000D8
:10E8400000000000000000000000FE0700000000C3
:10E850000000FE07000000000000000000000000B3
:10E8600000000000000000000000000000000400A4
:10E870000800100020004000800000010002000499
:10E880000002000180004000200010000800040089
:10E890000000000000000000000000000000000078
:10E8A000E0031806040C040C0C0C0C0C000780018F
:10E8B00040004000400000000000E000E000E000F8
:10E8C0000000000000000000000000000000E00068
:10E8D00018030C02CC0564056605A605B604B6044B
:10E8E000B604B604B602E4010C040C021803F000EE
:10E8F0000000000000000000000000000000000018
:10E90000600060005000D0009000900088008801F6
:10E910000801F801040304030402020202060F0FB7
:10E9200000000000000000000000000000000000E7
:10E93000FE008C030C030C030C030C038C01FC0085
:10E940000C030C020C060C060C060C060C03FE0154
:10E9500000000000000000000000000000000000B7
:10E96000E00318030C060C0404040600060006006D
:10E9700006000600060006040C040C021803F00052
:10E980000000000000000000000000000000000087
:10E990007F008C010C030C030C060C060C060C0605
:10E9A0000C060C060C060C060C030C038C017F00F5
:10E9B0000000000000000000000000000000000057
:10E9C000FF03060306040604060086008600FE0018
:10E9D0008600860086000600060406040602FF0381
:10E9E0000000000000000000000000000000000027
:10E9F000FF03060306040604060086008600FE00E8
:10EA000086008600860006000600060006001F003D
:10EA100000000000000000000000000000000000F6
:10EA2000F00018010C020C020402060006000600A9
:10EA30000600C60F060306030C030C031803F000C0
:10EA400000000000000000000000000000000000C6
:10EA50000F0F060606060606060606060606FE074B
:10EA600006060606060606060606060606060F0F34
:10EA70000000000000000000000000000000000096
:10EA8000FC036000600060006000600060006000E7
:10EA90006000600060006000600060006000FC03D7
:10EAA0000000000000000000000000000000000066
:10EAB000F807C000C000C000C000C000C000C00017
:10EAC000C000C000C000C000C000C000C000C00046
:10EAD000C60066003C0000000000000000000000CE
:10EAE000CF038601C60046002600160036002E0021
:10EAF0006E004600C60086008601060106038F07E9
:10EB00000000000000000000000000000000000005
:10EB10001F000600060006000600060006000600AC
:10EB20000600060006000600060406040602FF03AF
:10EB300000000000000000000000000000000000D5
:10EB40000707860386038E038E034E034E034A0394
:10EB50005A035A033A03320332033203120387077C
:10EB600000000000000000000000000000000000A5
:10EB70008E0F0C021C021C02340234026402640276
:10EB80004402C402840284038403040304031F02B6
:10EB90000000000000000000000000000000000075
:10EBA000F00098010C030C0206060606060606068F
:10EBB00006060606060606060C020C039801F0007F
:10EBC0000000000000000000000000000000000045
:10EBD000FF00060306060606060606060606860368
:10EBE000FE000600060006000600060006001F00E4
:10EBF0000000000000000000000000000000000015
:10EC0000F00098010C030C0206060606060606062E
:10EC100006060606060676064C02CC039801F000AE
:10EC2000800700030000000000000000000000005A
:10EC3000FF01060306060606060606060603FE0094
:10EC40004600C600860086010603060306060F0E70
:10EC500000000000000000000000000000000000B4
:10EC6000F8020C030602060206000E003C00F80043
:10EC7000E003800300070206020606060C03F0010B
:10EC80000000000000000000000000000000000084
:10EC9000FE076204610861086000600060006000B7
:10ECA0006000600060006000600060006000F801CB
:10ECB0000000000000000000000000000000000054
:10ECC0001E070C020C020C020C020C020C020C02BD
:10ECD0000C020C020C020C020C020C021801F000D7
:10ECE0000000000000000000000000000000000024
:10ECF0000F070602040104010C010C0188008800C2
:10ED00009800980050005000700030002000200053
:10ED100000000000000000000000000000000000F3
:10ED2000F70E620442044604460464026402E402EC
:10ED3000E4029C029C0198019801880188008800E7
:10ED400000000000000000000000000000000000C3
:10ED50009E070C01080118019000B000600020001F
:10ED600060006000D00090008801080104038E0755
:10ED70000000000000000000000000000000000093
:10ED80000F0F060404020C0208011801B800B000BD
:10ED90007000600060006000600060006000F801CA
:10EDA0000000000000000000000000000000000063
:10EDB000FC070C02060302018001800040004000B5
:10EDC000200020001000180008040C040402FE03B8
:10EDD00000000000000000000000E0032000200010
:10EDE0002000200020002000200020002000200023
:10EDF0002000200020002000200020002000200013
:10EE00002000E003000000000000000000000400FB
:10EE1000040008000800100010001000200020006E
:10EE200040004000C000800080000001000100029E
:10EE3000000200020004000000007C0040004000CE
:10EE400040004000400040004000400040004000C2
:10EE500040004000400040004000400040004000B2
:10EE600040007C00000000006000900008010000ED
:10EE70000000000000000000000000000000000092
:10EE80000000000000000000000000000000000082
:10EE90000000000000000000000000000000000072
:10EEA0000000000000000000000000000000000062
:10EEB0000000000000000000000000000000000052
:10EEC00000000000FF0F00000000180060000000BC
:10EED0000000000000000000000000000000000032
:10EEE0000000000000000000000000000000000022
:10EEF0000000000000000000000000000000000012
:10EF000000000000000000000000F0010C030C03F2
:10EF10000003E0031C030E03060306038E0B7C0EA6
:10EF200000000000000000000000000000000800D9
:10EF30000E000C000C000C000C00CC013C031C0665
:10EF40000C060C060C060C060C060C021C03E40155
:10EF500000000000000000000000000000000000B1
:10EF600000000000000000000000F0008C018C0197
:10EF7000860106000600060006020C020C01F000E5
:10EF8000000000000000000000000000000000027F
:10EF9000C003000300030003000378038C030C0389
:10EFA0000603060306030603060304038C07780121
:10EFB0000000000000000000000000000000000051
:10EFC00000000000000000000000E001180308023B
:10EFD0000C060C06FC070C000C0018041802E001DB
:10EFE0000000000000000000000000000000000021
:10EFF000C0036006300630003000FE0130003000F3
:10F000003000300030003000300030003000FC01B3
:10F0100000000000000000000000000000000000F0
:10F0200000000000000000000000F007D8068C017E
:10F030008C018C019801F8000C00FC00CC03060345
:10F0400006038E03F8000000000000000000080026
:10F050000E000C000C000C000C00EC011C030C0357
:10F060000C030C030C030C030C030C030C039E0792
:10F070000000000000000000000000000000000090
:10F08000600060000000000040007C006000600044
:10F090006000600060006000600060006000FC03D1
:10F0A0000000000000000000000000000000000060
:10F0B000C001C001000000000001F00180018001DA
:10F0C0008001800180018001800180018001800138
:10F0D0008001CC007C00000000000000000008005F
:10F0E0000E000C000C000C000C008C038C008C003B
:10F0F0004C006C005C008C008C010C010C039E0722
:10F1000000000000000000000000000000004000BF
:10F110007C006000600060006000600060006000D3
:10F120006000600060006000600060006000FC0340
:10F1300000000000000000000000000000000000CF
:10F14000000000000000000000003707EE06660621
:10F150006606660666066606660666066606FF0FAD
:10F16000000000000000000000000000000000009F
:10F1700000000000000000000000EE011C030C0372
:10F180000C030C030C030C030C030C030C039E0771
:10F19000000000000000000000000000000000006F
:10F1A00000000000000000000000F00098010C03C7
:10F1B000060606060606060606060C030C03F00005
:10F1C000000000000000000000000000000000003F
:10F1D00000000000000000000000EE011C030C060F
:10F1E0000C060C060C060C060C060C031C03EC01AA
:10F1F0000C000C003E0000000000000000000000B9
:10F200000000000000000000000078028C030C03E6
:10F210000603060306030603060304038C037803B0
:10F2200000030003C0070000000000000000000011
:10F23000000000000000000000009F035806380690
:10F240001800180018001800180018001800FF0017
:10F2500000000000000000000000000000000000AE
:10F2600000000000000000000000F0031C030C027E
:10F270000C023800F000C003040304038C03FC01FB
:10F28000000000000000000000000000000000007E
:10F2900000002000200030003000FE01300030006F
:10F2A0003000300030003000300030023002E00129
:10F2B000000000000000000000000000000000004E
:10F2C000000000000000000008028E030C030C0385
:10F2D0000C030C030C030C030C030C039C077801B8
:10F2E000000000000000000000000000000000001E
:10F2F000000000000000000000001E070C020801D2
:10F30000080118019000B000B0006000600020000B
:10F3100000000000000000000000000000000000ED
:10F3200000000000000000000000F70E6204460428
:10F3300064026402EC029C019801980198010800A3
:10F3400000000000000000000000000000000000BD
:10F3500000000000000000000000BC0718011001C0
:10F36000B00060006000E0009000080108039E0704
:10F37000000000000000000000000000000000008D
:10F38000000000000000000000009E0708010801C6
:10F39000080190009000B000600060006000200054
:10F3A000200024001C0000000000000000000000FD
:10F3B00000000000000000000000FC018401C40007
:10F3C0004400600020003000180208020C03FC0119
:10F3D000000000000000000000000003800080002A
:10F3E00080008000800080008000800040002000BD
:10F3F000400080008000800080008000800080004D
:10F400008000000300004000400040004000400039
:10F4100040004000400040004000400040004000EC
:10F4200040004000400040004000400040004000DC
:10F43000400040004000000000000C0010001000E0
:10F4400010001000100010001000100020004000FC
:10F45000200010001000100010001000100010001C
:10F4600010000C00000000001C002204C2048003F5
:10F47000000000000000000000000000000000008C
:10F48000000000000000000000000000000000007C
:10F49000000000000000000000000000000000006C
:10F4A000000000000000000000000000000000005C
:10F4B000000000000000000000000000000000004C
:10F4C000000000003000300030003000300020002C
:10F4D000200020002000200000000000300030004C
:10F4E0000000000000000000D800D8006C002400DC
:10F4F00012000000000000000000000000000000FA
:10F5000000000000000000000000000000000000FB
:10F51000000000000000840084008400FF018400DB
:10F520008400C60042004200FF0142004200420047
:10F530000000000000000000000000002000F800B3
:10F5400024012401A401280030006000A000200153
:10F550002C0124012401F8002000200000000000FC
:10F560000000000000008600490049002900290031
:10F570001900D60028012801280124012401C20015
:10F5800000000000000000000000000000000C006F
:10F59000120012001200EA00460046002500290071
:10F5A000390011003201CC00000000000000000012
:10F5B0000600060004000200010000000000000038
:10F5C000000000000000000000000000000000003B
:10F5D000000000000000000000018000400020004A
:10F5E000200020001000100010001000100010007B
:10F5F00020002000200040008000000100000000EA
:10F6000001000200040008000800080010001000BB
:10F61000100010001000100008000800080004008E
:10F6200002000100000000000000000000000000D7
:10F63000200020002603AE0370007000AE032603F6
:10F64000200020000000000000000000000000007A
:10F65000000000000000000010001000100010006A
:10F66000FF0110001000100010000000000000005A
:10F67000000000000000000000000000000000008A
:10F68000000000000000000000000000000000007A
:10F690000000000006000600040002000100000057
:10F6A000000000000000000000000000000000005A
:10F6B000FE03000000000000000000000000000049
:10F6C000000000000000000000000000000000003A
:10F6D000000000000000000000000000000000002A
:10F6E000000000000600060000000000000000000E
:10F6F00000020001000180008000C00040006000A6
:10F700002000300010001800080008000400040069
:10F71000020000000000000000000000000078006F
:10F7200084008400020102010201020102010201BF
:10F730000201840084007800000000000000000046
:10F7400000000000000010001C001000100010005D
:10F7500010001000100010001000100010007C00BD
:10F7600000000000000000000000000000007C001D
:10F77000820002010201020180004000200010000E
:10F78000080004010201FE0100000000000000006A
:10F790000000000000003C004200820082004000A7
:10F7A00070008000000100010201020182007C0063
:10F7B00000000000000000000000000040004000C9
:10F7C0006000500048004800440042004200FE0132
:10F7D000400040004000F001000000000000000078
:10F7E000000000000000FC0104000400040004000C
:10F7F00074008C00000100010201020182007C0003
:10F800000000000000000000000000000000F00008
:10F8100008010401040002007A00860002010201CE
:10F8200002010401840078000000000000000000D4
:10F83000000000000000FE018200420040002000A5
:10F840001000100008000800080008000800080068
:10F850000000000000000000000000000000780030
:10F860008400020102010201840078008400020188
:10F870000201020184007800000000000000000086
:10F8800000000000000078008400820002010201F4
:10F8900002018401780100018000820042003C00E6
:10F8A0000000000000000000000000000000000058
:10F8B00000000000300030000000000000000000E8
:10F8C00000000000300030000000000000000000D8
:10F8D0000000000000000000000000000000100018
:10F8E0000000000000000000000000000000100008
:10F8F0001000100010000000000000008000400018
:10F90000200010000800040002000400080010009D
:10F910002000400080000000000000000000000007
:10F92000000000000000000000000000FF010000D7
:10F9300000000000FF0100000000000000000000C7
:10F9400000000000000000000000000002000400B1
:10F95000080010002000400080004000200010003F
:10F960000800040002000000000000000000000089
:10F970000000000078008400020106010601000179
:10F9800080004000200020002000000030003000F7
:10F9900000000000000000000000000000007800EF
:10F9A000C400F20159014901450125012501A500C5
:10F9B000D90002018400780000000000000000006F
:10F9C000000000000000100010002800280028009F
:10F9D0002800440044007C00440082008200C701EB
:10F9E00000000000000000000000000000003F00D8
:10F9F00042004200420022003E004200820082009B
:10FA00008200820042003F00000000000000000071
:10FA100000000000000078018401020102010100E1
:10FA200001000100010001000101020186007800CF
:10FA300000000000000000000000000000003F0087
:10FA4000C200820002010201020102010201020160
:10FA50000201820042003F000000000000000000A0
:10FA6000000000000000FF0082000201420042008E
:10FA70007E00420042000200020002018200FF00FC
:10FA80000000000000000000000000000000FF0077
:10FA900082000201420042007E0042004200020059
:10FAA0000200020002000700000000000000000049
:10FAB0000000000000007001880104010201020042
:10FAC0000200020082030201020104010C01F000A5
:10FAD0000000000000000000000000000000C7015E
:10FAE00082008200820082008200FE00820082008A
:10FAF000820082008200C7010000000000000000B8
:10FB0000000000000000FE001000100010001000B7
:10FB10001000100010001000100010001000FE0077
:10FB20000000000000000000000000000000FC01D8
:10FB300020002000200020002000200020002000C5
:10FB4000200020002000210011000E000000000015
:10FB5000000000000000E701420022002200120025
:10FB60001A00160022002200420042008200C70153
:10FB7000000000000000000000000000000007007E
:10FB80000200020002000200020002000200020065
:10FB9000020002018200FF000000000000000000DF
:10FBA000000000000000C701C600C600C600AA0091
:10FBB000AA00AA00AA00AA00920092009200D7010F
:10FBC0000000000000000000000000000000C7016D
:10FBD00086008A008A008A0092009200A200A20099
:10FBE000C200C200C2008700000000000000000048
:10FBF0000000000000003800C60082000101010181
:10FC0000010101010101010101018200C60038006A
:10FC100000000000000000000000000000007F0065
:10FC2000820002010201020182007E000200020045
:10FC300002000200020007000000000000000000B7
:10FC40000000000000003800C60082000101010130
:10FC500001010101010101011901A600A6007800BE
:10FC60004001C000000000000000000000003F0054
:10FC700042008200820042003E0012002200220068
:10FC800042004200820087010000000000000000E6
:10FC9000000000000000780184010201020002005F
:10FCA0000C007000800000010201020186007A0051
:10FCB0000000000000000000000000000000FE0046
:10FCC00011011101100010001000100010001000B0
:10FCD00010001000100038000000000000000000BC
:10FCE000000000000000C701820082008200820044
:10FCF000820082008200820082008200440038007C
:10FD00000000000000000000000000000000C7012B
:10FD1000820082004400440044004400280028007F
:10FD20002800380010001000000000000000000053
:10FD3000000000000000BB019200920092009200BF
:10FD4000AA00AA00AA006A0044004400440044003B
:10FD50000000000000000000000000000000CE01D4
:10FD600084004400480028003000100030002800C3
:10FD7000480048008400CE010000000000000000A0
:10FD8000000000000000C701820044004400280079
:10FD900028001000100010001000100010003800A3
:10FDA0000000000000000000000000000000FC0156
:10FDB0008400820040004000200010001000080075
:10FDC000080004018400FE000000000000000000A4
:10FDD000F0011000100010001000100010001000C2
:10FDE0001000100010001000100010001000100093
:10FDF000F001000000000000000002000400040008
:10FE0000080008000800100010002000200020005A
:10FE100040004000800080008000000100000000E1
:10FE20003E002000200020002000200020002000B4
:10FE300020002000200020002000200020002000C2
:10FE40003E000000000000003800280044000000D0
:10FE500000000000000000000000000000000000A2
:10FE60000000000000000000000000000000000092
:10FE70000000000000000000000000000000000082
:10FE80000000000000000000000000000000000072
:10FE900000000000FF030000180020000000000028
:10FEA0000000000000000000000000000000000052
:10FEB0000000000000000000000000000000000042
:10FEC00000000000000000000000000000007C00B6
:10FED00082008200F0008C0082008200C202BC031B
:10FEE000000000000000000000000000000003000F
:10FEF0000200020002003A004600820082008200F6
:10FF00008200820046003A0000000000000000006D
:10FF10000000000000000000000000000000780069
:10FF200084008200020002000200020184007800C6
:10FF30000000000000000000000000000000C00001
:10FF4000800080008000B800C4008200820082002F
:10FF500082008200C400B801000000000000000020
:10FF60000000000000000000000000000000780019
:10FF700084000201FE0102000200020184007800F8
:10FF80000000000000000000000000000000E00190
:10FF9000100210001000FC001000100010001000F3
:10FFA000100010001000FC00000000000000000025
:10FFB0000000000000000000000000000000F80148
:10FFC0008400840084008400780004007C008401A4
:10FFD00002010201FC00000000000000000003001C
:10FFE0000200020002007A00860082008200820085
:10FFF000820082008200C7010000000000000000B3
:020000040801F1
:1000000000000000000018001800000000001C00A4
:1000100010001000100010001000100010007C00F4
:100020000000000000000000000000000000600070
:1000300060000000000070004000400040004000F0
:100040004000400040004000400022001E00000030
:100050000000000000000300020002000200E200B5
:10006000220012000A001600220042008200C7018E
:1000700000000000000000000000000000001E0062
:1000800010001000100010001000100010001000F0
:10009000100010001000FE00000000000000000032
:1000A00000000000000000000000000000007F00D1
:1000B0009200920092009200920092009200B7018A
:1000C0000000000000000000000000000000000030
:1000D0000000000000007B00860082008200820099
:1000E000820082008200C7010000000000000000C2
:1000F0000000000000000000000000000000780088
:100100008400020102010201020102018400780060
:1001100000000000000000000000000000000000DF
:100120000000000000003B004600820082008200C8
:100130008200820046003A00020002000700000030
:100140000000000000000000000000000000B800F7
:10015000C40082008200820082008200C400B800D5
:1001600080008000C00100000000000000000000CE
:10017000000000000000CE0128011800080008005F
:100180000800080008003E00000000000000000019
:100190000000000000000000000000000000BC00A3
:1001A000C200820006003800C000820086007A008B
:1001B000000000000000000000000000000000003F
:1001C000100010001000FC001000100010001000C3
:1001D000100010009000600000000000000000000F
:1001E0000000000000000000000000000000C3004C
:1001F000820082008200820082008200C200BC0174
:1002000000000000000000000000000000000000EE
:10021000000000000000C7018200440044004400C8
:10022000280028001000100000000000000000005E
:100230000000000000000000000000000000BB0102
:10024000920092009200AA00AA00440044004400D8
:10025000000000000000000000000000000000009E
:10026000000000000000CE01840048003000300093
:10027000300048008400CE010000000000000000B3
:100280000000000000000000000000000000EE017F
:100290008400880048004800500030002000100012
:1002A000100010000C000000000000000000000022
:1002B000000000000000FE004200220020001000AC
:1002C000080084008200FE00000000000000000022
:1002D00080014000400040004000400040006000BD
:1002E000100060004000400040004000400040001E
:1002F000400080010000200020002000200020009D
:1003000020002000200020002000200020002000ED
:1003100020002000200020002000200020000000FD
:10032000060008000800080008000800080018007F
:100330002000180008000800080008000800080055
:100340000800060000001C0026022203C001000075
:10035000000000000000000000000000000000009D
:10036000000000000000000000000000000000008D
:10037000000000000000000000000000000000007D
:1003800000080808080808080000181800000048BD
:100390006C241200000000000000000000000000BB
:1003A000002424247F1212127F1212120000000077
:1003B000081C2A2A0A0C1828282A2A1C08080000C7
:1003C0000022251515152A58545454220000000007
:1003D000000C1212120A76252911916E00000006F7
:1003E00006040300000000000000000000000040C0
:1003F000201010080808080808101020400000020B
:100400000408081010101010100808040200000062
:10041000000008086B1C1C6B0808000000000000AE
:100420000000080808087F0808080800000000000D
:1004300000000000000000000000060604030000A9
:10044000000000000000FE000000000000000000AE
:100450000000000000000000000006060000000090
:100460008040402020101008080404020200000010
:100470000018244242424242424224180000000036
:1004800000080E08080808080808083E00000000D8
:10049000003C4242422020100804427E000000003E
:1004A000003C4242201820404042221C0000000034
:1004B00000203028242422227E2020780000000002
:1004C000007E0202021A26404042221C0000000068
:1004D00000382402021A264242422418000000007A
:1004E000007E2222101008080808080800000000FA
:1004F000003C4242422418244242423C0000000098
:1005000000182442424264584040241C000000006D
:10051000000000001818000000001818000000007B
:1005200000000000000800000000000808040000AF
:1005300000402010080402040810204000000000C1
:10054000000000007F0000007F00000000000000AD
:1005500000020408102040201008040200000000DF
:10056000003C4242464020101000181800000000D5
:10057000001C225A555555552D42221C00000000E2
:10058000000808181414243C224242E7000000002E
:10059000001F2222221E22424242221F000000008F
:1005A000007C4242010101010142221C00000000C6
:1005B000001F2242424242424242221F00000000EB
:1005C000003F4212121E12120242423F000000007F
:1005D000003F4212121E1212020202070000000027
:1005E000003C2222010101712122221C0000000096
:1005F00000E7424242427E42424242E7000000009F
:10060000003E0808080808080808083E0000000026
:10061000007C10101010101010101010110F00009E
:10062000007722120A0E0A1212222277000000001E
:1006300000070202020202020202427F00000000E2
:100640000077363636362A2A2A2A2A6B000000001E
:1006500000E346464A4A5252526262470000000096
:10066000001C2241414141414141221C0000000047
:10067000003F424242423E020202020700000000E6
:10068000001C2241414141414D53321C6000000099
:10069000003F4242423E1212222242C700000000A6
:1006A000007C4242020418204042423E000000000A
:1006B000007F4908080808080808081C0000000016
:1006C00000E74242424242424242423C00000000B5
:1006D00000E74242222424141418080800000000F5
:1006E000006B494949495555362222220000000035
:1006F00000E7422424181818242442E700000000D0
:1007000000772222141408080808081C00000000C2
:10071000007E2120101008040442423F00000078AF
:1007200008080808080808080808080878000000F1
:100730000202040408080810102020204040001E77
:100740001010101010101010101010101E00003893
:100750004400000000000000000000000000000055
:1007600000000000000000000000000000FF000684
:100770000800000000000000000000000000000071
:1007800000000000003C4278444242FC00000000AF
:1007900000030202021A26424242261A000000000A
:1007A000000000000038440202024438000000004B
:1007B0000060404040784442424264D8000000005B
:1007C00000000000003C427E0202423C00000000AB
:1007D00000F08808087E08080808083E00000000AD
:1007E00000000000007C22221C023C42423C00002F
:1007F00000030202023A4642424242E70000000081
:10080000000C0C00000E08080808083E000000005C
:10081000003030000038202020202020221E000040
:10082000000302020272120A161222770000000070
:10083000000E0808080808080808083E0000000024
:1008400000000000007F9292929292B70000000098
:1008500000000000003B4642424242E70000000028
:1008600000000000003C42424242423C00000000C6
:1008700000000000001B26424242221E0207000028
:1008800000000000007844424242447840E000000A
:100890000000000000774C040404041F0000000066
:1008A00000000000007C42023C40423E000000008C
:1008B00000000008083E0808080808300000000092
:1008C0000000000000634242424262DC000000007F
:1008D0000000000000E74224241408080000000083
:1008E0000000000000EB494955552222000000009D
:1008F00000000000007624181818246E0000000084
:100900000000000000E74224241418080807000033
:1009100000000000007E22100808447E000000C095
:10092000202020202010202020202020C000101077
:1009300010101010101010101010101010100006D1
:1009400008080808081008080808080806000C32FB
:10095000C2000000000000000000000000000000D5
:100960000000000000000000000000000404040477
:1009700004040004000000140A0A00000000000043
:100980000000000014143F140A3F0A0A000000048B
:100990001E1505060C14150F0400000012150D0A93
:1009A000142C2A1200000000040A0A1E151509362C
:1009B0000000000202010000000000000000002012
:1009C0001008080808080810200000020408080899
:1009D00008080804020000000004150E0E150400AB
:1009E000000000000404041F0404040000000000D0
:1009F0000000000000000002020100000000001FD3
:100A000000000000000000000000000000000002E4
:100A1000000000100808080404020202010000009F
:100A20000E1111111111110E000000000406040432
:100A30000404040E000000000E1111080402011F3E
:100A4000000000000E11100C1010110E000000002C
:100A5000080C0A0A091E0818000000001F01010FF7
:100A60001010110E000000000E09010F1111110EDF
:100A7000000000001F090804040404040000000032
:100A80000E11110E1111110E000000000E111111A6
:100A90001E10120E00000000000004000000000400
:100AA000000000000000000400000004040000201A
:100AB00010080402040810200000000000001F00BD
:100AC000001F0000000000020408102010080402AB
:100AD000000000000E1111080404000400000000D2
:100AE0000E111915151D011E0000000004040C0A4A
:100AF0000A1E1233000000000F12120E1212120F03
:100B0000000000001E1101010101110E0000000093
:100B10000F1212121212120F000000001F120A0E02
:100B20000A02121F000000001F120A0E0A0202072A
:100B3000000000001C1201013911120C000000001D
:100B40003312121E12121233000000001F0404049C
:100B50000404041F000000003E08080808080809F3
:100B60000700000037120A060A0A123700000000C8
:100B7000070202020202223F000000001B1B1B1B97
:100B800015151515000000003B1216161A1A12173B
:100B9000000000000E1111111111110E00000000D3
:100BA0000F12120E02020207000000000E111111B6
:100BB0001117190E180000000F12120E0A12123728
:100BC000000000001E1101060810110F00000000B7
:100BD0001F1504040404040E000000003312121256
:100BE0001212120C000000003312120A0A0C040444
:100BF000000000001515150E0A0A0A0A0000000080
:100C00001B0A0A04040A0A1B000000001B0A0A044B
:100C10000404040E000000001F0908040402121F4F
:100C20000000001C04040404040404041C0000026A
:100C300002020404080808100000000E0808080852
:100C4000080808080E0000040A0000000000000068
:100C5000000000000000000000000000003F000451
:100C60000000000000000000000000000000000C78
:100C7000121C123C000000000302020E1212120E9F
:100C8000000000000000001C1202021C0000000016
:100C90001810101C1212123C000000000000000C82
:100CA000121E021C000000003804041E0404041E6E
:100CB000000000000000003C120C021E221C00007C
:100CC0000302020E12121237000000000400000698
:100CD0000404040E000000000800000C08080808C6
:100CE000080700000302023A0A0E12370000000053
:100CF000070404040404041F000000000000000FA7
:100D000015151515000000000000000F1212123713
:100D1000000000000000000C1212120C0000000085
:100D20000000000F1212120E020700000000001C4B
:100D30001212121C103800000000001B06020207ED
:100D4000000000000000001E020C101E0000000049
:100D50000004040E04040418000000000000001B3E
:100D60001212123C0000000000000037120A0C04AE
:100D70000000000000000015150E0A0A0000000027
:100D80000000001B0A040A1B0000000000000037DE
:100D9000120A0C04040300000000001E0804041ED4
:100DA00000000018080808040808080818000808C7
:100DB00008080808080808080808000604040408C9
:100DC00004040404060002251800000000000000CE
:100DD0000000000000000000000000000000000013
:100DE0000000000000000000000000000000000003
:100DF00000000000000000000000000000000000F3
:100E000000000000000000000000000000000000E2
:100E100000000000000000000000000000000000D2
:100E200000000000000000000000000000000000C2
:100E300000000000000000000000000000000000B2
:100E400000000000000000000000000000000000A2
:100E50000000000000000000000000000000000092
:100E60000000000000000000000000000000000082
:100E70000000000000000000000000000000000072
:100E80000000000000000000000000000000000062
:100E90000000000000000000000000000000000052
:100EA0000000000000000000000000000000000042
:100EB0000000000000000000000000000000000032
:100EC0000000000000000000000000000000000022
:100ED0000000000000000000000000000000000012
:100EE0000000000000000000000000000000000002
:100EF00000000000000000000000000000000000F2
:100F000000000000000000000000000000000000E1
:100F100000000000000000000000000000000000D1
:100F200000000000000000000000000000000000C1
:100F300000000000000000000000000000000000B1
:100F400000000000000000000000000000000000A1
:100F50000000000000000000000000000000000091
:100F60000000000000000000000000000000000081
:100F70000000000000000000000000000000000071
:100F80000000000000000000000000000000000061
:100F90000000000000000000000000000000000051
:100FA0000000000000000000000000000000000041
:100FB0000000000000000000000000000000000031
:100FC0000000000000000000000000000000000021
:100FD0000000FEFFFFFFFF00FCFFFF3F0000E0FFFF
:100FE0001FF801F8FFFF83FFFFFFFF3F0000000035
:100FF000FEFFFFFFFF00FCFFFF3F0000E0FF3FF8A8
:1010000001F8FFFF83FFFFFFFF3F00000000FEFF2E
:10101000FFFFFF00FCFFFF3F0000E0FF1FF801F8AB
:10102000FFFF83FFFFFFFF3F00000000FEFFFFFF09
:10103000FF00FCFFFF3F0000E0FF1FF801F8FFFF8B
:1010400083FFFFFFFF3F00000000FEFFFFFFFF00E8
:10105000FCFFFF3F0000E0FF1FF801F8FFFF83FFE8
:10106000FFFFFF3F00000000FEFFFFFFFF00FCFF4F
:10107000FF3F0000E0FF1FF800F0FFFF83FFFFFFCE
:10108000FF3F000000007E000000FCE0033F003E48
:10109000F0FFE0FF1F0000007EE0831F0000003F24
:1010A000000000007E000000FCE0033F003EF0FF77
:1010B000E0FF1F0000007EE0831F0000003F0000F3
:1010C00000007E000000FCE0033F003EF0FFE0FF78
:1010D0001F0000007EE0831F0000003F00000000B2
:1010E0007E000000FCE0033F003EF0FFE0FF1F0039
:1010F00000007EE0831F0000003F000000007E0033
:101100000000FCE0033F003EF0FFE0FF1F00000096
:101110007EE0831F0000003F000000007EF0FF0F14
:10112000FC00FC00F0C1FFFF000000F8C10700E078
:10113000831FF8FF073F000000007EF0FF1FFC0048
:10114000FC00F0C1FFFF000000F8C10700E0831FB2
:10115000FCFF073F000000007EF0FF0FFC00FC00DA
:10116000F0C1FFFF000000F8C10700E0831FF8FF97
:10117000073F000000007EF0FF0FFC00FC00F0C104
:10118000FFFF000000F8C10700E0831FF8FF073FE2
:10119000000000007EF0FF0FFC00FC00F0C1FFFF2C
:1011A000000000F8C10700E0831FF8FF073F0000C0
:1011B00000007EF0FF0FFC00001FF0C10FFE0000DA
:1011C000FF0700F8FF1F801FF8FF073F0000000027
:1011D0007EF0FF0FFC00003FF0C10FFC0080FF0716
:1011E00000F8FF1F801FF8FF073F000000007EF09F
:1011F000FF0FFC00003FF0C10FFC0080FF0700F86C
:10120000FF1F801FF8FF073F000000007EF0FF0F68
:10121000FC00003FF0C10FFC0080FF0700F8FF1F3B
:10122000801FF8FF073F000000007EF0FF0FFC006A
:10123000003FF0C10FFC0080FF0700F8FF1F801F78
:10124000F8FF073F000000007EF0FF0FFC00003FAA
:10125000F0C10FFC0080FF0700F8FF1F801FF8FFA0
:10126000073F000000007EF0FF0FFC00F83FF0C1D8
:101270000FFC1F7CE007FEFFC3FF831FF8FF073F43
:10128000000000007EF0FF0FFC00FC3FF0C10FFCEF
:101290001F7CE007FEFF81FF831FF8FF073F000070
:1012A00000007EF0FF1FFC00FC3FF0C10FFC1F7C24
:1012B000E007FEFF81FF831FF8FF073F00000000EB
:1012C0007EF0FF1FFC00FC3FF0C10FFE1F7CE0071B
:1012D000FEFF81FF831FFCFF073F000000007EF040
:1012E000FF0FFC00FC3FF0C10FFC1F7CE007FEFF7E
:1012F00081FF831FF8FF073F000000007E8000048D
:10130000FCC00700A00005D81FFC3FFCE10F7EF8E1
:10131000831F7000023F000000007E000000FCE020
:101320000300000000001FFC1FF8C1077EE0831FC0
:101330000000003F000000007E000000FCE0030011
:10134000000000001FFC1FF8C1077EE0831F0000A3
:10135000003F000000007E000000FCE003000000F1
:1013600000001FFC1FF8C1077EE0831F0000003F44
:10137000000000007E000000FCE003000000000010
:101380001FFC1FF8C1077EE0831F0000003F000024
:1013900000007E000000FEE00300000000001FFCD3
:1013A0001FF8C1077EE0833F0000003F00000000FF
:1013B000FEFFFFFFFFE0033FF0C10FFCE0831FF8DB
:1013C000C1077EE083FFFFFFFF3F00000000FEFF3C
:1013D000FFFFFFE0033FF0C10FFEE0831FF8C107EE
:1013E0007EE083FFFFFFFF3F00000000FEFFFFFFE6
:1013F000FFE0033FF0C10FFCE0831FF8C1077EE070
:1014000083FFFFFFFF3F00000000FEFFFFFFFFE044
:10141000033FF0C10FFCE0831FF8C1077EE083FFAC
:10142000FFFFFF3F00000000FEFFFFFFFFE0033F64
:10143000F0C10FFCE0831FF8C1077EE083FFFFFFD0
:10144000FF3F00000000FEFFFFFFFFE0033FF0C191
:101450000FFEE0031FF8C1073CE083FFFFFFFF3FE3
:10146000000000000000000000E003FFFFC1FFFFDC
:10147000FF03E007FE07000000000000000000007E
:1014800000000000000000E003FFFFC1FFFFFF03BA
:10149000E007FE0700000000000000000000000060
:1014A0000000000000E003FFFFC1FFFFFF03E007B3
:1014B000FE07000000000000000000000000000027
:1014C000000000E003FFFFC1FFFFFF03E007FE078E
:1014D000000000000000000000000000000000000C
:1014E00000E003FFFFC1FFFFFF03E007FE0700006E
:1014F00000000000000000000000000080FFFF1F4F
:1015000000FFFF3F00FEE0831FF83FF881FF83FFED
:101510000300F80000000000000080FFFF1F00FF34
:10152000FF3F00FCE0831FF83FF881FF83FF0700C7
:10153000F80000000000000080FFFF1F00FFFF3FD9
:1015400000FCE0831FF83FF881FF83FF0700F800ED
:1015500000000000000080FFFF1F00FFFF3F00FCB5
:10156000E0831FF83FF881FF83FF0700F8000000C9
:101570000000000080FFFF1F00FFFF3F00FCE08332
:101580001FF83FF881FF83FF0700F800000000000C
:10159000FE0F7EF003E003FFFFC1FF03E07F0000CA
:1015A0003FF8811F0000F83F000000000000FE0F20
:1015B0007EF003E003FFFFC1FF03E07F00003EF881
:1015C000811F0000F83F000000000000FE0F7EF0C9
:1015D00003E003FFFFC1FF03E07F00003EF8811F2F
:1015E0000000F83F000000000000FE0F7EF003E066
:1015F00003FFFFC1FF03E07F00003EF8811F0000F2
:10160000F83F000000000000FE0F7EF003E003FF43
:10161000FFC1FF03E07F00003EF8811F0000F83F9C
:10162000000000000000FE0F7EE003E003FFFFC1AA
:10163000FF03E07F00003EF8811F0000F83F00003C
:101640000000000000000000FC1F00E00FFE1F0073
:101650001F7CC0FF01F8FF1F7C00F83FF80000006E
:10166000000000000000FC1F00C00FFE0F001F7CE8
:10167000E0FF01F8FF1F7C00FC3FF80000000000C5
:1016800000000000FC1F00C00FFE0F001F7CE0FFE9
:1016900001F8FF1F7C00F83FF80000000000000088
:1016A0000000FC1F00C00FFE0F001F7CE0FF01F8D0
:1016B000FF1F7C00F83FF800000000000000000061
:1016C000FC1F00C00FFE0F001F7CE0FF01F8FF1F92
:1016D0007C00F83FF8000000000000000000FC1F44
:1016E00000C00FFE0F001FFCE0FF00F0FF1F7C009A
:1016F000FC3FF801000000007E00FEFF0300FCC07C
:101700000F3EF0FFE0FF1F000000FEFF7FE003FF41
:10171000FF3F000000007E00FEFF0300FCC00F3E04
:10172000F0FFE0FF1F000000FEFF7FE007FFFF3F2C
:10173000000000007E00FEFF0300FCC00F3EF0FF33
:10174000E0FF1F000000FEFF7FE007FFFF3F0000FB
:1017500000007E00FEFF0300FCC00F3EF0FFE0FF34
:101760001F000000FEFF7FE007FFFF3F00000000BA
:101770007E00FEFF0300FCC00F3EF0FFE0FF1F00F5
:101780000000FEFF7FE007FFFF3F000000007E003B
:10179000FEFF0300FCC00F3EF07FE0FF1F000000D3
:1017A000FCFF7FE007FFFF3F000000007EF0811F8D
:1017B000FCE00300F001F003E0FF1F003E0080FFAB
:1017C00083FF07FF073F000000007EF0810FFCE071
:1017D0000300F001F003E0FF1F003E0080FF83FFE5
:1017E00007FF073F000000007EF0811FFCE00300C0
:1017F000F001F003E0FF1F003E0080FF83FF07FFC2
:10180000073F000000007EF0811FFCE00300F001B4
:10181000F003E0FF1F003E0080FF83FF07FF073F4C
:10182000000000007EF0810FFCE00300F001F001F9
:10183000E0FF3F003E0080FF83FF07FF073F0000FF
:101840000000800F000000FFFF3FF001000000805B
:10185000FFFF3F007EE07F00FCC0070000000000AB
:10186000800F000000FFFF3FF00100000080FFFF3D
:101870003F007EE07F00FCC0070000000000800FFA
:10188000000000FFFF3FF00100000080FFFF3F006D
:101890007EE07F00F8C0070000000000800F00001D
:1018A00000FFFF3FF0010000000000F03F007EE07D
:1018B0007F00F8C0070000000000800F000000FF5C
:1018C000FF3FF0010000000000803F007EE07F004D
:1018D000F8C007000000000000007EE0FFFF033FAB
:1018E0000000000000000000C0FFFFFF7F00F8FFC5
:1018F00007000000000000007EF0FFFF033F000033
:10190000000000000000C0FFFFFF7F00F8FF07009D
:101910000000000000007EF0FFFF033F0000000019
:1019200000000000C0FFFFFF7F00F8FF070000007D
:10193000000000007EF0FFFF033F000000000000F9
:101940000000C0FFFFFF7F00F8FF0700000000005D
:1019500000007EE0FFFF033F0000000000000000E9
:10196000C0FFFFFF7F00F8FF07000000000000003D
:101970007EF0FFFF033F0000000000000000C0FFFA
:10198000FFFF7F00F8FF070000000000FE0F7EF061
:10199000031FFC3FF00F0000000000000000FE1FCE
:1019A0000000F8C0FF0000000000FE0F7EF0031FE3
:1019B000FC3FF00F0000000000000000FE1F0000D0
:1019C000F8C0FF0000000000FE0F7EF0031FFC3F88
:1019D000F00F0000000000000000FE1F0000F8C033
:1019E000FF0000000000FE0F7EF0031FFC3FF00F21
:1019F0000000000000000000FE1F0000F8C0FF0013
:101A000000000000FE0F7EF0031FFC3FF00F0000FF
:101A1000000000000000FE1F0000F8C0FF000000F2
:101A20000000FE0FFEF0071FFC3FF00F0000000457
:101A300000000000FC0F0008F8E0FF0000000000BC
:101A4000800FFEFFFFE0FF3FF0010000101E0000CE
:101A5000C0070000FC1F00FF070000000000800F0F
:101A6000FEFFFFE0FF3FF001000030180000C0075C
:101A70000000FC1F00FF070000000000800FFEFFB9
:101A8000FFE0FF3FF001000018000000C007000069
:101A9000FC1F00FF070000000000800FFEFFFFE0BA
:101AA000FF3FF00100007C800100C0070000FC1F28
:101AB00000FF070000000000800FFEFFFFE0FF3F77
:101AC000F0010000EC980100C0070000FC1F00FFBF
:101AD000070000000000C00FFEFF7FE0FF3FF001A5
:101AE0000060C41C0000C0070000FC1F00FF0700CE
:101AF00000000000FE0FFE1F00E0FFC00F000060AE
:101B0000001C00000000FEFF7F00F8C0070000007E
:101B10000000FE0FFE0F00E0FFC00F0000F0003ECF
:101B200000000000FEFF7F00FCC007000000000076
:101B3000FE0FFE0F00E0FFC00F0000F0016000008C
:101B40000000FEFF7F00F8C0070000000000FE0F4D
:101B5000FE0F00E0FFC00F00009011000400000025
:101B6000FEFF7F00F8C0070000000000FE0FFE1F10
:101B700000E0FFC00F000000180006000000FEFF9C
:101B80007F00F8C0070000000000FE0FFEFFFF1FEF
:101B9000003FF00F00007C000000F8FF81FF831F72
:101BA000F8C0070000000000FE0FFEFFFF1F003F0F
:101BB000F00F0020C4300000F8FF81FF831FFCC03D
:101BC000070000000000FE0FFEFFFF1F003FF00FA8
:101BD000002000300000F8FF81FF831FF8C00700DD
:101BE00000000000FE0FFEFFFF1F003FF00F00305F
:101BF00000180000F8FF81FF831FF8C007000000F5
